{
  "_format": "hh-sol-artifact-1",
  "contractName": "HoldrArtistsERC1155UpgradeTest",
  "sourceName": "contracts/HoldrArtistsERC1155UpgradeTest.sol",
  "abi": [
    {
      "inputs": [
        {
          "internalType": "address",
          "name": "target",
          "type": "address"
        }
      ],
      "name": "AddressEmptyCode",
      "type": "error"
    },
    {
      "inputs": [
        {
          "internalType": "address",
          "name": "sender",
          "type": "address"
        },
        {
          "internalType": "uint256",
          "name": "balance",
          "type": "uint256"
        },
        {
          "internalType": "uint256",
          "name": "needed",
          "type": "uint256"
        },
        {
          "internalType": "uint256",
          "name": "tokenId",
          "type": "uint256"
        }
      ],
      "name": "ERC1155InsufficientBalance",
      "type": "error"
    },
    {
      "inputs": [
        {
          "internalType": "address",
          "name": "approver",
          "type": "address"
        }
      ],
      "name": "ERC1155InvalidApprover",
      "type": "error"
    },
    {
      "inputs": [
        {
          "internalType": "uint256",
          "name": "idsLength",
          "type": "uint256"
        },
        {
          "internalType": "uint256",
          "name": "valuesLength",
          "type": "uint256"
        }
      ],
      "name": "ERC1155InvalidArrayLength",
      "type": "error"
    },
    {
      "inputs": [
        {
          "internalType": "address",
          "name": "operator",
          "type": "address"
        }
      ],
      "name": "ERC1155InvalidOperator",
      "type": "error"
    },
    {
      "inputs": [
        {
          "internalType": "address",
          "name": "receiver",
          "type": "address"
        }
      ],
      "name": "ERC1155InvalidReceiver",
      "type": "error"
    },
    {
      "inputs": [
        {
          "internalType": "address",
          "name": "sender",
          "type": "address"
        }
      ],
      "name": "ERC1155InvalidSender",
      "type": "error"
    },
    {
      "inputs": [
        {
          "internalType": "address",
          "name": "operator",
          "type": "address"
        },
        {
          "internalType": "address",
          "name": "owner",
          "type": "address"
        }
      ],
      "name": "ERC1155MissingApprovalForAll",
      "type": "error"
    },
    {
      "inputs": [
        {
          "internalType": "address",
          "name": "implementation",
          "type": "address"
        }
      ],
      "name": "ERC1967InvalidImplementation",
      "type": "error"
    },
    {
      "inputs": [],
      "name": "ERC1967NonPayable",
      "type": "error"
    },
    {
      "inputs": [],
      "name": "FailedInnerCall",
      "type": "error"
    },
    {
      "inputs": [],
      "name": "InvalidInitialization",
      "type": "error"
    },
    {
      "inputs": [],
      "name": "NotInitializing",
      "type": "error"
    },
    {
      "inputs": [
        {
          "internalType": "address",
          "name": "owner",
          "type": "address"
        }
      ],
      "name": "OwnableInvalidOwner",
      "type": "error"
    },
    {
      "inputs": [
        {
          "internalType": "address",
          "name": "account",
          "type": "address"
        }
      ],
      "name": "OwnableUnauthorizedAccount",
      "type": "error"
    },
    {
      "inputs": [],
      "name": "UUPSUnauthorizedCallContext",
      "type": "error"
    },
    {
      "inputs": [
        {
          "internalType": "bytes32",
          "name": "slot",
          "type": "bytes32"
        }
      ],
      "name": "UUPSUnsupportedProxiableUUID",
      "type": "error"
    },
    {
      "anonymous": false,
      "inputs": [
        {
          "indexed": true,
          "internalType": "address",
          "name": "account",
          "type": "address"
        },
        {
          "indexed": true,
          "internalType": "address",
          "name": "operator",
          "type": "address"
        },
        {
          "indexed": false,
          "internalType": "bool",
          "name": "approved",
          "type": "bool"
        }
      ],
      "name": "ApprovalForAll",
      "type": "event"
    },
    {
      "anonymous": false,
      "inputs": [
        {
          "indexed": false,
          "internalType": "uint64",
          "name": "version",
          "type": "uint64"
        }
      ],
      "name": "Initialized",
      "type": "event"
    },
    {
      "anonymous": false,
      "inputs": [
        {
          "indexed": true,
          "internalType": "address",
          "name": "previousOwner",
          "type": "address"
        },
        {
          "indexed": true,
          "internalType": "address",
          "name": "newOwner",
          "type": "address"
        }
      ],
      "name": "OwnershipTransferred",
      "type": "event"
    },
    {
      "anonymous": false,
      "inputs": [
        {
          "indexed": true,
          "internalType": "address",
          "name": "operator",
          "type": "address"
        },
        {
          "indexed": true,
          "internalType": "address",
          "name": "from",
          "type": "address"
        },
        {
          "indexed": true,
          "internalType": "address",
          "name": "to",
          "type": "address"
        },
        {
          "indexed": false,
          "internalType": "uint256[]",
          "name": "ids",
          "type": "uint256[]"
        },
        {
          "indexed": false,
          "internalType": "uint256[]",
          "name": "values",
          "type": "uint256[]"
        }
      ],
      "name": "TransferBatch",
      "type": "event"
    },
    {
      "anonymous": false,
      "inputs": [
        {
          "indexed": true,
          "internalType": "address",
          "name": "operator",
          "type": "address"
        },
        {
          "indexed": true,
          "internalType": "address",
          "name": "from",
          "type": "address"
        },
        {
          "indexed": true,
          "internalType": "address",
          "name": "to",
          "type": "address"
        },
        {
          "indexed": false,
          "internalType": "uint256",
          "name": "id",
          "type": "uint256"
        },
        {
          "indexed": false,
          "internalType": "uint256",
          "name": "value",
          "type": "uint256"
        }
      ],
      "name": "TransferSingle",
      "type": "event"
    },
    {
      "anonymous": false,
      "inputs": [
        {
          "indexed": false,
          "internalType": "string",
          "name": "value",
          "type": "string"
        },
        {
          "indexed": true,
          "internalType": "uint256",
          "name": "id",
          "type": "uint256"
        }
      ],
      "name": "URI",
      "type": "event"
    },
    {
      "anonymous": false,
      "inputs": [
        {
          "indexed": true,
          "internalType": "address",
          "name": "implementation",
          "type": "address"
        }
      ],
      "name": "Upgraded",
      "type": "event"
    },
    {
      "inputs": [],
      "name": "UPGRADE_INTERFACE_VERSION",
      "outputs": [
        {
          "internalType": "string",
          "name": "",
          "type": "string"
        }
      ],
      "stateMutability": "view",
      "type": "function"
    },
    {
      "inputs": [
        {
          "internalType": "address",
          "name": "adminAddress",
          "type": "address"
        }
      ],
      "name": "addAdmin",
      "outputs": [],
      "stateMutability": "nonpayable",
      "type": "function"
    },
    {
      "inputs": [
        {
          "internalType": "address",
          "name": "from",
          "type": "address"
        },
        {
          "internalType": "uint256",
          "name": "tokenId",
          "type": "uint256"
        }
      ],
      "name": "adminBurn",
      "outputs": [],
      "stateMutability": "nonpayable",
      "type": "function"
    },
    {
      "inputs": [
        {
          "internalType": "address[]",
          "name": "from",
          "type": "address[]"
        },
        {
          "internalType": "uint256[]",
          "name": "tokenIds",
          "type": "uint256[]"
        }
      ],
      "name": "adminBurnBatch",
      "outputs": [],
      "stateMutability": "nonpayable",
      "type": "function"
    },
    {
      "inputs": [
        {
          "internalType": "uint256",
          "name": "tokenId",
          "type": "uint256"
        },
        {
          "internalType": "uint256",
          "name": "count",
          "type": "uint256"
        }
      ],
      "name": "adminMint",
      "outputs": [],
      "stateMutability": "nonpayable",
      "type": "function"
    },
    {
      "inputs": [
        {
          "internalType": "address",
          "name": "",
          "type": "address"
        }
      ],
      "name": "admins",
      "outputs": [
        {
          "internalType": "bool",
          "name": "",
          "type": "bool"
        }
      ],
      "stateMutability": "view",
      "type": "function"
    },
    {
      "inputs": [
        {
          "internalType": "uint256",
          "name": "",
          "type": "uint256"
        }
      ],
      "name": "artistAddresses",
      "outputs": [
        {
          "internalType": "address",
          "name": "",
          "type": "address"
        }
      ],
      "stateMutability": "view",
      "type": "function"
    },
    {
      "inputs": [
        {
          "internalType": "address",
          "name": "account",
          "type": "address"
        },
        {
          "internalType": "uint256",
          "name": "id",
          "type": "uint256"
        }
      ],
      "name": "balanceOf",
      "outputs": [
        {
          "internalType": "uint256",
          "name": "",
          "type": "uint256"
        }
      ],
      "stateMutability": "view",
      "type": "function"
    },
    {
      "inputs": [
        {
          "internalType": "address[]",
          "name": "accounts",
          "type": "address[]"
        },
        {
          "internalType": "uint256[]",
          "name": "ids",
          "type": "uint256[]"
        }
      ],
      "name": "balanceOfBatch",
      "outputs": [
        {
          "internalType": "uint256[]",
          "name": "",
          "type": "uint256[]"
        }
      ],
      "stateMutability": "view",
      "type": "function"
    },
    {
      "inputs": [
        {
          "internalType": "uint256",
          "name": "id",
          "type": "uint256"
        }
      ],
      "name": "exists",
      "outputs": [
        {
          "internalType": "bool",
          "name": "",
          "type": "bool"
        }
      ],
      "stateMutability": "view",
      "type": "function"
    },
    {
      "inputs": [
        {
          "internalType": "uint256",
          "name": "tokenId",
          "type": "uint256"
        },
        {
          "internalType": "uint256",
          "name": "extraSupply",
          "type": "uint256"
        }
      ],
      "name": "increaseTokenSupplyLimit",
      "outputs": [],
      "stateMutability": "nonpayable",
      "type": "function"
    },
    {
      "inputs": [
        {
          "internalType": "address",
          "name": "initialOwner",
          "type": "address"
        },
        {
          "internalType": "address[]",
          "name": "initialAdmins",
          "type": "address[]"
        },
        {
          "internalType": "string",
          "name": "uri",
          "type": "string"
        }
      ],
      "name": "init",
      "outputs": [],
      "stateMutability": "nonpayable",
      "type": "function"
    },
    {
      "inputs": [
        {
          "internalType": "address",
          "name": "adminAddress",
          "type": "address"
        }
      ],
      "name": "isAdmin",
      "outputs": [
        {
          "internalType": "bool",
          "name": "",
          "type": "bool"
        }
      ],
      "stateMutability": "view",
      "type": "function"
    },
    {
      "inputs": [
        {
          "internalType": "address",
          "name": "owner",
          "type": "address"
        },
        {
          "internalType": "address",
          "name": "operator",
          "type": "address"
        }
      ],
      "name": "isApprovedForAll",
      "outputs": [
        {
          "internalType": "bool",
          "name": "",
          "type": "bool"
        }
      ],
      "stateMutability": "view",
      "type": "function"
    },
    {
      "inputs": [
        {
          "internalType": "uint256",
          "name": "tokenId",
          "type": "uint256"
        },
        {
          "internalType": "uint256",
          "name": "count",
          "type": "uint256"
        }
      ],
      "name": "mint",
      "outputs": [],
      "stateMutability": "nonpayable",
      "type": "function"
    },
    {
      "inputs": [],
      "name": "owner",
      "outputs": [
        {
          "internalType": "address",
          "name": "",
          "type": "address"
        }
      ],
      "stateMutability": "view",
      "type": "function"
    },
    {
      "inputs": [],
      "name": "proxiableUUID",
      "outputs": [
        {
          "internalType": "bytes32",
          "name": "",
          "type": "bytes32"
        }
      ],
      "stateMutability": "view",
      "type": "function"
    },
    {
      "inputs": [
        {
          "internalType": "address",
          "name": "adminAddress",
          "type": "address"
        }
      ],
      "name": "removeAdmin",
      "outputs": [],
      "stateMutability": "nonpayable",
      "type": "function"
    },
    {
      "inputs": [],
      "name": "renounceOwnership",
      "outputs": [],
      "stateMutability": "nonpayable",
      "type": "function"
    },
    {
      "inputs": [
        {
          "internalType": "address",
          "name": "from",
          "type": "address"
        },
        {
          "internalType": "address",
          "name": "to",
          "type": "address"
        },
        {
          "internalType": "uint256[]",
          "name": "ids",
          "type": "uint256[]"
        },
        {
          "internalType": "uint256[]",
          "name": "amounts",
          "type": "uint256[]"
        },
        {
          "internalType": "bytes",
          "name": "data",
          "type": "bytes"
        }
      ],
      "name": "safeBatchTransferFrom",
      "outputs": [],
      "stateMutability": "nonpayable",
      "type": "function"
    },
    {
      "inputs": [
        {
          "internalType": "address",
          "name": "from",
          "type": "address"
        },
        {
          "internalType": "address",
          "name": "to",
          "type": "address"
        },
        {
          "internalType": "uint256",
          "name": "tokenId",
          "type": "uint256"
        },
        {
          "internalType": "uint256",
          "name": "amount",
          "type": "uint256"
        },
        {
          "internalType": "bytes",
          "name": "data",
          "type": "bytes"
        }
      ],
      "name": "safeTransferFrom",
      "outputs": [],
      "stateMutability": "nonpayable",
      "type": "function"
    },
    {
      "inputs": [
        {
          "internalType": "address",
          "name": "operator",
          "type": "address"
        },
        {
          "internalType": "bool",
          "name": "approved",
          "type": "bool"
        }
      ],
      "name": "setApprovalForAll",
      "outputs": [],
      "stateMutability": "nonpayable",
      "type": "function"
    },
    {
      "inputs": [
        {
          "internalType": "uint256",
          "name": "tokenId",
          "type": "uint256"
        },
        {
          "internalType": "address",
          "name": "artistAddress",
          "type": "address"
        }
      ],
      "name": "setArtistAddress",
      "outputs": [],
      "stateMutability": "nonpayable",
      "type": "function"
    },
    {
      "inputs": [
        {
          "internalType": "string",
          "name": "uri",
          "type": "string"
        }
      ],
      "name": "setURI",
      "outputs": [],
      "stateMutability": "nonpayable",
      "type": "function"
    },
    {
      "inputs": [
        {
          "internalType": "bytes4",
          "name": "interfaceId",
          "type": "bytes4"
        }
      ],
      "name": "supportsInterface",
      "outputs": [
        {
          "internalType": "bool",
          "name": "",
          "type": "bool"
        }
      ],
      "stateMutability": "view",
      "type": "function"
    },
    {
      "inputs": [
        {
          "internalType": "uint256",
          "name": "",
          "type": "uint256"
        }
      ],
      "name": "tokenSupplyLimits",
      "outputs": [
        {
          "internalType": "uint256",
          "name": "",
          "type": "uint256"
        }
      ],
      "stateMutability": "view",
      "type": "function"
    },
    {
      "inputs": [],
      "name": "totalSupply",
      "outputs": [
        {
          "internalType": "uint256",
          "name": "",
          "type": "uint256"
        }
      ],
      "stateMutability": "view",
      "type": "function"
    },
    {
      "inputs": [
        {
          "internalType": "uint256",
          "name": "id",
          "type": "uint256"
        }
      ],
      "name": "totalSupply",
      "outputs": [
        {
          "internalType": "uint256",
          "name": "",
          "type": "uint256"
        }
      ],
      "stateMutability": "view",
      "type": "function"
    },
    {
      "inputs": [
        {
          "internalType": "address",
          "name": "newOwner",
          "type": "address"
        }
      ],
      "name": "transferOwnership",
      "outputs": [],
      "stateMutability": "nonpayable",
      "type": "function"
    },
    {
      "inputs": [
        {
          "internalType": "address",
          "name": "newImplementation",
          "type": "address"
        },
        {
          "internalType": "bytes",
          "name": "data",
          "type": "bytes"
        }
      ],
      "name": "upgradeToAndCall",
      "outputs": [],
      "stateMutability": "payable",
      "type": "function"
    },
    {
      "inputs": [
        {
          "internalType": "uint256",
          "name": "",
          "type": "uint256"
        }
      ],
      "name": "uri",
      "outputs": [
        {
          "internalType": "string",
          "name": "",
          "type": "string"
        }
      ],
      "stateMutability": "view",
      "type": "function"
    }
  ],
  "bytecode": "0x60a06040523073ffffffffffffffffffffffffffffffffffffffff1660809073ffffffffffffffffffffffffffffffffffffffff1681525034801561004357600080fd5b506080516148d361006d60003960008181611b8701528181611bdc0152611d9701526148d36000f3fe6080604052600436106101d75760003560e01c806352d1902d11610102578063bb62550911610095578063e985e9c511610064578063e985e9c5146106cc578063f242432a14610709578063f2fde38b14610732578063fbe0a8921461075b576101d7565b8063bb62550914610614578063bd85b0391461063d578063c36497e51461067a578063d00e40ce146106a3576101d7565b80638da5cb5b116100d15780638da5cb5b1461056c5780639eca4b7b14610597578063a22cb465146105c0578063ad3cb1cc146105e9576101d7565b806352d1902d146104c457806370480275146104ef578063715018a614610518578063831ffd051461052f576101d7565b806318160ddd1161017a578063429b62e511610149578063429b62e5146103f15780634e1273f41461042e5780634f1ef2861461046b5780634f558e7914610487576101d7565b806318160ddd146103375780631b2ef1ca1461036257806324d7806c1461038b5780632eb2c2d6146103c8576101d7565b806306dd0419116101b657806306dd04191461027f578063077d9234146102a85780630e89341c146102d15780631785f53c1461030e576101d7565b8062fdd58e146101dc57806301ffc9a71461021957806302fe530514610256575b600080fd5b3480156101e857600080fd5b5061020360048036038101906101fe91906132f3565b610798565b6040516102109190613342565b60405180910390f35b34801561022557600080fd5b50610240600480360381019061023b91906133b5565b610801565b60405161024d91906133fd565b60405180910390f35b34801561026257600080fd5b5061027d6004803603810190610278919061355e565b61083e565b005b34801561028b57600080fd5b506102a660048036038101906102a191906132f3565b610852565b005b3480156102b457600080fd5b506102cf60048036038101906102ca9190613732565b6108ed565b005b3480156102dd57600080fd5b506102f860048036038101906102f391906137aa565b6109b2565b6040516103059190613856565b60405180910390f35b34801561031a57600080fd5b5061033560048036038101906103309190613878565b610a55565b005b34801561034357600080fd5b5061034c610aae565b6040516103599190613342565b60405180910390f35b34801561036e57600080fd5b50610389600480360381019061038491906138a5565b610ac6565b005b34801561039757600080fd5b506103b260048036038101906103ad9190613878565b610c22565b6040516103bf91906133fd565b60405180910390f35b3480156103d457600080fd5b506103ef60048036038101906103ea9190613986565b610c7e565b005b3480156103fd57600080fd5b5061041860048036038101906104139190613878565b610d4b565b60405161042591906133fd565b60405180910390f35b34801561043a57600080fd5b5061045560048036038101906104509190613732565b610d6b565b6040516104629190613b13565b60405180910390f35b61048560048036038101906104809190613b35565b610e7a565b005b34801561049357600080fd5b506104ae60048036038101906104a991906137aa565b610e99565b6040516104bb91906133fd565b60405180910390f35b3480156104d057600080fd5b506104d9610ead565b6040516104e69190613baa565b60405180910390f35b3480156104fb57600080fd5b5061051660048036038101906105119190613878565b610ee0565b005b34801561052457600080fd5b5061052d610f42565b005b34801561053b57600080fd5b50610556600480360381019061055191906137aa565b610f56565b6040516105639190613bd4565b60405180910390f35b34801561057857600080fd5b50610581610f89565b60405161058e9190613bd4565b60405180910390f35b3480156105a357600080fd5b506105be60048036038101906105b99190613bef565b610fc1565b005b3480156105cc57600080fd5b506105e760048036038101906105e29190613c5b565b6110e5565b005b3480156105f557600080fd5b506105fe6110f3565b60405161060b9190613856565b60405180910390f35b34801561062057600080fd5b5061063b60048036038101906106369190613c9b565b61112c565b005b34801561064957600080fd5b50610664600480360381019061065f91906137aa565b611367565b6040516106719190613342565b60405180910390f35b34801561068657600080fd5b506106a1600480360381019061069c91906138a5565b611392565b005b3480156106af57600080fd5b506106ca60048036038101906106c591906138a5565b6114ba565b005b3480156106d857600080fd5b506106f360048036038101906106ee9190613d26565b6116a2565b60405161070091906133fd565b60405180910390f35b34801561071557600080fd5b50610730600480360381019061072b9190613d66565b611711565b005b34801561073e57600080fd5b5061075960048036038101906107549190613878565b6117de565b005b34801561076757600080fd5b50610782600480360381019061077d91906137aa565b611864565b60405161078f9190613342565b60405180910390f35b6000806107a361187c565b905080600001600084815260200190815260200160002060008573ffffffffffffffffffffffffffffffffffffffff1673ffffffffffffffffffffffffffffffffffffffff1681526020019081526020016000205491505092915050565b60006040517f08c379a000000000000000000000000000000000000000000000000000000000815260040161083590613e49565b60405180910390fd5b6108466118a4565b61084f8161192b565b50565b6000803373ffffffffffffffffffffffffffffffffffffffff1673ffffffffffffffffffffffffffffffffffffffff16815260200190815260200160002060009054906101000a900460ff166108dd576040517f08c379a00000000000000000000000000000000000000000000000000000000081526004016108d490613eb5565b60405180910390fd5b6108e98282600161194d565b5050565b60005b82518110156109ad573073ffffffffffffffffffffffffffffffffffffffff166306dd041984838151811061092857610927613ed5565b5b602002602001015184848151811061094357610942613ed5565b5b60200260200101516040518363ffffffff1660e01b8152600401610968929190613f04565b600060405180830381600087803b15801561098257600080fd5b505af1158015610996573d6000803e3d6000fd5b5050505080806109a590613f5c565b9150506108f0565b505050565b606060006109be61187c565b90508060020180546109cf90613fd3565b80601f01602080910402602001604051908101604052809291908181526020018280546109fb90613fd3565b8015610a485780601f10610a1d57610100808354040283529160200191610a48565b820191906000526020600020905b815481529060010190602001808311610a2b57829003601f168201915b5050505050915050919050565b610a5d6118a4565b6000808273ffffffffffffffffffffffffffffffffffffffff1673ffffffffffffffffffffffffffffffffffffffff16815260200190815260200160002060006101000a81549060ff021916905550565b600080610ab96119f4565b9050806001015491505090565b3373ffffffffffffffffffffffffffffffffffffffff166001600084815260200190815260200160002060009054906101000a900473ffffffffffffffffffffffffffffffffffffffff1673ffffffffffffffffffffffffffffffffffffffff1614610b67576040517f08c379a0000000000000000000000000000000000000000000000000000000008152600401610b5e90614076565b60405180910390fd5b600260008381526020019081526020016000205481610b8584611367565b610b8f9190614096565b1115610bd0576040517f08c379a0000000000000000000000000000000000000000000000000000000008152600401610bc790614116565b60405180910390fd5b610c1e6001600084815260200190815260200160002060009054906101000a900473ffffffffffffffffffffffffffffffffffffffff16838360405180602001604052806000815250611a1c565b5050565b6000600115156000808473ffffffffffffffffffffffffffffffffffffffff1673ffffffffffffffffffffffffffffffffffffffff16815260200190815260200160002060009054906101000a900460ff161515149050919050565b3073ffffffffffffffffffffffffffffffffffffffff166324d7806c336040518263ffffffff1660e01b8152600401610cb79190613bd4565b602060405180830381865afa158015610cd4573d6000803e3d6000fd5b505050506040513d601f19601f82011682018060405250810190610cf8919061414b565b610d37576040517f08c379a0000000000000000000000000000000000000000000000000000000008152600401610d2e90613eb5565b60405180910390fd5b610d448585858585611ab5565b5050505050565b60006020528060005260406000206000915054906101000a900460ff1681565b60608151835114610db757815183516040517f5b059991000000000000000000000000000000000000000000000000000000008152600401610dae929190614178565b60405180910390fd5b6000835167ffffffffffffffff811115610dd457610dd3613433565b5b604051908082528060200260200182016040528015610e025781602001602082028036833780820191505090505b50905060005b8451811015610e6f57610e3f610e278287611b5d90919063ffffffff16565b610e3a8387611b7190919063ffffffff16565b610798565b828281518110610e5257610e51613ed5565b5b60200260200101818152505080610e6890613f5c565b9050610e08565b508091505092915050565b610e82611b85565b610e8b82611c6b565b610e958282611c76565b5050565b600080610ea583611367565b119050919050565b6000610eb7611d95565b7f360894a13ba1a3210667c828492db98dca3e2076cc3735a920a3ca505d382bbc60001b905090565b610ee86118a4565b60016000808373ffffffffffffffffffffffffffffffffffffffff1673ffffffffffffffffffffffffffffffffffffffff16815260200190815260200160002060006101000a81548160ff02191690831515021790555050565b610f4a6118a4565b610f546000611e1c565b565b60016020528060005260406000206000915054906101000a900473ffffffffffffffffffffffffffffffffffffffff1681565b600080610f94611ef3565b90508060000160009054906101000a900473ffffffffffffffffffffffffffffffffffffffff1691505090565b6000803373ffffffffffffffffffffffffffffffffffffffff1673ffffffffffffffffffffffffffffffffffffffff16815260200190815260200160002060009054906101000a900460ff1661104c576040517f08c379a000000000000000000000000000000000000000000000000000000000815260040161104390613eb5565b60405180910390fd5b6000820361108f576040517f08c379a0000000000000000000000000000000000000000000000000000000008152600401611086906141ed565b60405180910390fd5b806001600084815260200190815260200160002060006101000a81548173ffffffffffffffffffffffffffffffffffffffff021916908373ffffffffffffffffffffffffffffffffffffffff1602179055505050565b6110ef8282611f1b565b5050565b6040518060400160405280600581526020017f352e302e3000000000000000000000000000000000000000000000000000000081525081565b6000611136611f31565b905060008160000160089054906101000a900460ff1615905060008260000160009054906101000a900467ffffffffffffffff1690506000808267ffffffffffffffff161480156111845750825b9050600060018367ffffffffffffffff161480156111b9575060003073ffffffffffffffffffffffffffffffffffffffff163b145b9050811580156111c7575080155b156111fe576040517ff92ee8a900000000000000000000000000000000000000000000000000000000815260040160405180910390fd5b60018560000160006101000a81548167ffffffffffffffff021916908367ffffffffffffffff160217905550831561124e5760018560000160086101000a81548160ff0219169083151502179055505b611256611f59565b61125f88611f63565b611267611f77565b6112708661192b565b60005b87518110156113005760016000808a848151811061129457611293613ed5565b5b602002602001015173ffffffffffffffffffffffffffffffffffffffff1673ffffffffffffffffffffffffffffffffffffffff16815260200190815260200160002060006101000a81548160ff02191690831515021790555080806112f890613f5c565b915050611273565b50831561135d5760008560000160086101000a81548160ff0219169083151502179055507fc7f505b2f371ae2175ee4913f4499e1f2633a7b5936321eed1cdaeb6115181d260016040516113549190614266565b60405180910390a15b5050505050505050565b6000806113726119f4565b905080600001600084815260200190815260200160002054915050919050565b6000803373ffffffffffffffffffffffffffffffffffffffff1673ffffffffffffffffffffffffffffffffffffffff16815260200190815260200160002060009054906101000a900460ff1661141d576040517f08c379a000000000000000000000000000000000000000000000000000000000815260040161141490613eb5565b60405180910390fd5b6103e881600260008581526020019081526020016000205461143f9190614096565b1115611480576040517f08c379a0000000000000000000000000000000000000000000000000000000008152600401611477906142f3565b60405180910390fd5b80600260008481526020019081526020016000205461149f9190614096565b60026000848152602001908152602001600020819055505050565b6000803373ffffffffffffffffffffffffffffffffffffffff1673ffffffffffffffffffffffffffffffffffffffff16815260200190815260200160002060009054906101000a900460ff16611545576040517f08c379a000000000000000000000000000000000000000000000000000000000815260040161153c90613eb5565b60405180910390fd5b600073ffffffffffffffffffffffffffffffffffffffff166001600084815260200190815260200160002060009054906101000a900473ffffffffffffffffffffffffffffffffffffffff1673ffffffffffffffffffffffffffffffffffffffff16036115e7576040517f08c379a00000000000000000000000000000000000000000000000000000000081526004016115de9061435f565b60405180910390fd5b60026000838152602001908152602001600020548161160584611367565b61160f9190614096565b1115611650576040517f08c379a000000000000000000000000000000000000000000000000000000000815260040161164790614116565b60405180910390fd5b61169e6001600084815260200190815260200160002060009054906101000a900473ffffffffffffffffffffffffffffffffffffffff16838360405180602001604052806000815250611a1c565b5050565b60008060008373ffffffffffffffffffffffffffffffffffffffff1673ffffffffffffffffffffffffffffffffffffffff16815260200190815260200160002060009054906101000a900460ff16156116fe576001905061170b565b6117088383611f81565b90505b92915050565b3073ffffffffffffffffffffffffffffffffffffffff166324d7806c336040518263ffffffff1660e01b815260040161174a9190613bd4565b602060405180830381865afa158015611767573d6000803e3d6000fd5b505050506040513d601f19601f8201168201806040525081019061178b919061414b565b6117ca576040517f08c379a00000000000000000000000000000000000000000000000000000000081526004016117c190613eb5565b60405180910390fd5b6117d78585858585612023565b5050505050565b6117e66118a4565b600073ffffffffffffffffffffffffffffffffffffffff168173ffffffffffffffffffffffffffffffffffffffff16036118585760006040517f1e4fbdf700000000000000000000000000000000000000000000000000000000815260040161184f9190613bd4565b60405180910390fd5b61186181611e1c565b50565b60026020528060005260406000206000915090505481565b60007f88be536d5240c274a3b1d3a1be54482fd9caa294f08c62a7cde569f49a3c4500905090565b6118ac6120cb565b73ffffffffffffffffffffffffffffffffffffffff166118ca610f89565b73ffffffffffffffffffffffffffffffffffffffff1614611929576118ed6120cb565b6040517f118cdaa70000000000000000000000000000000000000000000000000000000081526004016119209190613bd4565b60405180910390fd5b565b600061193561187c565b9050818160020190816119489190614521565b505050565b600073ffffffffffffffffffffffffffffffffffffffff168373ffffffffffffffffffffffffffffffffffffffff16036119bf5760006040517f01a835140000000000000000000000000000000000000000000000000000000081526004016119b69190613bd4565b60405180910390fd5b6000806119cc84846120d3565b915091506119ed856000848460405180602001604052806000815250612103565b5050505050565b60007f4a593662ee04d27b6a00ebb31be7fe0c102c2ade82a7c5d764f2df05dc4e2800905090565b600073ffffffffffffffffffffffffffffffffffffffff168473ffffffffffffffffffffffffffffffffffffffff1603611a8e5760006040517f57f447ce000000000000000000000000000000000000000000000000000000008152600401611a859190613bd4565b60405180910390fd5b600080611a9b85856120d3565b91509150611aad600087848487612103565b505050505050565b6000611abf6120cb565b90508073ffffffffffffffffffffffffffffffffffffffff168673ffffffffffffffffffffffffffffffffffffffff1614158015611b045750611b0286826116a2565b155b15611b485780866040517fe237d922000000000000000000000000000000000000000000000000000000008152600401611b3f9291906145f3565b60405180910390fd5b611b5586868686866121b5565b505050505050565b600060208202602084010151905092915050565b600060208202602084010151905092915050565b7f000000000000000000000000000000000000000000000000000000000000000073ffffffffffffffffffffffffffffffffffffffff163073ffffffffffffffffffffffffffffffffffffffff161480611c3257507f000000000000000000000000000000000000000000000000000000000000000073ffffffffffffffffffffffffffffffffffffffff16611c196122ad565b73ffffffffffffffffffffffffffffffffffffffff1614155b15611c69576040517fe07c8dba00000000000000000000000000000000000000000000000000000000815260040160405180910390fd5b565b611c736118a4565b50565b8173ffffffffffffffffffffffffffffffffffffffff166352d1902d6040518163ffffffff1660e01b8152600401602060405180830381865afa925050508015611cde57506040513d601f19601f82011682018060405250810190611cdb9190614648565b60015b611d1f57816040517f4c9c8ce3000000000000000000000000000000000000000000000000000000008152600401611d169190613bd4565b60405180910390fd5b7f360894a13ba1a3210667c828492db98dca3e2076cc3735a920a3ca505d382bbc60001b8114611d8657806040517faa1d49a4000000000000000000000000000000000000000000000000000000008152600401611d7d9190613baa565b60405180910390fd5b611d908383612304565b505050565b7f000000000000000000000000000000000000000000000000000000000000000073ffffffffffffffffffffffffffffffffffffffff163073ffffffffffffffffffffffffffffffffffffffff1614611e1a576040517fe07c8dba00000000000000000000000000000000000000000000000000000000815260040160405180910390fd5b565b6000611e26611ef3565b905060008160000160009054906101000a900473ffffffffffffffffffffffffffffffffffffffff169050828260000160006101000a81548173ffffffffffffffffffffffffffffffffffffffff021916908373ffffffffffffffffffffffffffffffffffffffff1602179055508273ffffffffffffffffffffffffffffffffffffffff168173ffffffffffffffffffffffffffffffffffffffff167f8be0079c531659141344cd1fd0a4f28419497f9722a3daafe3b4186f6b6457e060405160405180910390a3505050565b60007f9016d09d72d40fdae2fd8ceac6b6234c7706214fd39c1cd1e609a0528c199300905090565b611f2d611f266120cb565b8383612377565b5050565b60007ff0c57e16840df040f15088dc2f81fe391c3923bec73e23a9662efc9c229c6a00905090565b611f616124f6565b565b611f6b6124f6565b611f7481612536565b50565b611f7f6124f6565b565b600080611f8c61187c565b90508060010160008573ffffffffffffffffffffffffffffffffffffffff1673ffffffffffffffffffffffffffffffffffffffff16815260200190815260200160002060008473ffffffffffffffffffffffffffffffffffffffff1673ffffffffffffffffffffffffffffffffffffffff16815260200190815260200160002060009054906101000a900460ff1691505092915050565b600061202d6120cb565b90508073ffffffffffffffffffffffffffffffffffffffff168673ffffffffffffffffffffffffffffffffffffffff1614158015612072575061207086826116a2565b155b156120b65780866040517fe237d9220000000000000000000000000000000000000000000000000000000081526004016120ad9291906145f3565b60405180910390fd5b6120c386868686866125bc565b505050505050565b600033905090565b60608060405191506001825283602083015260408201905060018152826020820152604081016040529250929050565b61210f858585856126c7565b600073ffffffffffffffffffffffffffffffffffffffff168473ffffffffffffffffffffffffffffffffffffffff16146121ae57600061214d6120cb565b9050600184510361219d57600061216e600086611b7190919063ffffffff16565b90506000612186600086611b7190919063ffffffff16565b9050612196838989858589612893565b50506121ac565b6121ab818787878787612a47565b5b505b5050505050565b600073ffffffffffffffffffffffffffffffffffffffff168473ffffffffffffffffffffffffffffffffffffffff16036122275760006040517f57f447ce00000000000000000000000000000000000000000000000000000000815260040161221e9190613bd4565b60405180910390fd5b600073ffffffffffffffffffffffffffffffffffffffff168573ffffffffffffffffffffffffffffffffffffffff16036122995760006040517f01a835140000000000000000000000000000000000000000000000000000000081526004016122909190613bd4565b60405180910390fd5b6122a68585858585612103565b5050505050565b60006122db7f360894a13ba1a3210667c828492db98dca3e2076cc3735a920a3ca505d382bbc60001b612bfb565b60000160009054906101000a900473ffffffffffffffffffffffffffffffffffffffff16905090565b61230d82612c05565b8173ffffffffffffffffffffffffffffffffffffffff167fbc7cd75a20ee27fd9adebab32041f755214dbc6bffa90cc0225b39da2e5c2d3b60405160405180910390a260008151111561236a576123648282612cd2565b50612373565b612372612d56565b5b5050565b600061238161187c565b9050600073ffffffffffffffffffffffffffffffffffffffff168373ffffffffffffffffffffffffffffffffffffffff16036123f55760006040517fced3e1000000000000000000000000000000000000000000000000000000000081526004016123ec9190613bd4565b60405180910390fd5b818160010160008673ffffffffffffffffffffffffffffffffffffffff1673ffffffffffffffffffffffffffffffffffffffff16815260200190815260200160002060008573ffffffffffffffffffffffffffffffffffffffff1673ffffffffffffffffffffffffffffffffffffffff16815260200190815260200160002060006101000a81548160ff0219169083151502179055508273ffffffffffffffffffffffffffffffffffffffff168473ffffffffffffffffffffffffffffffffffffffff167f17307eab39ab6107e8899845ad3d59bd9653f200f220920489ca2b5937696c31846040516124e891906133fd565b60405180910390a350505050565b6124fe612d93565b612534576040517fd7e6bcf800000000000000000000000000000000000000000000000000000000815260040160405180910390fd5b565b61253e6124f6565b600073ffffffffffffffffffffffffffffffffffffffff168173ffffffffffffffffffffffffffffffffffffffff16036125b05760006040517f1e4fbdf70000000000000000000000000000000000000000000000000000000081526004016125a79190613bd4565b60405180910390fd5b6125b981611e1c565b50565b600073ffffffffffffffffffffffffffffffffffffffff168473ffffffffffffffffffffffffffffffffffffffff160361262e5760006040517f57f447ce0000000000000000000000000000000000000000000000000000000081526004016126259190613bd4565b60405180910390fd5b600073ffffffffffffffffffffffffffffffffffffffff168573ffffffffffffffffffffffffffffffffffffffff16036126a05760006040517f01a835140000000000000000000000000000000000000000000000000000000081526004016126979190613bd4565b60405180910390fd5b6000806126ad85856120d3565b915091506126be8787848487612103565b50505050505050565b60006126d16119f4565b90506126df85858585612db3565b600073ffffffffffffffffffffffffffffffffffffffff168573ffffffffffffffffffffffffffffffffffffffff16036127c3576000805b84518110156127a557600084828151811061273557612734613ed5565b5b602002602001015190508084600001600088858151811061275957612758613ed5565b5b60200260200101518152602001908152602001600020600082825461277e9190614096565b9250508190555080836127919190614096565b9250508061279e90613f5c565b9050612717565b50808260010160008282546127ba9190614096565b92505081905550505b600073ffffffffffffffffffffffffffffffffffffffff168473ffffffffffffffffffffffffffffffffffffffff160361288c576000805b845181101561287757600084828151811061281957612818613ed5565b5b602002602001015190508084600001600088858151811061283d5761283c613ed5565b5b60200260200101518152602001908152602001600020600082825403925050819055508083019250508061287090613f5c565b90506127fb565b50808260010160008282540392505081905550505b5050505050565b60008473ffffffffffffffffffffffffffffffffffffffff163b1115612a3f578373ffffffffffffffffffffffffffffffffffffffff1663f23a6e6187878686866040518663ffffffff1660e01b81526004016128f49594939291906146ca565b6020604051808303816000875af192505050801561293057506040513d601f19601f8201168201806040525081019061292d9190614739565b60015b6129b4573d8060008114612960576040519150601f19603f3d011682016040523d82523d6000602084013e612965565b606091505b5060008151036129ac57846040517f57f447ce0000000000000000000000000000000000000000000000000000000081526004016129a39190613bd4565b60405180910390fd5b805181602001fd5b63f23a6e6160e01b7bffffffffffffffffffffffffffffffffffffffffffffffffffffffff1916817bffffffffffffffffffffffffffffffffffffffffffffffffffffffff191614612a3d57846040517f57f447ce000000000000000000000000000000000000000000000000000000008152600401612a349190613bd4565b60405180910390fd5b505b505050505050565b60008473ffffffffffffffffffffffffffffffffffffffff163b1115612bf3578373ffffffffffffffffffffffffffffffffffffffff1663bc197c8187878686866040518663ffffffff1660e01b8152600401612aa8959493929190614766565b6020604051808303816000875af1925050508015612ae457506040513d601f19601f82011682018060405250810190612ae19190614739565b60015b612b68573d8060008114612b14576040519150601f19603f3d011682016040523d82523d6000602084013e612b19565b606091505b506000815103612b6057846040517f57f447ce000000000000000000000000000000000000000000000000000000008152600401612b579190613bd4565b60405180910390fd5b805181602001fd5b63bc197c8160e01b7bffffffffffffffffffffffffffffffffffffffffffffffffffffffff1916817bffffffffffffffffffffffffffffffffffffffffffffffffffffffff191614612bf157846040517f57f447ce000000000000000000000000000000000000000000000000000000008152600401612be89190613bd4565b60405180910390fd5b505b505050505050565b6000819050919050565b60008173ffffffffffffffffffffffffffffffffffffffff163b03612c6157806040517f4c9c8ce3000000000000000000000000000000000000000000000000000000008152600401612c589190613bd4565b60405180910390fd5b80612c8e7f360894a13ba1a3210667c828492db98dca3e2076cc3735a920a3ca505d382bbc60001b612bfb565b60000160006101000a81548173ffffffffffffffffffffffffffffffffffffffff021916908373ffffffffffffffffffffffffffffffffffffffff16021790555050565b60606000808473ffffffffffffffffffffffffffffffffffffffff1684604051612cfc919061480a565b600060405180830381855af49150503d8060008114612d37576040519150601f19603f3d011682016040523d82523d6000602084013e612d3c565b606091505b5091509150612d4c858383613177565b9250505092915050565b6000341115612d91576040517fb398979f00000000000000000000000000000000000000000000000000000000815260040160405180910390fd5b565b6000612d9d611f31565b60000160089054906101000a900460ff16905090565b6000612dbd61187c565b90508151835114612e0957825182516040517f5b059991000000000000000000000000000000000000000000000000000000008152600401612e00929190614178565b60405180910390fd5b6000612e136120cb565b905060005b8451811015613031576000612e368287611b7190919063ffffffff16565b90506000612e4d8387611b7190919063ffffffff16565b9050600073ffffffffffffffffffffffffffffffffffffffff168973ffffffffffffffffffffffffffffffffffffffff1614612f8057600085600001600084815260200190815260200160002060008b73ffffffffffffffffffffffffffffffffffffffff1673ffffffffffffffffffffffffffffffffffffffff16815260200190815260200160002054905081811015612f2557898183856040517f03dee4c5000000000000000000000000000000000000000000000000000000008152600401612f1c9493929190614821565b60405180910390fd5b81810386600001600085815260200190815260200160002060008c73ffffffffffffffffffffffffffffffffffffffff1673ffffffffffffffffffffffffffffffffffffffff16815260200190815260200160002081905550505b600073ffffffffffffffffffffffffffffffffffffffff168873ffffffffffffffffffffffffffffffffffffffff161461301e578085600001600084815260200190815260200160002060008a73ffffffffffffffffffffffffffffffffffffffff1673ffffffffffffffffffffffffffffffffffffffff16815260200190815260200160002060008282546130169190614096565b925050819055505b50508061302a90613f5c565b9050612e18565b5060018451036130f0576000613051600086611b7190919063ffffffff16565b90506000613069600086611b7190919063ffffffff16565b90508673ffffffffffffffffffffffffffffffffffffffff168873ffffffffffffffffffffffffffffffffffffffff168473ffffffffffffffffffffffffffffffffffffffff167fc3d58168c5ae7397731d063d5bbf3d657854427343f4c083240f7aacaa2d0f6285856040516130e1929190614178565b60405180910390a4505061316f565b8473ffffffffffffffffffffffffffffffffffffffff168673ffffffffffffffffffffffffffffffffffffffff168273ffffffffffffffffffffffffffffffffffffffff167f4a39dc06d4c0dbc64b70af90fd698a233a518aa5d07e595d983b8c0526c8f7fb8787604051613166929190614866565b60405180910390a45b505050505050565b60608261318c5761318782613206565b6131fe565b600082511480156131b4575060008473ffffffffffffffffffffffffffffffffffffffff163b145b156131f657836040517f9996b3150000000000000000000000000000000000000000000000000000000081526004016131ed9190613bd4565b60405180910390fd5b8190506131ff565b5b9392505050565b6000815111156132195780518082602001fd5b6040517f1425ea4200000000000000000000000000000000000000000000000000000000815260040160405180910390fd5b6000604051905090565b600080fd5b600080fd5b600073ffffffffffffffffffffffffffffffffffffffff82169050919050565b600061328a8261325f565b9050919050565b61329a8161327f565b81146132a557600080fd5b50565b6000813590506132b781613291565b92915050565b6000819050919050565b6132d0816132bd565b81146132db57600080fd5b50565b6000813590506132ed816132c7565b92915050565b6000806040838503121561330a57613309613255565b5b6000613318858286016132a8565b9250506020613329858286016132de565b9150509250929050565b61333c816132bd565b82525050565b60006020820190506133576000830184613333565b92915050565b60007fffffffff0000000000000000000000000000000000000000000000000000000082169050919050565b6133928161335d565b811461339d57600080fd5b50565b6000813590506133af81613389565b92915050565b6000602082840312156133cb576133ca613255565b5b60006133d9848285016133a0565b91505092915050565b60008115159050919050565b6133f7816133e2565b82525050565b600060208201905061341260008301846133ee565b92915050565b600080fd5b600080fd5b6000601f19601f8301169050919050565b7f4e487b7100000000000000000000000000000000000000000000000000000000600052604160045260246000fd5b61346b82613422565b810181811067ffffffffffffffff8211171561348a57613489613433565b5b80604052505050565b600061349d61324b565b90506134a98282613462565b919050565b600067ffffffffffffffff8211156134c9576134c8613433565b5b6134d282613422565b9050602081019050919050565b82818337600083830152505050565b60006135016134fc846134ae565b613493565b90508281526020810184848401111561351d5761351c61341d565b5b6135288482856134df565b509392505050565b600082601f83011261354557613544613418565b5b81356135558482602086016134ee565b91505092915050565b60006020828403121561357457613573613255565b5b600082013567ffffffffffffffff8111156135925761359161325a565b5b61359e84828501613530565b91505092915050565b600067ffffffffffffffff8211156135c2576135c1613433565b5b602082029050602081019050919050565b600080fd5b60006135eb6135e6846135a7565b613493565b9050808382526020820190506020840283018581111561360e5761360d6135d3565b5b835b81811015613637578061362388826132a8565b845260208401935050602081019050613610565b5050509392505050565b600082601f83011261365657613655613418565b5b81356136668482602086016135d8565b91505092915050565b600067ffffffffffffffff82111561368a57613689613433565b5b602082029050602081019050919050565b60006136ae6136a98461366f565b613493565b905080838252602082019050602084028301858111156136d1576136d06135d3565b5b835b818110156136fa57806136e688826132de565b8452602084019350506020810190506136d3565b5050509392505050565b600082601f83011261371957613718613418565b5b813561372984826020860161369b565b91505092915050565b6000806040838503121561374957613748613255565b5b600083013567ffffffffffffffff8111156137675761376661325a565b5b61377385828601613641565b925050602083013567ffffffffffffffff8111156137945761379361325a565b5b6137a085828601613704565b9150509250929050565b6000602082840312156137c0576137bf613255565b5b60006137ce848285016132de565b91505092915050565b600081519050919050565b600082825260208201905092915050565b60005b838110156138115780820151818401526020810190506137f6565b60008484015250505050565b6000613828826137d7565b61383281856137e2565b93506138428185602086016137f3565b61384b81613422565b840191505092915050565b60006020820190508181036000830152613870818461381d565b905092915050565b60006020828403121561388e5761388d613255565b5b600061389c848285016132a8565b91505092915050565b600080604083850312156138bc576138bb613255565b5b60006138ca858286016132de565b92505060206138db858286016132de565b9150509250929050565b600067ffffffffffffffff821115613900576138ff613433565b5b61390982613422565b9050602081019050919050565b6000613929613924846138e5565b613493565b9050828152602081018484840111156139455761394461341d565b5b6139508482856134df565b509392505050565b600082601f83011261396d5761396c613418565b5b813561397d848260208601613916565b91505092915050565b600080600080600060a086880312156139a2576139a1613255565b5b60006139b0888289016132a8565b95505060206139c1888289016132a8565b945050604086013567ffffffffffffffff8111156139e2576139e161325a565b5b6139ee88828901613704565b935050606086013567ffffffffffffffff811115613a0f57613a0e61325a565b5b613a1b88828901613704565b925050608086013567ffffffffffffffff811115613a3c57613a3b61325a565b5b613a4888828901613958565b9150509295509295909350565b600081519050919050565b600082825260208201905092915050565b6000819050602082019050919050565b613a8a816132bd565b82525050565b6000613a9c8383613a81565b60208301905092915050565b6000602082019050919050565b6000613ac082613a55565b613aca8185613a60565b9350613ad583613a71565b8060005b83811015613b06578151613aed8882613a90565b9750613af883613aa8565b925050600181019050613ad9565b5085935050505092915050565b60006020820190508181036000830152613b2d8184613ab5565b905092915050565b60008060408385031215613b4c57613b4b613255565b5b6000613b5a858286016132a8565b925050602083013567ffffffffffffffff811115613b7b57613b7a61325a565b5b613b8785828601613958565b9150509250929050565b6000819050919050565b613ba481613b91565b82525050565b6000602082019050613bbf6000830184613b9b565b92915050565b613bce8161327f565b82525050565b6000602082019050613be96000830184613bc5565b92915050565b60008060408385031215613c0657613c05613255565b5b6000613c14858286016132de565b9250506020613c25858286016132a8565b9150509250929050565b613c38816133e2565b8114613c4357600080fd5b50565b600081359050613c5581613c2f565b92915050565b60008060408385031215613c7257613c71613255565b5b6000613c80858286016132a8565b9250506020613c9185828601613c46565b9150509250929050565b600080600060608486031215613cb457613cb3613255565b5b6000613cc2868287016132a8565b935050602084013567ffffffffffffffff811115613ce357613ce261325a565b5b613cef86828701613641565b925050604084013567ffffffffffffffff811115613d1057613d0f61325a565b5b613d1c86828701613530565b9150509250925092565b60008060408385031215613d3d57613d3c613255565b5b6000613d4b858286016132a8565b9250506020613d5c858286016132a8565b9150509250929050565b600080600080600060a08688031215613d8257613d81613255565b5b6000613d90888289016132a8565b9550506020613da1888289016132a8565b9450506040613db2888289016132de565b9350506060613dc3888289016132de565b925050608086013567ffffffffffffffff811115613de457613de361325a565b5b613df088828901613958565b9150509295509295909350565b7f5468697320697320612064756d6d79206572726f720000000000000000000000600082015250565b6000613e336015836137e2565b9150613e3e82613dfd565b602082019050919050565b60006020820190508181036000830152613e6281613e26565b9050919050565b7f6e6f742061646d696e0000000000000000000000000000000000000000000000600082015250565b6000613e9f6009836137e2565b9150613eaa82613e69565b602082019050919050565b60006020820190508181036000830152613ece81613e92565b9050919050565b7f4e487b7100000000000000000000000000000000000000000000000000000000600052603260045260246000fd5b6000604082019050613f196000830185613bc5565b613f266020830184613333565b9392505050565b7f4e487b7100000000000000000000000000000000000000000000000000000000600052601160045260246000fd5b6000613f67826132bd565b91507fffffffffffffffffffffffffffffffffffffffffffffffffffffffffffffffff8203613f9957613f98613f2d565b5b600182019050919050565b7f4e487b7100000000000000000000000000000000000000000000000000000000600052602260045260246000fd5b60006002820490506001821680613feb57607f821691505b602082108103613ffe57613ffd613fa4565b5b50919050565b7f73656e646572206973206e6f74206f776e657220666f72207468697320746f6b60008201527f656e000000000000000000000000000000000000000000000000000000000000602082015250565b60006140606022836137e2565b915061406b82614004565b604082019050919050565b6000602082019050818103600083015261408f81614053565b9050919050565b60006140a1826132bd565b91506140ac836132bd565b92508282019050808211156140c4576140c3613f2d565b5b92915050565b7f6e657720737570706c7920776f756c6420657863656564206d61780000000000600082015250565b6000614100601b836137e2565b915061410b826140ca565b602082019050919050565b6000602082019050818103600083015261412f816140f3565b9050919050565b60008151905061414581613c2f565b92915050565b60006020828403121561416157614160613255565b5b600061416f84828501614136565b91505092915050565b600060408201905061418d6000830185613333565b61419a6020830184613333565b9392505050565b7f30206e6f7420616c6c6f77656400000000000000000000000000000000000000600082015250565b60006141d7600d836137e2565b91506141e2826141a1565b602082019050919050565b60006020820190508181036000830152614206816141ca565b9050919050565b6000819050919050565b600067ffffffffffffffff82169050919050565b6000819050919050565b600061425061424b6142468461420d565b61422b565b614217565b9050919050565b61426081614235565b82525050565b600060208201905061427b6000830184614257565b92915050565b7f6e6577206d6178696d756d20737570706c7920776f756c64206578636565642060008201527f3130303000000000000000000000000000000000000000000000000000000000602082015250565b60006142dd6024836137e2565b91506142e882614281565b604082019050919050565b6000602082019050818103600083015261430c816142d0565b9050919050565b7f617274697374206e6f742073657420666f72207468697320746f6b656e000000600082015250565b6000614349601d836137e2565b915061435482614313565b602082019050919050565b600060208201905081810360008301526143788161433c565b9050919050565b60008190508160005260206000209050919050565b60006020601f8301049050919050565b600082821b905092915050565b6000600883026143e17fffffffffffffffffffffffffffffffffffffffffffffffffffffffffffffffff826143a4565b6143eb86836143a4565b95508019841693508086168417925050509392505050565b600061441e614419614414846132bd565b61422b565b6132bd565b9050919050565b6000819050919050565b61443883614403565b61444c61444482614425565b8484546143b1565b825550505050565b600090565b614461614454565b61446c81848461442f565b505050565b5b8181101561449057614485600082614459565b600181019050614472565b5050565b601f8211156144d5576144a68161437f565b6144af84614394565b810160208510156144be578190505b6144d26144ca85614394565b830182614471565b50505b505050565b600082821c905092915050565b60006144f8600019846008026144da565b1980831691505092915050565b600061451183836144e7565b9150826002028217905092915050565b61452a826137d7565b67ffffffffffffffff81111561454357614542613433565b5b61454d8254613fd3565b614558828285614494565b600060209050601f83116001811461458b5760008415614579578287015190505b6145838582614505565b8655506145eb565b601f1984166145998661437f565b60005b828110156145c15784890151825560018201915060208501945060208101905061459c565b868310156145de57848901516145da601f8916826144e7565b8355505b6001600288020188555050505b505050505050565b60006040820190506146086000830185613bc5565b6146156020830184613bc5565b9392505050565b61462581613b91565b811461463057600080fd5b50565b6000815190506146428161461c565b92915050565b60006020828403121561465e5761465d613255565b5b600061466c84828501614633565b91505092915050565b600081519050919050565b600082825260208201905092915050565b600061469c82614675565b6146a68185614680565b93506146b68185602086016137f3565b6146bf81613422565b840191505092915050565b600060a0820190506146df6000830188613bc5565b6146ec6020830187613bc5565b6146f96040830186613333565b6147066060830185613333565b81810360808301526147188184614691565b90509695505050505050565b60008151905061473381613389565b92915050565b60006020828403121561474f5761474e613255565b5b600061475d84828501614724565b91505092915050565b600060a08201905061477b6000830188613bc5565b6147886020830187613bc5565b818103604083015261479a8186613ab5565b905081810360608301526147ae8185613ab5565b905081810360808301526147c28184614691565b90509695505050505050565b600081905092915050565b60006147e482614675565b6147ee81856147ce565b93506147fe8185602086016137f3565b80840191505092915050565b600061481682846147d9565b915081905092915050565b60006080820190506148366000830187613bc5565b6148436020830186613333565b6148506040830185613333565b61485d6060830184613333565b95945050505050565b600060408201905081810360008301526148808185613ab5565b905081810360208301526148948184613ab5565b9050939250505056fea26469706673582212203b58cd0c0c28308fd991d3826cabeed5c38182e9fb2b173edf2e0197b31cf34164736f6c63430008140033",
  "linkReferences": {},
  "deployedLinkReferences": {}
}