{"contracts/HoldrArtistsERC1155.sol":{"HoldrArtistsERC1155":{"abi":[{"inputs":[{"internalType":"address","name":"target","type":"address"}],"name":"AddressEmptyCode","type":"error"},{"inputs":[{"internalType":"address","name":"sender","type":"address"},{"internalType":"uint256","name":"balance","type":"uint256"},{"internalType":"uint256","name":"needed","type":"uint256"},{"internalType":"uint256","name":"tokenId","type":"uint256"}],"name":"ERC1155InsufficientBalance","type":"error"},{"inputs":[{"internalType":"address","name":"approver","type":"address"}],"name":"ERC1155InvalidApprover","type":"error"},{"inputs":[{"internalType":"uint256","name":"idsLength","type":"uint256"},{"internalType":"uint256","name":"valuesLength","type":"uint256"}],"name":"ERC1155InvalidArrayLength","type":"error"},{"inputs":[{"internalType":"address","name":"operator","type":"address"}],"name":"ERC1155InvalidOperator","type":"error"},{"inputs":[{"internalType":"address","name":"receiver","type":"address"}],"name":"ERC1155InvalidReceiver","type":"error"},{"inputs":[{"internalType":"address","name":"sender","type":"address"}],"name":"ERC1155InvalidSender","type":"error"},{"inputs":[{"internalType":"address","name":"operator","type":"address"},{"internalType":"address","name":"owner","type":"address"}],"name":"ERC1155MissingApprovalForAll","type":"error"},{"inputs":[{"internalType":"address","name":"implementation","type":"address"}],"name":"ERC1967InvalidImplementation","type":"error"},{"inputs":[],"name":"ERC1967NonPayable","type":"error"},{"inputs":[],"name":"FailedInnerCall","type":"error"},{"inputs":[],"name":"InvalidInitialization","type":"error"},{"inputs":[],"name":"NotInitializing","type":"error"},{"inputs":[{"internalType":"address","name":"owner","type":"address"}],"name":"OwnableInvalidOwner","type":"error"},{"inputs":[{"internalType":"address","name":"account","type":"address"}],"name":"OwnableUnauthorizedAccount","type":"error"},{"inputs":[],"name":"UUPSUnauthorizedCallContext","type":"error"},{"inputs":[{"internalType":"bytes32","name":"slot","type":"bytes32"}],"name":"UUPSUnsupportedProxiableUUID","type":"error"},{"anonymous":false,"inputs":[{"indexed":true,"internalType":"address","name":"account","type":"address"},{"indexed":true,"internalType":"address","name":"operator","type":"address"},{"indexed":false,"internalType":"bool","name":"approved","type":"bool"}],"name":"ApprovalForAll","type":"event"},{"anonymous":false,"inputs":[{"indexed":false,"internalType":"uint64","name":"version","type":"uint64"}],"name":"Initialized","type":"event"},{"anonymous":false,"inputs":[{"indexed":true,"internalType":"address","name":"previousOwner","type":"address"},{"indexed":true,"internalType":"address","name":"newOwner","type":"address"}],"name":"OwnershipTransferred","type":"event"},{"anonymous":false,"inputs":[{"indexed":true,"internalType":"address","name":"operator","type":"address"},{"indexed":true,"internalType":"address","name":"from","type":"address"},{"indexed":true,"internalType":"address","name":"to","type":"address"},{"indexed":false,"internalType":"uint256[]","name":"ids","type":"uint256[]"},{"indexed":false,"internalType":"uint256[]","name":"values","type":"uint256[]"}],"name":"TransferBatch","type":"event"},{"anonymous":false,"inputs":[{"indexed":true,"internalType":"address","name":"operator","type":"address"},{"indexed":true,"internalType":"address","name":"from","type":"address"},{"indexed":true,"internalType":"address","name":"to","type":"address"},{"indexed":false,"internalType":"uint256","name":"id","type":"uint256"},{"indexed":false,"internalType":"uint256","name":"value","type":"uint256"}],"name":"TransferSingle","type":"event"},{"anonymous":false,"inputs":[{"indexed":false,"internalType":"string","name":"value","type":"string"},{"indexed":true,"internalType":"uint256","name":"id","type":"uint256"}],"name":"URI","type":"event"},{"anonymous":false,"inputs":[{"indexed":true,"internalType":"address","name":"implementation","type":"address"}],"name":"Upgraded","type":"event"},{"inputs":[],"name":"UPGRADE_INTERFACE_VERSION","outputs":[{"internalType":"string","name":"","type":"string"}],"stateMutability":"view","type":"function"},{"inputs":[{"internalType":"address","name":"adminAddress","type":"address"}],"name":"addAdmin","outputs":[],"stateMutability":"nonpayable","type":"function"},{"inputs":[{"internalType":"address","name":"from","type":"address"},{"internalType":"uint256","name":"tokenId","type":"uint256"}],"name":"adminBurn","outputs":[],"stateMutability":"nonpayable","type":"function"},{"inputs":[{"internalType":"address[]","name":"from","type":"address[]"},{"internalType":"uint256[]","name":"tokenIds","type":"uint256[]"}],"name":"adminBurnBatch","outputs":[],"stateMutability":"nonpayable","type":"function"},{"inputs":[{"internalType":"uint256","name":"tokenId","type":"uint256"},{"internalType":"uint256","name":"count","type":"uint256"}],"name":"adminMint","outputs":[],"stateMutability":"nonpayable","type":"function"},{"inputs":[{"internalType":"address","name":"","type":"address"}],"name":"admins","outputs":[{"internalType":"bool","name":"","type":"bool"}],"stateMutability":"view","type":"function"},{"inputs":[{"internalType":"uint256","name":"","type":"uint256"}],"name":"artistAddresses","outputs":[{"internalType":"address","name":"","type":"address"}],"stateMutability":"view","type":"function"},{"inputs":[{"internalType":"address","name":"account","type":"address"},{"internalType":"uint256","name":"id","type":"uint256"}],"name":"balanceOf","outputs":[{"internalType":"uint256","name":"","type":"uint256"}],"stateMutability":"view","type":"function"},{"inputs":[{"internalType":"address[]","name":"accounts","type":"address[]"},{"internalType":"uint256[]","name":"ids","type":"uint256[]"}],"name":"balanceOfBatch","outputs":[{"internalType":"uint256[]","name":"","type":"uint256[]"}],"stateMutability":"view","type":"function"},{"inputs":[{"internalType":"uint256","name":"id","type":"uint256"}],"name":"exists","outputs":[{"internalType":"bool","name":"","type":"bool"}],"stateMutability":"view","type":"function"},{"inputs":[{"internalType":"uint256","name":"tokenId","type":"uint256"},{"internalType":"uint256","name":"extraSupply","type":"uint256"}],"name":"increaseTokenSupplyLimit","outputs":[],"stateMutability":"nonpayable","type":"function"},{"inputs":[{"internalType":"address","name":"initialOwner","type":"address"},{"internalType":"address[]","name":"initialAdmins","type":"address[]"},{"internalType":"string","name":"uri","type":"string"}],"name":"init","outputs":[],"stateMutability":"nonpayable","type":"function"},{"inputs":[{"internalType":"address","name":"adminAddress","type":"address"}],"name":"isAdmin","outputs":[{"internalType":"bool","name":"","type":"bool"}],"stateMutability":"view","type":"function"},{"inputs":[{"internalType":"address","name":"owner","type":"address"},{"internalType":"address","name":"operator","type":"address"}],"name":"isApprovedForAll","outputs":[{"internalType":"bool","name":"","type":"bool"}],"stateMutability":"view","type":"function"},{"inputs":[{"internalType":"uint256","name":"tokenId","type":"uint256"},{"internalType":"uint256","name":"count","type":"uint256"}],"name":"mint","outputs":[],"stateMutability":"nonpayable","type":"function"},{"inputs":[],"name":"owner","outputs":[{"internalType":"address","name":"","type":"address"}],"stateMutability":"view","type":"function"},{"inputs":[],"name":"proxiableUUID","outputs":[{"internalType":"bytes32","name":"","type":"bytes32"}],"stateMutability":"view","type":"function"},{"inputs":[{"internalType":"address","name":"adminAddress","type":"address"}],"name":"removeAdmin","outputs":[],"stateMutability":"nonpayable","type":"function"},{"inputs":[],"name":"renounceOwnership","outputs":[],"stateMutability":"nonpayable","type":"function"},{"inputs":[{"internalType":"address","name":"from","type":"address"},{"internalType":"address","name":"to","type":"address"},{"internalType":"uint256[]","name":"ids","type":"uint256[]"},{"internalType":"uint256[]","name":"amounts","type":"uint256[]"},{"internalType":"bytes","name":"data","type":"bytes"}],"name":"safeBatchTransferFrom","outputs":[],"stateMutability":"nonpayable","type":"function"},{"inputs":[{"internalType":"address","name":"from","type":"address"},{"internalType":"address","name":"to","type":"address"},{"internalType":"uint256","name":"tokenId","type":"uint256"},{"internalType":"uint256","name":"amount","type":"uint256"},{"internalType":"bytes","name":"data","type":"bytes"}],"name":"safeTransferFrom","outputs":[],"stateMutability":"nonpayable","type":"function"},{"inputs":[{"internalType":"address","name":"operator","type":"address"},{"internalType":"bool","name":"approved","type":"bool"}],"name":"setApprovalForAll","outputs":[],"stateMutability":"nonpayable","type":"function"},{"inputs":[{"internalType":"uint256","name":"tokenId","type":"uint256"},{"internalType":"address","name":"artistAddress","type":"address"}],"name":"setArtistAddress","outputs":[],"stateMutability":"nonpayable","type":"function"},{"inputs":[{"internalType":"string","name":"uri","type":"string"}],"name":"setURI","outputs":[],"stateMutability":"nonpayable","type":"function"},{"inputs":[{"internalType":"bytes4","name":"interfaceId","type":"bytes4"}],"name":"supportsInterface","outputs":[{"internalType":"bool","name":"","type":"bool"}],"stateMutability":"view","type":"function"},{"inputs":[{"internalType":"uint256","name":"","type":"uint256"}],"name":"tokenSupplyLimits","outputs":[{"internalType":"uint256","name":"","type":"uint256"}],"stateMutability":"view","type":"function"},{"inputs":[],"name":"totalSupply","outputs":[{"internalType":"uint256","name":"","type":"uint256"}],"stateMutability":"view","type":"function"},{"inputs":[{"internalType":"uint256","name":"id","type":"uint256"}],"name":"totalSupply","outputs":[{"internalType":"uint256","name":"","type":"uint256"}],"stateMutability":"view","type":"function"},{"inputs":[{"internalType":"address","name":"newOwner","type":"address"}],"name":"transferOwnership","outputs":[],"stateMutability":"nonpayable","type":"function"},{"inputs":[{"internalType":"address","name":"newImplementation","type":"address"},{"internalType":"bytes","name":"data","type":"bytes"}],"name":"upgradeToAndCall","outputs":[],"stateMutability":"payable","type":"function"},{"inputs":[{"internalType":"uint256","name":"","type":"uint256"}],"name":"uri","outputs":[{"internalType":"string","name":"","type":"string"}],"stateMutability":"view","type":"function"}],"devdoc":{"errors":{"AddressEmptyCode(address)":[{"details":"There's no code at `target` (it is not a contract)."}],"ERC1155InsufficientBalance(address,uint256,uint256,uint256)":[{"details":"Indicates an error related to the current `balance` of a `sender`. Used in transfers.","params":{"balance":"Current balance for the interacting account.","needed":"Minimum amount required to perform a transfer.","sender":"Address whose tokens are being transferred.","tokenId":"Identifier number of a token."}}],"ERC1155InvalidApprover(address)":[{"details":"Indicates a failure with the `approver` of a token to be approved. Used in approvals.","params":{"approver":"Address initiating an approval operation."}}],"ERC1155InvalidArrayLength(uint256,uint256)":[{"details":"Indicates an array length mismatch between ids and values in a safeBatchTransferFrom operation. Used in batch transfers.","params":{"idsLength":"Length of the array of token identifiers","valuesLength":"Length of the array of token amounts"}}],"ERC1155InvalidOperator(address)":[{"details":"Indicates a failure with the `operator` to be approved. Used in approvals.","params":{"operator":"Address that may be allowed to operate on tokens without being their owner."}}],"ERC1155InvalidReceiver(address)":[{"details":"Indicates a failure with the token `receiver`. Used in transfers.","params":{"receiver":"Address to which tokens are being transferred."}}],"ERC1155InvalidSender(address)":[{"details":"Indicates a failure with the token `sender`. Used in transfers.","params":{"sender":"Address whose tokens are being transferred."}}],"ERC1155MissingApprovalForAll(address,address)":[{"details":"Indicates a failure with the `operator`’s approval. Used in transfers.","params":{"operator":"Address that may be allowed to operate on tokens without being their owner.","owner":"Address of the current owner of a token."}}],"ERC1967InvalidImplementation(address)":[{"details":"The `implementation` of the proxy is invalid."}],"ERC1967NonPayable()":[{"details":"An upgrade function sees `msg.value > 0` that may be lost."}],"FailedInnerCall()":[{"details":"A call to an address target failed. The target may have reverted."}],"InvalidInitialization()":[{"details":"The contract is already initialized."}],"NotInitializing()":[{"details":"The contract is not initializing."}],"OwnableInvalidOwner(address)":[{"details":"The owner is not a valid owner account. (eg. `address(0)`)"}],"OwnableUnauthorizedAccount(address)":[{"details":"The caller account is not authorized to perform an operation."}],"UUPSUnauthorizedCallContext()":[{"details":"The call is from an unauthorized context."}],"UUPSUnsupportedProxiableUUID(bytes32)":[{"details":"The storage `slot` is unsupported as a UUID."}]},"events":{"ApprovalForAll(address,address,bool)":{"details":"Emitted when `account` grants or revokes permission to `operator` to transfer their tokens, according to `approved`."},"Initialized(uint64)":{"details":"Triggered when the contract has been initialized or reinitialized."},"TransferBatch(address,address,address,uint256[],uint256[])":{"details":"Equivalent to multiple {TransferSingle} events, where `operator`, `from` and `to` are the same for all transfers."},"TransferSingle(address,address,address,uint256,uint256)":{"details":"Emitted when `value` amount of tokens of type `id` are transferred from `from` to `to` by `operator`."},"URI(string,uint256)":{"details":"Emitted when the URI for token type `id` changes to `value`, if it is a non-programmatic URI. If an {URI} event was emitted for `id`, the standard https://eips.ethereum.org/EIPS/eip-1155#metadata-extensions[guarantees] that `value` will equal the value returned by {IERC1155MetadataURI-uri}."},"Upgraded(address)":{"details":"Emitted when the implementation is upgraded."}},"kind":"dev","methods":{"addAdmin(address)":{"details":"Add an admin Params: _adminAddress: the new address"},"adminBurn(address,uint256)":{"details":"The admin burn function for burning a user's token Params: from: the owner of the token tokenId: the token id"},"adminBurnBatch(address[],uint256[])":{"details":"The admin burn batch function for burning a user's token Params: from: the owners of the token tokenIds: the token ids"},"adminMint(uint256,uint256)":{"details":"The admin mint function (mints new tokens of a particular id) Params: tokenId: the token id to be minted count: the number of new tokens to mint"},"balanceOf(address,uint256)":{"details":"See {IERC1155-balanceOf}."},"balanceOfBatch(address[],uint256[])":{"details":"See {IERC1155-balanceOfBatch}. Requirements: - `accounts` and `ids` must have the same length."},"exists(uint256)":{"details":"Indicates whether any token exist with a given id, or not."},"increaseTokenSupplyLimit(uint256,uint256)":{"details":"Increase the max allowed supply of an artist token Params: tokenId: the id of the token being updated extraSupply: the additional supply to be allowed"},"isAdmin(address)":{"details":"Check address is admin Params: _address: the address to check"},"mint(uint256,uint256)":{"details":"The mint function (mints new tokens of a particular id) Params: tokenId: the token id to be minted count: the number of new tokens to mint"},"owner()":{"details":"Returns the address of the current owner."},"proxiableUUID()":{"details":"Implementation of the ERC1822 {proxiableUUID} function. This returns the storage slot used by the implementation. It is used to validate the implementation's compatibility when performing an upgrade. IMPORTANT: A proxy pointing at a proxiable contract should not be considered proxiable itself, because this risks bricking a proxy that upgrades to it, by delegating to itself until out of gas. Thus it is critical that this function revert if invoked through a proxy. This is guaranteed by the `notDelegated` modifier."},"removeAdmin(address)":{"details":"Remove an admin Params: adminAddress: the address to remove"},"renounceOwnership()":{"details":"Leaves the contract without owner. It will not be possible to call `onlyOwner` functions. Can only be called by the current owner. NOTE: Renouncing ownership will leave the contract without an owner, thereby disabling any functionality that is only available to the owner."},"setApprovalForAll(address,bool)":{"details":"See {IERC1155-setApprovalForAll}."},"setArtistAddress(uint256,address)":{"details":"Update the artist address for a particular token Params: tokenId: the id of the token being updated artistAddress: the new address of the artist for this token"},"setURI(string)":{"details":"Update the uri template Params: _uri: the new uri template"},"supportsInterface(bytes4)":{"details":"See {IERC165-supportsInterface}."},"totalSupply()":{"details":"Total value of tokens."},"totalSupply(uint256)":{"details":"Total value of tokens in with a given id."},"transferOwnership(address)":{"details":"Transfers ownership of the contract to a new account (`newOwner`). Can only be called by the current owner."},"upgradeToAndCall(address,bytes)":{"custom:oz-upgrades-unsafe-allow-reachable":"delegatecall","details":"Upgrade the implementation of the proxy to `newImplementation`, and subsequently execute the function call encoded in `data`. Calls {_authorizeUpgrade}. Emits an {Upgraded} event."},"uri(uint256)":{"details":"See {IERC1155MetadataURI-uri}. This implementation returns the same URI for *all* token types. It relies on the token type ID substitution mechanism https://eips.ethereum.org/EIPS/eip-1155#metadata[defined in the EIP]. Clients calling this function must replace the `\\{id\\}` substring with the actual token type ID."}},"version":1},"evm":{"bytecode":{"linkReferences":{},"object":"60a06040523073ffffffffffffffffffffffffffffffffffffffff1660809073ffffffffffffffffffffffffffffffffffffffff1681525034801561004357600080fd5b506080516149f061006d60003960008181611ca601528181611cfb0152611eb601526149f06000f3fe6080604052600436106101d75760003560e01c806352d1902d11610102578063bb62550911610095578063e985e9c511610064578063e985e9c5146106cc578063f242432a14610709578063f2fde38b14610732578063fbe0a8921461075b576101d7565b8063bb62550914610614578063bd85b0391461063d578063c36497e51461067a578063d00e40ce146106a3576101d7565b80638da5cb5b116100d15780638da5cb5b1461056c5780639eca4b7b14610597578063a22cb465146105c0578063ad3cb1cc146105e9576101d7565b806352d1902d146104c457806370480275146104ef578063715018a614610518578063831ffd051461052f576101d7565b806318160ddd1161017a578063429b62e511610149578063429b62e5146103f15780634e1273f41461042e5780634f1ef2861461046b5780634f558e7914610487576101d7565b806318160ddd146103375780631b2ef1ca1461036257806324d7806c1461038b5780632eb2c2d6146103c8576101d7565b806306dd0419116101b657806306dd04191461027f578063077d9234146102a85780630e89341c146102d15780631785f53c1461030e576101d7565b8062fdd58e146101dc57806301ffc9a71461021957806302fe530514610256575b600080fd5b3480156101e857600080fd5b5061020360048036038101906101fe919061347c565b610798565b60405161021091906134cb565b60405180910390f35b34801561022557600080fd5b50610240600480360381019061023b919061353e565b610801565b60405161024d9190613586565b60405180910390f35b34801561026257600080fd5b5061027d600480360381019061027891906136e7565b61087b565b005b34801561028b57600080fd5b506102a660048036038101906102a1919061347c565b61088f565b005b3480156102b457600080fd5b506102cf60048036038101906102ca91906138bb565b61092a565b005b3480156102dd57600080fd5b506102f860048036038101906102f39190613933565b6109ef565b60405161030591906139df565b60405180910390f35b34801561031a57600080fd5b5061033560048036038101906103309190613a01565b610a92565b005b34801561034357600080fd5b5061034c610aeb565b60405161035991906134cb565b60405180910390f35b34801561036e57600080fd5b5061038960048036038101906103849190613a2e565b610b03565b005b34801561039757600080fd5b506103b260048036038101906103ad9190613a01565b610c5f565b6040516103bf9190613586565b60405180910390f35b3480156103d457600080fd5b506103ef60048036038101906103ea9190613b0f565b610cbb565b005b3480156103fd57600080fd5b5061041860048036038101906104139190613a01565b610d88565b6040516104259190613586565b60405180910390f35b34801561043a57600080fd5b50610455600480360381019061045091906138bb565b610da8565b6040516104629190613c9c565b60405180910390f35b61048560048036038101906104809190613cbe565b610eb7565b005b34801561049357600080fd5b506104ae60048036038101906104a99190613933565b610ed6565b6040516104bb9190613586565b60405180910390f35b3480156104d057600080fd5b506104d9610eea565b6040516104e69190613d33565b60405180910390f35b3480156104fb57600080fd5b5061051660048036038101906105119190613a01565b610f1d565b005b34801561052457600080fd5b5061052d610f7f565b005b34801561053b57600080fd5b5061055660048036038101906105519190613933565b610f93565b6040516105639190613d5d565b60405180910390f35b34801561057857600080fd5b50610581610fc6565b60405161058e9190613d5d565b60405180910390f35b3480156105a357600080fd5b506105be60048036038101906105b99190613d78565b610ffe565b005b3480156105cc57600080fd5b506105e760048036038101906105e29190613de4565b611122565b005b3480156105f557600080fd5b506105fe611130565b60405161060b91906139df565b60405180910390f35b34801561062057600080fd5b5061063b60048036038101906106369190613e24565b611169565b005b34801561064957600080fd5b50610664600480360381019061065f9190613933565b6113a4565b60405161067191906134cb565b60405180910390f35b34801561068657600080fd5b506106a1600480360381019061069c9190613a2e565b6113cf565b005b3480156106af57600080fd5b506106ca60048036038101906106c59190613a2e565b6114f7565b005b3480156106d857600080fd5b506106f360048036038101906106ee9190613eaf565b6116df565b6040516107009190613586565b60405180910390f35b34801561071557600080fd5b50610730600480360381019061072b9190613eef565b61174e565b005b34801561073e57600080fd5b5061075960048036038101906107549190613a01565b61181b565b005b34801561076757600080fd5b50610782600480360381019061077d9190613933565b6118a1565b60405161078f91906134cb565b60405180910390f35b6000806107a36118b9565b905080600001600084815260200190815260200160002060008573ffffffffffffffffffffffffffffffffffffffff1673ffffffffffffffffffffffffffffffffffffffff1681526020019081526020016000205491505092915050565b60007f2a55205a000000000000000000000000000000000000000000000000000000007bffffffffffffffffffffffffffffffffffffffffffffffffffffffff1916827bffffffffffffffffffffffffffffffffffffffffffffffffffffffff191614806108745750610873826118e1565b5b9050919050565b6108836119c3565b61088c81611a4a565b50565b6000803373ffffffffffffffffffffffffffffffffffffffff1673ffffffffffffffffffffffffffffffffffffffff16815260200190815260200160002060009054906101000a900460ff1661091a576040517f08c379a000000000000000000000000000000000000000000000000000000000815260040161091190613fd2565b60405180910390fd5b61092682826001611a6c565b5050565b60005b82518110156109ea573073ffffffffffffffffffffffffffffffffffffffff166306dd041984838151811061096557610964613ff2565b5b60200260200101518484815181106109805761097f613ff2565b5b60200260200101516040518363ffffffff1660e01b81526004016109a5929190614021565b600060405180830381600087803b1580156109bf57600080fd5b505af11580156109d3573d6000803e3d6000fd5b5050505080806109e290614079565b91505061092d565b505050565b606060006109fb6118b9565b9050806002018054610a0c906140f0565b80601f0160208091040260200160405190810160405280929190818152602001828054610a38906140f0565b8015610a855780601f10610a5a57610100808354040283529160200191610a85565b820191906000526020600020905b815481529060010190602001808311610a6857829003601f168201915b5050505050915050919050565b610a9a6119c3565b6000808273ffffffffffffffffffffffffffffffffffffffff1673ffffffffffffffffffffffffffffffffffffffff16815260200190815260200160002060006101000a81549060ff021916905550565b600080610af6611b13565b9050806001015491505090565b3373ffffffffffffffffffffffffffffffffffffffff166001600084815260200190815260200160002060009054906101000a900473ffffffffffffffffffffffffffffffffffffffff1673ffffffffffffffffffffffffffffffffffffffff1614610ba4576040517f08c379a0000000000000000000000000000000000000000000000000000000008152600401610b9b90614193565b60405180910390fd5b600260008381526020019081526020016000205481610bc2846113a4565b610bcc91906141b3565b1115610c0d576040517f08c379a0000000000000000000000000000000000000000000000000000000008152600401610c0490614233565b60405180910390fd5b610c5b6001600084815260200190815260200160002060009054906101000a900473ffffffffffffffffffffffffffffffffffffffff16838360405180602001604052806000815250611b3b565b5050565b6000600115156000808473ffffffffffffffffffffffffffffffffffffffff1673ffffffffffffffffffffffffffffffffffffffff16815260200190815260200160002060009054906101000a900460ff161515149050919050565b3073ffffffffffffffffffffffffffffffffffffffff166324d7806c336040518263ffffffff1660e01b8152600401610cf49190613d5d565b602060405180830381865afa158015610d11573d6000803e3d6000fd5b505050506040513d601f19601f82011682018060405250810190610d359190614268565b610d74576040517f08c379a0000000000000000000000000000000000000000000000000000000008152600401610d6b90613fd2565b60405180910390fd5b610d818585858585611bd4565b5050505050565b60006020528060005260406000206000915054906101000a900460ff1681565b60608151835114610df457815183516040517f5b059991000000000000000000000000000000000000000000000000000000008152600401610deb929190614295565b60405180910390fd5b6000835167ffffffffffffffff811115610e1157610e106135bc565b5b604051908082528060200260200182016040528015610e3f5781602001602082028036833780820191505090505b50905060005b8451811015610eac57610e7c610e648287611c7c90919063ffffffff16565b610e778387611c9090919063ffffffff16565b610798565b828281518110610e8f57610e8e613ff2565b5b60200260200101818152505080610ea590614079565b9050610e45565b508091505092915050565b610ebf611ca4565b610ec882611d8a565b610ed28282611d95565b5050565b600080610ee2836113a4565b119050919050565b6000610ef4611eb4565b7f360894a13ba1a3210667c828492db98dca3e2076cc3735a920a3ca505d382bbc60001b905090565b610f256119c3565b60016000808373ffffffffffffffffffffffffffffffffffffffff1673ffffffffffffffffffffffffffffffffffffffff16815260200190815260200160002060006101000a81548160ff02191690831515021790555050565b610f876119c3565b610f916000611f3b565b565b60016020528060005260406000206000915054906101000a900473ffffffffffffffffffffffffffffffffffffffff1681565b600080610fd1612012565b90508060000160009054906101000a900473ffffffffffffffffffffffffffffffffffffffff1691505090565b6000803373ffffffffffffffffffffffffffffffffffffffff1673ffffffffffffffffffffffffffffffffffffffff16815260200190815260200160002060009054906101000a900460ff16611089576040517f08c379a000000000000000000000000000000000000000000000000000000000815260040161108090613fd2565b60405180910390fd5b600082036110cc576040517f08c379a00000000000000000000000000000000000000000000000000000000081526004016110c39061430a565b60405180910390fd5b806001600084815260200190815260200160002060006101000a81548173ffffffffffffffffffffffffffffffffffffffff021916908373ffffffffffffffffffffffffffffffffffffffff1602179055505050565b61112c828261203a565b5050565b6040518060400160405280600581526020017f352e302e3000000000000000000000000000000000000000000000000000000081525081565b6000611173612050565b905060008160000160089054906101000a900460ff1615905060008260000160009054906101000a900467ffffffffffffffff1690506000808267ffffffffffffffff161480156111c15750825b9050600060018367ffffffffffffffff161480156111f6575060003073ffffffffffffffffffffffffffffffffffffffff163b145b905081158015611204575080155b1561123b576040517ff92ee8a900000000000000000000000000000000000000000000000000000000815260040160405180910390fd5b60018560000160006101000a81548167ffffffffffffffff021916908367ffffffffffffffff160217905550831561128b5760018560000160086101000a81548160ff0219169083151502179055505b611293612078565b61129c88612082565b6112a4612096565b6112ad86611a4a565b60005b875181101561133d5760016000808a84815181106112d1576112d0613ff2565b5b602002602001015173ffffffffffffffffffffffffffffffffffffffff1673ffffffffffffffffffffffffffffffffffffffff16815260200190815260200160002060006101000a81548160ff021916908315150217905550808061133590614079565b9150506112b0565b50831561139a5760008560000160086101000a81548160ff0219169083151502179055507fc7f505b2f371ae2175ee4913f4499e1f2633a7b5936321eed1cdaeb6115181d260016040516113919190614383565b60405180910390a15b5050505050505050565b6000806113af611b13565b905080600001600084815260200190815260200160002054915050919050565b6000803373ffffffffffffffffffffffffffffffffffffffff1673ffffffffffffffffffffffffffffffffffffffff16815260200190815260200160002060009054906101000a900460ff1661145a576040517f08c379a000000000000000000000000000000000000000000000000000000000815260040161145190613fd2565b60405180910390fd5b6103e881600260008581526020019081526020016000205461147c91906141b3565b11156114bd576040517f08c379a00000000000000000000000000000000000000000000000000000000081526004016114b490614410565b60405180910390fd5b8060026000848152602001908152602001600020546114dc91906141b3565b60026000848152602001908152602001600020819055505050565b6000803373ffffffffffffffffffffffffffffffffffffffff1673ffffffffffffffffffffffffffffffffffffffff16815260200190815260200160002060009054906101000a900460ff16611582576040517f08c379a000000000000000000000000000000000000000000000000000000000815260040161157990613fd2565b60405180910390fd5b600073ffffffffffffffffffffffffffffffffffffffff166001600084815260200190815260200160002060009054906101000a900473ffffffffffffffffffffffffffffffffffffffff1673ffffffffffffffffffffffffffffffffffffffff1603611624576040517f08c379a000000000000000000000000000000000000000000000000000000000815260040161161b9061447c565b60405180910390fd5b600260008381526020019081526020016000205481611642846113a4565b61164c91906141b3565b111561168d576040517f08c379a000000000000000000000000000000000000000000000000000000000815260040161168490614233565b60405180910390fd5b6116db6001600084815260200190815260200160002060009054906101000a900473ffffffffffffffffffffffffffffffffffffffff16838360405180602001604052806000815250611b3b565b5050565b60008060008373ffffffffffffffffffffffffffffffffffffffff1673ffffffffffffffffffffffffffffffffffffffff16815260200190815260200160002060009054906101000a900460ff161561173b5760019050611748565b61174583836120a0565b90505b92915050565b3073ffffffffffffffffffffffffffffffffffffffff166324d7806c336040518263ffffffff1660e01b81526004016117879190613d5d565b602060405180830381865afa1580156117a4573d6000803e3d6000fd5b505050506040513d601f19601f820116820180604052508101906117c89190614268565b611807576040517f08c379a00000000000000000000000000000000000000000000000000000000081526004016117fe90613fd2565b60405180910390fd5b6118148585858585612142565b5050505050565b6118236119c3565b600073ffffffffffffffffffffffffffffffffffffffff168173ffffffffffffffffffffffffffffffffffffffff16036118955760006040517f1e4fbdf700000000000000000000000000000000000000000000000000000000815260040161188c9190613d5d565b60405180910390fd5b61189e81611f3b565b50565b60026020528060005260406000206000915090505481565b60007f88be536d5240c274a3b1d3a1be54482fd9caa294f08c62a7cde569f49a3c4500905090565b60007fd9b67a26000000000000000000000000000000000000000000000000000000007bffffffffffffffffffffffffffffffffffffffffffffffffffffffff1916827bffffffffffffffffffffffffffffffffffffffffffffffffffffffff191614806119ac57507f0e89341c000000000000000000000000000000000000000000000000000000007bffffffffffffffffffffffffffffffffffffffffffffffffffffffff1916827bffffffffffffffffffffffffffffffffffffffffffffffffffffffff1916145b806119bc57506119bb826121ea565b5b9050919050565b6119cb612254565b73ffffffffffffffffffffffffffffffffffffffff166119e9610fc6565b73ffffffffffffffffffffffffffffffffffffffff1614611a4857611a0c612254565b6040517f118cdaa7000000000000000000000000000000000000000000000000000000008152600401611a3f9190613d5d565b60405180910390fd5b565b6000611a546118b9565b905081816002019081611a67919061463e565b505050565b600073ffffffffffffffffffffffffffffffffffffffff168373ffffffffffffffffffffffffffffffffffffffff1603611ade5760006040517f01a83514000000000000000000000000000000000000000000000000000000008152600401611ad59190613d5d565b60405180910390fd5b600080611aeb848461225c565b91509150611b0c85600084846040518060200160405280600081525061228c565b5050505050565b60007f4a593662ee04d27b6a00ebb31be7fe0c102c2ade82a7c5d764f2df05dc4e2800905090565b600073ffffffffffffffffffffffffffffffffffffffff168473ffffffffffffffffffffffffffffffffffffffff1603611bad5760006040517f57f447ce000000000000000000000000000000000000000000000000000000008152600401611ba49190613d5d565b60405180910390fd5b600080611bba858561225c565b91509150611bcc60008784848761228c565b505050505050565b6000611bde612254565b90508073ffffffffffffffffffffffffffffffffffffffff168673ffffffffffffffffffffffffffffffffffffffff1614158015611c235750611c2186826116df565b155b15611c675780866040517fe237d922000000000000000000000000000000000000000000000000000000008152600401611c5e929190614710565b60405180910390fd5b611c74868686868661233e565b505050505050565b600060208202602084010151905092915050565b600060208202602084010151905092915050565b7f000000000000000000000000000000000000000000000000000000000000000073ffffffffffffffffffffffffffffffffffffffff163073ffffffffffffffffffffffffffffffffffffffff161480611d5157507f000000000000000000000000000000000000000000000000000000000000000073ffffffffffffffffffffffffffffffffffffffff16611d38612436565b73ffffffffffffffffffffffffffffffffffffffff1614155b15611d88576040517fe07c8dba00000000000000000000000000000000000000000000000000000000815260040160405180910390fd5b565b611d926119c3565b50565b8173ffffffffffffffffffffffffffffffffffffffff166352d1902d6040518163ffffffff1660e01b8152600401602060405180830381865afa925050508015611dfd57506040513d601f19601f82011682018060405250810190611dfa9190614765565b60015b611e3e57816040517f4c9c8ce3000000000000000000000000000000000000000000000000000000008152600401611e359190613d5d565b60405180910390fd5b7f360894a13ba1a3210667c828492db98dca3e2076cc3735a920a3ca505d382bbc60001b8114611ea557806040517faa1d49a4000000000000000000000000000000000000000000000000000000008152600401611e9c9190613d33565b60405180910390fd5b611eaf838361248d565b505050565b7f000000000000000000000000000000000000000000000000000000000000000073ffffffffffffffffffffffffffffffffffffffff163073ffffffffffffffffffffffffffffffffffffffff1614611f39576040517fe07c8dba00000000000000000000000000000000000000000000000000000000815260040160405180910390fd5b565b6000611f45612012565b905060008160000160009054906101000a900473ffffffffffffffffffffffffffffffffffffffff169050828260000160006101000a81548173ffffffffffffffffffffffffffffffffffffffff021916908373ffffffffffffffffffffffffffffffffffffffff1602179055508273ffffffffffffffffffffffffffffffffffffffff168173ffffffffffffffffffffffffffffffffffffffff167f8be0079c531659141344cd1fd0a4f28419497f9722a3daafe3b4186f6b6457e060405160405180910390a3505050565b60007f9016d09d72d40fdae2fd8ceac6b6234c7706214fd39c1cd1e609a0528c199300905090565b61204c612045612254565b8383612500565b5050565b60007ff0c57e16840df040f15088dc2f81fe391c3923bec73e23a9662efc9c229c6a00905090565b61208061267f565b565b61208a61267f565b612093816126bf565b50565b61209e61267f565b565b6000806120ab6118b9565b90508060010160008573ffffffffffffffffffffffffffffffffffffffff1673ffffffffffffffffffffffffffffffffffffffff16815260200190815260200160002060008473ffffffffffffffffffffffffffffffffffffffff1673ffffffffffffffffffffffffffffffffffffffff16815260200190815260200160002060009054906101000a900460ff1691505092915050565b600061214c612254565b90508073ffffffffffffffffffffffffffffffffffffffff168673ffffffffffffffffffffffffffffffffffffffff1614158015612191575061218f86826116df565b155b156121d55780866040517fe237d9220000000000000000000000000000000000000000000000000000000081526004016121cc929190614710565b60405180910390fd5b6121e28686868686612745565b505050505050565b60007f01ffc9a7000000000000000000000000000000000000000000000000000000007bffffffffffffffffffffffffffffffffffffffffffffffffffffffff1916827bffffffffffffffffffffffffffffffffffffffffffffffffffffffff1916149050919050565b600033905090565b60608060405191506001825283602083015260408201905060018152826020820152604081016040529250929050565b61229885858585612850565b600073ffffffffffffffffffffffffffffffffffffffff168473ffffffffffffffffffffffffffffffffffffffff16146123375760006122d6612254565b905060018451036123265760006122f7600086611c9090919063ffffffff16565b9050600061230f600086611c9090919063ffffffff16565b905061231f838989858589612a1c565b5050612335565b612334818787878787612bd0565b5b505b5050505050565b600073ffffffffffffffffffffffffffffffffffffffff168473ffffffffffffffffffffffffffffffffffffffff16036123b05760006040517f57f447ce0000000000000000000000000000000000000000000000000000000081526004016123a79190613d5d565b60405180910390fd5b600073ffffffffffffffffffffffffffffffffffffffff168573ffffffffffffffffffffffffffffffffffffffff16036124225760006040517f01a835140000000000000000000000000000000000000000000000000000000081526004016124199190613d5d565b60405180910390fd5b61242f858585858561228c565b5050505050565b60006124647f360894a13ba1a3210667c828492db98dca3e2076cc3735a920a3ca505d382bbc60001b612d84565b60000160009054906101000a900473ffffffffffffffffffffffffffffffffffffffff16905090565b61249682612d8e565b8173ffffffffffffffffffffffffffffffffffffffff167fbc7cd75a20ee27fd9adebab32041f755214dbc6bffa90cc0225b39da2e5c2d3b60405160405180910390a26000815111156124f3576124ed8282612e5b565b506124fc565b6124fb612edf565b5b5050565b600061250a6118b9565b9050600073ffffffffffffffffffffffffffffffffffffffff168373ffffffffffffffffffffffffffffffffffffffff160361257e5760006040517fced3e1000000000000000000000000000000000000000000000000000000000081526004016125759190613d5d565b60405180910390fd5b818160010160008673ffffffffffffffffffffffffffffffffffffffff1673ffffffffffffffffffffffffffffffffffffffff16815260200190815260200160002060008573ffffffffffffffffffffffffffffffffffffffff1673ffffffffffffffffffffffffffffffffffffffff16815260200190815260200160002060006101000a81548160ff0219169083151502179055508273ffffffffffffffffffffffffffffffffffffffff168473ffffffffffffffffffffffffffffffffffffffff167f17307eab39ab6107e8899845ad3d59bd9653f200f220920489ca2b5937696c31846040516126719190613586565b60405180910390a350505050565b612687612f1c565b6126bd576040517fd7e6bcf800000000000000000000000000000000000000000000000000000000815260040160405180910390fd5b565b6126c761267f565b600073ffffffffffffffffffffffffffffffffffffffff168173ffffffffffffffffffffffffffffffffffffffff16036127395760006040517f1e4fbdf70000000000000000000000000000000000000000000000000000000081526004016127309190613d5d565b60405180910390fd5b61274281611f3b565b50565b600073ffffffffffffffffffffffffffffffffffffffff168473ffffffffffffffffffffffffffffffffffffffff16036127b75760006040517f57f447ce0000000000000000000000000000000000000000000000000000000081526004016127ae9190613d5d565b60405180910390fd5b600073ffffffffffffffffffffffffffffffffffffffff168573ffffffffffffffffffffffffffffffffffffffff16036128295760006040517f01a835140000000000000000000000000000000000000000000000000000000081526004016128209190613d5d565b60405180910390fd5b600080612836858561225c565b91509150612847878784848761228c565b50505050505050565b600061285a611b13565b905061286885858585612f3c565b600073ffffffffffffffffffffffffffffffffffffffff168573ffffffffffffffffffffffffffffffffffffffff160361294c576000805b845181101561292e5760008482815181106128be576128bd613ff2565b5b60200260200101519050808460000160008885815181106128e2576128e1613ff2565b5b60200260200101518152602001908152602001600020600082825461290791906141b3565b92505081905550808361291a91906141b3565b9250508061292790614079565b90506128a0565b508082600101600082825461294391906141b3565b92505081905550505b600073ffffffffffffffffffffffffffffffffffffffff168473ffffffffffffffffffffffffffffffffffffffff1603612a15576000805b8451811015612a005760008482815181106129a2576129a1613ff2565b5b60200260200101519050808460000160008885815181106129c6576129c5613ff2565b5b6020026020010151815260200190815260200160002060008282540392505081905550808301925050806129f990614079565b9050612984565b50808260010160008282540392505081905550505b5050505050565b60008473ffffffffffffffffffffffffffffffffffffffff163b1115612bc8578373ffffffffffffffffffffffffffffffffffffffff1663f23a6e6187878686866040518663ffffffff1660e01b8152600401612a7d9594939291906147e7565b6020604051808303816000875af1925050508015612ab957506040513d601f19601f82011682018060405250810190612ab69190614856565b60015b612b3d573d8060008114612ae9576040519150601f19603f3d011682016040523d82523d6000602084013e612aee565b606091505b506000815103612b3557846040517f57f447ce000000000000000000000000000000000000000000000000000000008152600401612b2c9190613d5d565b60405180910390fd5b805181602001fd5b63f23a6e6160e01b7bffffffffffffffffffffffffffffffffffffffffffffffffffffffff1916817bffffffffffffffffffffffffffffffffffffffffffffffffffffffff191614612bc657846040517f57f447ce000000000000000000000000000000000000000000000000000000008152600401612bbd9190613d5d565b60405180910390fd5b505b505050505050565b60008473ffffffffffffffffffffffffffffffffffffffff163b1115612d7c578373ffffffffffffffffffffffffffffffffffffffff1663bc197c8187878686866040518663ffffffff1660e01b8152600401612c31959493929190614883565b6020604051808303816000875af1925050508015612c6d57506040513d601f19601f82011682018060405250810190612c6a9190614856565b60015b612cf1573d8060008114612c9d576040519150601f19603f3d011682016040523d82523d6000602084013e612ca2565b606091505b506000815103612ce957846040517f57f447ce000000000000000000000000000000000000000000000000000000008152600401612ce09190613d5d565b60405180910390fd5b805181602001fd5b63bc197c8160e01b7bffffffffffffffffffffffffffffffffffffffffffffffffffffffff1916817bffffffffffffffffffffffffffffffffffffffffffffffffffffffff191614612d7a57846040517f57f447ce000000000000000000000000000000000000000000000000000000008152600401612d719190613d5d565b60405180910390fd5b505b505050505050565b6000819050919050565b60008173ffffffffffffffffffffffffffffffffffffffff163b03612dea57806040517f4c9c8ce3000000000000000000000000000000000000000000000000000000008152600401612de19190613d5d565b60405180910390fd5b80612e177f360894a13ba1a3210667c828492db98dca3e2076cc3735a920a3ca505d382bbc60001b612d84565b60000160006101000a81548173ffffffffffffffffffffffffffffffffffffffff021916908373ffffffffffffffffffffffffffffffffffffffff16021790555050565b60606000808473ffffffffffffffffffffffffffffffffffffffff1684604051612e859190614927565b600060405180830381855af49150503d8060008114612ec0576040519150601f19603f3d011682016040523d82523d6000602084013e612ec5565b606091505b5091509150612ed5858383613300565b9250505092915050565b6000341115612f1a576040517fb398979f00000000000000000000000000000000000000000000000000000000815260040160405180910390fd5b565b6000612f26612050565b60000160089054906101000a900460ff16905090565b6000612f466118b9565b90508151835114612f9257825182516040517f5b059991000000000000000000000000000000000000000000000000000000008152600401612f89929190614295565b60405180910390fd5b6000612f9c612254565b905060005b84518110156131ba576000612fbf8287611c9090919063ffffffff16565b90506000612fd68387611c9090919063ffffffff16565b9050600073ffffffffffffffffffffffffffffffffffffffff168973ffffffffffffffffffffffffffffffffffffffff161461310957600085600001600084815260200190815260200160002060008b73ffffffffffffffffffffffffffffffffffffffff1673ffffffffffffffffffffffffffffffffffffffff168152602001908152602001600020549050818110156130ae57898183856040517f03dee4c50000000000000000000000000000000000000000000000000000000081526004016130a5949392919061493e565b60405180910390fd5b81810386600001600085815260200190815260200160002060008c73ffffffffffffffffffffffffffffffffffffffff1673ffffffffffffffffffffffffffffffffffffffff16815260200190815260200160002081905550505b600073ffffffffffffffffffffffffffffffffffffffff168873ffffffffffffffffffffffffffffffffffffffff16146131a7578085600001600084815260200190815260200160002060008a73ffffffffffffffffffffffffffffffffffffffff1673ffffffffffffffffffffffffffffffffffffffff168152602001908152602001600020600082825461319f91906141b3565b925050819055505b5050806131b390614079565b9050612fa1565b5060018451036132795760006131da600086611c9090919063ffffffff16565b905060006131f2600086611c9090919063ffffffff16565b90508673ffffffffffffffffffffffffffffffffffffffff168873ffffffffffffffffffffffffffffffffffffffff168473ffffffffffffffffffffffffffffffffffffffff167fc3d58168c5ae7397731d063d5bbf3d657854427343f4c083240f7aacaa2d0f62858560405161326a929190614295565b60405180910390a450506132f8565b8473ffffffffffffffffffffffffffffffffffffffff168673ffffffffffffffffffffffffffffffffffffffff168273ffffffffffffffffffffffffffffffffffffffff167f4a39dc06d4c0dbc64b70af90fd698a233a518aa5d07e595d983b8c0526c8f7fb87876040516132ef929190614983565b60405180910390a45b505050505050565b606082613315576133108261338f565b613387565b6000825114801561333d575060008473ffffffffffffffffffffffffffffffffffffffff163b145b1561337f57836040517f9996b3150000000000000000000000000000000000000000000000000000000081526004016133769190613d5d565b60405180910390fd5b819050613388565b5b9392505050565b6000815111156133a25780518082602001fd5b6040517f1425ea4200000000000000000000000000000000000000000000000000000000815260040160405180910390fd5b6000604051905090565b600080fd5b600080fd5b600073ffffffffffffffffffffffffffffffffffffffff82169050919050565b6000613413826133e8565b9050919050565b61342381613408565b811461342e57600080fd5b50565b6000813590506134408161341a565b92915050565b6000819050919050565b61345981613446565b811461346457600080fd5b50565b60008135905061347681613450565b92915050565b60008060408385031215613493576134926133de565b5b60006134a185828601613431565b92505060206134b285828601613467565b9150509250929050565b6134c581613446565b82525050565b60006020820190506134e060008301846134bc565b92915050565b60007fffffffff0000000000000000000000000000000000000000000000000000000082169050919050565b61351b816134e6565b811461352657600080fd5b50565b60008135905061353881613512565b92915050565b600060208284031215613554576135536133de565b5b600061356284828501613529565b91505092915050565b60008115159050919050565b6135808161356b565b82525050565b600060208201905061359b6000830184613577565b92915050565b600080fd5b600080fd5b6000601f19601f8301169050919050565b7f4e487b7100000000000000000000000000000000000000000000000000000000600052604160045260246000fd5b6135f4826135ab565b810181811067ffffffffffffffff82111715613613576136126135bc565b5b80604052505050565b60006136266133d4565b905061363282826135eb565b919050565b600067ffffffffffffffff821115613652576136516135bc565b5b61365b826135ab565b9050602081019050919050565b82818337600083830152505050565b600061368a61368584613637565b61361c565b9050828152602081018484840111156136a6576136a56135a6565b5b6136b1848285613668565b509392505050565b600082601f8301126136ce576136cd6135a1565b5b81356136de848260208601613677565b91505092915050565b6000602082840312156136fd576136fc6133de565b5b600082013567ffffffffffffffff81111561371b5761371a6133e3565b5b613727848285016136b9565b91505092915050565b600067ffffffffffffffff82111561374b5761374a6135bc565b5b602082029050602081019050919050565b600080fd5b600061377461376f84613730565b61361c565b905080838252602082019050602084028301858111156137975761379661375c565b5b835b818110156137c057806137ac8882613431565b845260208401935050602081019050613799565b5050509392505050565b600082601f8301126137df576137de6135a1565b5b81356137ef848260208601613761565b91505092915050565b600067ffffffffffffffff821115613813576138126135bc565b5b602082029050602081019050919050565b6000613837613832846137f8565b61361c565b9050808382526020820190506020840283018581111561385a5761385961375c565b5b835b81811015613883578061386f8882613467565b84526020840193505060208101905061385c565b5050509392505050565b600082601f8301126138a2576138a16135a1565b5b81356138b2848260208601613824565b91505092915050565b600080604083850312156138d2576138d16133de565b5b600083013567ffffffffffffffff8111156138f0576138ef6133e3565b5b6138fc858286016137ca565b925050602083013567ffffffffffffffff81111561391d5761391c6133e3565b5b6139298582860161388d565b9150509250929050565b600060208284031215613949576139486133de565b5b600061395784828501613467565b91505092915050565b600081519050919050565b600082825260208201905092915050565b60005b8381101561399a57808201518184015260208101905061397f565b60008484015250505050565b60006139b182613960565b6139bb818561396b565b93506139cb81856020860161397c565b6139d4816135ab565b840191505092915050565b600060208201905081810360008301526139f981846139a6565b905092915050565b600060208284031215613a1757613a166133de565b5b6000613a2584828501613431565b91505092915050565b60008060408385031215613a4557613a446133de565b5b6000613a5385828601613467565b9250506020613a6485828601613467565b9150509250929050565b600067ffffffffffffffff821115613a8957613a886135bc565b5b613a92826135ab565b9050602081019050919050565b6000613ab2613aad84613a6e565b61361c565b905082815260208101848484011115613ace57613acd6135a6565b5b613ad9848285613668565b509392505050565b600082601f830112613af657613af56135a1565b5b8135613b06848260208601613a9f565b91505092915050565b600080600080600060a08688031215613b2b57613b2a6133de565b5b6000613b3988828901613431565b9550506020613b4a88828901613431565b945050604086013567ffffffffffffffff811115613b6b57613b6a6133e3565b5b613b778882890161388d565b935050606086013567ffffffffffffffff811115613b9857613b976133e3565b5b613ba48882890161388d565b925050608086013567ffffffffffffffff811115613bc557613bc46133e3565b5b613bd188828901613ae1565b9150509295509295909350565b600081519050919050565b600082825260208201905092915050565b6000819050602082019050919050565b613c1381613446565b82525050565b6000613c258383613c0a565b60208301905092915050565b6000602082019050919050565b6000613c4982613bde565b613c538185613be9565b9350613c5e83613bfa565b8060005b83811015613c8f578151613c768882613c19565b9750613c8183613c31565b925050600181019050613c62565b5085935050505092915050565b60006020820190508181036000830152613cb68184613c3e565b905092915050565b60008060408385031215613cd557613cd46133de565b5b6000613ce385828601613431565b925050602083013567ffffffffffffffff811115613d0457613d036133e3565b5b613d1085828601613ae1565b9150509250929050565b6000819050919050565b613d2d81613d1a565b82525050565b6000602082019050613d486000830184613d24565b92915050565b613d5781613408565b82525050565b6000602082019050613d726000830184613d4e565b92915050565b60008060408385031215613d8f57613d8e6133de565b5b6000613d9d85828601613467565b9250506020613dae85828601613431565b9150509250929050565b613dc18161356b565b8114613dcc57600080fd5b50565b600081359050613dde81613db8565b92915050565b60008060408385031215613dfb57613dfa6133de565b5b6000613e0985828601613431565b9250506020613e1a85828601613dcf565b9150509250929050565b600080600060608486031215613e3d57613e3c6133de565b5b6000613e4b86828701613431565b935050602084013567ffffffffffffffff811115613e6c57613e6b6133e3565b5b613e78868287016137ca565b925050604084013567ffffffffffffffff811115613e9957613e986133e3565b5b613ea5868287016136b9565b9150509250925092565b60008060408385031215613ec657613ec56133de565b5b6000613ed485828601613431565b9250506020613ee585828601613431565b9150509250929050565b600080600080600060a08688031215613f0b57613f0a6133de565b5b6000613f1988828901613431565b9550506020613f2a88828901613431565b9450506040613f3b88828901613467565b9350506060613f4c88828901613467565b925050608086013567ffffffffffffffff811115613f6d57613f6c6133e3565b5b613f7988828901613ae1565b9150509295509295909350565b7f6e6f742061646d696e0000000000000000000000000000000000000000000000600082015250565b6000613fbc60098361396b565b9150613fc782613f86565b602082019050919050565b60006020820190508181036000830152613feb81613faf565b9050919050565b7f4e487b7100000000000000000000000000000000000000000000000000000000600052603260045260246000fd5b60006040820190506140366000830185613d4e565b61404360208301846134bc565b9392505050565b7f4e487b7100000000000000000000000000000000000000000000000000000000600052601160045260246000fd5b600061408482613446565b91507fffffffffffffffffffffffffffffffffffffffffffffffffffffffffffffffff82036140b6576140b561404a565b5b600182019050919050565b7f4e487b7100000000000000000000000000000000000000000000000000000000600052602260045260246000fd5b6000600282049050600182168061410857607f821691505b60208210810361411b5761411a6140c1565b5b50919050565b7f73656e646572206973206e6f74206f776e657220666f72207468697320746f6b60008201527f656e000000000000000000000000000000000000000000000000000000000000602082015250565b600061417d60228361396b565b915061418882614121565b604082019050919050565b600060208201905081810360008301526141ac81614170565b9050919050565b60006141be82613446565b91506141c983613446565b92508282019050808211156141e1576141e061404a565b5b92915050565b7f6e657720737570706c7920776f756c6420657863656564206d61780000000000600082015250565b600061421d601b8361396b565b9150614228826141e7565b602082019050919050565b6000602082019050818103600083015261424c81614210565b9050919050565b60008151905061426281613db8565b92915050565b60006020828403121561427e5761427d6133de565b5b600061428c84828501614253565b91505092915050565b60006040820190506142aa60008301856134bc565b6142b760208301846134bc565b9392505050565b7f30206e6f7420616c6c6f77656400000000000000000000000000000000000000600082015250565b60006142f4600d8361396b565b91506142ff826142be565b602082019050919050565b60006020820190508181036000830152614323816142e7565b9050919050565b6000819050919050565b600067ffffffffffffffff82169050919050565b6000819050919050565b600061436d6143686143638461432a565b614348565b614334565b9050919050565b61437d81614352565b82525050565b60006020820190506143986000830184614374565b92915050565b7f6e6577206d6178696d756d20737570706c7920776f756c64206578636565642060008201527f3130303000000000000000000000000000000000000000000000000000000000602082015250565b60006143fa60248361396b565b91506144058261439e565b604082019050919050565b60006020820190508181036000830152614429816143ed565b9050919050565b7f617274697374206e6f742073657420666f72207468697320746f6b656e000000600082015250565b6000614466601d8361396b565b915061447182614430565b602082019050919050565b6000602082019050818103600083015261449581614459565b9050919050565b60008190508160005260206000209050919050565b60006020601f8301049050919050565b600082821b905092915050565b6000600883026144fe7fffffffffffffffffffffffffffffffffffffffffffffffffffffffffffffffff826144c1565b61450886836144c1565b95508019841693508086168417925050509392505050565b600061453b61453661453184613446565b614348565b613446565b9050919050565b6000819050919050565b61455583614520565b61456961456182614542565b8484546144ce565b825550505050565b600090565b61457e614571565b61458981848461454c565b505050565b5b818110156145ad576145a2600082614576565b60018101905061458f565b5050565b601f8211156145f2576145c38161449c565b6145cc846144b1565b810160208510156145db578190505b6145ef6145e7856144b1565b83018261458e565b50505b505050565b600082821c905092915050565b6000614615600019846008026145f7565b1980831691505092915050565b600061462e8383614604565b9150826002028217905092915050565b61464782613960565b67ffffffffffffffff8111156146605761465f6135bc565b5b61466a82546140f0565b6146758282856145b1565b600060209050601f8311600181146146a85760008415614696578287015190505b6146a08582614622565b865550614708565b601f1984166146b68661449c565b60005b828110156146de578489015182556001820191506020850194506020810190506146b9565b868310156146fb57848901516146f7601f891682614604565b8355505b6001600288020188555050505b505050505050565b60006040820190506147256000830185613d4e565b6147326020830184613d4e565b9392505050565b61474281613d1a565b811461474d57600080fd5b50565b60008151905061475f81614739565b92915050565b60006020828403121561477b5761477a6133de565b5b600061478984828501614750565b91505092915050565b600081519050919050565b600082825260208201905092915050565b60006147b982614792565b6147c3818561479d565b93506147d381856020860161397c565b6147dc816135ab565b840191505092915050565b600060a0820190506147fc6000830188613d4e565b6148096020830187613d4e565b61481660408301866134bc565b61482360608301856134bc565b818103608083015261483581846147ae565b90509695505050505050565b60008151905061485081613512565b92915050565b60006020828403121561486c5761486b6133de565b5b600061487a84828501614841565b91505092915050565b600060a0820190506148986000830188613d4e565b6148a56020830187613d4e565b81810360408301526148b78186613c3e565b905081810360608301526148cb8185613c3e565b905081810360808301526148df81846147ae565b90509695505050505050565b600081905092915050565b600061490182614792565b61490b81856148eb565b935061491b81856020860161397c565b80840191505092915050565b600061493382846148f6565b915081905092915050565b60006080820190506149536000830187613d4e565b61496060208301866134bc565b61496d60408301856134bc565b61497a60608301846134bc565b95945050505050565b6000604082019050818103600083015261499d8185613c3e565b905081810360208301526149b18184613c3e565b9050939250505056fea2646970667358221220957aa2b07f1769f8bd7664da736d9e956bf37f4cd52508d8767fc79b8f852bd964736f6c63430008140033","opcodes":"PUSH1 0xA0 PUSH1 0x40 MSTORE ADDRESS PUSH20 0xFFFFFFFFFFFFFFFFFFFFFFFFFFFFFFFFFFFFFFFF AND PUSH1 0x80 SWAP1 PUSH20 0xFFFFFFFFFFFFFFFFFFFFFFFFFFFFFFFFFFFFFFFF AND DUP2 MSTORE POP CALLVALUE DUP1 ISZERO PUSH2 0x43 JUMPI PUSH1 0x0 DUP1 REVERT JUMPDEST POP PUSH1 0x80 MLOAD PUSH2 0x49F0 PUSH2 0x6D PUSH1 0x0 CODECOPY PUSH1 0x0 DUP2 DUP2 PUSH2 0x1CA6 ADD MSTORE DUP2 DUP2 PUSH2 0x1CFB ADD MSTORE PUSH2 0x1EB6 ADD MSTORE PUSH2 0x49F0 PUSH1 0x0 RETURN INVALID PUSH1 0x80 PUSH1 0x40 MSTORE PUSH1 0x4 CALLDATASIZE LT PUSH2 0x1D7 JUMPI PUSH1 0x0 CALLDATALOAD PUSH1 0xE0 SHR DUP1 PUSH4 0x52D1902D GT PUSH2 0x102 JUMPI DUP1 PUSH4 0xBB625509 GT PUSH2 0x95 JUMPI DUP1 PUSH4 0xE985E9C5 GT PUSH2 0x64 JUMPI DUP1 PUSH4 0xE985E9C5 EQ PUSH2 0x6CC JUMPI DUP1 PUSH4 0xF242432A EQ PUSH2 0x709 JUMPI DUP1 PUSH4 0xF2FDE38B EQ PUSH2 0x732 JUMPI DUP1 PUSH4 0xFBE0A892 EQ PUSH2 0x75B JUMPI PUSH2 0x1D7 JUMP JUMPDEST DUP1 PUSH4 0xBB625509 EQ PUSH2 0x614 JUMPI DUP1 PUSH4 0xBD85B039 EQ PUSH2 0x63D JUMPI DUP1 PUSH4 0xC36497E5 EQ PUSH2 0x67A JUMPI DUP1 PUSH4 0xD00E40CE EQ PUSH2 0x6A3 JUMPI PUSH2 0x1D7 JUMP JUMPDEST DUP1 PUSH4 0x8DA5CB5B GT PUSH2 0xD1 JUMPI DUP1 PUSH4 0x8DA5CB5B EQ PUSH2 0x56C JUMPI DUP1 PUSH4 0x9ECA4B7B EQ PUSH2 0x597 JUMPI DUP1 PUSH4 0xA22CB465 EQ PUSH2 0x5C0 JUMPI DUP1 PUSH4 0xAD3CB1CC EQ PUSH2 0x5E9 JUMPI PUSH2 0x1D7 JUMP JUMPDEST DUP1 PUSH4 0x52D1902D EQ PUSH2 0x4C4 JUMPI DUP1 PUSH4 0x70480275 EQ PUSH2 0x4EF JUMPI DUP1 PUSH4 0x715018A6 EQ PUSH2 0x518 JUMPI DUP1 PUSH4 0x831FFD05 EQ PUSH2 0x52F JUMPI PUSH2 0x1D7 JUMP JUMPDEST DUP1 PUSH4 0x18160DDD GT PUSH2 0x17A JUMPI DUP1 PUSH4 0x429B62E5 GT PUSH2 0x149 JUMPI DUP1 PUSH4 0x429B62E5 EQ PUSH2 0x3F1 JUMPI DUP1 PUSH4 0x4E1273F4 EQ PUSH2 0x42E JUMPI DUP1 PUSH4 0x4F1EF286 EQ PUSH2 0x46B JUMPI DUP1 PUSH4 0x4F558E79 EQ PUSH2 0x487 JUMPI PUSH2 0x1D7 JUMP JUMPDEST DUP1 PUSH4 0x18160DDD EQ PUSH2 0x337 JUMPI DUP1 PUSH4 0x1B2EF1CA EQ PUSH2 0x362 JUMPI DUP1 PUSH4 0x24D7806C EQ PUSH2 0x38B JUMPI DUP1 PUSH4 0x2EB2C2D6 EQ PUSH2 0x3C8 JUMPI PUSH2 0x1D7 JUMP JUMPDEST DUP1 PUSH4 0x6DD0419 GT PUSH2 0x1B6 JUMPI DUP1 PUSH4 0x6DD0419 EQ PUSH2 0x27F JUMPI DUP1 PUSH4 0x77D9234 EQ PUSH2 0x2A8 JUMPI DUP1 PUSH4 0xE89341C EQ PUSH2 0x2D1 JUMPI DUP1 PUSH4 0x1785F53C EQ PUSH2 0x30E JUMPI PUSH2 0x1D7 JUMP JUMPDEST DUP1 PUSH3 0xFDD58E EQ PUSH2 0x1DC JUMPI DUP1 PUSH4 0x1FFC9A7 EQ PUSH2 0x219 JUMPI DUP1 PUSH4 0x2FE5305 EQ PUSH2 0x256 JUMPI JUMPDEST PUSH1 0x0 DUP1 REVERT JUMPDEST CALLVALUE DUP1 ISZERO PUSH2 0x1E8 JUMPI PUSH1 0x0 DUP1 REVERT JUMPDEST POP PUSH2 0x203 PUSH1 0x4 DUP1 CALLDATASIZE SUB DUP2 ADD SWAP1 PUSH2 0x1FE SWAP2 SWAP1 PUSH2 0x347C JUMP JUMPDEST PUSH2 0x798 JUMP JUMPDEST PUSH1 0x40 MLOAD PUSH2 0x210 SWAP2 SWAP1 PUSH2 0x34CB JUMP JUMPDEST PUSH1 0x40 MLOAD DUP1 SWAP2 SUB SWAP1 RETURN JUMPDEST CALLVALUE DUP1 ISZERO PUSH2 0x225 JUMPI PUSH1 0x0 DUP1 REVERT JUMPDEST POP PUSH2 0x240 PUSH1 0x4 DUP1 CALLDATASIZE SUB DUP2 ADD SWAP1 PUSH2 0x23B SWAP2 SWAP1 PUSH2 0x353E JUMP JUMPDEST PUSH2 0x801 JUMP JUMPDEST PUSH1 0x40 MLOAD PUSH2 0x24D SWAP2 SWAP1 PUSH2 0x3586 JUMP JUMPDEST PUSH1 0x40 MLOAD DUP1 SWAP2 SUB SWAP1 RETURN JUMPDEST CALLVALUE DUP1 ISZERO PUSH2 0x262 JUMPI PUSH1 0x0 DUP1 REVERT JUMPDEST POP PUSH2 0x27D PUSH1 0x4 DUP1 CALLDATASIZE SUB DUP2 ADD SWAP1 PUSH2 0x278 SWAP2 SWAP1 PUSH2 0x36E7 JUMP JUMPDEST PUSH2 0x87B JUMP JUMPDEST STOP JUMPDEST CALLVALUE DUP1 ISZERO PUSH2 0x28B JUMPI PUSH1 0x0 DUP1 REVERT JUMPDEST POP PUSH2 0x2A6 PUSH1 0x4 DUP1 CALLDATASIZE SUB DUP2 ADD SWAP1 PUSH2 0x2A1 SWAP2 SWAP1 PUSH2 0x347C JUMP JUMPDEST PUSH2 0x88F JUMP JUMPDEST STOP JUMPDEST CALLVALUE DUP1 ISZERO PUSH2 0x2B4 JUMPI PUSH1 0x0 DUP1 REVERT JUMPDEST POP PUSH2 0x2CF PUSH1 0x4 DUP1 CALLDATASIZE SUB DUP2 ADD SWAP1 PUSH2 0x2CA SWAP2 SWAP1 PUSH2 0x38BB JUMP JUMPDEST PUSH2 0x92A JUMP JUMPDEST STOP JUMPDEST CALLVALUE DUP1 ISZERO PUSH2 0x2DD JUMPI PUSH1 0x0 DUP1 REVERT JUMPDEST POP PUSH2 0x2F8 PUSH1 0x4 DUP1 CALLDATASIZE SUB DUP2 ADD SWAP1 PUSH2 0x2F3 SWAP2 SWAP1 PUSH2 0x3933 JUMP JUMPDEST PUSH2 0x9EF JUMP JUMPDEST PUSH1 0x40 MLOAD PUSH2 0x305 SWAP2 SWAP1 PUSH2 0x39DF JUMP JUMPDEST PUSH1 0x40 MLOAD DUP1 SWAP2 SUB SWAP1 RETURN JUMPDEST CALLVALUE DUP1 ISZERO PUSH2 0x31A JUMPI PUSH1 0x0 DUP1 REVERT JUMPDEST POP PUSH2 0x335 PUSH1 0x4 DUP1 CALLDATASIZE SUB DUP2 ADD SWAP1 PUSH2 0x330 SWAP2 SWAP1 PUSH2 0x3A01 JUMP JUMPDEST PUSH2 0xA92 JUMP JUMPDEST STOP JUMPDEST CALLVALUE DUP1 ISZERO PUSH2 0x343 JUMPI PUSH1 0x0 DUP1 REVERT JUMPDEST POP PUSH2 0x34C PUSH2 0xAEB JUMP JUMPDEST PUSH1 0x40 MLOAD PUSH2 0x359 SWAP2 SWAP1 PUSH2 0x34CB JUMP JUMPDEST PUSH1 0x40 MLOAD DUP1 SWAP2 SUB SWAP1 RETURN JUMPDEST CALLVALUE DUP1 ISZERO PUSH2 0x36E JUMPI PUSH1 0x0 DUP1 REVERT JUMPDEST POP PUSH2 0x389 PUSH1 0x4 DUP1 CALLDATASIZE SUB DUP2 ADD SWAP1 PUSH2 0x384 SWAP2 SWAP1 PUSH2 0x3A2E JUMP JUMPDEST PUSH2 0xB03 JUMP JUMPDEST STOP JUMPDEST CALLVALUE DUP1 ISZERO PUSH2 0x397 JUMPI PUSH1 0x0 DUP1 REVERT JUMPDEST POP PUSH2 0x3B2 PUSH1 0x4 DUP1 CALLDATASIZE SUB DUP2 ADD SWAP1 PUSH2 0x3AD SWAP2 SWAP1 PUSH2 0x3A01 JUMP JUMPDEST PUSH2 0xC5F JUMP JUMPDEST PUSH1 0x40 MLOAD PUSH2 0x3BF SWAP2 SWAP1 PUSH2 0x3586 JUMP JUMPDEST PUSH1 0x40 MLOAD DUP1 SWAP2 SUB SWAP1 RETURN JUMPDEST CALLVALUE DUP1 ISZERO PUSH2 0x3D4 JUMPI PUSH1 0x0 DUP1 REVERT JUMPDEST POP PUSH2 0x3EF PUSH1 0x4 DUP1 CALLDATASIZE SUB DUP2 ADD SWAP1 PUSH2 0x3EA SWAP2 SWAP1 PUSH2 0x3B0F JUMP JUMPDEST PUSH2 0xCBB JUMP JUMPDEST STOP JUMPDEST CALLVALUE DUP1 ISZERO PUSH2 0x3FD JUMPI PUSH1 0x0 DUP1 REVERT JUMPDEST POP PUSH2 0x418 PUSH1 0x4 DUP1 CALLDATASIZE SUB DUP2 ADD SWAP1 PUSH2 0x413 SWAP2 SWAP1 PUSH2 0x3A01 JUMP JUMPDEST PUSH2 0xD88 JUMP JUMPDEST PUSH1 0x40 MLOAD PUSH2 0x425 SWAP2 SWAP1 PUSH2 0x3586 JUMP JUMPDEST PUSH1 0x40 MLOAD DUP1 SWAP2 SUB SWAP1 RETURN JUMPDEST CALLVALUE DUP1 ISZERO PUSH2 0x43A JUMPI PUSH1 0x0 DUP1 REVERT JUMPDEST POP PUSH2 0x455 PUSH1 0x4 DUP1 CALLDATASIZE SUB DUP2 ADD SWAP1 PUSH2 0x450 SWAP2 SWAP1 PUSH2 0x38BB JUMP JUMPDEST PUSH2 0xDA8 JUMP JUMPDEST PUSH1 0x40 MLOAD PUSH2 0x462 SWAP2 SWAP1 PUSH2 0x3C9C JUMP JUMPDEST PUSH1 0x40 MLOAD DUP1 SWAP2 SUB SWAP1 RETURN JUMPDEST PUSH2 0x485 PUSH1 0x4 DUP1 CALLDATASIZE SUB DUP2 ADD SWAP1 PUSH2 0x480 SWAP2 SWAP1 PUSH2 0x3CBE JUMP JUMPDEST PUSH2 0xEB7 JUMP JUMPDEST STOP JUMPDEST CALLVALUE DUP1 ISZERO PUSH2 0x493 JUMPI PUSH1 0x0 DUP1 REVERT JUMPDEST POP PUSH2 0x4AE PUSH1 0x4 DUP1 CALLDATASIZE SUB DUP2 ADD SWAP1 PUSH2 0x4A9 SWAP2 SWAP1 PUSH2 0x3933 JUMP JUMPDEST PUSH2 0xED6 JUMP JUMPDEST PUSH1 0x40 MLOAD PUSH2 0x4BB SWAP2 SWAP1 PUSH2 0x3586 JUMP JUMPDEST PUSH1 0x40 MLOAD DUP1 SWAP2 SUB SWAP1 RETURN JUMPDEST CALLVALUE DUP1 ISZERO PUSH2 0x4D0 JUMPI PUSH1 0x0 DUP1 REVERT JUMPDEST POP PUSH2 0x4D9 PUSH2 0xEEA JUMP JUMPDEST PUSH1 0x40 MLOAD PUSH2 0x4E6 SWAP2 SWAP1 PUSH2 0x3D33 JUMP JUMPDEST PUSH1 0x40 MLOAD DUP1 SWAP2 SUB SWAP1 RETURN JUMPDEST CALLVALUE DUP1 ISZERO PUSH2 0x4FB JUMPI PUSH1 0x0 DUP1 REVERT JUMPDEST POP PUSH2 0x516 PUSH1 0x4 DUP1 CALLDATASIZE SUB DUP2 ADD SWAP1 PUSH2 0x511 SWAP2 SWAP1 PUSH2 0x3A01 JUMP JUMPDEST PUSH2 0xF1D JUMP JUMPDEST STOP JUMPDEST CALLVALUE DUP1 ISZERO PUSH2 0x524 JUMPI PUSH1 0x0 DUP1 REVERT JUMPDEST POP PUSH2 0x52D PUSH2 0xF7F JUMP JUMPDEST STOP JUMPDEST CALLVALUE DUP1 ISZERO PUSH2 0x53B JUMPI PUSH1 0x0 DUP1 REVERT JUMPDEST POP PUSH2 0x556 PUSH1 0x4 DUP1 CALLDATASIZE SUB DUP2 ADD SWAP1 PUSH2 0x551 SWAP2 SWAP1 PUSH2 0x3933 JUMP JUMPDEST PUSH2 0xF93 JUMP JUMPDEST PUSH1 0x40 MLOAD PUSH2 0x563 SWAP2 SWAP1 PUSH2 0x3D5D JUMP JUMPDEST PUSH1 0x40 MLOAD DUP1 SWAP2 SUB SWAP1 RETURN JUMPDEST CALLVALUE DUP1 ISZERO PUSH2 0x578 JUMPI PUSH1 0x0 DUP1 REVERT JUMPDEST POP PUSH2 0x581 PUSH2 0xFC6 JUMP JUMPDEST PUSH1 0x40 MLOAD PUSH2 0x58E SWAP2 SWAP1 PUSH2 0x3D5D JUMP JUMPDEST PUSH1 0x40 MLOAD DUP1 SWAP2 SUB SWAP1 RETURN JUMPDEST CALLVALUE DUP1 ISZERO PUSH2 0x5A3 JUMPI PUSH1 0x0 DUP1 REVERT JUMPDEST POP PUSH2 0x5BE PUSH1 0x4 DUP1 CALLDATASIZE SUB DUP2 ADD SWAP1 PUSH2 0x5B9 SWAP2 SWAP1 PUSH2 0x3D78 JUMP JUMPDEST PUSH2 0xFFE JUMP JUMPDEST STOP JUMPDEST CALLVALUE DUP1 ISZERO PUSH2 0x5CC JUMPI PUSH1 0x0 DUP1 REVERT JUMPDEST POP PUSH2 0x5E7 PUSH1 0x4 DUP1 CALLDATASIZE SUB DUP2 ADD SWAP1 PUSH2 0x5E2 SWAP2 SWAP1 PUSH2 0x3DE4 JUMP JUMPDEST PUSH2 0x1122 JUMP JUMPDEST STOP JUMPDEST CALLVALUE DUP1 ISZERO PUSH2 0x5F5 JUMPI PUSH1 0x0 DUP1 REVERT JUMPDEST POP PUSH2 0x5FE PUSH2 0x1130 JUMP JUMPDEST PUSH1 0x40 MLOAD PUSH2 0x60B SWAP2 SWAP1 PUSH2 0x39DF JUMP JUMPDEST PUSH1 0x40 MLOAD DUP1 SWAP2 SUB SWAP1 RETURN JUMPDEST CALLVALUE DUP1 ISZERO PUSH2 0x620 JUMPI PUSH1 0x0 DUP1 REVERT JUMPDEST POP PUSH2 0x63B PUSH1 0x4 DUP1 CALLDATASIZE SUB DUP2 ADD SWAP1 PUSH2 0x636 SWAP2 SWAP1 PUSH2 0x3E24 JUMP JUMPDEST PUSH2 0x1169 JUMP JUMPDEST STOP JUMPDEST CALLVALUE DUP1 ISZERO PUSH2 0x649 JUMPI PUSH1 0x0 DUP1 REVERT JUMPDEST POP PUSH2 0x664 PUSH1 0x4 DUP1 CALLDATASIZE SUB DUP2 ADD SWAP1 PUSH2 0x65F SWAP2 SWAP1 PUSH2 0x3933 JUMP JUMPDEST PUSH2 0x13A4 JUMP JUMPDEST PUSH1 0x40 MLOAD PUSH2 0x671 SWAP2 SWAP1 PUSH2 0x34CB JUMP JUMPDEST PUSH1 0x40 MLOAD DUP1 SWAP2 SUB SWAP1 RETURN JUMPDEST CALLVALUE DUP1 ISZERO PUSH2 0x686 JUMPI PUSH1 0x0 DUP1 REVERT JUMPDEST POP PUSH2 0x6A1 PUSH1 0x4 DUP1 CALLDATASIZE SUB DUP2 ADD SWAP1 PUSH2 0x69C SWAP2 SWAP1 PUSH2 0x3A2E JUMP JUMPDEST PUSH2 0x13CF JUMP JUMPDEST STOP JUMPDEST CALLVALUE DUP1 ISZERO PUSH2 0x6AF JUMPI PUSH1 0x0 DUP1 REVERT JUMPDEST POP PUSH2 0x6CA PUSH1 0x4 DUP1 CALLDATASIZE SUB DUP2 ADD SWAP1 PUSH2 0x6C5 SWAP2 SWAP1 PUSH2 0x3A2E JUMP JUMPDEST PUSH2 0x14F7 JUMP JUMPDEST STOP JUMPDEST CALLVALUE DUP1 ISZERO PUSH2 0x6D8 JUMPI PUSH1 0x0 DUP1 REVERT JUMPDEST POP PUSH2 0x6F3 PUSH1 0x4 DUP1 CALLDATASIZE SUB DUP2 ADD SWAP1 PUSH2 0x6EE SWAP2 SWAP1 PUSH2 0x3EAF JUMP JUMPDEST PUSH2 0x16DF JUMP JUMPDEST PUSH1 0x40 MLOAD PUSH2 0x700 SWAP2 SWAP1 PUSH2 0x3586 JUMP JUMPDEST PUSH1 0x40 MLOAD DUP1 SWAP2 SUB SWAP1 RETURN JUMPDEST CALLVALUE DUP1 ISZERO PUSH2 0x715 JUMPI PUSH1 0x0 DUP1 REVERT JUMPDEST POP PUSH2 0x730 PUSH1 0x4 DUP1 CALLDATASIZE SUB DUP2 ADD SWAP1 PUSH2 0x72B SWAP2 SWAP1 PUSH2 0x3EEF JUMP JUMPDEST PUSH2 0x174E JUMP JUMPDEST STOP JUMPDEST CALLVALUE DUP1 ISZERO PUSH2 0x73E JUMPI PUSH1 0x0 DUP1 REVERT JUMPDEST POP PUSH2 0x759 PUSH1 0x4 DUP1 CALLDATASIZE SUB DUP2 ADD SWAP1 PUSH2 0x754 SWAP2 SWAP1 PUSH2 0x3A01 JUMP JUMPDEST PUSH2 0x181B JUMP JUMPDEST STOP JUMPDEST CALLVALUE DUP1 ISZERO PUSH2 0x767 JUMPI PUSH1 0x0 DUP1 REVERT JUMPDEST POP PUSH2 0x782 PUSH1 0x4 DUP1 CALLDATASIZE SUB DUP2 ADD SWAP1 PUSH2 0x77D SWAP2 SWAP1 PUSH2 0x3933 JUMP JUMPDEST PUSH2 0x18A1 JUMP JUMPDEST PUSH1 0x40 MLOAD PUSH2 0x78F SWAP2 SWAP1 PUSH2 0x34CB JUMP JUMPDEST PUSH1 0x40 MLOAD DUP1 SWAP2 SUB SWAP1 RETURN JUMPDEST PUSH1 0x0 DUP1 PUSH2 0x7A3 PUSH2 0x18B9 JUMP JUMPDEST SWAP1 POP DUP1 PUSH1 0x0 ADD PUSH1 0x0 DUP5 DUP2 MSTORE PUSH1 0x20 ADD SWAP1 DUP2 MSTORE PUSH1 0x20 ADD PUSH1 0x0 KECCAK256 PUSH1 0x0 DUP6 PUSH20 0xFFFFFFFFFFFFFFFFFFFFFFFFFFFFFFFFFFFFFFFF AND PUSH20 0xFFFFFFFFFFFFFFFFFFFFFFFFFFFFFFFFFFFFFFFF AND DUP2 MSTORE PUSH1 0x20 ADD SWAP1 DUP2 MSTORE PUSH1 0x20 ADD PUSH1 0x0 KECCAK256 SLOAD SWAP2 POP POP SWAP3 SWAP2 POP POP JUMP JUMPDEST PUSH1 0x0 PUSH32 0x2A55205A00000000000000000000000000000000000000000000000000000000 PUSH28 0xFFFFFFFFFFFFFFFFFFFFFFFFFFFFFFFFFFFFFFFFFFFFFFFFFFFFFFFF NOT AND DUP3 PUSH28 0xFFFFFFFFFFFFFFFFFFFFFFFFFFFFFFFFFFFFFFFFFFFFFFFFFFFFFFFF NOT AND EQ DUP1 PUSH2 0x874 JUMPI POP PUSH2 0x873 DUP3 PUSH2 0x18E1 JUMP JUMPDEST JUMPDEST SWAP1 POP SWAP2 SWAP1 POP JUMP JUMPDEST PUSH2 0x883 PUSH2 0x19C3 JUMP JUMPDEST PUSH2 0x88C DUP2 PUSH2 0x1A4A JUMP JUMPDEST POP JUMP JUMPDEST PUSH1 0x0 DUP1 CALLER PUSH20 0xFFFFFFFFFFFFFFFFFFFFFFFFFFFFFFFFFFFFFFFF AND PUSH20 0xFFFFFFFFFFFFFFFFFFFFFFFFFFFFFFFFFFFFFFFF AND DUP2 MSTORE PUSH1 0x20 ADD SWAP1 DUP2 MSTORE PUSH1 0x20 ADD PUSH1 0x0 KECCAK256 PUSH1 0x0 SWAP1 SLOAD SWAP1 PUSH2 0x100 EXP SWAP1 DIV PUSH1 0xFF AND PUSH2 0x91A JUMPI PUSH1 0x40 MLOAD PUSH32 0x8C379A000000000000000000000000000000000000000000000000000000000 DUP2 MSTORE PUSH1 0x4 ADD PUSH2 0x911 SWAP1 PUSH2 0x3FD2 JUMP JUMPDEST PUSH1 0x40 MLOAD DUP1 SWAP2 SUB SWAP1 REVERT JUMPDEST PUSH2 0x926 DUP3 DUP3 PUSH1 0x1 PUSH2 0x1A6C JUMP JUMPDEST POP POP JUMP JUMPDEST PUSH1 0x0 JUMPDEST DUP3 MLOAD DUP2 LT ISZERO PUSH2 0x9EA JUMPI ADDRESS PUSH20 0xFFFFFFFFFFFFFFFFFFFFFFFFFFFFFFFFFFFFFFFF AND PUSH4 0x6DD0419 DUP5 DUP4 DUP2 MLOAD DUP2 LT PUSH2 0x965 JUMPI PUSH2 0x964 PUSH2 0x3FF2 JUMP JUMPDEST JUMPDEST PUSH1 0x20 MUL PUSH1 0x20 ADD ADD MLOAD DUP5 DUP5 DUP2 MLOAD DUP2 LT PUSH2 0x980 JUMPI PUSH2 0x97F PUSH2 0x3FF2 JUMP JUMPDEST JUMPDEST PUSH1 0x20 MUL PUSH1 0x20 ADD ADD MLOAD PUSH1 0x40 MLOAD DUP4 PUSH4 0xFFFFFFFF AND PUSH1 0xE0 SHL DUP2 MSTORE PUSH1 0x4 ADD PUSH2 0x9A5 SWAP3 SWAP2 SWAP1 PUSH2 0x4021 JUMP JUMPDEST PUSH1 0x0 PUSH1 0x40 MLOAD DUP1 DUP4 SUB DUP2 PUSH1 0x0 DUP8 DUP1 EXTCODESIZE ISZERO DUP1 ISZERO PUSH2 0x9BF JUMPI PUSH1 0x0 DUP1 REVERT JUMPDEST POP GAS CALL ISZERO DUP1 ISZERO PUSH2 0x9D3 JUMPI RETURNDATASIZE PUSH1 0x0 DUP1 RETURNDATACOPY RETURNDATASIZE PUSH1 0x0 REVERT JUMPDEST POP POP POP POP DUP1 DUP1 PUSH2 0x9E2 SWAP1 PUSH2 0x4079 JUMP JUMPDEST SWAP2 POP POP PUSH2 0x92D JUMP JUMPDEST POP POP POP JUMP JUMPDEST PUSH1 0x60 PUSH1 0x0 PUSH2 0x9FB PUSH2 0x18B9 JUMP JUMPDEST SWAP1 POP DUP1 PUSH1 0x2 ADD DUP1 SLOAD PUSH2 0xA0C SWAP1 PUSH2 0x40F0 JUMP JUMPDEST DUP1 PUSH1 0x1F ADD PUSH1 0x20 DUP1 SWAP2 DIV MUL PUSH1 0x20 ADD PUSH1 0x40 MLOAD SWAP1 DUP2 ADD PUSH1 0x40 MSTORE DUP1 SWAP3 SWAP2 SWAP1 DUP2 DUP2 MSTORE PUSH1 0x20 ADD DUP3 DUP1 SLOAD PUSH2 0xA38 SWAP1 PUSH2 0x40F0 JUMP JUMPDEST DUP1 ISZERO PUSH2 0xA85 JUMPI DUP1 PUSH1 0x1F LT PUSH2 0xA5A JUMPI PUSH2 0x100 DUP1 DUP4 SLOAD DIV MUL DUP4 MSTORE SWAP2 PUSH1 0x20 ADD SWAP2 PUSH2 0xA85 JUMP JUMPDEST DUP3 ADD SWAP2 SWAP1 PUSH1 0x0 MSTORE PUSH1 0x20 PUSH1 0x0 KECCAK256 SWAP1 JUMPDEST DUP2 SLOAD DUP2 MSTORE SWAP1 PUSH1 0x1 ADD SWAP1 PUSH1 0x20 ADD DUP1 DUP4 GT PUSH2 0xA68 JUMPI DUP3 SWAP1 SUB PUSH1 0x1F AND DUP3 ADD SWAP2 JUMPDEST POP POP POP POP POP SWAP2 POP POP SWAP2 SWAP1 POP JUMP JUMPDEST PUSH2 0xA9A PUSH2 0x19C3 JUMP JUMPDEST PUSH1 0x0 DUP1 DUP3 PUSH20 0xFFFFFFFFFFFFFFFFFFFFFFFFFFFFFFFFFFFFFFFF AND PUSH20 0xFFFFFFFFFFFFFFFFFFFFFFFFFFFFFFFFFFFFFFFF AND DUP2 MSTORE PUSH1 0x20 ADD SWAP1 DUP2 MSTORE PUSH1 0x20 ADD PUSH1 0x0 KECCAK256 PUSH1 0x0 PUSH2 0x100 EXP DUP2 SLOAD SWAP1 PUSH1 0xFF MUL NOT AND SWAP1 SSTORE POP JUMP JUMPDEST PUSH1 0x0 DUP1 PUSH2 0xAF6 PUSH2 0x1B13 JUMP JUMPDEST SWAP1 POP DUP1 PUSH1 0x1 ADD SLOAD SWAP2 POP POP SWAP1 JUMP JUMPDEST CALLER PUSH20 0xFFFFFFFFFFFFFFFFFFFFFFFFFFFFFFFFFFFFFFFF AND PUSH1 0x1 PUSH1 0x0 DUP5 DUP2 MSTORE PUSH1 0x20 ADD SWAP1 DUP2 MSTORE PUSH1 0x20 ADD PUSH1 0x0 KECCAK256 PUSH1 0x0 SWAP1 SLOAD SWAP1 PUSH2 0x100 EXP SWAP1 DIV PUSH20 0xFFFFFFFFFFFFFFFFFFFFFFFFFFFFFFFFFFFFFFFF AND PUSH20 0xFFFFFFFFFFFFFFFFFFFFFFFFFFFFFFFFFFFFFFFF AND EQ PUSH2 0xBA4 JUMPI PUSH1 0x40 MLOAD PUSH32 0x8C379A000000000000000000000000000000000000000000000000000000000 DUP2 MSTORE PUSH1 0x4 ADD PUSH2 0xB9B SWAP1 PUSH2 0x4193 JUMP JUMPDEST PUSH1 0x40 MLOAD DUP1 SWAP2 SUB SWAP1 REVERT JUMPDEST PUSH1 0x2 PUSH1 0x0 DUP4 DUP2 MSTORE PUSH1 0x20 ADD SWAP1 DUP2 MSTORE PUSH1 0x20 ADD PUSH1 0x0 KECCAK256 SLOAD DUP2 PUSH2 0xBC2 DUP5 PUSH2 0x13A4 JUMP JUMPDEST PUSH2 0xBCC SWAP2 SWAP1 PUSH2 0x41B3 JUMP JUMPDEST GT ISZERO PUSH2 0xC0D JUMPI PUSH1 0x40 MLOAD PUSH32 0x8C379A000000000000000000000000000000000000000000000000000000000 DUP2 MSTORE PUSH1 0x4 ADD PUSH2 0xC04 SWAP1 PUSH2 0x4233 JUMP JUMPDEST PUSH1 0x40 MLOAD DUP1 SWAP2 SUB SWAP1 REVERT JUMPDEST PUSH2 0xC5B PUSH1 0x1 PUSH1 0x0 DUP5 DUP2 MSTORE PUSH1 0x20 ADD SWAP1 DUP2 MSTORE PUSH1 0x20 ADD PUSH1 0x0 KECCAK256 PUSH1 0x0 SWAP1 SLOAD SWAP1 PUSH2 0x100 EXP SWAP1 DIV PUSH20 0xFFFFFFFFFFFFFFFFFFFFFFFFFFFFFFFFFFFFFFFF AND DUP4 DUP4 PUSH1 0x40 MLOAD DUP1 PUSH1 0x20 ADD PUSH1 0x40 MSTORE DUP1 PUSH1 0x0 DUP2 MSTORE POP PUSH2 0x1B3B JUMP JUMPDEST POP POP JUMP JUMPDEST PUSH1 0x0 PUSH1 0x1 ISZERO ISZERO PUSH1 0x0 DUP1 DUP5 PUSH20 0xFFFFFFFFFFFFFFFFFFFFFFFFFFFFFFFFFFFFFFFF AND PUSH20 0xFFFFFFFFFFFFFFFFFFFFFFFFFFFFFFFFFFFFFFFF AND DUP2 MSTORE PUSH1 0x20 ADD SWAP1 DUP2 MSTORE PUSH1 0x20 ADD PUSH1 0x0 KECCAK256 PUSH1 0x0 SWAP1 SLOAD SWAP1 PUSH2 0x100 EXP SWAP1 DIV PUSH1 0xFF AND ISZERO ISZERO EQ SWAP1 POP SWAP2 SWAP1 POP JUMP JUMPDEST ADDRESS PUSH20 0xFFFFFFFFFFFFFFFFFFFFFFFFFFFFFFFFFFFFFFFF AND PUSH4 0x24D7806C CALLER PUSH1 0x40 MLOAD DUP3 PUSH4 0xFFFFFFFF AND PUSH1 0xE0 SHL DUP2 MSTORE PUSH1 0x4 ADD PUSH2 0xCF4 SWAP2 SWAP1 PUSH2 0x3D5D JUMP JUMPDEST PUSH1 0x20 PUSH1 0x40 MLOAD DUP1 DUP4 SUB DUP2 DUP7 GAS STATICCALL ISZERO DUP1 ISZERO PUSH2 0xD11 JUMPI RETURNDATASIZE PUSH1 0x0 DUP1 RETURNDATACOPY RETURNDATASIZE PUSH1 0x0 REVERT JUMPDEST POP POP POP POP PUSH1 0x40 MLOAD RETURNDATASIZE PUSH1 0x1F NOT PUSH1 0x1F DUP3 ADD AND DUP3 ADD DUP1 PUSH1 0x40 MSTORE POP DUP2 ADD SWAP1 PUSH2 0xD35 SWAP2 SWAP1 PUSH2 0x4268 JUMP JUMPDEST PUSH2 0xD74 JUMPI PUSH1 0x40 MLOAD PUSH32 0x8C379A000000000000000000000000000000000000000000000000000000000 DUP2 MSTORE PUSH1 0x4 ADD PUSH2 0xD6B SWAP1 PUSH2 0x3FD2 JUMP JUMPDEST PUSH1 0x40 MLOAD DUP1 SWAP2 SUB SWAP1 REVERT JUMPDEST PUSH2 0xD81 DUP6 DUP6 DUP6 DUP6 DUP6 PUSH2 0x1BD4 JUMP JUMPDEST POP POP POP POP POP JUMP JUMPDEST PUSH1 0x0 PUSH1 0x20 MSTORE DUP1 PUSH1 0x0 MSTORE PUSH1 0x40 PUSH1 0x0 KECCAK256 PUSH1 0x0 SWAP2 POP SLOAD SWAP1 PUSH2 0x100 EXP SWAP1 DIV PUSH1 0xFF AND DUP2 JUMP JUMPDEST PUSH1 0x60 DUP2 MLOAD DUP4 MLOAD EQ PUSH2 0xDF4 JUMPI DUP2 MLOAD DUP4 MLOAD PUSH1 0x40 MLOAD PUSH32 0x5B05999100000000000000000000000000000000000000000000000000000000 DUP2 MSTORE PUSH1 0x4 ADD PUSH2 0xDEB SWAP3 SWAP2 SWAP1 PUSH2 0x4295 JUMP JUMPDEST PUSH1 0x40 MLOAD DUP1 SWAP2 SUB SWAP1 REVERT JUMPDEST PUSH1 0x0 DUP4 MLOAD PUSH8 0xFFFFFFFFFFFFFFFF DUP2 GT ISZERO PUSH2 0xE11 JUMPI PUSH2 0xE10 PUSH2 0x35BC JUMP JUMPDEST JUMPDEST PUSH1 0x40 MLOAD SWAP1 DUP1 DUP3 MSTORE DUP1 PUSH1 0x20 MUL PUSH1 0x20 ADD DUP3 ADD PUSH1 0x40 MSTORE DUP1 ISZERO PUSH2 0xE3F JUMPI DUP2 PUSH1 0x20 ADD PUSH1 0x20 DUP3 MUL DUP1 CALLDATASIZE DUP4 CALLDATACOPY DUP1 DUP3 ADD SWAP2 POP POP SWAP1 POP JUMPDEST POP SWAP1 POP PUSH1 0x0 JUMPDEST DUP5 MLOAD DUP2 LT ISZERO PUSH2 0xEAC JUMPI PUSH2 0xE7C PUSH2 0xE64 DUP3 DUP8 PUSH2 0x1C7C SWAP1 SWAP2 SWAP1 PUSH4 0xFFFFFFFF AND JUMP JUMPDEST PUSH2 0xE77 DUP4 DUP8 PUSH2 0x1C90 SWAP1 SWAP2 SWAP1 PUSH4 0xFFFFFFFF AND JUMP JUMPDEST PUSH2 0x798 JUMP JUMPDEST DUP3 DUP3 DUP2 MLOAD DUP2 LT PUSH2 0xE8F JUMPI PUSH2 0xE8E PUSH2 0x3FF2 JUMP JUMPDEST JUMPDEST PUSH1 0x20 MUL PUSH1 0x20 ADD ADD DUP2 DUP2 MSTORE POP POP DUP1 PUSH2 0xEA5 SWAP1 PUSH2 0x4079 JUMP JUMPDEST SWAP1 POP PUSH2 0xE45 JUMP JUMPDEST POP DUP1 SWAP2 POP POP SWAP3 SWAP2 POP POP JUMP JUMPDEST PUSH2 0xEBF PUSH2 0x1CA4 JUMP JUMPDEST PUSH2 0xEC8 DUP3 PUSH2 0x1D8A JUMP JUMPDEST PUSH2 0xED2 DUP3 DUP3 PUSH2 0x1D95 JUMP JUMPDEST POP POP JUMP JUMPDEST PUSH1 0x0 DUP1 PUSH2 0xEE2 DUP4 PUSH2 0x13A4 JUMP JUMPDEST GT SWAP1 POP SWAP2 SWAP1 POP JUMP JUMPDEST PUSH1 0x0 PUSH2 0xEF4 PUSH2 0x1EB4 JUMP JUMPDEST PUSH32 0x360894A13BA1A3210667C828492DB98DCA3E2076CC3735A920A3CA505D382BBC PUSH1 0x0 SHL SWAP1 POP SWAP1 JUMP JUMPDEST PUSH2 0xF25 PUSH2 0x19C3 JUMP JUMPDEST PUSH1 0x1 PUSH1 0x0 DUP1 DUP4 PUSH20 0xFFFFFFFFFFFFFFFFFFFFFFFFFFFFFFFFFFFFFFFF AND PUSH20 0xFFFFFFFFFFFFFFFFFFFFFFFFFFFFFFFFFFFFFFFF AND DUP2 MSTORE PUSH1 0x20 ADD SWAP1 DUP2 MSTORE PUSH1 0x20 ADD PUSH1 0x0 KECCAK256 PUSH1 0x0 PUSH2 0x100 EXP DUP2 SLOAD DUP2 PUSH1 0xFF MUL NOT AND SWAP1 DUP4 ISZERO ISZERO MUL OR SWAP1 SSTORE POP POP JUMP JUMPDEST PUSH2 0xF87 PUSH2 0x19C3 JUMP JUMPDEST PUSH2 0xF91 PUSH1 0x0 PUSH2 0x1F3B JUMP JUMPDEST JUMP JUMPDEST PUSH1 0x1 PUSH1 0x20 MSTORE DUP1 PUSH1 0x0 MSTORE PUSH1 0x40 PUSH1 0x0 KECCAK256 PUSH1 0x0 SWAP2 POP SLOAD SWAP1 PUSH2 0x100 EXP SWAP1 DIV PUSH20 0xFFFFFFFFFFFFFFFFFFFFFFFFFFFFFFFFFFFFFFFF AND DUP2 JUMP JUMPDEST PUSH1 0x0 DUP1 PUSH2 0xFD1 PUSH2 0x2012 JUMP JUMPDEST SWAP1 POP DUP1 PUSH1 0x0 ADD PUSH1 0x0 SWAP1 SLOAD SWAP1 PUSH2 0x100 EXP SWAP1 DIV PUSH20 0xFFFFFFFFFFFFFFFFFFFFFFFFFFFFFFFFFFFFFFFF AND SWAP2 POP POP SWAP1 JUMP JUMPDEST PUSH1 0x0 DUP1 CALLER PUSH20 0xFFFFFFFFFFFFFFFFFFFFFFFFFFFFFFFFFFFFFFFF AND PUSH20 0xFFFFFFFFFFFFFFFFFFFFFFFFFFFFFFFFFFFFFFFF AND DUP2 MSTORE PUSH1 0x20 ADD SWAP1 DUP2 MSTORE PUSH1 0x20 ADD PUSH1 0x0 KECCAK256 PUSH1 0x0 SWAP1 SLOAD SWAP1 PUSH2 0x100 EXP SWAP1 DIV PUSH1 0xFF AND PUSH2 0x1089 JUMPI PUSH1 0x40 MLOAD PUSH32 0x8C379A000000000000000000000000000000000000000000000000000000000 DUP2 MSTORE PUSH1 0x4 ADD PUSH2 0x1080 SWAP1 PUSH2 0x3FD2 JUMP JUMPDEST PUSH1 0x40 MLOAD DUP1 SWAP2 SUB SWAP1 REVERT JUMPDEST PUSH1 0x0 DUP3 SUB PUSH2 0x10CC JUMPI PUSH1 0x40 MLOAD PUSH32 0x8C379A000000000000000000000000000000000000000000000000000000000 DUP2 MSTORE PUSH1 0x4 ADD PUSH2 0x10C3 SWAP1 PUSH2 0x430A JUMP JUMPDEST PUSH1 0x40 MLOAD DUP1 SWAP2 SUB SWAP1 REVERT JUMPDEST DUP1 PUSH1 0x1 PUSH1 0x0 DUP5 DUP2 MSTORE PUSH1 0x20 ADD SWAP1 DUP2 MSTORE PUSH1 0x20 ADD PUSH1 0x0 KECCAK256 PUSH1 0x0 PUSH2 0x100 EXP DUP2 SLOAD DUP2 PUSH20 0xFFFFFFFFFFFFFFFFFFFFFFFFFFFFFFFFFFFFFFFF MUL NOT AND SWAP1 DUP4 PUSH20 0xFFFFFFFFFFFFFFFFFFFFFFFFFFFFFFFFFFFFFFFF AND MUL OR SWAP1 SSTORE POP POP POP JUMP JUMPDEST PUSH2 0x112C DUP3 DUP3 PUSH2 0x203A JUMP JUMPDEST POP POP JUMP JUMPDEST PUSH1 0x40 MLOAD DUP1 PUSH1 0x40 ADD PUSH1 0x40 MSTORE DUP1 PUSH1 0x5 DUP2 MSTORE PUSH1 0x20 ADD PUSH32 0x352E302E30000000000000000000000000000000000000000000000000000000 DUP2 MSTORE POP DUP2 JUMP JUMPDEST PUSH1 0x0 PUSH2 0x1173 PUSH2 0x2050 JUMP JUMPDEST SWAP1 POP PUSH1 0x0 DUP2 PUSH1 0x0 ADD PUSH1 0x8 SWAP1 SLOAD SWAP1 PUSH2 0x100 EXP SWAP1 DIV PUSH1 0xFF AND ISZERO SWAP1 POP PUSH1 0x0 DUP3 PUSH1 0x0 ADD PUSH1 0x0 SWAP1 SLOAD SWAP1 PUSH2 0x100 EXP SWAP1 DIV PUSH8 0xFFFFFFFFFFFFFFFF AND SWAP1 POP PUSH1 0x0 DUP1 DUP3 PUSH8 0xFFFFFFFFFFFFFFFF AND EQ DUP1 ISZERO PUSH2 0x11C1 JUMPI POP DUP3 JUMPDEST SWAP1 POP PUSH1 0x0 PUSH1 0x1 DUP4 PUSH8 0xFFFFFFFFFFFFFFFF AND EQ DUP1 ISZERO PUSH2 0x11F6 JUMPI POP PUSH1 0x0 ADDRESS PUSH20 0xFFFFFFFFFFFFFFFFFFFFFFFFFFFFFFFFFFFFFFFF AND EXTCODESIZE EQ JUMPDEST SWAP1 POP DUP2 ISZERO DUP1 ISZERO PUSH2 0x1204 JUMPI POP DUP1 ISZERO JUMPDEST ISZERO PUSH2 0x123B JUMPI PUSH1 0x40 MLOAD PUSH32 0xF92EE8A900000000000000000000000000000000000000000000000000000000 DUP2 MSTORE PUSH1 0x4 ADD PUSH1 0x40 MLOAD DUP1 SWAP2 SUB SWAP1 REVERT JUMPDEST PUSH1 0x1 DUP6 PUSH1 0x0 ADD PUSH1 0x0 PUSH2 0x100 EXP DUP2 SLOAD DUP2 PUSH8 0xFFFFFFFFFFFFFFFF MUL NOT AND SWAP1 DUP4 PUSH8 0xFFFFFFFFFFFFFFFF AND MUL OR SWAP1 SSTORE POP DUP4 ISZERO PUSH2 0x128B JUMPI PUSH1 0x1 DUP6 PUSH1 0x0 ADD PUSH1 0x8 PUSH2 0x100 EXP DUP2 SLOAD DUP2 PUSH1 0xFF MUL NOT AND SWAP1 DUP4 ISZERO ISZERO MUL OR SWAP1 SSTORE POP JUMPDEST PUSH2 0x1293 PUSH2 0x2078 JUMP JUMPDEST PUSH2 0x129C DUP9 PUSH2 0x2082 JUMP JUMPDEST PUSH2 0x12A4 PUSH2 0x2096 JUMP JUMPDEST PUSH2 0x12AD DUP7 PUSH2 0x1A4A JUMP JUMPDEST PUSH1 0x0 JUMPDEST DUP8 MLOAD DUP2 LT ISZERO PUSH2 0x133D JUMPI PUSH1 0x1 PUSH1 0x0 DUP1 DUP11 DUP5 DUP2 MLOAD DUP2 LT PUSH2 0x12D1 JUMPI PUSH2 0x12D0 PUSH2 0x3FF2 JUMP JUMPDEST JUMPDEST PUSH1 0x20 MUL PUSH1 0x20 ADD ADD MLOAD PUSH20 0xFFFFFFFFFFFFFFFFFFFFFFFFFFFFFFFFFFFFFFFF AND PUSH20 0xFFFFFFFFFFFFFFFFFFFFFFFFFFFFFFFFFFFFFFFF AND DUP2 MSTORE PUSH1 0x20 ADD SWAP1 DUP2 MSTORE PUSH1 0x20 ADD PUSH1 0x0 KECCAK256 PUSH1 0x0 PUSH2 0x100 EXP DUP2 SLOAD DUP2 PUSH1 0xFF MUL NOT AND SWAP1 DUP4 ISZERO ISZERO MUL OR SWAP1 SSTORE POP DUP1 DUP1 PUSH2 0x1335 SWAP1 PUSH2 0x4079 JUMP JUMPDEST SWAP2 POP POP PUSH2 0x12B0 JUMP JUMPDEST POP DUP4 ISZERO PUSH2 0x139A JUMPI PUSH1 0x0 DUP6 PUSH1 0x0 ADD PUSH1 0x8 PUSH2 0x100 EXP DUP2 SLOAD DUP2 PUSH1 0xFF MUL NOT AND SWAP1 DUP4 ISZERO ISZERO MUL OR SWAP1 SSTORE POP PUSH32 0xC7F505B2F371AE2175EE4913F4499E1F2633A7B5936321EED1CDAEB6115181D2 PUSH1 0x1 PUSH1 0x40 MLOAD PUSH2 0x1391 SWAP2 SWAP1 PUSH2 0x4383 JUMP JUMPDEST PUSH1 0x40 MLOAD DUP1 SWAP2 SUB SWAP1 LOG1 JUMPDEST POP POP POP POP POP POP POP POP JUMP JUMPDEST PUSH1 0x0 DUP1 PUSH2 0x13AF PUSH2 0x1B13 JUMP JUMPDEST SWAP1 POP DUP1 PUSH1 0x0 ADD PUSH1 0x0 DUP5 DUP2 MSTORE PUSH1 0x20 ADD SWAP1 DUP2 MSTORE PUSH1 0x20 ADD PUSH1 0x0 KECCAK256 SLOAD SWAP2 POP POP SWAP2 SWAP1 POP JUMP JUMPDEST PUSH1 0x0 DUP1 CALLER PUSH20 0xFFFFFFFFFFFFFFFFFFFFFFFFFFFFFFFFFFFFFFFF AND PUSH20 0xFFFFFFFFFFFFFFFFFFFFFFFFFFFFFFFFFFFFFFFF AND DUP2 MSTORE PUSH1 0x20 ADD SWAP1 DUP2 MSTORE PUSH1 0x20 ADD PUSH1 0x0 KECCAK256 PUSH1 0x0 SWAP1 SLOAD SWAP1 PUSH2 0x100 EXP SWAP1 DIV PUSH1 0xFF AND PUSH2 0x145A JUMPI PUSH1 0x40 MLOAD PUSH32 0x8C379A000000000000000000000000000000000000000000000000000000000 DUP2 MSTORE PUSH1 0x4 ADD PUSH2 0x1451 SWAP1 PUSH2 0x3FD2 JUMP JUMPDEST PUSH1 0x40 MLOAD DUP1 SWAP2 SUB SWAP1 REVERT JUMPDEST PUSH2 0x3E8 DUP2 PUSH1 0x2 PUSH1 0x0 DUP6 DUP2 MSTORE PUSH1 0x20 ADD SWAP1 DUP2 MSTORE PUSH1 0x20 ADD PUSH1 0x0 KECCAK256 SLOAD PUSH2 0x147C SWAP2 SWAP1 PUSH2 0x41B3 JUMP JUMPDEST GT ISZERO PUSH2 0x14BD JUMPI PUSH1 0x40 MLOAD PUSH32 0x8C379A000000000000000000000000000000000000000000000000000000000 DUP2 MSTORE PUSH1 0x4 ADD PUSH2 0x14B4 SWAP1 PUSH2 0x4410 JUMP JUMPDEST PUSH1 0x40 MLOAD DUP1 SWAP2 SUB SWAP1 REVERT JUMPDEST DUP1 PUSH1 0x2 PUSH1 0x0 DUP5 DUP2 MSTORE PUSH1 0x20 ADD SWAP1 DUP2 MSTORE PUSH1 0x20 ADD PUSH1 0x0 KECCAK256 SLOAD PUSH2 0x14DC SWAP2 SWAP1 PUSH2 0x41B3 JUMP JUMPDEST PUSH1 0x2 PUSH1 0x0 DUP5 DUP2 MSTORE PUSH1 0x20 ADD SWAP1 DUP2 MSTORE PUSH1 0x20 ADD PUSH1 0x0 KECCAK256 DUP2 SWAP1 SSTORE POP POP POP JUMP JUMPDEST PUSH1 0x0 DUP1 CALLER PUSH20 0xFFFFFFFFFFFFFFFFFFFFFFFFFFFFFFFFFFFFFFFF AND PUSH20 0xFFFFFFFFFFFFFFFFFFFFFFFFFFFFFFFFFFFFFFFF AND DUP2 MSTORE PUSH1 0x20 ADD SWAP1 DUP2 MSTORE PUSH1 0x20 ADD PUSH1 0x0 KECCAK256 PUSH1 0x0 SWAP1 SLOAD SWAP1 PUSH2 0x100 EXP SWAP1 DIV PUSH1 0xFF AND PUSH2 0x1582 JUMPI PUSH1 0x40 MLOAD PUSH32 0x8C379A000000000000000000000000000000000000000000000000000000000 DUP2 MSTORE PUSH1 0x4 ADD PUSH2 0x1579 SWAP1 PUSH2 0x3FD2 JUMP JUMPDEST PUSH1 0x40 MLOAD DUP1 SWAP2 SUB SWAP1 REVERT JUMPDEST PUSH1 0x0 PUSH20 0xFFFFFFFFFFFFFFFFFFFFFFFFFFFFFFFFFFFFFFFF AND PUSH1 0x1 PUSH1 0x0 DUP5 DUP2 MSTORE PUSH1 0x20 ADD SWAP1 DUP2 MSTORE PUSH1 0x20 ADD PUSH1 0x0 KECCAK256 PUSH1 0x0 SWAP1 SLOAD SWAP1 PUSH2 0x100 EXP SWAP1 DIV PUSH20 0xFFFFFFFFFFFFFFFFFFFFFFFFFFFFFFFFFFFFFFFF AND PUSH20 0xFFFFFFFFFFFFFFFFFFFFFFFFFFFFFFFFFFFFFFFF AND SUB PUSH2 0x1624 JUMPI PUSH1 0x40 MLOAD PUSH32 0x8C379A000000000000000000000000000000000000000000000000000000000 DUP2 MSTORE PUSH1 0x4 ADD PUSH2 0x161B SWAP1 PUSH2 0x447C JUMP JUMPDEST PUSH1 0x40 MLOAD DUP1 SWAP2 SUB SWAP1 REVERT JUMPDEST PUSH1 0x2 PUSH1 0x0 DUP4 DUP2 MSTORE PUSH1 0x20 ADD SWAP1 DUP2 MSTORE PUSH1 0x20 ADD PUSH1 0x0 KECCAK256 SLOAD DUP2 PUSH2 0x1642 DUP5 PUSH2 0x13A4 JUMP JUMPDEST PUSH2 0x164C SWAP2 SWAP1 PUSH2 0x41B3 JUMP JUMPDEST GT ISZERO PUSH2 0x168D JUMPI PUSH1 0x40 MLOAD PUSH32 0x8C379A000000000000000000000000000000000000000000000000000000000 DUP2 MSTORE PUSH1 0x4 ADD PUSH2 0x1684 SWAP1 PUSH2 0x4233 JUMP JUMPDEST PUSH1 0x40 MLOAD DUP1 SWAP2 SUB SWAP1 REVERT JUMPDEST PUSH2 0x16DB PUSH1 0x1 PUSH1 0x0 DUP5 DUP2 MSTORE PUSH1 0x20 ADD SWAP1 DUP2 MSTORE PUSH1 0x20 ADD PUSH1 0x0 KECCAK256 PUSH1 0x0 SWAP1 SLOAD SWAP1 PUSH2 0x100 EXP SWAP1 DIV PUSH20 0xFFFFFFFFFFFFFFFFFFFFFFFFFFFFFFFFFFFFFFFF AND DUP4 DUP4 PUSH1 0x40 MLOAD DUP1 PUSH1 0x20 ADD PUSH1 0x40 MSTORE DUP1 PUSH1 0x0 DUP2 MSTORE POP PUSH2 0x1B3B JUMP JUMPDEST POP POP JUMP JUMPDEST PUSH1 0x0 DUP1 PUSH1 0x0 DUP4 PUSH20 0xFFFFFFFFFFFFFFFFFFFFFFFFFFFFFFFFFFFFFFFF AND PUSH20 0xFFFFFFFFFFFFFFFFFFFFFFFFFFFFFFFFFFFFFFFF AND DUP2 MSTORE PUSH1 0x20 ADD SWAP1 DUP2 MSTORE PUSH1 0x20 ADD PUSH1 0x0 KECCAK256 PUSH1 0x0 SWAP1 SLOAD SWAP1 PUSH2 0x100 EXP SWAP1 DIV PUSH1 0xFF AND ISZERO PUSH2 0x173B JUMPI PUSH1 0x1 SWAP1 POP PUSH2 0x1748 JUMP JUMPDEST PUSH2 0x1745 DUP4 DUP4 PUSH2 0x20A0 JUMP JUMPDEST SWAP1 POP JUMPDEST SWAP3 SWAP2 POP POP JUMP JUMPDEST ADDRESS PUSH20 0xFFFFFFFFFFFFFFFFFFFFFFFFFFFFFFFFFFFFFFFF AND PUSH4 0x24D7806C CALLER PUSH1 0x40 MLOAD DUP3 PUSH4 0xFFFFFFFF AND PUSH1 0xE0 SHL DUP2 MSTORE PUSH1 0x4 ADD PUSH2 0x1787 SWAP2 SWAP1 PUSH2 0x3D5D JUMP JUMPDEST PUSH1 0x20 PUSH1 0x40 MLOAD DUP1 DUP4 SUB DUP2 DUP7 GAS STATICCALL ISZERO DUP1 ISZERO PUSH2 0x17A4 JUMPI RETURNDATASIZE PUSH1 0x0 DUP1 RETURNDATACOPY RETURNDATASIZE PUSH1 0x0 REVERT JUMPDEST POP POP POP POP PUSH1 0x40 MLOAD RETURNDATASIZE PUSH1 0x1F NOT PUSH1 0x1F DUP3 ADD AND DUP3 ADD DUP1 PUSH1 0x40 MSTORE POP DUP2 ADD SWAP1 PUSH2 0x17C8 SWAP2 SWAP1 PUSH2 0x4268 JUMP JUMPDEST PUSH2 0x1807 JUMPI PUSH1 0x40 MLOAD PUSH32 0x8C379A000000000000000000000000000000000000000000000000000000000 DUP2 MSTORE PUSH1 0x4 ADD PUSH2 0x17FE SWAP1 PUSH2 0x3FD2 JUMP JUMPDEST PUSH1 0x40 MLOAD DUP1 SWAP2 SUB SWAP1 REVERT JUMPDEST PUSH2 0x1814 DUP6 DUP6 DUP6 DUP6 DUP6 PUSH2 0x2142 JUMP JUMPDEST POP POP POP POP POP JUMP JUMPDEST PUSH2 0x1823 PUSH2 0x19C3 JUMP JUMPDEST PUSH1 0x0 PUSH20 0xFFFFFFFFFFFFFFFFFFFFFFFFFFFFFFFFFFFFFFFF AND DUP2 PUSH20 0xFFFFFFFFFFFFFFFFFFFFFFFFFFFFFFFFFFFFFFFF AND SUB PUSH2 0x1895 JUMPI PUSH1 0x0 PUSH1 0x40 MLOAD PUSH32 0x1E4FBDF700000000000000000000000000000000000000000000000000000000 DUP2 MSTORE PUSH1 0x4 ADD PUSH2 0x188C SWAP2 SWAP1 PUSH2 0x3D5D JUMP JUMPDEST PUSH1 0x40 MLOAD DUP1 SWAP2 SUB SWAP1 REVERT JUMPDEST PUSH2 0x189E DUP2 PUSH2 0x1F3B JUMP JUMPDEST POP JUMP JUMPDEST PUSH1 0x2 PUSH1 0x20 MSTORE DUP1 PUSH1 0x0 MSTORE PUSH1 0x40 PUSH1 0x0 KECCAK256 PUSH1 0x0 SWAP2 POP SWAP1 POP SLOAD DUP2 JUMP JUMPDEST PUSH1 0x0 PUSH32 0x88BE536D5240C274A3B1D3A1BE54482FD9CAA294F08C62A7CDE569F49A3C4500 SWAP1 POP SWAP1 JUMP JUMPDEST PUSH1 0x0 PUSH32 0xD9B67A2600000000000000000000000000000000000000000000000000000000 PUSH28 0xFFFFFFFFFFFFFFFFFFFFFFFFFFFFFFFFFFFFFFFFFFFFFFFFFFFFFFFF NOT AND DUP3 PUSH28 0xFFFFFFFFFFFFFFFFFFFFFFFFFFFFFFFFFFFFFFFFFFFFFFFFFFFFFFFF NOT AND EQ DUP1 PUSH2 0x19AC JUMPI POP PUSH32 0xE89341C00000000000000000000000000000000000000000000000000000000 PUSH28 0xFFFFFFFFFFFFFFFFFFFFFFFFFFFFFFFFFFFFFFFFFFFFFFFFFFFFFFFF NOT AND DUP3 PUSH28 0xFFFFFFFFFFFFFFFFFFFFFFFFFFFFFFFFFFFFFFFFFFFFFFFFFFFFFFFF NOT AND EQ JUMPDEST DUP1 PUSH2 0x19BC JUMPI POP PUSH2 0x19BB DUP3 PUSH2 0x21EA JUMP JUMPDEST JUMPDEST SWAP1 POP SWAP2 SWAP1 POP JUMP JUMPDEST PUSH2 0x19CB PUSH2 0x2254 JUMP JUMPDEST PUSH20 0xFFFFFFFFFFFFFFFFFFFFFFFFFFFFFFFFFFFFFFFF AND PUSH2 0x19E9 PUSH2 0xFC6 JUMP JUMPDEST PUSH20 0xFFFFFFFFFFFFFFFFFFFFFFFFFFFFFFFFFFFFFFFF AND EQ PUSH2 0x1A48 JUMPI PUSH2 0x1A0C PUSH2 0x2254 JUMP JUMPDEST PUSH1 0x40 MLOAD PUSH32 0x118CDAA700000000000000000000000000000000000000000000000000000000 DUP2 MSTORE PUSH1 0x4 ADD PUSH2 0x1A3F SWAP2 SWAP1 PUSH2 0x3D5D JUMP JUMPDEST PUSH1 0x40 MLOAD DUP1 SWAP2 SUB SWAP1 REVERT JUMPDEST JUMP JUMPDEST PUSH1 0x0 PUSH2 0x1A54 PUSH2 0x18B9 JUMP JUMPDEST SWAP1 POP DUP2 DUP2 PUSH1 0x2 ADD SWAP1 DUP2 PUSH2 0x1A67 SWAP2 SWAP1 PUSH2 0x463E JUMP JUMPDEST POP POP POP JUMP JUMPDEST PUSH1 0x0 PUSH20 0xFFFFFFFFFFFFFFFFFFFFFFFFFFFFFFFFFFFFFFFF AND DUP4 PUSH20 0xFFFFFFFFFFFFFFFFFFFFFFFFFFFFFFFFFFFFFFFF AND SUB PUSH2 0x1ADE JUMPI PUSH1 0x0 PUSH1 0x40 MLOAD PUSH32 0x1A8351400000000000000000000000000000000000000000000000000000000 DUP2 MSTORE PUSH1 0x4 ADD PUSH2 0x1AD5 SWAP2 SWAP1 PUSH2 0x3D5D JUMP JUMPDEST PUSH1 0x40 MLOAD DUP1 SWAP2 SUB SWAP1 REVERT JUMPDEST PUSH1 0x0 DUP1 PUSH2 0x1AEB DUP5 DUP5 PUSH2 0x225C JUMP JUMPDEST SWAP2 POP SWAP2 POP PUSH2 0x1B0C DUP6 PUSH1 0x0 DUP5 DUP5 PUSH1 0x40 MLOAD DUP1 PUSH1 0x20 ADD PUSH1 0x40 MSTORE DUP1 PUSH1 0x0 DUP2 MSTORE POP PUSH2 0x228C JUMP JUMPDEST POP POP POP POP POP JUMP JUMPDEST PUSH1 0x0 PUSH32 0x4A593662EE04D27B6A00EBB31BE7FE0C102C2ADE82A7C5D764F2DF05DC4E2800 SWAP1 POP SWAP1 JUMP JUMPDEST PUSH1 0x0 PUSH20 0xFFFFFFFFFFFFFFFFFFFFFFFFFFFFFFFFFFFFFFFF AND DUP5 PUSH20 0xFFFFFFFFFFFFFFFFFFFFFFFFFFFFFFFFFFFFFFFF AND SUB PUSH2 0x1BAD JUMPI PUSH1 0x0 PUSH1 0x40 MLOAD PUSH32 0x57F447CE00000000000000000000000000000000000000000000000000000000 DUP2 MSTORE PUSH1 0x4 ADD PUSH2 0x1BA4 SWAP2 SWAP1 PUSH2 0x3D5D JUMP JUMPDEST PUSH1 0x40 MLOAD DUP1 SWAP2 SUB SWAP1 REVERT JUMPDEST PUSH1 0x0 DUP1 PUSH2 0x1BBA DUP6 DUP6 PUSH2 0x225C JUMP JUMPDEST SWAP2 POP SWAP2 POP PUSH2 0x1BCC PUSH1 0x0 DUP8 DUP5 DUP5 DUP8 PUSH2 0x228C JUMP JUMPDEST POP POP POP POP POP POP JUMP JUMPDEST PUSH1 0x0 PUSH2 0x1BDE PUSH2 0x2254 JUMP JUMPDEST SWAP1 POP DUP1 PUSH20 0xFFFFFFFFFFFFFFFFFFFFFFFFFFFFFFFFFFFFFFFF AND DUP7 PUSH20 0xFFFFFFFFFFFFFFFFFFFFFFFFFFFFFFFFFFFFFFFF AND EQ ISZERO DUP1 ISZERO PUSH2 0x1C23 JUMPI POP PUSH2 0x1C21 DUP7 DUP3 PUSH2 0x16DF JUMP JUMPDEST ISZERO JUMPDEST ISZERO PUSH2 0x1C67 JUMPI DUP1 DUP7 PUSH1 0x40 MLOAD PUSH32 0xE237D92200000000000000000000000000000000000000000000000000000000 DUP2 MSTORE PUSH1 0x4 ADD PUSH2 0x1C5E SWAP3 SWAP2 SWAP1 PUSH2 0x4710 JUMP JUMPDEST PUSH1 0x40 MLOAD DUP1 SWAP2 SUB SWAP1 REVERT JUMPDEST PUSH2 0x1C74 DUP7 DUP7 DUP7 DUP7 DUP7 PUSH2 0x233E JUMP JUMPDEST POP POP POP POP POP POP JUMP JUMPDEST PUSH1 0x0 PUSH1 0x20 DUP3 MUL PUSH1 0x20 DUP5 ADD ADD MLOAD SWAP1 POP SWAP3 SWAP2 POP POP JUMP JUMPDEST PUSH1 0x0 PUSH1 0x20 DUP3 MUL PUSH1 0x20 DUP5 ADD ADD MLOAD SWAP1 POP SWAP3 SWAP2 POP POP JUMP JUMPDEST PUSH32 0x0 PUSH20 0xFFFFFFFFFFFFFFFFFFFFFFFFFFFFFFFFFFFFFFFF AND ADDRESS PUSH20 0xFFFFFFFFFFFFFFFFFFFFFFFFFFFFFFFFFFFFFFFF AND EQ DUP1 PUSH2 0x1D51 JUMPI POP PUSH32 0x0 PUSH20 0xFFFFFFFFFFFFFFFFFFFFFFFFFFFFFFFFFFFFFFFF AND PUSH2 0x1D38 PUSH2 0x2436 JUMP JUMPDEST PUSH20 0xFFFFFFFFFFFFFFFFFFFFFFFFFFFFFFFFFFFFFFFF AND EQ ISZERO JUMPDEST ISZERO PUSH2 0x1D88 JUMPI PUSH1 0x40 MLOAD PUSH32 0xE07C8DBA00000000000000000000000000000000000000000000000000000000 DUP2 MSTORE PUSH1 0x4 ADD PUSH1 0x40 MLOAD DUP1 SWAP2 SUB SWAP1 REVERT JUMPDEST JUMP JUMPDEST PUSH2 0x1D92 PUSH2 0x19C3 JUMP JUMPDEST POP JUMP JUMPDEST DUP2 PUSH20 0xFFFFFFFFFFFFFFFFFFFFFFFFFFFFFFFFFFFFFFFF AND PUSH4 0x52D1902D PUSH1 0x40 MLOAD DUP2 PUSH4 0xFFFFFFFF AND PUSH1 0xE0 SHL DUP2 MSTORE PUSH1 0x4 ADD PUSH1 0x20 PUSH1 0x40 MLOAD DUP1 DUP4 SUB DUP2 DUP7 GAS STATICCALL SWAP3 POP POP POP DUP1 ISZERO PUSH2 0x1DFD JUMPI POP PUSH1 0x40 MLOAD RETURNDATASIZE PUSH1 0x1F NOT PUSH1 0x1F DUP3 ADD AND DUP3 ADD DUP1 PUSH1 0x40 MSTORE POP DUP2 ADD SWAP1 PUSH2 0x1DFA SWAP2 SWAP1 PUSH2 0x4765 JUMP JUMPDEST PUSH1 0x1 JUMPDEST PUSH2 0x1E3E JUMPI DUP2 PUSH1 0x40 MLOAD PUSH32 0x4C9C8CE300000000000000000000000000000000000000000000000000000000 DUP2 MSTORE PUSH1 0x4 ADD PUSH2 0x1E35 SWAP2 SWAP1 PUSH2 0x3D5D JUMP JUMPDEST PUSH1 0x40 MLOAD DUP1 SWAP2 SUB SWAP1 REVERT JUMPDEST PUSH32 0x360894A13BA1A3210667C828492DB98DCA3E2076CC3735A920A3CA505D382BBC PUSH1 0x0 SHL DUP2 EQ PUSH2 0x1EA5 JUMPI DUP1 PUSH1 0x40 MLOAD PUSH32 0xAA1D49A400000000000000000000000000000000000000000000000000000000 DUP2 MSTORE PUSH1 0x4 ADD PUSH2 0x1E9C SWAP2 SWAP1 PUSH2 0x3D33 JUMP JUMPDEST PUSH1 0x40 MLOAD DUP1 SWAP2 SUB SWAP1 REVERT JUMPDEST PUSH2 0x1EAF DUP4 DUP4 PUSH2 0x248D JUMP JUMPDEST POP POP POP JUMP JUMPDEST PUSH32 0x0 PUSH20 0xFFFFFFFFFFFFFFFFFFFFFFFFFFFFFFFFFFFFFFFF AND ADDRESS PUSH20 0xFFFFFFFFFFFFFFFFFFFFFFFFFFFFFFFFFFFFFFFF AND EQ PUSH2 0x1F39 JUMPI PUSH1 0x40 MLOAD PUSH32 0xE07C8DBA00000000000000000000000000000000000000000000000000000000 DUP2 MSTORE PUSH1 0x4 ADD PUSH1 0x40 MLOAD DUP1 SWAP2 SUB SWAP1 REVERT JUMPDEST JUMP JUMPDEST PUSH1 0x0 PUSH2 0x1F45 PUSH2 0x2012 JUMP JUMPDEST SWAP1 POP PUSH1 0x0 DUP2 PUSH1 0x0 ADD PUSH1 0x0 SWAP1 SLOAD SWAP1 PUSH2 0x100 EXP SWAP1 DIV PUSH20 0xFFFFFFFFFFFFFFFFFFFFFFFFFFFFFFFFFFFFFFFF AND SWAP1 POP DUP3 DUP3 PUSH1 0x0 ADD PUSH1 0x0 PUSH2 0x100 EXP DUP2 SLOAD DUP2 PUSH20 0xFFFFFFFFFFFFFFFFFFFFFFFFFFFFFFFFFFFFFFFF MUL NOT AND SWAP1 DUP4 PUSH20 0xFFFFFFFFFFFFFFFFFFFFFFFFFFFFFFFFFFFFFFFF AND MUL OR SWAP1 SSTORE POP DUP3 PUSH20 0xFFFFFFFFFFFFFFFFFFFFFFFFFFFFFFFFFFFFFFFF AND DUP2 PUSH20 0xFFFFFFFFFFFFFFFFFFFFFFFFFFFFFFFFFFFFFFFF AND PUSH32 0x8BE0079C531659141344CD1FD0A4F28419497F9722A3DAAFE3B4186F6B6457E0 PUSH1 0x40 MLOAD PUSH1 0x40 MLOAD DUP1 SWAP2 SUB SWAP1 LOG3 POP POP POP JUMP JUMPDEST PUSH1 0x0 PUSH32 0x9016D09D72D40FDAE2FD8CEAC6B6234C7706214FD39C1CD1E609A0528C199300 SWAP1 POP SWAP1 JUMP JUMPDEST PUSH2 0x204C PUSH2 0x2045 PUSH2 0x2254 JUMP JUMPDEST DUP4 DUP4 PUSH2 0x2500 JUMP JUMPDEST POP POP JUMP JUMPDEST PUSH1 0x0 PUSH32 0xF0C57E16840DF040F15088DC2F81FE391C3923BEC73E23A9662EFC9C229C6A00 SWAP1 POP SWAP1 JUMP JUMPDEST PUSH2 0x2080 PUSH2 0x267F JUMP JUMPDEST JUMP JUMPDEST PUSH2 0x208A PUSH2 0x267F JUMP JUMPDEST PUSH2 0x2093 DUP2 PUSH2 0x26BF JUMP JUMPDEST POP JUMP JUMPDEST PUSH2 0x209E PUSH2 0x267F JUMP JUMPDEST JUMP JUMPDEST PUSH1 0x0 DUP1 PUSH2 0x20AB PUSH2 0x18B9 JUMP JUMPDEST SWAP1 POP DUP1 PUSH1 0x1 ADD PUSH1 0x0 DUP6 PUSH20 0xFFFFFFFFFFFFFFFFFFFFFFFFFFFFFFFFFFFFFFFF AND PUSH20 0xFFFFFFFFFFFFFFFFFFFFFFFFFFFFFFFFFFFFFFFF AND DUP2 MSTORE PUSH1 0x20 ADD SWAP1 DUP2 MSTORE PUSH1 0x20 ADD PUSH1 0x0 KECCAK256 PUSH1 0x0 DUP5 PUSH20 0xFFFFFFFFFFFFFFFFFFFFFFFFFFFFFFFFFFFFFFFF AND PUSH20 0xFFFFFFFFFFFFFFFFFFFFFFFFFFFFFFFFFFFFFFFF AND DUP2 MSTORE PUSH1 0x20 ADD SWAP1 DUP2 MSTORE PUSH1 0x20 ADD PUSH1 0x0 KECCAK256 PUSH1 0x0 SWAP1 SLOAD SWAP1 PUSH2 0x100 EXP SWAP1 DIV PUSH1 0xFF AND SWAP2 POP POP SWAP3 SWAP2 POP POP JUMP JUMPDEST PUSH1 0x0 PUSH2 0x214C PUSH2 0x2254 JUMP JUMPDEST SWAP1 POP DUP1 PUSH20 0xFFFFFFFFFFFFFFFFFFFFFFFFFFFFFFFFFFFFFFFF AND DUP7 PUSH20 0xFFFFFFFFFFFFFFFFFFFFFFFFFFFFFFFFFFFFFFFF AND EQ ISZERO DUP1 ISZERO PUSH2 0x2191 JUMPI POP PUSH2 0x218F DUP7 DUP3 PUSH2 0x16DF JUMP JUMPDEST ISZERO JUMPDEST ISZERO PUSH2 0x21D5 JUMPI DUP1 DUP7 PUSH1 0x40 MLOAD PUSH32 0xE237D92200000000000000000000000000000000000000000000000000000000 DUP2 MSTORE PUSH1 0x4 ADD PUSH2 0x21CC SWAP3 SWAP2 SWAP1 PUSH2 0x4710 JUMP JUMPDEST PUSH1 0x40 MLOAD DUP1 SWAP2 SUB SWAP1 REVERT JUMPDEST PUSH2 0x21E2 DUP7 DUP7 DUP7 DUP7 DUP7 PUSH2 0x2745 JUMP JUMPDEST POP POP POP POP POP POP JUMP JUMPDEST PUSH1 0x0 PUSH32 0x1FFC9A700000000000000000000000000000000000000000000000000000000 PUSH28 0xFFFFFFFFFFFFFFFFFFFFFFFFFFFFFFFFFFFFFFFFFFFFFFFFFFFFFFFF NOT AND DUP3 PUSH28 0xFFFFFFFFFFFFFFFFFFFFFFFFFFFFFFFFFFFFFFFFFFFFFFFFFFFFFFFF NOT AND EQ SWAP1 POP SWAP2 SWAP1 POP JUMP JUMPDEST PUSH1 0x0 CALLER SWAP1 POP SWAP1 JUMP JUMPDEST PUSH1 0x60 DUP1 PUSH1 0x40 MLOAD SWAP2 POP PUSH1 0x1 DUP3 MSTORE DUP4 PUSH1 0x20 DUP4 ADD MSTORE PUSH1 0x40 DUP3 ADD SWAP1 POP PUSH1 0x1 DUP2 MSTORE DUP3 PUSH1 0x20 DUP3 ADD MSTORE PUSH1 0x40 DUP2 ADD PUSH1 0x40 MSTORE SWAP3 POP SWAP3 SWAP1 POP JUMP JUMPDEST PUSH2 0x2298 DUP6 DUP6 DUP6 DUP6 PUSH2 0x2850 JUMP JUMPDEST PUSH1 0x0 PUSH20 0xFFFFFFFFFFFFFFFFFFFFFFFFFFFFFFFFFFFFFFFF AND DUP5 PUSH20 0xFFFFFFFFFFFFFFFFFFFFFFFFFFFFFFFFFFFFFFFF AND EQ PUSH2 0x2337 JUMPI PUSH1 0x0 PUSH2 0x22D6 PUSH2 0x2254 JUMP JUMPDEST SWAP1 POP PUSH1 0x1 DUP5 MLOAD SUB PUSH2 0x2326 JUMPI PUSH1 0x0 PUSH2 0x22F7 PUSH1 0x0 DUP7 PUSH2 0x1C90 SWAP1 SWAP2 SWAP1 PUSH4 0xFFFFFFFF AND JUMP JUMPDEST SWAP1 POP PUSH1 0x0 PUSH2 0x230F PUSH1 0x0 DUP7 PUSH2 0x1C90 SWAP1 SWAP2 SWAP1 PUSH4 0xFFFFFFFF AND JUMP JUMPDEST SWAP1 POP PUSH2 0x231F DUP4 DUP10 DUP10 DUP6 DUP6 DUP10 PUSH2 0x2A1C JUMP JUMPDEST POP POP PUSH2 0x2335 JUMP JUMPDEST PUSH2 0x2334 DUP2 DUP8 DUP8 DUP8 DUP8 DUP8 PUSH2 0x2BD0 JUMP JUMPDEST JUMPDEST POP JUMPDEST POP POP POP POP POP JUMP JUMPDEST PUSH1 0x0 PUSH20 0xFFFFFFFFFFFFFFFFFFFFFFFFFFFFFFFFFFFFFFFF AND DUP5 PUSH20 0xFFFFFFFFFFFFFFFFFFFFFFFFFFFFFFFFFFFFFFFF AND SUB PUSH2 0x23B0 JUMPI PUSH1 0x0 PUSH1 0x40 MLOAD PUSH32 0x57F447CE00000000000000000000000000000000000000000000000000000000 DUP2 MSTORE PUSH1 0x4 ADD PUSH2 0x23A7 SWAP2 SWAP1 PUSH2 0x3D5D JUMP JUMPDEST PUSH1 0x40 MLOAD DUP1 SWAP2 SUB SWAP1 REVERT JUMPDEST PUSH1 0x0 PUSH20 0xFFFFFFFFFFFFFFFFFFFFFFFFFFFFFFFFFFFFFFFF AND DUP6 PUSH20 0xFFFFFFFFFFFFFFFFFFFFFFFFFFFFFFFFFFFFFFFF AND SUB PUSH2 0x2422 JUMPI PUSH1 0x0 PUSH1 0x40 MLOAD PUSH32 0x1A8351400000000000000000000000000000000000000000000000000000000 DUP2 MSTORE PUSH1 0x4 ADD PUSH2 0x2419 SWAP2 SWAP1 PUSH2 0x3D5D JUMP JUMPDEST PUSH1 0x40 MLOAD DUP1 SWAP2 SUB SWAP1 REVERT JUMPDEST PUSH2 0x242F DUP6 DUP6 DUP6 DUP6 DUP6 PUSH2 0x228C JUMP JUMPDEST POP POP POP POP POP JUMP JUMPDEST PUSH1 0x0 PUSH2 0x2464 PUSH32 0x360894A13BA1A3210667C828492DB98DCA3E2076CC3735A920A3CA505D382BBC PUSH1 0x0 SHL PUSH2 0x2D84 JUMP JUMPDEST PUSH1 0x0 ADD PUSH1 0x0 SWAP1 SLOAD SWAP1 PUSH2 0x100 EXP SWAP1 DIV PUSH20 0xFFFFFFFFFFFFFFFFFFFFFFFFFFFFFFFFFFFFFFFF AND SWAP1 POP SWAP1 JUMP JUMPDEST PUSH2 0x2496 DUP3 PUSH2 0x2D8E JUMP JUMPDEST DUP2 PUSH20 0xFFFFFFFFFFFFFFFFFFFFFFFFFFFFFFFFFFFFFFFF AND PUSH32 0xBC7CD75A20EE27FD9ADEBAB32041F755214DBC6BFFA90CC0225B39DA2E5C2D3B PUSH1 0x40 MLOAD PUSH1 0x40 MLOAD DUP1 SWAP2 SUB SWAP1 LOG2 PUSH1 0x0 DUP2 MLOAD GT ISZERO PUSH2 0x24F3 JUMPI PUSH2 0x24ED DUP3 DUP3 PUSH2 0x2E5B JUMP JUMPDEST POP PUSH2 0x24FC JUMP JUMPDEST PUSH2 0x24FB PUSH2 0x2EDF JUMP JUMPDEST JUMPDEST POP POP JUMP JUMPDEST PUSH1 0x0 PUSH2 0x250A PUSH2 0x18B9 JUMP JUMPDEST SWAP1 POP PUSH1 0x0 PUSH20 0xFFFFFFFFFFFFFFFFFFFFFFFFFFFFFFFFFFFFFFFF AND DUP4 PUSH20 0xFFFFFFFFFFFFFFFFFFFFFFFFFFFFFFFFFFFFFFFF AND SUB PUSH2 0x257E JUMPI PUSH1 0x0 PUSH1 0x40 MLOAD PUSH32 0xCED3E10000000000000000000000000000000000000000000000000000000000 DUP2 MSTORE PUSH1 0x4 ADD PUSH2 0x2575 SWAP2 SWAP1 PUSH2 0x3D5D JUMP JUMPDEST PUSH1 0x40 MLOAD DUP1 SWAP2 SUB SWAP1 REVERT JUMPDEST DUP2 DUP2 PUSH1 0x1 ADD PUSH1 0x0 DUP7 PUSH20 0xFFFFFFFFFFFFFFFFFFFFFFFFFFFFFFFFFFFFFFFF AND PUSH20 0xFFFFFFFFFFFFFFFFFFFFFFFFFFFFFFFFFFFFFFFF AND DUP2 MSTORE PUSH1 0x20 ADD SWAP1 DUP2 MSTORE PUSH1 0x20 ADD PUSH1 0x0 KECCAK256 PUSH1 0x0 DUP6 PUSH20 0xFFFFFFFFFFFFFFFFFFFFFFFFFFFFFFFFFFFFFFFF AND PUSH20 0xFFFFFFFFFFFFFFFFFFFFFFFFFFFFFFFFFFFFFFFF AND DUP2 MSTORE PUSH1 0x20 ADD SWAP1 DUP2 MSTORE PUSH1 0x20 ADD PUSH1 0x0 KECCAK256 PUSH1 0x0 PUSH2 0x100 EXP DUP2 SLOAD DUP2 PUSH1 0xFF MUL NOT AND SWAP1 DUP4 ISZERO ISZERO MUL OR SWAP1 SSTORE POP DUP3 PUSH20 0xFFFFFFFFFFFFFFFFFFFFFFFFFFFFFFFFFFFFFFFF AND DUP5 PUSH20 0xFFFFFFFFFFFFFFFFFFFFFFFFFFFFFFFFFFFFFFFF AND PUSH32 0x17307EAB39AB6107E8899845AD3D59BD9653F200F220920489CA2B5937696C31 DUP5 PUSH1 0x40 MLOAD PUSH2 0x2671 SWAP2 SWAP1 PUSH2 0x3586 JUMP JUMPDEST PUSH1 0x40 MLOAD DUP1 SWAP2 SUB SWAP1 LOG3 POP POP POP POP JUMP JUMPDEST PUSH2 0x2687 PUSH2 0x2F1C JUMP JUMPDEST PUSH2 0x26BD JUMPI PUSH1 0x40 MLOAD PUSH32 0xD7E6BCF800000000000000000000000000000000000000000000000000000000 DUP2 MSTORE PUSH1 0x4 ADD PUSH1 0x40 MLOAD DUP1 SWAP2 SUB SWAP1 REVERT JUMPDEST JUMP JUMPDEST PUSH2 0x26C7 PUSH2 0x267F JUMP JUMPDEST PUSH1 0x0 PUSH20 0xFFFFFFFFFFFFFFFFFFFFFFFFFFFFFFFFFFFFFFFF AND DUP2 PUSH20 0xFFFFFFFFFFFFFFFFFFFFFFFFFFFFFFFFFFFFFFFF AND SUB PUSH2 0x2739 JUMPI PUSH1 0x0 PUSH1 0x40 MLOAD PUSH32 0x1E4FBDF700000000000000000000000000000000000000000000000000000000 DUP2 MSTORE PUSH1 0x4 ADD PUSH2 0x2730 SWAP2 SWAP1 PUSH2 0x3D5D JUMP JUMPDEST PUSH1 0x40 MLOAD DUP1 SWAP2 SUB SWAP1 REVERT JUMPDEST PUSH2 0x2742 DUP2 PUSH2 0x1F3B JUMP JUMPDEST POP JUMP JUMPDEST PUSH1 0x0 PUSH20 0xFFFFFFFFFFFFFFFFFFFFFFFFFFFFFFFFFFFFFFFF AND DUP5 PUSH20 0xFFFFFFFFFFFFFFFFFFFFFFFFFFFFFFFFFFFFFFFF AND SUB PUSH2 0x27B7 JUMPI PUSH1 0x0 PUSH1 0x40 MLOAD PUSH32 0x57F447CE00000000000000000000000000000000000000000000000000000000 DUP2 MSTORE PUSH1 0x4 ADD PUSH2 0x27AE SWAP2 SWAP1 PUSH2 0x3D5D JUMP JUMPDEST PUSH1 0x40 MLOAD DUP1 SWAP2 SUB SWAP1 REVERT JUMPDEST PUSH1 0x0 PUSH20 0xFFFFFFFFFFFFFFFFFFFFFFFFFFFFFFFFFFFFFFFF AND DUP6 PUSH20 0xFFFFFFFFFFFFFFFFFFFFFFFFFFFFFFFFFFFFFFFF AND SUB PUSH2 0x2829 JUMPI PUSH1 0x0 PUSH1 0x40 MLOAD PUSH32 0x1A8351400000000000000000000000000000000000000000000000000000000 DUP2 MSTORE PUSH1 0x4 ADD PUSH2 0x2820 SWAP2 SWAP1 PUSH2 0x3D5D JUMP JUMPDEST PUSH1 0x40 MLOAD DUP1 SWAP2 SUB SWAP1 REVERT JUMPDEST PUSH1 0x0 DUP1 PUSH2 0x2836 DUP6 DUP6 PUSH2 0x225C JUMP JUMPDEST SWAP2 POP SWAP2 POP PUSH2 0x2847 DUP8 DUP8 DUP5 DUP5 DUP8 PUSH2 0x228C JUMP JUMPDEST POP POP POP POP POP POP POP JUMP JUMPDEST PUSH1 0x0 PUSH2 0x285A PUSH2 0x1B13 JUMP JUMPDEST SWAP1 POP PUSH2 0x2868 DUP6 DUP6 DUP6 DUP6 PUSH2 0x2F3C JUMP JUMPDEST PUSH1 0x0 PUSH20 0xFFFFFFFFFFFFFFFFFFFFFFFFFFFFFFFFFFFFFFFF AND DUP6 PUSH20 0xFFFFFFFFFFFFFFFFFFFFFFFFFFFFFFFFFFFFFFFF AND SUB PUSH2 0x294C JUMPI PUSH1 0x0 DUP1 JUMPDEST DUP5 MLOAD DUP2 LT ISZERO PUSH2 0x292E JUMPI PUSH1 0x0 DUP5 DUP3 DUP2 MLOAD DUP2 LT PUSH2 0x28BE JUMPI PUSH2 0x28BD PUSH2 0x3FF2 JUMP JUMPDEST JUMPDEST PUSH1 0x20 MUL PUSH1 0x20 ADD ADD MLOAD SWAP1 POP DUP1 DUP5 PUSH1 0x0 ADD PUSH1 0x0 DUP9 DUP6 DUP2 MLOAD DUP2 LT PUSH2 0x28E2 JUMPI PUSH2 0x28E1 PUSH2 0x3FF2 JUMP JUMPDEST JUMPDEST PUSH1 0x20 MUL PUSH1 0x20 ADD ADD MLOAD DUP2 MSTORE PUSH1 0x20 ADD SWAP1 DUP2 MSTORE PUSH1 0x20 ADD PUSH1 0x0 KECCAK256 PUSH1 0x0 DUP3 DUP3 SLOAD PUSH2 0x2907 SWAP2 SWAP1 PUSH2 0x41B3 JUMP JUMPDEST SWAP3 POP POP DUP2 SWAP1 SSTORE POP DUP1 DUP4 PUSH2 0x291A SWAP2 SWAP1 PUSH2 0x41B3 JUMP JUMPDEST SWAP3 POP POP DUP1 PUSH2 0x2927 SWAP1 PUSH2 0x4079 JUMP JUMPDEST SWAP1 POP PUSH2 0x28A0 JUMP JUMPDEST POP DUP1 DUP3 PUSH1 0x1 ADD PUSH1 0x0 DUP3 DUP3 SLOAD PUSH2 0x2943 SWAP2 SWAP1 PUSH2 0x41B3 JUMP JUMPDEST SWAP3 POP POP DUP2 SWAP1 SSTORE POP POP JUMPDEST PUSH1 0x0 PUSH20 0xFFFFFFFFFFFFFFFFFFFFFFFFFFFFFFFFFFFFFFFF AND DUP5 PUSH20 0xFFFFFFFFFFFFFFFFFFFFFFFFFFFFFFFFFFFFFFFF AND SUB PUSH2 0x2A15 JUMPI PUSH1 0x0 DUP1 JUMPDEST DUP5 MLOAD DUP2 LT ISZERO PUSH2 0x2A00 JUMPI PUSH1 0x0 DUP5 DUP3 DUP2 MLOAD DUP2 LT PUSH2 0x29A2 JUMPI PUSH2 0x29A1 PUSH2 0x3FF2 JUMP JUMPDEST JUMPDEST PUSH1 0x20 MUL PUSH1 0x20 ADD ADD MLOAD SWAP1 POP DUP1 DUP5 PUSH1 0x0 ADD PUSH1 0x0 DUP9 DUP6 DUP2 MLOAD DUP2 LT PUSH2 0x29C6 JUMPI PUSH2 0x29C5 PUSH2 0x3FF2 JUMP JUMPDEST JUMPDEST PUSH1 0x20 MUL PUSH1 0x20 ADD ADD MLOAD DUP2 MSTORE PUSH1 0x20 ADD SWAP1 DUP2 MSTORE PUSH1 0x20 ADD PUSH1 0x0 KECCAK256 PUSH1 0x0 DUP3 DUP3 SLOAD SUB SWAP3 POP POP DUP2 SWAP1 SSTORE POP DUP1 DUP4 ADD SWAP3 POP POP DUP1 PUSH2 0x29F9 SWAP1 PUSH2 0x4079 JUMP JUMPDEST SWAP1 POP PUSH2 0x2984 JUMP JUMPDEST POP DUP1 DUP3 PUSH1 0x1 ADD PUSH1 0x0 DUP3 DUP3 SLOAD SUB SWAP3 POP POP DUP2 SWAP1 SSTORE POP POP JUMPDEST POP POP POP POP POP JUMP JUMPDEST PUSH1 0x0 DUP5 PUSH20 0xFFFFFFFFFFFFFFFFFFFFFFFFFFFFFFFFFFFFFFFF AND EXTCODESIZE GT ISZERO PUSH2 0x2BC8 JUMPI DUP4 PUSH20 0xFFFFFFFFFFFFFFFFFFFFFFFFFFFFFFFFFFFFFFFF AND PUSH4 0xF23A6E61 DUP8 DUP8 DUP7 DUP7 DUP7 PUSH1 0x40 MLOAD DUP7 PUSH4 0xFFFFFFFF AND PUSH1 0xE0 SHL DUP2 MSTORE PUSH1 0x4 ADD PUSH2 0x2A7D SWAP6 SWAP5 SWAP4 SWAP3 SWAP2 SWAP1 PUSH2 0x47E7 JUMP JUMPDEST PUSH1 0x20 PUSH1 0x40 MLOAD DUP1 DUP4 SUB DUP2 PUSH1 0x0 DUP8 GAS CALL SWAP3 POP POP POP DUP1 ISZERO PUSH2 0x2AB9 JUMPI POP PUSH1 0x40 MLOAD RETURNDATASIZE PUSH1 0x1F NOT PUSH1 0x1F DUP3 ADD AND DUP3 ADD DUP1 PUSH1 0x40 MSTORE POP DUP2 ADD SWAP1 PUSH2 0x2AB6 SWAP2 SWAP1 PUSH2 0x4856 JUMP JUMPDEST PUSH1 0x1 JUMPDEST PUSH2 0x2B3D JUMPI RETURNDATASIZE DUP1 PUSH1 0x0 DUP2 EQ PUSH2 0x2AE9 JUMPI PUSH1 0x40 MLOAD SWAP2 POP PUSH1 0x1F NOT PUSH1 0x3F RETURNDATASIZE ADD AND DUP3 ADD PUSH1 0x40 MSTORE RETURNDATASIZE DUP3 MSTORE RETURNDATASIZE PUSH1 0x0 PUSH1 0x20 DUP5 ADD RETURNDATACOPY PUSH2 0x2AEE JUMP JUMPDEST PUSH1 0x60 SWAP2 POP JUMPDEST POP PUSH1 0x0 DUP2 MLOAD SUB PUSH2 0x2B35 JUMPI DUP5 PUSH1 0x40 MLOAD PUSH32 0x57F447CE00000000000000000000000000000000000000000000000000000000 DUP2 MSTORE PUSH1 0x4 ADD PUSH2 0x2B2C SWAP2 SWAP1 PUSH2 0x3D5D JUMP JUMPDEST PUSH1 0x40 MLOAD DUP1 SWAP2 SUB SWAP1 REVERT JUMPDEST DUP1 MLOAD DUP2 PUSH1 0x20 ADD REVERT JUMPDEST PUSH4 0xF23A6E61 PUSH1 0xE0 SHL PUSH28 0xFFFFFFFFFFFFFFFFFFFFFFFFFFFFFFFFFFFFFFFFFFFFFFFFFFFFFFFF NOT AND DUP2 PUSH28 0xFFFFFFFFFFFFFFFFFFFFFFFFFFFFFFFFFFFFFFFFFFFFFFFFFFFFFFFF NOT AND EQ PUSH2 0x2BC6 JUMPI DUP5 PUSH1 0x40 MLOAD PUSH32 0x57F447CE00000000000000000000000000000000000000000000000000000000 DUP2 MSTORE PUSH1 0x4 ADD PUSH2 0x2BBD SWAP2 SWAP1 PUSH2 0x3D5D JUMP JUMPDEST PUSH1 0x40 MLOAD DUP1 SWAP2 SUB SWAP1 REVERT JUMPDEST POP JUMPDEST POP POP POP POP POP POP JUMP JUMPDEST PUSH1 0x0 DUP5 PUSH20 0xFFFFFFFFFFFFFFFFFFFFFFFFFFFFFFFFFFFFFFFF AND EXTCODESIZE GT ISZERO PUSH2 0x2D7C JUMPI DUP4 PUSH20 0xFFFFFFFFFFFFFFFFFFFFFFFFFFFFFFFFFFFFFFFF AND PUSH4 0xBC197C81 DUP8 DUP8 DUP7 DUP7 DUP7 PUSH1 0x40 MLOAD DUP7 PUSH4 0xFFFFFFFF AND PUSH1 0xE0 SHL DUP2 MSTORE PUSH1 0x4 ADD PUSH2 0x2C31 SWAP6 SWAP5 SWAP4 SWAP3 SWAP2 SWAP1 PUSH2 0x4883 JUMP JUMPDEST PUSH1 0x20 PUSH1 0x40 MLOAD DUP1 DUP4 SUB DUP2 PUSH1 0x0 DUP8 GAS CALL SWAP3 POP POP POP DUP1 ISZERO PUSH2 0x2C6D JUMPI POP PUSH1 0x40 MLOAD RETURNDATASIZE PUSH1 0x1F NOT PUSH1 0x1F DUP3 ADD AND DUP3 ADD DUP1 PUSH1 0x40 MSTORE POP DUP2 ADD SWAP1 PUSH2 0x2C6A SWAP2 SWAP1 PUSH2 0x4856 JUMP JUMPDEST PUSH1 0x1 JUMPDEST PUSH2 0x2CF1 JUMPI RETURNDATASIZE DUP1 PUSH1 0x0 DUP2 EQ PUSH2 0x2C9D JUMPI PUSH1 0x40 MLOAD SWAP2 POP PUSH1 0x1F NOT PUSH1 0x3F RETURNDATASIZE ADD AND DUP3 ADD PUSH1 0x40 MSTORE RETURNDATASIZE DUP3 MSTORE RETURNDATASIZE PUSH1 0x0 PUSH1 0x20 DUP5 ADD RETURNDATACOPY PUSH2 0x2CA2 JUMP JUMPDEST PUSH1 0x60 SWAP2 POP JUMPDEST POP PUSH1 0x0 DUP2 MLOAD SUB PUSH2 0x2CE9 JUMPI DUP5 PUSH1 0x40 MLOAD PUSH32 0x57F447CE00000000000000000000000000000000000000000000000000000000 DUP2 MSTORE PUSH1 0x4 ADD PUSH2 0x2CE0 SWAP2 SWAP1 PUSH2 0x3D5D JUMP JUMPDEST PUSH1 0x40 MLOAD DUP1 SWAP2 SUB SWAP1 REVERT JUMPDEST DUP1 MLOAD DUP2 PUSH1 0x20 ADD REVERT JUMPDEST PUSH4 0xBC197C81 PUSH1 0xE0 SHL PUSH28 0xFFFFFFFFFFFFFFFFFFFFFFFFFFFFFFFFFFFFFFFFFFFFFFFFFFFFFFFF NOT AND DUP2 PUSH28 0xFFFFFFFFFFFFFFFFFFFFFFFFFFFFFFFFFFFFFFFFFFFFFFFFFFFFFFFF NOT AND EQ PUSH2 0x2D7A JUMPI DUP5 PUSH1 0x40 MLOAD PUSH32 0x57F447CE00000000000000000000000000000000000000000000000000000000 DUP2 MSTORE PUSH1 0x4 ADD PUSH2 0x2D71 SWAP2 SWAP1 PUSH2 0x3D5D JUMP JUMPDEST PUSH1 0x40 MLOAD DUP1 SWAP2 SUB SWAP1 REVERT JUMPDEST POP JUMPDEST POP POP POP POP POP POP JUMP JUMPDEST PUSH1 0x0 DUP2 SWAP1 POP SWAP2 SWAP1 POP JUMP JUMPDEST PUSH1 0x0 DUP2 PUSH20 0xFFFFFFFFFFFFFFFFFFFFFFFFFFFFFFFFFFFFFFFF AND EXTCODESIZE SUB PUSH2 0x2DEA JUMPI DUP1 PUSH1 0x40 MLOAD PUSH32 0x4C9C8CE300000000000000000000000000000000000000000000000000000000 DUP2 MSTORE PUSH1 0x4 ADD PUSH2 0x2DE1 SWAP2 SWAP1 PUSH2 0x3D5D JUMP JUMPDEST PUSH1 0x40 MLOAD DUP1 SWAP2 SUB SWAP1 REVERT JUMPDEST DUP1 PUSH2 0x2E17 PUSH32 0x360894A13BA1A3210667C828492DB98DCA3E2076CC3735A920A3CA505D382BBC PUSH1 0x0 SHL PUSH2 0x2D84 JUMP JUMPDEST PUSH1 0x0 ADD PUSH1 0x0 PUSH2 0x100 EXP DUP2 SLOAD DUP2 PUSH20 0xFFFFFFFFFFFFFFFFFFFFFFFFFFFFFFFFFFFFFFFF MUL NOT AND SWAP1 DUP4 PUSH20 0xFFFFFFFFFFFFFFFFFFFFFFFFFFFFFFFFFFFFFFFF AND MUL OR SWAP1 SSTORE POP POP JUMP JUMPDEST PUSH1 0x60 PUSH1 0x0 DUP1 DUP5 PUSH20 0xFFFFFFFFFFFFFFFFFFFFFFFFFFFFFFFFFFFFFFFF AND DUP5 PUSH1 0x40 MLOAD PUSH2 0x2E85 SWAP2 SWAP1 PUSH2 0x4927 JUMP JUMPDEST PUSH1 0x0 PUSH1 0x40 MLOAD DUP1 DUP4 SUB DUP2 DUP6 GAS DELEGATECALL SWAP2 POP POP RETURNDATASIZE DUP1 PUSH1 0x0 DUP2 EQ PUSH2 0x2EC0 JUMPI PUSH1 0x40 MLOAD SWAP2 POP PUSH1 0x1F NOT PUSH1 0x3F RETURNDATASIZE ADD AND DUP3 ADD PUSH1 0x40 MSTORE RETURNDATASIZE DUP3 MSTORE RETURNDATASIZE PUSH1 0x0 PUSH1 0x20 DUP5 ADD RETURNDATACOPY PUSH2 0x2EC5 JUMP JUMPDEST PUSH1 0x60 SWAP2 POP JUMPDEST POP SWAP2 POP SWAP2 POP PUSH2 0x2ED5 DUP6 DUP4 DUP4 PUSH2 0x3300 JUMP JUMPDEST SWAP3 POP POP POP SWAP3 SWAP2 POP POP JUMP JUMPDEST PUSH1 0x0 CALLVALUE GT ISZERO PUSH2 0x2F1A JUMPI PUSH1 0x40 MLOAD PUSH32 0xB398979F00000000000000000000000000000000000000000000000000000000 DUP2 MSTORE PUSH1 0x4 ADD PUSH1 0x40 MLOAD DUP1 SWAP2 SUB SWAP1 REVERT JUMPDEST JUMP JUMPDEST PUSH1 0x0 PUSH2 0x2F26 PUSH2 0x2050 JUMP JUMPDEST PUSH1 0x0 ADD PUSH1 0x8 SWAP1 SLOAD SWAP1 PUSH2 0x100 EXP SWAP1 DIV PUSH1 0xFF AND SWAP1 POP SWAP1 JUMP JUMPDEST PUSH1 0x0 PUSH2 0x2F46 PUSH2 0x18B9 JUMP JUMPDEST SWAP1 POP DUP2 MLOAD DUP4 MLOAD EQ PUSH2 0x2F92 JUMPI DUP3 MLOAD DUP3 MLOAD PUSH1 0x40 MLOAD PUSH32 0x5B05999100000000000000000000000000000000000000000000000000000000 DUP2 MSTORE PUSH1 0x4 ADD PUSH2 0x2F89 SWAP3 SWAP2 SWAP1 PUSH2 0x4295 JUMP JUMPDEST PUSH1 0x40 MLOAD DUP1 SWAP2 SUB SWAP1 REVERT JUMPDEST PUSH1 0x0 PUSH2 0x2F9C PUSH2 0x2254 JUMP JUMPDEST SWAP1 POP PUSH1 0x0 JUMPDEST DUP5 MLOAD DUP2 LT ISZERO PUSH2 0x31BA JUMPI PUSH1 0x0 PUSH2 0x2FBF DUP3 DUP8 PUSH2 0x1C90 SWAP1 SWAP2 SWAP1 PUSH4 0xFFFFFFFF AND JUMP JUMPDEST SWAP1 POP PUSH1 0x0 PUSH2 0x2FD6 DUP4 DUP8 PUSH2 0x1C90 SWAP1 SWAP2 SWAP1 PUSH4 0xFFFFFFFF AND JUMP JUMPDEST SWAP1 POP PUSH1 0x0 PUSH20 0xFFFFFFFFFFFFFFFFFFFFFFFFFFFFFFFFFFFFFFFF AND DUP10 PUSH20 0xFFFFFFFFFFFFFFFFFFFFFFFFFFFFFFFFFFFFFFFF AND EQ PUSH2 0x3109 JUMPI PUSH1 0x0 DUP6 PUSH1 0x0 ADD PUSH1 0x0 DUP5 DUP2 MSTORE PUSH1 0x20 ADD SWAP1 DUP2 MSTORE PUSH1 0x20 ADD PUSH1 0x0 KECCAK256 PUSH1 0x0 DUP12 PUSH20 0xFFFFFFFFFFFFFFFFFFFFFFFFFFFFFFFFFFFFFFFF AND PUSH20 0xFFFFFFFFFFFFFFFFFFFFFFFFFFFFFFFFFFFFFFFF AND DUP2 MSTORE PUSH1 0x20 ADD SWAP1 DUP2 MSTORE PUSH1 0x20 ADD PUSH1 0x0 KECCAK256 SLOAD SWAP1 POP DUP2 DUP2 LT ISZERO PUSH2 0x30AE JUMPI DUP10 DUP2 DUP4 DUP6 PUSH1 0x40 MLOAD PUSH32 0x3DEE4C500000000000000000000000000000000000000000000000000000000 DUP2 MSTORE PUSH1 0x4 ADD PUSH2 0x30A5 SWAP5 SWAP4 SWAP3 SWAP2 SWAP1 PUSH2 0x493E JUMP JUMPDEST PUSH1 0x40 MLOAD DUP1 SWAP2 SUB SWAP1 REVERT JUMPDEST DUP2 DUP2 SUB DUP7 PUSH1 0x0 ADD PUSH1 0x0 DUP6 DUP2 MSTORE PUSH1 0x20 ADD SWAP1 DUP2 MSTORE PUSH1 0x20 ADD PUSH1 0x0 KECCAK256 PUSH1 0x0 DUP13 PUSH20 0xFFFFFFFFFFFFFFFFFFFFFFFFFFFFFFFFFFFFFFFF AND PUSH20 0xFFFFFFFFFFFFFFFFFFFFFFFFFFFFFFFFFFFFFFFF AND DUP2 MSTORE PUSH1 0x20 ADD SWAP1 DUP2 MSTORE PUSH1 0x20 ADD PUSH1 0x0 KECCAK256 DUP2 SWAP1 SSTORE POP POP JUMPDEST PUSH1 0x0 PUSH20 0xFFFFFFFFFFFFFFFFFFFFFFFFFFFFFFFFFFFFFFFF AND DUP9 PUSH20 0xFFFFFFFFFFFFFFFFFFFFFFFFFFFFFFFFFFFFFFFF AND EQ PUSH2 0x31A7 JUMPI DUP1 DUP6 PUSH1 0x0 ADD PUSH1 0x0 DUP5 DUP2 MSTORE PUSH1 0x20 ADD SWAP1 DUP2 MSTORE PUSH1 0x20 ADD PUSH1 0x0 KECCAK256 PUSH1 0x0 DUP11 PUSH20 0xFFFFFFFFFFFFFFFFFFFFFFFFFFFFFFFFFFFFFFFF AND PUSH20 0xFFFFFFFFFFFFFFFFFFFFFFFFFFFFFFFFFFFFFFFF AND DUP2 MSTORE PUSH1 0x20 ADD SWAP1 DUP2 MSTORE PUSH1 0x20 ADD PUSH1 0x0 KECCAK256 PUSH1 0x0 DUP3 DUP3 SLOAD PUSH2 0x319F SWAP2 SWAP1 PUSH2 0x41B3 JUMP JUMPDEST SWAP3 POP POP DUP2 SWAP1 SSTORE POP JUMPDEST POP POP DUP1 PUSH2 0x31B3 SWAP1 PUSH2 0x4079 JUMP JUMPDEST SWAP1 POP PUSH2 0x2FA1 JUMP JUMPDEST POP PUSH1 0x1 DUP5 MLOAD SUB PUSH2 0x3279 JUMPI PUSH1 0x0 PUSH2 0x31DA PUSH1 0x0 DUP7 PUSH2 0x1C90 SWAP1 SWAP2 SWAP1 PUSH4 0xFFFFFFFF AND JUMP JUMPDEST SWAP1 POP PUSH1 0x0 PUSH2 0x31F2 PUSH1 0x0 DUP7 PUSH2 0x1C90 SWAP1 SWAP2 SWAP1 PUSH4 0xFFFFFFFF AND JUMP JUMPDEST SWAP1 POP DUP7 PUSH20 0xFFFFFFFFFFFFFFFFFFFFFFFFFFFFFFFFFFFFFFFF AND DUP9 PUSH20 0xFFFFFFFFFFFFFFFFFFFFFFFFFFFFFFFFFFFFFFFF AND DUP5 PUSH20 0xFFFFFFFFFFFFFFFFFFFFFFFFFFFFFFFFFFFFFFFF AND PUSH32 0xC3D58168C5AE7397731D063D5BBF3D657854427343F4C083240F7AACAA2D0F62 DUP6 DUP6 PUSH1 0x40 MLOAD PUSH2 0x326A SWAP3 SWAP2 SWAP1 PUSH2 0x4295 JUMP JUMPDEST PUSH1 0x40 MLOAD DUP1 SWAP2 SUB SWAP1 LOG4 POP POP PUSH2 0x32F8 JUMP JUMPDEST DUP5 PUSH20 0xFFFFFFFFFFFFFFFFFFFFFFFFFFFFFFFFFFFFFFFF AND DUP7 PUSH20 0xFFFFFFFFFFFFFFFFFFFFFFFFFFFFFFFFFFFFFFFF AND DUP3 PUSH20 0xFFFFFFFFFFFFFFFFFFFFFFFFFFFFFFFFFFFFFFFF AND PUSH32 0x4A39DC06D4C0DBC64B70AF90FD698A233A518AA5D07E595D983B8C0526C8F7FB DUP8 DUP8 PUSH1 0x40 MLOAD PUSH2 0x32EF SWAP3 SWAP2 SWAP1 PUSH2 0x4983 JUMP JUMPDEST PUSH1 0x40 MLOAD DUP1 SWAP2 SUB SWAP1 LOG4 JUMPDEST POP POP POP POP POP POP JUMP JUMPDEST PUSH1 0x60 DUP3 PUSH2 0x3315 JUMPI PUSH2 0x3310 DUP3 PUSH2 0x338F JUMP JUMPDEST PUSH2 0x3387 JUMP JUMPDEST PUSH1 0x0 DUP3 MLOAD EQ DUP1 ISZERO PUSH2 0x333D JUMPI POP PUSH1 0x0 DUP5 PUSH20 0xFFFFFFFFFFFFFFFFFFFFFFFFFFFFFFFFFFFFFFFF AND EXTCODESIZE EQ JUMPDEST ISZERO PUSH2 0x337F JUMPI DUP4 PUSH1 0x40 MLOAD PUSH32 0x9996B31500000000000000000000000000000000000000000000000000000000 DUP2 MSTORE PUSH1 0x4 ADD PUSH2 0x3376 SWAP2 SWAP1 PUSH2 0x3D5D JUMP JUMPDEST PUSH1 0x40 MLOAD DUP1 SWAP2 SUB SWAP1 REVERT JUMPDEST DUP2 SWAP1 POP PUSH2 0x3388 JUMP JUMPDEST JUMPDEST SWAP4 SWAP3 POP POP POP JUMP JUMPDEST PUSH1 0x0 DUP2 MLOAD GT ISZERO PUSH2 0x33A2 JUMPI DUP1 MLOAD DUP1 DUP3 PUSH1 0x20 ADD REVERT JUMPDEST PUSH1 0x40 MLOAD PUSH32 0x1425EA4200000000000000000000000000000000000000000000000000000000 DUP2 MSTORE PUSH1 0x4 ADD PUSH1 0x40 MLOAD DUP1 SWAP2 SUB SWAP1 REVERT JUMPDEST PUSH1 0x0 PUSH1 0x40 MLOAD SWAP1 POP SWAP1 JUMP JUMPDEST PUSH1 0x0 DUP1 REVERT JUMPDEST PUSH1 0x0 DUP1 REVERT JUMPDEST PUSH1 0x0 PUSH20 0xFFFFFFFFFFFFFFFFFFFFFFFFFFFFFFFFFFFFFFFF DUP3 AND SWAP1 POP SWAP2 SWAP1 POP JUMP JUMPDEST PUSH1 0x0 PUSH2 0x3413 DUP3 PUSH2 0x33E8 JUMP JUMPDEST SWAP1 POP SWAP2 SWAP1 POP JUMP JUMPDEST PUSH2 0x3423 DUP2 PUSH2 0x3408 JUMP JUMPDEST DUP2 EQ PUSH2 0x342E JUMPI PUSH1 0x0 DUP1 REVERT JUMPDEST POP JUMP JUMPDEST PUSH1 0x0 DUP2 CALLDATALOAD SWAP1 POP PUSH2 0x3440 DUP2 PUSH2 0x341A JUMP JUMPDEST SWAP3 SWAP2 POP POP JUMP JUMPDEST PUSH1 0x0 DUP2 SWAP1 POP SWAP2 SWAP1 POP JUMP JUMPDEST PUSH2 0x3459 DUP2 PUSH2 0x3446 JUMP JUMPDEST DUP2 EQ PUSH2 0x3464 JUMPI PUSH1 0x0 DUP1 REVERT JUMPDEST POP JUMP JUMPDEST PUSH1 0x0 DUP2 CALLDATALOAD SWAP1 POP PUSH2 0x3476 DUP2 PUSH2 0x3450 JUMP JUMPDEST SWAP3 SWAP2 POP POP JUMP JUMPDEST PUSH1 0x0 DUP1 PUSH1 0x40 DUP4 DUP6 SUB SLT ISZERO PUSH2 0x3493 JUMPI PUSH2 0x3492 PUSH2 0x33DE JUMP JUMPDEST JUMPDEST PUSH1 0x0 PUSH2 0x34A1 DUP6 DUP3 DUP7 ADD PUSH2 0x3431 JUMP JUMPDEST SWAP3 POP POP PUSH1 0x20 PUSH2 0x34B2 DUP6 DUP3 DUP7 ADD PUSH2 0x3467 JUMP JUMPDEST SWAP2 POP POP SWAP3 POP SWAP3 SWAP1 POP JUMP JUMPDEST PUSH2 0x34C5 DUP2 PUSH2 0x3446 JUMP JUMPDEST DUP3 MSTORE POP POP JUMP JUMPDEST PUSH1 0x0 PUSH1 0x20 DUP3 ADD SWAP1 POP PUSH2 0x34E0 PUSH1 0x0 DUP4 ADD DUP5 PUSH2 0x34BC JUMP JUMPDEST SWAP3 SWAP2 POP POP JUMP JUMPDEST PUSH1 0x0 PUSH32 0xFFFFFFFF00000000000000000000000000000000000000000000000000000000 DUP3 AND SWAP1 POP SWAP2 SWAP1 POP JUMP JUMPDEST PUSH2 0x351B DUP2 PUSH2 0x34E6 JUMP JUMPDEST DUP2 EQ PUSH2 0x3526 JUMPI PUSH1 0x0 DUP1 REVERT JUMPDEST POP JUMP JUMPDEST PUSH1 0x0 DUP2 CALLDATALOAD SWAP1 POP PUSH2 0x3538 DUP2 PUSH2 0x3512 JUMP JUMPDEST SWAP3 SWAP2 POP POP JUMP JUMPDEST PUSH1 0x0 PUSH1 0x20 DUP3 DUP5 SUB SLT ISZERO PUSH2 0x3554 JUMPI PUSH2 0x3553 PUSH2 0x33DE JUMP JUMPDEST JUMPDEST PUSH1 0x0 PUSH2 0x3562 DUP5 DUP3 DUP6 ADD PUSH2 0x3529 JUMP JUMPDEST SWAP2 POP POP SWAP3 SWAP2 POP POP JUMP JUMPDEST PUSH1 0x0 DUP2 ISZERO ISZERO SWAP1 POP SWAP2 SWAP1 POP JUMP JUMPDEST PUSH2 0x3580 DUP2 PUSH2 0x356B JUMP JUMPDEST DUP3 MSTORE POP POP JUMP JUMPDEST PUSH1 0x0 PUSH1 0x20 DUP3 ADD SWAP1 POP PUSH2 0x359B PUSH1 0x0 DUP4 ADD DUP5 PUSH2 0x3577 JUMP JUMPDEST SWAP3 SWAP2 POP POP JUMP JUMPDEST PUSH1 0x0 DUP1 REVERT JUMPDEST PUSH1 0x0 DUP1 REVERT JUMPDEST PUSH1 0x0 PUSH1 0x1F NOT PUSH1 0x1F DUP4 ADD AND SWAP1 POP SWAP2 SWAP1 POP JUMP JUMPDEST PUSH32 0x4E487B7100000000000000000000000000000000000000000000000000000000 PUSH1 0x0 MSTORE PUSH1 0x41 PUSH1 0x4 MSTORE PUSH1 0x24 PUSH1 0x0 REVERT JUMPDEST PUSH2 0x35F4 DUP3 PUSH2 0x35AB JUMP JUMPDEST DUP2 ADD DUP2 DUP2 LT PUSH8 0xFFFFFFFFFFFFFFFF DUP3 GT OR ISZERO PUSH2 0x3613 JUMPI PUSH2 0x3612 PUSH2 0x35BC JUMP JUMPDEST JUMPDEST DUP1 PUSH1 0x40 MSTORE POP POP POP JUMP JUMPDEST PUSH1 0x0 PUSH2 0x3626 PUSH2 0x33D4 JUMP JUMPDEST SWAP1 POP PUSH2 0x3632 DUP3 DUP3 PUSH2 0x35EB JUMP JUMPDEST SWAP2 SWAP1 POP JUMP JUMPDEST PUSH1 0x0 PUSH8 0xFFFFFFFFFFFFFFFF DUP3 GT ISZERO PUSH2 0x3652 JUMPI PUSH2 0x3651 PUSH2 0x35BC JUMP JUMPDEST JUMPDEST PUSH2 0x365B DUP3 PUSH2 0x35AB JUMP JUMPDEST SWAP1 POP PUSH1 0x20 DUP2 ADD SWAP1 POP SWAP2 SWAP1 POP JUMP JUMPDEST DUP3 DUP2 DUP4 CALLDATACOPY PUSH1 0x0 DUP4 DUP4 ADD MSTORE POP POP POP JUMP JUMPDEST PUSH1 0x0 PUSH2 0x368A PUSH2 0x3685 DUP5 PUSH2 0x3637 JUMP JUMPDEST PUSH2 0x361C JUMP JUMPDEST SWAP1 POP DUP3 DUP2 MSTORE PUSH1 0x20 DUP2 ADD DUP5 DUP5 DUP5 ADD GT ISZERO PUSH2 0x36A6 JUMPI PUSH2 0x36A5 PUSH2 0x35A6 JUMP JUMPDEST JUMPDEST PUSH2 0x36B1 DUP5 DUP3 DUP6 PUSH2 0x3668 JUMP JUMPDEST POP SWAP4 SWAP3 POP POP POP JUMP JUMPDEST PUSH1 0x0 DUP3 PUSH1 0x1F DUP4 ADD SLT PUSH2 0x36CE JUMPI PUSH2 0x36CD PUSH2 0x35A1 JUMP JUMPDEST JUMPDEST DUP2 CALLDATALOAD PUSH2 0x36DE DUP5 DUP3 PUSH1 0x20 DUP7 ADD PUSH2 0x3677 JUMP JUMPDEST SWAP2 POP POP SWAP3 SWAP2 POP POP JUMP JUMPDEST PUSH1 0x0 PUSH1 0x20 DUP3 DUP5 SUB SLT ISZERO PUSH2 0x36FD JUMPI PUSH2 0x36FC PUSH2 0x33DE JUMP JUMPDEST JUMPDEST PUSH1 0x0 DUP3 ADD CALLDATALOAD PUSH8 0xFFFFFFFFFFFFFFFF DUP2 GT ISZERO PUSH2 0x371B JUMPI PUSH2 0x371A PUSH2 0x33E3 JUMP JUMPDEST JUMPDEST PUSH2 0x3727 DUP5 DUP3 DUP6 ADD PUSH2 0x36B9 JUMP JUMPDEST SWAP2 POP POP SWAP3 SWAP2 POP POP JUMP JUMPDEST PUSH1 0x0 PUSH8 0xFFFFFFFFFFFFFFFF DUP3 GT ISZERO PUSH2 0x374B JUMPI PUSH2 0x374A PUSH2 0x35BC JUMP JUMPDEST JUMPDEST PUSH1 0x20 DUP3 MUL SWAP1 POP PUSH1 0x20 DUP2 ADD SWAP1 POP SWAP2 SWAP1 POP JUMP JUMPDEST PUSH1 0x0 DUP1 REVERT JUMPDEST PUSH1 0x0 PUSH2 0x3774 PUSH2 0x376F DUP5 PUSH2 0x3730 JUMP JUMPDEST PUSH2 0x361C JUMP JUMPDEST SWAP1 POP DUP1 DUP4 DUP3 MSTORE PUSH1 0x20 DUP3 ADD SWAP1 POP PUSH1 0x20 DUP5 MUL DUP4 ADD DUP6 DUP2 GT ISZERO PUSH2 0x3797 JUMPI PUSH2 0x3796 PUSH2 0x375C JUMP JUMPDEST JUMPDEST DUP4 JUMPDEST DUP2 DUP2 LT ISZERO PUSH2 0x37C0 JUMPI DUP1 PUSH2 0x37AC DUP9 DUP3 PUSH2 0x3431 JUMP JUMPDEST DUP5 MSTORE PUSH1 0x20 DUP5 ADD SWAP4 POP POP PUSH1 0x20 DUP2 ADD SWAP1 POP PUSH2 0x3799 JUMP JUMPDEST POP POP POP SWAP4 SWAP3 POP POP POP JUMP JUMPDEST PUSH1 0x0 DUP3 PUSH1 0x1F DUP4 ADD SLT PUSH2 0x37DF JUMPI PUSH2 0x37DE PUSH2 0x35A1 JUMP JUMPDEST JUMPDEST DUP2 CALLDATALOAD PUSH2 0x37EF DUP5 DUP3 PUSH1 0x20 DUP7 ADD PUSH2 0x3761 JUMP JUMPDEST SWAP2 POP POP SWAP3 SWAP2 POP POP JUMP JUMPDEST PUSH1 0x0 PUSH8 0xFFFFFFFFFFFFFFFF DUP3 GT ISZERO PUSH2 0x3813 JUMPI PUSH2 0x3812 PUSH2 0x35BC JUMP JUMPDEST JUMPDEST PUSH1 0x20 DUP3 MUL SWAP1 POP PUSH1 0x20 DUP2 ADD SWAP1 POP SWAP2 SWAP1 POP JUMP JUMPDEST PUSH1 0x0 PUSH2 0x3837 PUSH2 0x3832 DUP5 PUSH2 0x37F8 JUMP JUMPDEST PUSH2 0x361C JUMP JUMPDEST SWAP1 POP DUP1 DUP4 DUP3 MSTORE PUSH1 0x20 DUP3 ADD SWAP1 POP PUSH1 0x20 DUP5 MUL DUP4 ADD DUP6 DUP2 GT ISZERO PUSH2 0x385A JUMPI PUSH2 0x3859 PUSH2 0x375C JUMP JUMPDEST JUMPDEST DUP4 JUMPDEST DUP2 DUP2 LT ISZERO PUSH2 0x3883 JUMPI DUP1 PUSH2 0x386F DUP9 DUP3 PUSH2 0x3467 JUMP JUMPDEST DUP5 MSTORE PUSH1 0x20 DUP5 ADD SWAP4 POP POP PUSH1 0x20 DUP2 ADD SWAP1 POP PUSH2 0x385C JUMP JUMPDEST POP POP POP SWAP4 SWAP3 POP POP POP JUMP JUMPDEST PUSH1 0x0 DUP3 PUSH1 0x1F DUP4 ADD SLT PUSH2 0x38A2 JUMPI PUSH2 0x38A1 PUSH2 0x35A1 JUMP JUMPDEST JUMPDEST DUP2 CALLDATALOAD PUSH2 0x38B2 DUP5 DUP3 PUSH1 0x20 DUP7 ADD PUSH2 0x3824 JUMP JUMPDEST SWAP2 POP POP SWAP3 SWAP2 POP POP JUMP JUMPDEST PUSH1 0x0 DUP1 PUSH1 0x40 DUP4 DUP6 SUB SLT ISZERO PUSH2 0x38D2 JUMPI PUSH2 0x38D1 PUSH2 0x33DE JUMP JUMPDEST JUMPDEST PUSH1 0x0 DUP4 ADD CALLDATALOAD PUSH8 0xFFFFFFFFFFFFFFFF DUP2 GT ISZERO PUSH2 0x38F0 JUMPI PUSH2 0x38EF PUSH2 0x33E3 JUMP JUMPDEST JUMPDEST PUSH2 0x38FC DUP6 DUP3 DUP7 ADD PUSH2 0x37CA JUMP JUMPDEST SWAP3 POP POP PUSH1 0x20 DUP4 ADD CALLDATALOAD PUSH8 0xFFFFFFFFFFFFFFFF DUP2 GT ISZERO PUSH2 0x391D JUMPI PUSH2 0x391C PUSH2 0x33E3 JUMP JUMPDEST JUMPDEST PUSH2 0x3929 DUP6 DUP3 DUP7 ADD PUSH2 0x388D JUMP JUMPDEST SWAP2 POP POP SWAP3 POP SWAP3 SWAP1 POP JUMP JUMPDEST PUSH1 0x0 PUSH1 0x20 DUP3 DUP5 SUB SLT ISZERO PUSH2 0x3949 JUMPI PUSH2 0x3948 PUSH2 0x33DE JUMP JUMPDEST JUMPDEST PUSH1 0x0 PUSH2 0x3957 DUP5 DUP3 DUP6 ADD PUSH2 0x3467 JUMP JUMPDEST SWAP2 POP POP SWAP3 SWAP2 POP POP JUMP JUMPDEST PUSH1 0x0 DUP2 MLOAD SWAP1 POP SWAP2 SWAP1 POP JUMP JUMPDEST PUSH1 0x0 DUP3 DUP3 MSTORE PUSH1 0x20 DUP3 ADD SWAP1 POP SWAP3 SWAP2 POP POP JUMP JUMPDEST PUSH1 0x0 JUMPDEST DUP4 DUP2 LT ISZERO PUSH2 0x399A JUMPI DUP1 DUP3 ADD MLOAD DUP2 DUP5 ADD MSTORE PUSH1 0x20 DUP2 ADD SWAP1 POP PUSH2 0x397F JUMP JUMPDEST PUSH1 0x0 DUP5 DUP5 ADD MSTORE POP POP POP POP JUMP JUMPDEST PUSH1 0x0 PUSH2 0x39B1 DUP3 PUSH2 0x3960 JUMP JUMPDEST PUSH2 0x39BB DUP2 DUP6 PUSH2 0x396B JUMP JUMPDEST SWAP4 POP PUSH2 0x39CB DUP2 DUP6 PUSH1 0x20 DUP7 ADD PUSH2 0x397C JUMP JUMPDEST PUSH2 0x39D4 DUP2 PUSH2 0x35AB JUMP JUMPDEST DUP5 ADD SWAP2 POP POP SWAP3 SWAP2 POP POP JUMP JUMPDEST PUSH1 0x0 PUSH1 0x20 DUP3 ADD SWAP1 POP DUP2 DUP2 SUB PUSH1 0x0 DUP4 ADD MSTORE PUSH2 0x39F9 DUP2 DUP5 PUSH2 0x39A6 JUMP JUMPDEST SWAP1 POP SWAP3 SWAP2 POP POP JUMP JUMPDEST PUSH1 0x0 PUSH1 0x20 DUP3 DUP5 SUB SLT ISZERO PUSH2 0x3A17 JUMPI PUSH2 0x3A16 PUSH2 0x33DE JUMP JUMPDEST JUMPDEST PUSH1 0x0 PUSH2 0x3A25 DUP5 DUP3 DUP6 ADD PUSH2 0x3431 JUMP JUMPDEST SWAP2 POP POP SWAP3 SWAP2 POP POP JUMP JUMPDEST PUSH1 0x0 DUP1 PUSH1 0x40 DUP4 DUP6 SUB SLT ISZERO PUSH2 0x3A45 JUMPI PUSH2 0x3A44 PUSH2 0x33DE JUMP JUMPDEST JUMPDEST PUSH1 0x0 PUSH2 0x3A53 DUP6 DUP3 DUP7 ADD PUSH2 0x3467 JUMP JUMPDEST SWAP3 POP POP PUSH1 0x20 PUSH2 0x3A64 DUP6 DUP3 DUP7 ADD PUSH2 0x3467 JUMP JUMPDEST SWAP2 POP POP SWAP3 POP SWAP3 SWAP1 POP JUMP JUMPDEST PUSH1 0x0 PUSH8 0xFFFFFFFFFFFFFFFF DUP3 GT ISZERO PUSH2 0x3A89 JUMPI PUSH2 0x3A88 PUSH2 0x35BC JUMP JUMPDEST JUMPDEST PUSH2 0x3A92 DUP3 PUSH2 0x35AB JUMP JUMPDEST SWAP1 POP PUSH1 0x20 DUP2 ADD SWAP1 POP SWAP2 SWAP1 POP JUMP JUMPDEST PUSH1 0x0 PUSH2 0x3AB2 PUSH2 0x3AAD DUP5 PUSH2 0x3A6E JUMP JUMPDEST PUSH2 0x361C JUMP JUMPDEST SWAP1 POP DUP3 DUP2 MSTORE PUSH1 0x20 DUP2 ADD DUP5 DUP5 DUP5 ADD GT ISZERO PUSH2 0x3ACE JUMPI PUSH2 0x3ACD PUSH2 0x35A6 JUMP JUMPDEST JUMPDEST PUSH2 0x3AD9 DUP5 DUP3 DUP6 PUSH2 0x3668 JUMP JUMPDEST POP SWAP4 SWAP3 POP POP POP JUMP JUMPDEST PUSH1 0x0 DUP3 PUSH1 0x1F DUP4 ADD SLT PUSH2 0x3AF6 JUMPI PUSH2 0x3AF5 PUSH2 0x35A1 JUMP JUMPDEST JUMPDEST DUP2 CALLDATALOAD PUSH2 0x3B06 DUP5 DUP3 PUSH1 0x20 DUP7 ADD PUSH2 0x3A9F JUMP JUMPDEST SWAP2 POP POP SWAP3 SWAP2 POP POP JUMP JUMPDEST PUSH1 0x0 DUP1 PUSH1 0x0 DUP1 PUSH1 0x0 PUSH1 0xA0 DUP7 DUP9 SUB SLT ISZERO PUSH2 0x3B2B JUMPI PUSH2 0x3B2A PUSH2 0x33DE JUMP JUMPDEST JUMPDEST PUSH1 0x0 PUSH2 0x3B39 DUP9 DUP3 DUP10 ADD PUSH2 0x3431 JUMP JUMPDEST SWAP6 POP POP PUSH1 0x20 PUSH2 0x3B4A DUP9 DUP3 DUP10 ADD PUSH2 0x3431 JUMP JUMPDEST SWAP5 POP POP PUSH1 0x40 DUP7 ADD CALLDATALOAD PUSH8 0xFFFFFFFFFFFFFFFF DUP2 GT ISZERO PUSH2 0x3B6B JUMPI PUSH2 0x3B6A PUSH2 0x33E3 JUMP JUMPDEST JUMPDEST PUSH2 0x3B77 DUP9 DUP3 DUP10 ADD PUSH2 0x388D JUMP JUMPDEST SWAP4 POP POP PUSH1 0x60 DUP7 ADD CALLDATALOAD PUSH8 0xFFFFFFFFFFFFFFFF DUP2 GT ISZERO PUSH2 0x3B98 JUMPI PUSH2 0x3B97 PUSH2 0x33E3 JUMP JUMPDEST JUMPDEST PUSH2 0x3BA4 DUP9 DUP3 DUP10 ADD PUSH2 0x388D JUMP JUMPDEST SWAP3 POP POP PUSH1 0x80 DUP7 ADD CALLDATALOAD PUSH8 0xFFFFFFFFFFFFFFFF DUP2 GT ISZERO PUSH2 0x3BC5 JUMPI PUSH2 0x3BC4 PUSH2 0x33E3 JUMP JUMPDEST JUMPDEST PUSH2 0x3BD1 DUP9 DUP3 DUP10 ADD PUSH2 0x3AE1 JUMP JUMPDEST SWAP2 POP POP SWAP3 SWAP6 POP SWAP3 SWAP6 SWAP1 SWAP4 POP JUMP JUMPDEST PUSH1 0x0 DUP2 MLOAD SWAP1 POP SWAP2 SWAP1 POP JUMP JUMPDEST PUSH1 0x0 DUP3 DUP3 MSTORE PUSH1 0x20 DUP3 ADD SWAP1 POP SWAP3 SWAP2 POP POP JUMP JUMPDEST PUSH1 0x0 DUP2 SWAP1 POP PUSH1 0x20 DUP3 ADD SWAP1 POP SWAP2 SWAP1 POP JUMP JUMPDEST PUSH2 0x3C13 DUP2 PUSH2 0x3446 JUMP JUMPDEST DUP3 MSTORE POP POP JUMP JUMPDEST PUSH1 0x0 PUSH2 0x3C25 DUP4 DUP4 PUSH2 0x3C0A JUMP JUMPDEST PUSH1 0x20 DUP4 ADD SWAP1 POP SWAP3 SWAP2 POP POP JUMP JUMPDEST PUSH1 0x0 PUSH1 0x20 DUP3 ADD SWAP1 POP SWAP2 SWAP1 POP JUMP JUMPDEST PUSH1 0x0 PUSH2 0x3C49 DUP3 PUSH2 0x3BDE JUMP JUMPDEST PUSH2 0x3C53 DUP2 DUP6 PUSH2 0x3BE9 JUMP JUMPDEST SWAP4 POP PUSH2 0x3C5E DUP4 PUSH2 0x3BFA JUMP JUMPDEST DUP1 PUSH1 0x0 JUMPDEST DUP4 DUP2 LT ISZERO PUSH2 0x3C8F JUMPI DUP2 MLOAD PUSH2 0x3C76 DUP9 DUP3 PUSH2 0x3C19 JUMP JUMPDEST SWAP8 POP PUSH2 0x3C81 DUP4 PUSH2 0x3C31 JUMP JUMPDEST SWAP3 POP POP PUSH1 0x1 DUP2 ADD SWAP1 POP PUSH2 0x3C62 JUMP JUMPDEST POP DUP6 SWAP4 POP POP POP POP SWAP3 SWAP2 POP POP JUMP JUMPDEST PUSH1 0x0 PUSH1 0x20 DUP3 ADD SWAP1 POP DUP2 DUP2 SUB PUSH1 0x0 DUP4 ADD MSTORE PUSH2 0x3CB6 DUP2 DUP5 PUSH2 0x3C3E JUMP JUMPDEST SWAP1 POP SWAP3 SWAP2 POP POP JUMP JUMPDEST PUSH1 0x0 DUP1 PUSH1 0x40 DUP4 DUP6 SUB SLT ISZERO PUSH2 0x3CD5 JUMPI PUSH2 0x3CD4 PUSH2 0x33DE JUMP JUMPDEST JUMPDEST PUSH1 0x0 PUSH2 0x3CE3 DUP6 DUP3 DUP7 ADD PUSH2 0x3431 JUMP JUMPDEST SWAP3 POP POP PUSH1 0x20 DUP4 ADD CALLDATALOAD PUSH8 0xFFFFFFFFFFFFFFFF DUP2 GT ISZERO PUSH2 0x3D04 JUMPI PUSH2 0x3D03 PUSH2 0x33E3 JUMP JUMPDEST JUMPDEST PUSH2 0x3D10 DUP6 DUP3 DUP7 ADD PUSH2 0x3AE1 JUMP JUMPDEST SWAP2 POP POP SWAP3 POP SWAP3 SWAP1 POP JUMP JUMPDEST PUSH1 0x0 DUP2 SWAP1 POP SWAP2 SWAP1 POP JUMP JUMPDEST PUSH2 0x3D2D DUP2 PUSH2 0x3D1A JUMP JUMPDEST DUP3 MSTORE POP POP JUMP JUMPDEST PUSH1 0x0 PUSH1 0x20 DUP3 ADD SWAP1 POP PUSH2 0x3D48 PUSH1 0x0 DUP4 ADD DUP5 PUSH2 0x3D24 JUMP JUMPDEST SWAP3 SWAP2 POP POP JUMP JUMPDEST PUSH2 0x3D57 DUP2 PUSH2 0x3408 JUMP JUMPDEST DUP3 MSTORE POP POP JUMP JUMPDEST PUSH1 0x0 PUSH1 0x20 DUP3 ADD SWAP1 POP PUSH2 0x3D72 PUSH1 0x0 DUP4 ADD DUP5 PUSH2 0x3D4E JUMP JUMPDEST SWAP3 SWAP2 POP POP JUMP JUMPDEST PUSH1 0x0 DUP1 PUSH1 0x40 DUP4 DUP6 SUB SLT ISZERO PUSH2 0x3D8F JUMPI PUSH2 0x3D8E PUSH2 0x33DE JUMP JUMPDEST JUMPDEST PUSH1 0x0 PUSH2 0x3D9D DUP6 DUP3 DUP7 ADD PUSH2 0x3467 JUMP JUMPDEST SWAP3 POP POP PUSH1 0x20 PUSH2 0x3DAE DUP6 DUP3 DUP7 ADD PUSH2 0x3431 JUMP JUMPDEST SWAP2 POP POP SWAP3 POP SWAP3 SWAP1 POP JUMP JUMPDEST PUSH2 0x3DC1 DUP2 PUSH2 0x356B JUMP JUMPDEST DUP2 EQ PUSH2 0x3DCC JUMPI PUSH1 0x0 DUP1 REVERT JUMPDEST POP JUMP JUMPDEST PUSH1 0x0 DUP2 CALLDATALOAD SWAP1 POP PUSH2 0x3DDE DUP2 PUSH2 0x3DB8 JUMP JUMPDEST SWAP3 SWAP2 POP POP JUMP JUMPDEST PUSH1 0x0 DUP1 PUSH1 0x40 DUP4 DUP6 SUB SLT ISZERO PUSH2 0x3DFB JUMPI PUSH2 0x3DFA PUSH2 0x33DE JUMP JUMPDEST JUMPDEST PUSH1 0x0 PUSH2 0x3E09 DUP6 DUP3 DUP7 ADD PUSH2 0x3431 JUMP JUMPDEST SWAP3 POP POP PUSH1 0x20 PUSH2 0x3E1A DUP6 DUP3 DUP7 ADD PUSH2 0x3DCF JUMP JUMPDEST SWAP2 POP POP SWAP3 POP SWAP3 SWAP1 POP JUMP JUMPDEST PUSH1 0x0 DUP1 PUSH1 0x0 PUSH1 0x60 DUP5 DUP7 SUB SLT ISZERO PUSH2 0x3E3D JUMPI PUSH2 0x3E3C PUSH2 0x33DE JUMP JUMPDEST JUMPDEST PUSH1 0x0 PUSH2 0x3E4B DUP7 DUP3 DUP8 ADD PUSH2 0x3431 JUMP JUMPDEST SWAP4 POP POP PUSH1 0x20 DUP5 ADD CALLDATALOAD PUSH8 0xFFFFFFFFFFFFFFFF DUP2 GT ISZERO PUSH2 0x3E6C JUMPI PUSH2 0x3E6B PUSH2 0x33E3 JUMP JUMPDEST JUMPDEST PUSH2 0x3E78 DUP7 DUP3 DUP8 ADD PUSH2 0x37CA JUMP JUMPDEST SWAP3 POP POP PUSH1 0x40 DUP5 ADD CALLDATALOAD PUSH8 0xFFFFFFFFFFFFFFFF DUP2 GT ISZERO PUSH2 0x3E99 JUMPI PUSH2 0x3E98 PUSH2 0x33E3 JUMP JUMPDEST JUMPDEST PUSH2 0x3EA5 DUP7 DUP3 DUP8 ADD PUSH2 0x36B9 JUMP JUMPDEST SWAP2 POP POP SWAP3 POP SWAP3 POP SWAP3 JUMP JUMPDEST PUSH1 0x0 DUP1 PUSH1 0x40 DUP4 DUP6 SUB SLT ISZERO PUSH2 0x3EC6 JUMPI PUSH2 0x3EC5 PUSH2 0x33DE JUMP JUMPDEST JUMPDEST PUSH1 0x0 PUSH2 0x3ED4 DUP6 DUP3 DUP7 ADD PUSH2 0x3431 JUMP JUMPDEST SWAP3 POP POP PUSH1 0x20 PUSH2 0x3EE5 DUP6 DUP3 DUP7 ADD PUSH2 0x3431 JUMP JUMPDEST SWAP2 POP POP SWAP3 POP SWAP3 SWAP1 POP JUMP JUMPDEST PUSH1 0x0 DUP1 PUSH1 0x0 DUP1 PUSH1 0x0 PUSH1 0xA0 DUP7 DUP9 SUB SLT ISZERO PUSH2 0x3F0B JUMPI PUSH2 0x3F0A PUSH2 0x33DE JUMP JUMPDEST JUMPDEST PUSH1 0x0 PUSH2 0x3F19 DUP9 DUP3 DUP10 ADD PUSH2 0x3431 JUMP JUMPDEST SWAP6 POP POP PUSH1 0x20 PUSH2 0x3F2A DUP9 DUP3 DUP10 ADD PUSH2 0x3431 JUMP JUMPDEST SWAP5 POP POP PUSH1 0x40 PUSH2 0x3F3B DUP9 DUP3 DUP10 ADD PUSH2 0x3467 JUMP JUMPDEST SWAP4 POP POP PUSH1 0x60 PUSH2 0x3F4C DUP9 DUP3 DUP10 ADD PUSH2 0x3467 JUMP JUMPDEST SWAP3 POP POP PUSH1 0x80 DUP7 ADD CALLDATALOAD PUSH8 0xFFFFFFFFFFFFFFFF DUP2 GT ISZERO PUSH2 0x3F6D JUMPI PUSH2 0x3F6C PUSH2 0x33E3 JUMP JUMPDEST JUMPDEST PUSH2 0x3F79 DUP9 DUP3 DUP10 ADD PUSH2 0x3AE1 JUMP JUMPDEST SWAP2 POP POP SWAP3 SWAP6 POP SWAP3 SWAP6 SWAP1 SWAP4 POP JUMP JUMPDEST PUSH32 0x6E6F742061646D696E0000000000000000000000000000000000000000000000 PUSH1 0x0 DUP3 ADD MSTORE POP JUMP JUMPDEST PUSH1 0x0 PUSH2 0x3FBC PUSH1 0x9 DUP4 PUSH2 0x396B JUMP JUMPDEST SWAP2 POP PUSH2 0x3FC7 DUP3 PUSH2 0x3F86 JUMP JUMPDEST PUSH1 0x20 DUP3 ADD SWAP1 POP SWAP2 SWAP1 POP JUMP JUMPDEST PUSH1 0x0 PUSH1 0x20 DUP3 ADD SWAP1 POP DUP2 DUP2 SUB PUSH1 0x0 DUP4 ADD MSTORE PUSH2 0x3FEB DUP2 PUSH2 0x3FAF JUMP JUMPDEST SWAP1 POP SWAP2 SWAP1 POP JUMP JUMPDEST PUSH32 0x4E487B7100000000000000000000000000000000000000000000000000000000 PUSH1 0x0 MSTORE PUSH1 0x32 PUSH1 0x4 MSTORE PUSH1 0x24 PUSH1 0x0 REVERT JUMPDEST PUSH1 0x0 PUSH1 0x40 DUP3 ADD SWAP1 POP PUSH2 0x4036 PUSH1 0x0 DUP4 ADD DUP6 PUSH2 0x3D4E JUMP JUMPDEST PUSH2 0x4043 PUSH1 0x20 DUP4 ADD DUP5 PUSH2 0x34BC JUMP JUMPDEST SWAP4 SWAP3 POP POP POP JUMP JUMPDEST PUSH32 0x4E487B7100000000000000000000000000000000000000000000000000000000 PUSH1 0x0 MSTORE PUSH1 0x11 PUSH1 0x4 MSTORE PUSH1 0x24 PUSH1 0x0 REVERT JUMPDEST PUSH1 0x0 PUSH2 0x4084 DUP3 PUSH2 0x3446 JUMP JUMPDEST SWAP2 POP PUSH32 0xFFFFFFFFFFFFFFFFFFFFFFFFFFFFFFFFFFFFFFFFFFFFFFFFFFFFFFFFFFFFFFFF DUP3 SUB PUSH2 0x40B6 JUMPI PUSH2 0x40B5 PUSH2 0x404A JUMP JUMPDEST JUMPDEST PUSH1 0x1 DUP3 ADD SWAP1 POP SWAP2 SWAP1 POP JUMP JUMPDEST PUSH32 0x4E487B7100000000000000000000000000000000000000000000000000000000 PUSH1 0x0 MSTORE PUSH1 0x22 PUSH1 0x4 MSTORE PUSH1 0x24 PUSH1 0x0 REVERT JUMPDEST PUSH1 0x0 PUSH1 0x2 DUP3 DIV SWAP1 POP PUSH1 0x1 DUP3 AND DUP1 PUSH2 0x4108 JUMPI PUSH1 0x7F DUP3 AND SWAP2 POP JUMPDEST PUSH1 0x20 DUP3 LT DUP2 SUB PUSH2 0x411B JUMPI PUSH2 0x411A PUSH2 0x40C1 JUMP JUMPDEST JUMPDEST POP SWAP2 SWAP1 POP JUMP JUMPDEST PUSH32 0x73656E646572206973206E6F74206F776E657220666F72207468697320746F6B PUSH1 0x0 DUP3 ADD MSTORE PUSH32 0x656E000000000000000000000000000000000000000000000000000000000000 PUSH1 0x20 DUP3 ADD MSTORE POP JUMP JUMPDEST PUSH1 0x0 PUSH2 0x417D PUSH1 0x22 DUP4 PUSH2 0x396B JUMP JUMPDEST SWAP2 POP PUSH2 0x4188 DUP3 PUSH2 0x4121 JUMP JUMPDEST PUSH1 0x40 DUP3 ADD SWAP1 POP SWAP2 SWAP1 POP JUMP JUMPDEST PUSH1 0x0 PUSH1 0x20 DUP3 ADD SWAP1 POP DUP2 DUP2 SUB PUSH1 0x0 DUP4 ADD MSTORE PUSH2 0x41AC DUP2 PUSH2 0x4170 JUMP JUMPDEST SWAP1 POP SWAP2 SWAP1 POP JUMP JUMPDEST PUSH1 0x0 PUSH2 0x41BE DUP3 PUSH2 0x3446 JUMP JUMPDEST SWAP2 POP PUSH2 0x41C9 DUP4 PUSH2 0x3446 JUMP JUMPDEST SWAP3 POP DUP3 DUP3 ADD SWAP1 POP DUP1 DUP3 GT ISZERO PUSH2 0x41E1 JUMPI PUSH2 0x41E0 PUSH2 0x404A JUMP JUMPDEST JUMPDEST SWAP3 SWAP2 POP POP JUMP JUMPDEST PUSH32 0x6E657720737570706C7920776F756C6420657863656564206D61780000000000 PUSH1 0x0 DUP3 ADD MSTORE POP JUMP JUMPDEST PUSH1 0x0 PUSH2 0x421D PUSH1 0x1B DUP4 PUSH2 0x396B JUMP JUMPDEST SWAP2 POP PUSH2 0x4228 DUP3 PUSH2 0x41E7 JUMP JUMPDEST PUSH1 0x20 DUP3 ADD SWAP1 POP SWAP2 SWAP1 POP JUMP JUMPDEST PUSH1 0x0 PUSH1 0x20 DUP3 ADD SWAP1 POP DUP2 DUP2 SUB PUSH1 0x0 DUP4 ADD MSTORE PUSH2 0x424C DUP2 PUSH2 0x4210 JUMP JUMPDEST SWAP1 POP SWAP2 SWAP1 POP JUMP JUMPDEST PUSH1 0x0 DUP2 MLOAD SWAP1 POP PUSH2 0x4262 DUP2 PUSH2 0x3DB8 JUMP JUMPDEST SWAP3 SWAP2 POP POP JUMP JUMPDEST PUSH1 0x0 PUSH1 0x20 DUP3 DUP5 SUB SLT ISZERO PUSH2 0x427E JUMPI PUSH2 0x427D PUSH2 0x33DE JUMP JUMPDEST JUMPDEST PUSH1 0x0 PUSH2 0x428C DUP5 DUP3 DUP6 ADD PUSH2 0x4253 JUMP JUMPDEST SWAP2 POP POP SWAP3 SWAP2 POP POP JUMP JUMPDEST PUSH1 0x0 PUSH1 0x40 DUP3 ADD SWAP1 POP PUSH2 0x42AA PUSH1 0x0 DUP4 ADD DUP6 PUSH2 0x34BC JUMP JUMPDEST PUSH2 0x42B7 PUSH1 0x20 DUP4 ADD DUP5 PUSH2 0x34BC JUMP JUMPDEST SWAP4 SWAP3 POP POP POP JUMP JUMPDEST PUSH32 0x30206E6F7420616C6C6F77656400000000000000000000000000000000000000 PUSH1 0x0 DUP3 ADD MSTORE POP JUMP JUMPDEST PUSH1 0x0 PUSH2 0x42F4 PUSH1 0xD DUP4 PUSH2 0x396B JUMP JUMPDEST SWAP2 POP PUSH2 0x42FF DUP3 PUSH2 0x42BE JUMP JUMPDEST PUSH1 0x20 DUP3 ADD SWAP1 POP SWAP2 SWAP1 POP JUMP JUMPDEST PUSH1 0x0 PUSH1 0x20 DUP3 ADD SWAP1 POP DUP2 DUP2 SUB PUSH1 0x0 DUP4 ADD MSTORE PUSH2 0x4323 DUP2 PUSH2 0x42E7 JUMP JUMPDEST SWAP1 POP SWAP2 SWAP1 POP JUMP JUMPDEST PUSH1 0x0 DUP2 SWAP1 POP SWAP2 SWAP1 POP JUMP JUMPDEST PUSH1 0x0 PUSH8 0xFFFFFFFFFFFFFFFF DUP3 AND SWAP1 POP SWAP2 SWAP1 POP JUMP JUMPDEST PUSH1 0x0 DUP2 SWAP1 POP SWAP2 SWAP1 POP JUMP JUMPDEST PUSH1 0x0 PUSH2 0x436D PUSH2 0x4368 PUSH2 0x4363 DUP5 PUSH2 0x432A JUMP JUMPDEST PUSH2 0x4348 JUMP JUMPDEST PUSH2 0x4334 JUMP JUMPDEST SWAP1 POP SWAP2 SWAP1 POP JUMP JUMPDEST PUSH2 0x437D DUP2 PUSH2 0x4352 JUMP JUMPDEST DUP3 MSTORE POP POP JUMP JUMPDEST PUSH1 0x0 PUSH1 0x20 DUP3 ADD SWAP1 POP PUSH2 0x4398 PUSH1 0x0 DUP4 ADD DUP5 PUSH2 0x4374 JUMP JUMPDEST SWAP3 SWAP2 POP POP JUMP JUMPDEST PUSH32 0x6E6577206D6178696D756D20737570706C7920776F756C642065786365656420 PUSH1 0x0 DUP3 ADD MSTORE PUSH32 0x3130303000000000000000000000000000000000000000000000000000000000 PUSH1 0x20 DUP3 ADD MSTORE POP JUMP JUMPDEST PUSH1 0x0 PUSH2 0x43FA PUSH1 0x24 DUP4 PUSH2 0x396B JUMP JUMPDEST SWAP2 POP PUSH2 0x4405 DUP3 PUSH2 0x439E JUMP JUMPDEST PUSH1 0x40 DUP3 ADD SWAP1 POP SWAP2 SWAP1 POP JUMP JUMPDEST PUSH1 0x0 PUSH1 0x20 DUP3 ADD SWAP1 POP DUP2 DUP2 SUB PUSH1 0x0 DUP4 ADD MSTORE PUSH2 0x4429 DUP2 PUSH2 0x43ED JUMP JUMPDEST SWAP1 POP SWAP2 SWAP1 POP JUMP JUMPDEST PUSH32 0x617274697374206E6F742073657420666F72207468697320746F6B656E000000 PUSH1 0x0 DUP3 ADD MSTORE POP JUMP JUMPDEST PUSH1 0x0 PUSH2 0x4466 PUSH1 0x1D DUP4 PUSH2 0x396B JUMP JUMPDEST SWAP2 POP PUSH2 0x4471 DUP3 PUSH2 0x4430 JUMP JUMPDEST PUSH1 0x20 DUP3 ADD SWAP1 POP SWAP2 SWAP1 POP JUMP JUMPDEST PUSH1 0x0 PUSH1 0x20 DUP3 ADD SWAP1 POP DUP2 DUP2 SUB PUSH1 0x0 DUP4 ADD MSTORE PUSH2 0x4495 DUP2 PUSH2 0x4459 JUMP JUMPDEST SWAP1 POP SWAP2 SWAP1 POP JUMP JUMPDEST PUSH1 0x0 DUP2 SWAP1 POP DUP2 PUSH1 0x0 MSTORE PUSH1 0x20 PUSH1 0x0 KECCAK256 SWAP1 POP SWAP2 SWAP1 POP JUMP JUMPDEST PUSH1 0x0 PUSH1 0x20 PUSH1 0x1F DUP4 ADD DIV SWAP1 POP SWAP2 SWAP1 POP JUMP JUMPDEST PUSH1 0x0 DUP3 DUP3 SHL SWAP1 POP SWAP3 SWAP2 POP POP JUMP JUMPDEST PUSH1 0x0 PUSH1 0x8 DUP4 MUL PUSH2 0x44FE PUSH32 0xFFFFFFFFFFFFFFFFFFFFFFFFFFFFFFFFFFFFFFFFFFFFFFFFFFFFFFFFFFFFFFFF DUP3 PUSH2 0x44C1 JUMP JUMPDEST PUSH2 0x4508 DUP7 DUP4 PUSH2 0x44C1 JUMP JUMPDEST SWAP6 POP DUP1 NOT DUP5 AND SWAP4 POP DUP1 DUP7 AND DUP5 OR SWAP3 POP POP POP SWAP4 SWAP3 POP POP POP JUMP JUMPDEST PUSH1 0x0 PUSH2 0x453B PUSH2 0x4536 PUSH2 0x4531 DUP5 PUSH2 0x3446 JUMP JUMPDEST PUSH2 0x4348 JUMP JUMPDEST PUSH2 0x3446 JUMP JUMPDEST SWAP1 POP SWAP2 SWAP1 POP JUMP JUMPDEST PUSH1 0x0 DUP2 SWAP1 POP SWAP2 SWAP1 POP JUMP JUMPDEST PUSH2 0x4555 DUP4 PUSH2 0x4520 JUMP JUMPDEST PUSH2 0x4569 PUSH2 0x4561 DUP3 PUSH2 0x4542 JUMP JUMPDEST DUP5 DUP5 SLOAD PUSH2 0x44CE JUMP JUMPDEST DUP3 SSTORE POP POP POP POP JUMP JUMPDEST PUSH1 0x0 SWAP1 JUMP JUMPDEST PUSH2 0x457E PUSH2 0x4571 JUMP JUMPDEST PUSH2 0x4589 DUP2 DUP5 DUP5 PUSH2 0x454C JUMP JUMPDEST POP POP POP JUMP JUMPDEST JUMPDEST DUP2 DUP2 LT ISZERO PUSH2 0x45AD JUMPI PUSH2 0x45A2 PUSH1 0x0 DUP3 PUSH2 0x4576 JUMP JUMPDEST PUSH1 0x1 DUP2 ADD SWAP1 POP PUSH2 0x458F JUMP JUMPDEST POP POP JUMP JUMPDEST PUSH1 0x1F DUP3 GT ISZERO PUSH2 0x45F2 JUMPI PUSH2 0x45C3 DUP2 PUSH2 0x449C JUMP JUMPDEST PUSH2 0x45CC DUP5 PUSH2 0x44B1 JUMP JUMPDEST DUP2 ADD PUSH1 0x20 DUP6 LT ISZERO PUSH2 0x45DB JUMPI DUP2 SWAP1 POP JUMPDEST PUSH2 0x45EF PUSH2 0x45E7 DUP6 PUSH2 0x44B1 JUMP JUMPDEST DUP4 ADD DUP3 PUSH2 0x458E JUMP JUMPDEST POP POP JUMPDEST POP POP POP JUMP JUMPDEST PUSH1 0x0 DUP3 DUP3 SHR SWAP1 POP SWAP3 SWAP2 POP POP JUMP JUMPDEST PUSH1 0x0 PUSH2 0x4615 PUSH1 0x0 NOT DUP5 PUSH1 0x8 MUL PUSH2 0x45F7 JUMP JUMPDEST NOT DUP1 DUP4 AND SWAP2 POP POP SWAP3 SWAP2 POP POP JUMP JUMPDEST PUSH1 0x0 PUSH2 0x462E DUP4 DUP4 PUSH2 0x4604 JUMP JUMPDEST SWAP2 POP DUP3 PUSH1 0x2 MUL DUP3 OR SWAP1 POP SWAP3 SWAP2 POP POP JUMP JUMPDEST PUSH2 0x4647 DUP3 PUSH2 0x3960 JUMP JUMPDEST PUSH8 0xFFFFFFFFFFFFFFFF DUP2 GT ISZERO PUSH2 0x4660 JUMPI PUSH2 0x465F PUSH2 0x35BC JUMP JUMPDEST JUMPDEST PUSH2 0x466A DUP3 SLOAD PUSH2 0x40F0 JUMP JUMPDEST PUSH2 0x4675 DUP3 DUP3 DUP6 PUSH2 0x45B1 JUMP JUMPDEST PUSH1 0x0 PUSH1 0x20 SWAP1 POP PUSH1 0x1F DUP4 GT PUSH1 0x1 DUP2 EQ PUSH2 0x46A8 JUMPI PUSH1 0x0 DUP5 ISZERO PUSH2 0x4696 JUMPI DUP3 DUP8 ADD MLOAD SWAP1 POP JUMPDEST PUSH2 0x46A0 DUP6 DUP3 PUSH2 0x4622 JUMP JUMPDEST DUP7 SSTORE POP PUSH2 0x4708 JUMP JUMPDEST PUSH1 0x1F NOT DUP5 AND PUSH2 0x46B6 DUP7 PUSH2 0x449C JUMP JUMPDEST PUSH1 0x0 JUMPDEST DUP3 DUP2 LT ISZERO PUSH2 0x46DE JUMPI DUP5 DUP10 ADD MLOAD DUP3 SSTORE PUSH1 0x1 DUP3 ADD SWAP2 POP PUSH1 0x20 DUP6 ADD SWAP5 POP PUSH1 0x20 DUP2 ADD SWAP1 POP PUSH2 0x46B9 JUMP JUMPDEST DUP7 DUP4 LT ISZERO PUSH2 0x46FB JUMPI DUP5 DUP10 ADD MLOAD PUSH2 0x46F7 PUSH1 0x1F DUP10 AND DUP3 PUSH2 0x4604 JUMP JUMPDEST DUP4 SSTORE POP JUMPDEST PUSH1 0x1 PUSH1 0x2 DUP9 MUL ADD DUP9 SSTORE POP POP POP JUMPDEST POP POP POP POP POP POP JUMP JUMPDEST PUSH1 0x0 PUSH1 0x40 DUP3 ADD SWAP1 POP PUSH2 0x4725 PUSH1 0x0 DUP4 ADD DUP6 PUSH2 0x3D4E JUMP JUMPDEST PUSH2 0x4732 PUSH1 0x20 DUP4 ADD DUP5 PUSH2 0x3D4E JUMP JUMPDEST SWAP4 SWAP3 POP POP POP JUMP JUMPDEST PUSH2 0x4742 DUP2 PUSH2 0x3D1A JUMP JUMPDEST DUP2 EQ PUSH2 0x474D JUMPI PUSH1 0x0 DUP1 REVERT JUMPDEST POP JUMP JUMPDEST PUSH1 0x0 DUP2 MLOAD SWAP1 POP PUSH2 0x475F DUP2 PUSH2 0x4739 JUMP JUMPDEST SWAP3 SWAP2 POP POP JUMP JUMPDEST PUSH1 0x0 PUSH1 0x20 DUP3 DUP5 SUB SLT ISZERO PUSH2 0x477B JUMPI PUSH2 0x477A PUSH2 0x33DE JUMP JUMPDEST JUMPDEST PUSH1 0x0 PUSH2 0x4789 DUP5 DUP3 DUP6 ADD PUSH2 0x4750 JUMP JUMPDEST SWAP2 POP POP SWAP3 SWAP2 POP POP JUMP JUMPDEST PUSH1 0x0 DUP2 MLOAD SWAP1 POP SWAP2 SWAP1 POP JUMP JUMPDEST PUSH1 0x0 DUP3 DUP3 MSTORE PUSH1 0x20 DUP3 ADD SWAP1 POP SWAP3 SWAP2 POP POP JUMP JUMPDEST PUSH1 0x0 PUSH2 0x47B9 DUP3 PUSH2 0x4792 JUMP JUMPDEST PUSH2 0x47C3 DUP2 DUP6 PUSH2 0x479D JUMP JUMPDEST SWAP4 POP PUSH2 0x47D3 DUP2 DUP6 PUSH1 0x20 DUP7 ADD PUSH2 0x397C JUMP JUMPDEST PUSH2 0x47DC DUP2 PUSH2 0x35AB JUMP JUMPDEST DUP5 ADD SWAP2 POP POP SWAP3 SWAP2 POP POP JUMP JUMPDEST PUSH1 0x0 PUSH1 0xA0 DUP3 ADD SWAP1 POP PUSH2 0x47FC PUSH1 0x0 DUP4 ADD DUP9 PUSH2 0x3D4E JUMP JUMPDEST PUSH2 0x4809 PUSH1 0x20 DUP4 ADD DUP8 PUSH2 0x3D4E JUMP JUMPDEST PUSH2 0x4816 PUSH1 0x40 DUP4 ADD DUP7 PUSH2 0x34BC JUMP JUMPDEST PUSH2 0x4823 PUSH1 0x60 DUP4 ADD DUP6 PUSH2 0x34BC JUMP JUMPDEST DUP2 DUP2 SUB PUSH1 0x80 DUP4 ADD MSTORE PUSH2 0x4835 DUP2 DUP5 PUSH2 0x47AE JUMP JUMPDEST SWAP1 POP SWAP7 SWAP6 POP POP POP POP POP POP JUMP JUMPDEST PUSH1 0x0 DUP2 MLOAD SWAP1 POP PUSH2 0x4850 DUP2 PUSH2 0x3512 JUMP JUMPDEST SWAP3 SWAP2 POP POP JUMP JUMPDEST PUSH1 0x0 PUSH1 0x20 DUP3 DUP5 SUB SLT ISZERO PUSH2 0x486C JUMPI PUSH2 0x486B PUSH2 0x33DE JUMP JUMPDEST JUMPDEST PUSH1 0x0 PUSH2 0x487A DUP5 DUP3 DUP6 ADD PUSH2 0x4841 JUMP JUMPDEST SWAP2 POP POP SWAP3 SWAP2 POP POP JUMP JUMPDEST PUSH1 0x0 PUSH1 0xA0 DUP3 ADD SWAP1 POP PUSH2 0x4898 PUSH1 0x0 DUP4 ADD DUP9 PUSH2 0x3D4E JUMP JUMPDEST PUSH2 0x48A5 PUSH1 0x20 DUP4 ADD DUP8 PUSH2 0x3D4E JUMP JUMPDEST DUP2 DUP2 SUB PUSH1 0x40 DUP4 ADD MSTORE PUSH2 0x48B7 DUP2 DUP7 PUSH2 0x3C3E JUMP JUMPDEST SWAP1 POP DUP2 DUP2 SUB PUSH1 0x60 DUP4 ADD MSTORE PUSH2 0x48CB DUP2 DUP6 PUSH2 0x3C3E JUMP JUMPDEST SWAP1 POP DUP2 DUP2 SUB PUSH1 0x80 DUP4 ADD MSTORE PUSH2 0x48DF DUP2 DUP5 PUSH2 0x47AE JUMP JUMPDEST SWAP1 POP SWAP7 SWAP6 POP POP POP POP POP POP JUMP JUMPDEST PUSH1 0x0 DUP2 SWAP1 POP SWAP3 SWAP2 POP POP JUMP JUMPDEST PUSH1 0x0 PUSH2 0x4901 DUP3 PUSH2 0x4792 JUMP JUMPDEST PUSH2 0x490B DUP2 DUP6 PUSH2 0x48EB JUMP JUMPDEST SWAP4 POP PUSH2 0x491B DUP2 DUP6 PUSH1 0x20 DUP7 ADD PUSH2 0x397C JUMP JUMPDEST DUP1 DUP5 ADD SWAP2 POP POP SWAP3 SWAP2 POP POP JUMP JUMPDEST PUSH1 0x0 PUSH2 0x4933 DUP3 DUP5 PUSH2 0x48F6 JUMP JUMPDEST SWAP2 POP DUP2 SWAP1 POP SWAP3 SWAP2 POP POP JUMP JUMPDEST PUSH1 0x0 PUSH1 0x80 DUP3 ADD SWAP1 POP PUSH2 0x4953 PUSH1 0x0 DUP4 ADD DUP8 PUSH2 0x3D4E JUMP JUMPDEST PUSH2 0x4960 PUSH1 0x20 DUP4 ADD DUP7 PUSH2 0x34BC JUMP JUMPDEST PUSH2 0x496D PUSH1 0x40 DUP4 ADD DUP6 PUSH2 0x34BC JUMP JUMPDEST PUSH2 0x497A PUSH1 0x60 DUP4 ADD DUP5 PUSH2 0x34BC JUMP JUMPDEST SWAP6 SWAP5 POP POP POP POP POP JUMP JUMPDEST PUSH1 0x0 PUSH1 0x40 DUP3 ADD SWAP1 POP DUP2 DUP2 SUB PUSH1 0x0 DUP4 ADD MSTORE PUSH2 0x499D DUP2 DUP6 PUSH2 0x3C3E JUMP JUMPDEST SWAP1 POP DUP2 DUP2 SUB PUSH1 0x20 DUP4 ADD MSTORE PUSH2 0x49B1 DUP2 DUP5 PUSH2 0x3C3E JUMP JUMPDEST SWAP1 POP SWAP4 SWAP3 POP POP POP JUMP INVALID LOG2 PUSH5 0x6970667358 0x22 SLT KECCAK256 SWAP6 PUSH27 0xA2B07F1769F8BD7664DA736D9E956BF37F4CD52508D8767FC79B8F DUP6 0x2B 0xD9 PUSH5 0x736F6C6343 STOP ADDMOD EQ STOP CALLER "},"gasEstimates":{"creation":{"codeDepositCost":"3785600","executionCost":"infinite","totalCost":"infinite"},"external":{"UPGRADE_INTERFACE_VERSION()":"infinite","addAdmin(address)":"infinite","adminBurn(address,uint256)":"infinite","adminBurnBatch(address[],uint256[])":"infinite","adminMint(uint256,uint256)":"infinite","admins(address)":"2890","artistAddresses(uint256)":"2951","balanceOf(address,uint256)":"infinite","balanceOfBatch(address[],uint256[])":"infinite","exists(uint256)":"3000","increaseTokenSupplyLimit(uint256,uint256)":"infinite","init(address,address[],string)":"infinite","isAdmin(address)":"2991","isApprovedForAll(address,address)":"infinite","mint(uint256,uint256)":"infinite","owner()":"2621","proxiableUUID()":"infinite","removeAdmin(address)":"infinite","renounceOwnership()":"infinite","safeBatchTransferFrom(address,address,uint256[],uint256[],bytes)":"infinite","safeTransferFrom(address,address,uint256,uint256,bytes)":"infinite","setApprovalForAll(address,bool)":"infinite","setArtistAddress(uint256,address)":"27305","setURI(string)":"infinite","supportsInterface(bytes4)":"931","tokenSupplyLimits(uint256)":"infinite","totalSupply()":"2537","totalSupply(uint256)":"infinite","transferOwnership(address)":"infinite","upgradeToAndCall(address,bytes)":"infinite","uri(uint256)":"infinite"},"internal":{"_authorizeUpgrade(address)":"infinite"}},"methodIdentifiers":{"UPGRADE_INTERFACE_VERSION()":"ad3cb1cc","addAdmin(address)":"70480275","adminBurn(address,uint256)":"06dd0419","adminBurnBatch(address[],uint256[])":"077d9234","adminMint(uint256,uint256)":"d00e40ce","admins(address)":"429b62e5","artistAddresses(uint256)":"831ffd05","balanceOf(address,uint256)":"00fdd58e","balanceOfBatch(address[],uint256[])":"4e1273f4","exists(uint256)":"4f558e79","increaseTokenSupplyLimit(uint256,uint256)":"c36497e5","init(address,address[],string)":"bb625509","isAdmin(address)":"24d7806c","isApprovedForAll(address,address)":"e985e9c5","mint(uint256,uint256)":"1b2ef1ca","owner()":"8da5cb5b","proxiableUUID()":"52d1902d","removeAdmin(address)":"1785f53c","renounceOwnership()":"715018a6","safeBatchTransferFrom(address,address,uint256[],uint256[],bytes)":"2eb2c2d6","safeTransferFrom(address,address,uint256,uint256,bytes)":"f242432a","setApprovalForAll(address,bool)":"a22cb465","setArtistAddress(uint256,address)":"9eca4b7b","setURI(string)":"02fe5305","supportsInterface(bytes4)":"01ffc9a7","tokenSupplyLimits(uint256)":"fbe0a892","totalSupply()":"18160ddd","totalSupply(uint256)":"bd85b039","transferOwnership(address)":"f2fde38b","upgradeToAndCall(address,bytes)":"4f1ef286","uri(uint256)":"0e89341c"}},"storageLayout":{"storage":[{"astId":4987,"contract":"contracts/HoldrArtistsERC1155.sol:HoldrArtistsERC1155","label":"admins","offset":0,"slot":"0","type":"t_mapping(t_address,t_bool)"},{"astId":4991,"contract":"contracts/HoldrArtistsERC1155.sol:HoldrArtistsERC1155","label":"artistAddresses","offset":0,"slot":"1","type":"t_mapping(t_uint256,t_address)"},{"astId":4995,"contract":"contracts/HoldrArtistsERC1155.sol:HoldrArtistsERC1155","label":"tokenSupplyLimits","offset":0,"slot":"2","type":"t_mapping(t_uint256,t_uint256)"}],"types":{"t_address":{"encoding":"inplace","label":"address","numberOfBytes":"20"},"t_bool":{"encoding":"inplace","label":"bool","numberOfBytes":"1"},"t_mapping(t_address,t_bool)":{"encoding":"mapping","key":"t_address","label":"mapping(address => bool)","numberOfBytes":"32","value":"t_bool"},"t_mapping(t_uint256,t_address)":{"encoding":"mapping","key":"t_uint256","label":"mapping(uint256 => address)","numberOfBytes":"32","value":"t_address"},"t_mapping(t_uint256,t_uint256)":{"encoding":"mapping","key":"t_uint256","label":"mapping(uint256 => uint256)","numberOfBytes":"32","value":"t_uint256"},"t_uint256":{"encoding":"inplace","label":"uint256","numberOfBytes":"32"}}},"userdoc":{"kind":"user","methods":{},"version":1}}}}