{"contracts/HoldrArtistsERC1155UpgradeTest.sol":{"HoldrArtistsERC1155UpgradeTest":{"abi":[{"inputs":[{"internalType":"address","name":"target","type":"address"}],"name":"AddressEmptyCode","type":"error"},{"inputs":[{"internalType":"address","name":"sender","type":"address"},{"internalType":"uint256","name":"balance","type":"uint256"},{"internalType":"uint256","name":"needed","type":"uint256"},{"internalType":"uint256","name":"tokenId","type":"uint256"}],"name":"ERC1155InsufficientBalance","type":"error"},{"inputs":[{"internalType":"address","name":"approver","type":"address"}],"name":"ERC1155InvalidApprover","type":"error"},{"inputs":[{"internalType":"uint256","name":"idsLength","type":"uint256"},{"internalType":"uint256","name":"valuesLength","type":"uint256"}],"name":"ERC1155InvalidArrayLength","type":"error"},{"inputs":[{"internalType":"address","name":"operator","type":"address"}],"name":"ERC1155InvalidOperator","type":"error"},{"inputs":[{"internalType":"address","name":"receiver","type":"address"}],"name":"ERC1155InvalidReceiver","type":"error"},{"inputs":[{"internalType":"address","name":"sender","type":"address"}],"name":"ERC1155InvalidSender","type":"error"},{"inputs":[{"internalType":"address","name":"operator","type":"address"},{"internalType":"address","name":"owner","type":"address"}],"name":"ERC1155MissingApprovalForAll","type":"error"},{"inputs":[{"internalType":"address","name":"implementation","type":"address"}],"name":"ERC1967InvalidImplementation","type":"error"},{"inputs":[],"name":"ERC1967NonPayable","type":"error"},{"inputs":[],"name":"FailedInnerCall","type":"error"},{"inputs":[],"name":"InvalidInitialization","type":"error"},{"inputs":[],"name":"NotInitializing","type":"error"},{"inputs":[{"internalType":"address","name":"owner","type":"address"}],"name":"OwnableInvalidOwner","type":"error"},{"inputs":[{"internalType":"address","name":"account","type":"address"}],"name":"OwnableUnauthorizedAccount","type":"error"},{"inputs":[],"name":"UUPSUnauthorizedCallContext","type":"error"},{"inputs":[{"internalType":"bytes32","name":"slot","type":"bytes32"}],"name":"UUPSUnsupportedProxiableUUID","type":"error"},{"anonymous":false,"inputs":[{"indexed":true,"internalType":"address","name":"account","type":"address"},{"indexed":true,"internalType":"address","name":"operator","type":"address"},{"indexed":false,"internalType":"bool","name":"approved","type":"bool"}],"name":"ApprovalForAll","type":"event"},{"anonymous":false,"inputs":[{"indexed":false,"internalType":"uint64","name":"version","type":"uint64"}],"name":"Initialized","type":"event"},{"anonymous":false,"inputs":[{"indexed":true,"internalType":"address","name":"previousOwner","type":"address"},{"indexed":true,"internalType":"address","name":"newOwner","type":"address"}],"name":"OwnershipTransferred","type":"event"},{"anonymous":false,"inputs":[{"indexed":true,"internalType":"address","name":"operator","type":"address"},{"indexed":true,"internalType":"address","name":"from","type":"address"},{"indexed":true,"internalType":"address","name":"to","type":"address"},{"indexed":false,"internalType":"uint256[]","name":"ids","type":"uint256[]"},{"indexed":false,"internalType":"uint256[]","name":"values","type":"uint256[]"}],"name":"TransferBatch","type":"event"},{"anonymous":false,"inputs":[{"indexed":true,"internalType":"address","name":"operator","type":"address"},{"indexed":true,"internalType":"address","name":"from","type":"address"},{"indexed":true,"internalType":"address","name":"to","type":"address"},{"indexed":false,"internalType":"uint256","name":"id","type":"uint256"},{"indexed":false,"internalType":"uint256","name":"value","type":"uint256"}],"name":"TransferSingle","type":"event"},{"anonymous":false,"inputs":[{"indexed":false,"internalType":"string","name":"value","type":"string"},{"indexed":true,"internalType":"uint256","name":"id","type":"uint256"}],"name":"URI","type":"event"},{"anonymous":false,"inputs":[{"indexed":true,"internalType":"address","name":"implementation","type":"address"}],"name":"Upgraded","type":"event"},{"inputs":[],"name":"UPGRADE_INTERFACE_VERSION","outputs":[{"internalType":"string","name":"","type":"string"}],"stateMutability":"view","type":"function"},{"inputs":[{"internalType":"address","name":"adminAddress","type":"address"}],"name":"addAdmin","outputs":[],"stateMutability":"nonpayable","type":"function"},{"inputs":[{"internalType":"address","name":"from","type":"address"},{"internalType":"uint256","name":"tokenId","type":"uint256"}],"name":"adminBurn","outputs":[],"stateMutability":"nonpayable","type":"function"},{"inputs":[{"internalType":"address[]","name":"from","type":"address[]"},{"internalType":"uint256[]","name":"tokenIds","type":"uint256[]"}],"name":"adminBurnBatch","outputs":[],"stateMutability":"nonpayable","type":"function"},{"inputs":[{"internalType":"uint256","name":"tokenId","type":"uint256"},{"internalType":"uint256","name":"count","type":"uint256"}],"name":"adminMint","outputs":[],"stateMutability":"nonpayable","type":"function"},{"inputs":[{"internalType":"address","name":"","type":"address"}],"name":"admins","outputs":[{"internalType":"bool","name":"","type":"bool"}],"stateMutability":"view","type":"function"},{"inputs":[{"internalType":"uint256","name":"","type":"uint256"}],"name":"artistAddresses","outputs":[{"internalType":"address","name":"","type":"address"}],"stateMutability":"view","type":"function"},{"inputs":[{"internalType":"address","name":"account","type":"address"},{"internalType":"uint256","name":"id","type":"uint256"}],"name":"balanceOf","outputs":[{"internalType":"uint256","name":"","type":"uint256"}],"stateMutability":"view","type":"function"},{"inputs":[{"internalType":"address[]","name":"accounts","type":"address[]"},{"internalType":"uint256[]","name":"ids","type":"uint256[]"}],"name":"balanceOfBatch","outputs":[{"internalType":"uint256[]","name":"","type":"uint256[]"}],"stateMutability":"view","type":"function"},{"inputs":[{"internalType":"uint256","name":"id","type":"uint256"}],"name":"exists","outputs":[{"internalType":"bool","name":"","type":"bool"}],"stateMutability":"view","type":"function"},{"inputs":[{"internalType":"uint256","name":"tokenId","type":"uint256"},{"internalType":"uint256","name":"extraSupply","type":"uint256"}],"name":"increaseTokenSupplyLimit","outputs":[],"stateMutability":"nonpayable","type":"function"},{"inputs":[{"internalType":"address","name":"initialOwner","type":"address"},{"internalType":"address[]","name":"initialAdmins","type":"address[]"},{"internalType":"string","name":"uri","type":"string"}],"name":"init","outputs":[],"stateMutability":"nonpayable","type":"function"},{"inputs":[{"internalType":"address","name":"adminAddress","type":"address"}],"name":"isAdmin","outputs":[{"internalType":"bool","name":"","type":"bool"}],"stateMutability":"view","type":"function"},{"inputs":[{"internalType":"address","name":"owner","type":"address"},{"internalType":"address","name":"operator","type":"address"}],"name":"isApprovedForAll","outputs":[{"internalType":"bool","name":"","type":"bool"}],"stateMutability":"view","type":"function"},{"inputs":[{"internalType":"uint256","name":"tokenId","type":"uint256"},{"internalType":"uint256","name":"count","type":"uint256"}],"name":"mint","outputs":[],"stateMutability":"nonpayable","type":"function"},{"inputs":[],"name":"owner","outputs":[{"internalType":"address","name":"","type":"address"}],"stateMutability":"view","type":"function"},{"inputs":[],"name":"proxiableUUID","outputs":[{"internalType":"bytes32","name":"","type":"bytes32"}],"stateMutability":"view","type":"function"},{"inputs":[{"internalType":"address","name":"adminAddress","type":"address"}],"name":"removeAdmin","outputs":[],"stateMutability":"nonpayable","type":"function"},{"inputs":[],"name":"renounceOwnership","outputs":[],"stateMutability":"nonpayable","type":"function"},{"inputs":[{"internalType":"address","name":"from","type":"address"},{"internalType":"address","name":"to","type":"address"},{"internalType":"uint256[]","name":"ids","type":"uint256[]"},{"internalType":"uint256[]","name":"amounts","type":"uint256[]"},{"internalType":"bytes","name":"data","type":"bytes"}],"name":"safeBatchTransferFrom","outputs":[],"stateMutability":"nonpayable","type":"function"},{"inputs":[{"internalType":"address","name":"from","type":"address"},{"internalType":"address","name":"to","type":"address"},{"internalType":"uint256","name":"tokenId","type":"uint256"},{"internalType":"uint256","name":"amount","type":"uint256"},{"internalType":"bytes","name":"data","type":"bytes"}],"name":"safeTransferFrom","outputs":[],"stateMutability":"nonpayable","type":"function"},{"inputs":[{"internalType":"address","name":"operator","type":"address"},{"internalType":"bool","name":"approved","type":"bool"}],"name":"setApprovalForAll","outputs":[],"stateMutability":"nonpayable","type":"function"},{"inputs":[{"internalType":"uint256","name":"tokenId","type":"uint256"},{"internalType":"address","name":"artistAddress","type":"address"}],"name":"setArtistAddress","outputs":[],"stateMutability":"nonpayable","type":"function"},{"inputs":[{"internalType":"string","name":"uri","type":"string"}],"name":"setURI","outputs":[],"stateMutability":"nonpayable","type":"function"},{"inputs":[{"internalType":"bytes4","name":"interfaceId","type":"bytes4"}],"name":"supportsInterface","outputs":[{"internalType":"bool","name":"","type":"bool"}],"stateMutability":"view","type":"function"},{"inputs":[{"internalType":"uint256","name":"","type":"uint256"}],"name":"tokenSupplyLimits","outputs":[{"internalType":"uint256","name":"","type":"uint256"}],"stateMutability":"view","type":"function"},{"inputs":[],"name":"totalSupply","outputs":[{"internalType":"uint256","name":"","type":"uint256"}],"stateMutability":"view","type":"function"},{"inputs":[{"internalType":"uint256","name":"id","type":"uint256"}],"name":"totalSupply","outputs":[{"internalType":"uint256","name":"","type":"uint256"}],"stateMutability":"view","type":"function"},{"inputs":[{"internalType":"address","name":"newOwner","type":"address"}],"name":"transferOwnership","outputs":[],"stateMutability":"nonpayable","type":"function"},{"inputs":[{"internalType":"address","name":"newImplementation","type":"address"},{"internalType":"bytes","name":"data","type":"bytes"}],"name":"upgradeToAndCall","outputs":[],"stateMutability":"payable","type":"function"},{"inputs":[{"internalType":"uint256","name":"","type":"uint256"}],"name":"uri","outputs":[{"internalType":"string","name":"","type":"string"}],"stateMutability":"view","type":"function"}],"devdoc":{"errors":{"AddressEmptyCode(address)":[{"details":"There's no code at `target` (it is not a contract)."}],"ERC1155InsufficientBalance(address,uint256,uint256,uint256)":[{"details":"Indicates an error related to the current `balance` of a `sender`. Used in transfers.","params":{"balance":"Current balance for the interacting account.","needed":"Minimum amount required to perform a transfer.","sender":"Address whose tokens are being transferred.","tokenId":"Identifier number of a token."}}],"ERC1155InvalidApprover(address)":[{"details":"Indicates a failure with the `approver` of a token to be approved. Used in approvals.","params":{"approver":"Address initiating an approval operation."}}],"ERC1155InvalidArrayLength(uint256,uint256)":[{"details":"Indicates an array length mismatch between ids and values in a safeBatchTransferFrom operation. Used in batch transfers.","params":{"idsLength":"Length of the array of token identifiers","valuesLength":"Length of the array of token amounts"}}],"ERC1155InvalidOperator(address)":[{"details":"Indicates a failure with the `operator` to be approved. Used in approvals.","params":{"operator":"Address that may be allowed to operate on tokens without being their owner."}}],"ERC1155InvalidReceiver(address)":[{"details":"Indicates a failure with the token `receiver`. Used in transfers.","params":{"receiver":"Address to which tokens are being transferred."}}],"ERC1155InvalidSender(address)":[{"details":"Indicates a failure with the token `sender`. Used in transfers.","params":{"sender":"Address whose tokens are being transferred."}}],"ERC1155MissingApprovalForAll(address,address)":[{"details":"Indicates a failure with the `operator`’s approval. Used in transfers.","params":{"operator":"Address that may be allowed to operate on tokens without being their owner.","owner":"Address of the current owner of a token."}}],"ERC1967InvalidImplementation(address)":[{"details":"The `implementation` of the proxy is invalid."}],"ERC1967NonPayable()":[{"details":"An upgrade function sees `msg.value > 0` that may be lost."}],"FailedInnerCall()":[{"details":"A call to an address target failed. The target may have reverted."}],"InvalidInitialization()":[{"details":"The contract is already initialized."}],"NotInitializing()":[{"details":"The contract is not initializing."}],"OwnableInvalidOwner(address)":[{"details":"The owner is not a valid owner account. (eg. `address(0)`)"}],"OwnableUnauthorizedAccount(address)":[{"details":"The caller account is not authorized to perform an operation."}],"UUPSUnauthorizedCallContext()":[{"details":"The call is from an unauthorized context."}],"UUPSUnsupportedProxiableUUID(bytes32)":[{"details":"The storage `slot` is unsupported as a UUID."}]},"events":{"ApprovalForAll(address,address,bool)":{"details":"Emitted when `account` grants or revokes permission to `operator` to transfer their tokens, according to `approved`."},"Initialized(uint64)":{"details":"Triggered when the contract has been initialized or reinitialized."},"TransferBatch(address,address,address,uint256[],uint256[])":{"details":"Equivalent to multiple {TransferSingle} events, where `operator`, `from` and `to` are the same for all transfers."},"TransferSingle(address,address,address,uint256,uint256)":{"details":"Emitted when `value` amount of tokens of type `id` are transferred from `from` to `to` by `operator`."},"URI(string,uint256)":{"details":"Emitted when the URI for token type `id` changes to `value`, if it is a non-programmatic URI. If an {URI} event was emitted for `id`, the standard https://eips.ethereum.org/EIPS/eip-1155#metadata-extensions[guarantees] that `value` will equal the value returned by {IERC1155MetadataURI-uri}."},"Upgraded(address)":{"details":"Emitted when the implementation is upgraded."}},"kind":"dev","methods":{"addAdmin(address)":{"details":"Add an admin Params: _adminAddress: the new address"},"adminBurn(address,uint256)":{"details":"The admin burn function for burning a user's token Params: from: the owner of the token tokenId: the token id"},"adminBurnBatch(address[],uint256[])":{"details":"The admin burn batch function for burning a user's token Params: from: the owners of the token tokenIds: the token ids"},"adminMint(uint256,uint256)":{"details":"The admin mint function (mints new tokens of a particular id) Params: tokenId: the token id to be minted count: the number of new tokens to mint"},"balanceOf(address,uint256)":{"details":"See {IERC1155-balanceOf}."},"balanceOfBatch(address[],uint256[])":{"details":"See {IERC1155-balanceOfBatch}. Requirements: - `accounts` and `ids` must have the same length."},"exists(uint256)":{"details":"Indicates whether any token exist with a given id, or not."},"increaseTokenSupplyLimit(uint256,uint256)":{"details":"Increase the max allowed supply of an artist token Params: tokenId: the id of the token being updated extraSupply: the additional supply to be allowed"},"isAdmin(address)":{"details":"Check address is admin Params: _address: the address to check"},"mint(uint256,uint256)":{"details":"The mint function (mints new tokens of a particular id) Params: tokenId: the token id to be minted count: the number of new tokens to mint"},"owner()":{"details":"Returns the address of the current owner."},"proxiableUUID()":{"details":"Implementation of the ERC1822 {proxiableUUID} function. This returns the storage slot used by the implementation. It is used to validate the implementation's compatibility when performing an upgrade. IMPORTANT: A proxy pointing at a proxiable contract should not be considered proxiable itself, because this risks bricking a proxy that upgrades to it, by delegating to itself until out of gas. Thus it is critical that this function revert if invoked through a proxy. This is guaranteed by the `notDelegated` modifier."},"removeAdmin(address)":{"details":"Remove an admin Params: adminAddress: the address to remove"},"renounceOwnership()":{"details":"Leaves the contract without owner. It will not be possible to call `onlyOwner` functions. Can only be called by the current owner. NOTE: Renouncing ownership will leave the contract without an owner, thereby disabling any functionality that is only available to the owner."},"setApprovalForAll(address,bool)":{"details":"See {IERC1155-setApprovalForAll}."},"setArtistAddress(uint256,address)":{"details":"Update the artist address for a particular token Params: tokenId: the id of the token being updated artistAddress: the new address of the artist for this token"},"setURI(string)":{"details":"Update the uri template Params: _uri: the new uri template"},"supportsInterface(bytes4)":{"details":"See {IERC165-supportsInterface}."},"totalSupply()":{"details":"Total value of tokens."},"totalSupply(uint256)":{"details":"Total value of tokens in with a given id."},"transferOwnership(address)":{"details":"Transfers ownership of the contract to a new account (`newOwner`). Can only be called by the current owner."},"upgradeToAndCall(address,bytes)":{"custom:oz-upgrades-unsafe-allow-reachable":"delegatecall","details":"Upgrade the implementation of the proxy to `newImplementation`, and subsequently execute the function call encoded in `data`. Calls {_authorizeUpgrade}. Emits an {Upgraded} event."},"uri(uint256)":{"details":"See {IERC1155MetadataURI-uri}. This implementation returns the same URI for *all* token types. It relies on the token type ID substitution mechanism https://eips.ethereum.org/EIPS/eip-1155#metadata[defined in the EIP]. Clients calling this function must replace the `\\{id\\}` substring with the actual token type ID."}},"version":1},"evm":{"bytecode":{"linkReferences":{},"object":"60a06040523073ffffffffffffffffffffffffffffffffffffffff1660809073ffffffffffffffffffffffffffffffffffffffff1681525034801561004357600080fd5b506080516148d361006d60003960008181611b8701528181611bdc0152611d9701526148d36000f3fe6080604052600436106101d75760003560e01c806352d1902d11610102578063bb62550911610095578063e985e9c511610064578063e985e9c5146106cc578063f242432a14610709578063f2fde38b14610732578063fbe0a8921461075b576101d7565b8063bb62550914610614578063bd85b0391461063d578063c36497e51461067a578063d00e40ce146106a3576101d7565b80638da5cb5b116100d15780638da5cb5b1461056c5780639eca4b7b14610597578063a22cb465146105c0578063ad3cb1cc146105e9576101d7565b806352d1902d146104c457806370480275146104ef578063715018a614610518578063831ffd051461052f576101d7565b806318160ddd1161017a578063429b62e511610149578063429b62e5146103f15780634e1273f41461042e5780634f1ef2861461046b5780634f558e7914610487576101d7565b806318160ddd146103375780631b2ef1ca1461036257806324d7806c1461038b5780632eb2c2d6146103c8576101d7565b806306dd0419116101b657806306dd04191461027f578063077d9234146102a85780630e89341c146102d15780631785f53c1461030e576101d7565b8062fdd58e146101dc57806301ffc9a71461021957806302fe530514610256575b600080fd5b3480156101e857600080fd5b5061020360048036038101906101fe91906132f3565b610798565b6040516102109190613342565b60405180910390f35b34801561022557600080fd5b50610240600480360381019061023b91906133b5565b610801565b60405161024d91906133fd565b60405180910390f35b34801561026257600080fd5b5061027d6004803603810190610278919061355e565b61083e565b005b34801561028b57600080fd5b506102a660048036038101906102a191906132f3565b610852565b005b3480156102b457600080fd5b506102cf60048036038101906102ca9190613732565b6108ed565b005b3480156102dd57600080fd5b506102f860048036038101906102f391906137aa565b6109b2565b6040516103059190613856565b60405180910390f35b34801561031a57600080fd5b5061033560048036038101906103309190613878565b610a55565b005b34801561034357600080fd5b5061034c610aae565b6040516103599190613342565b60405180910390f35b34801561036e57600080fd5b50610389600480360381019061038491906138a5565b610ac6565b005b34801561039757600080fd5b506103b260048036038101906103ad9190613878565b610c22565b6040516103bf91906133fd565b60405180910390f35b3480156103d457600080fd5b506103ef60048036038101906103ea9190613986565b610c7e565b005b3480156103fd57600080fd5b5061041860048036038101906104139190613878565b610d4b565b60405161042591906133fd565b60405180910390f35b34801561043a57600080fd5b5061045560048036038101906104509190613732565b610d6b565b6040516104629190613b13565b60405180910390f35b61048560048036038101906104809190613b35565b610e7a565b005b34801561049357600080fd5b506104ae60048036038101906104a991906137aa565b610e99565b6040516104bb91906133fd565b60405180910390f35b3480156104d057600080fd5b506104d9610ead565b6040516104e69190613baa565b60405180910390f35b3480156104fb57600080fd5b5061051660048036038101906105119190613878565b610ee0565b005b34801561052457600080fd5b5061052d610f42565b005b34801561053b57600080fd5b50610556600480360381019061055191906137aa565b610f56565b6040516105639190613bd4565b60405180910390f35b34801561057857600080fd5b50610581610f89565b60405161058e9190613bd4565b60405180910390f35b3480156105a357600080fd5b506105be60048036038101906105b99190613bef565b610fc1565b005b3480156105cc57600080fd5b506105e760048036038101906105e29190613c5b565b6110e5565b005b3480156105f557600080fd5b506105fe6110f3565b60405161060b9190613856565b60405180910390f35b34801561062057600080fd5b5061063b60048036038101906106369190613c9b565b61112c565b005b34801561064957600080fd5b50610664600480360381019061065f91906137aa565b611367565b6040516106719190613342565b60405180910390f35b34801561068657600080fd5b506106a1600480360381019061069c91906138a5565b611392565b005b3480156106af57600080fd5b506106ca60048036038101906106c591906138a5565b6114ba565b005b3480156106d857600080fd5b506106f360048036038101906106ee9190613d26565b6116a2565b60405161070091906133fd565b60405180910390f35b34801561071557600080fd5b50610730600480360381019061072b9190613d66565b611711565b005b34801561073e57600080fd5b5061075960048036038101906107549190613878565b6117de565b005b34801561076757600080fd5b50610782600480360381019061077d91906137aa565b611864565b60405161078f9190613342565b60405180910390f35b6000806107a361187c565b905080600001600084815260200190815260200160002060008573ffffffffffffffffffffffffffffffffffffffff1673ffffffffffffffffffffffffffffffffffffffff1681526020019081526020016000205491505092915050565b60006040517f08c379a000000000000000000000000000000000000000000000000000000000815260040161083590613e49565b60405180910390fd5b6108466118a4565b61084f8161192b565b50565b6000803373ffffffffffffffffffffffffffffffffffffffff1673ffffffffffffffffffffffffffffffffffffffff16815260200190815260200160002060009054906101000a900460ff166108dd576040517f08c379a00000000000000000000000000000000000000000000000000000000081526004016108d490613eb5565b60405180910390fd5b6108e98282600161194d565b5050565b60005b82518110156109ad573073ffffffffffffffffffffffffffffffffffffffff166306dd041984838151811061092857610927613ed5565b5b602002602001015184848151811061094357610942613ed5565b5b60200260200101516040518363ffffffff1660e01b8152600401610968929190613f04565b600060405180830381600087803b15801561098257600080fd5b505af1158015610996573d6000803e3d6000fd5b5050505080806109a590613f5c565b9150506108f0565b505050565b606060006109be61187c565b90508060020180546109cf90613fd3565b80601f01602080910402602001604051908101604052809291908181526020018280546109fb90613fd3565b8015610a485780601f10610a1d57610100808354040283529160200191610a48565b820191906000526020600020905b815481529060010190602001808311610a2b57829003601f168201915b5050505050915050919050565b610a5d6118a4565b6000808273ffffffffffffffffffffffffffffffffffffffff1673ffffffffffffffffffffffffffffffffffffffff16815260200190815260200160002060006101000a81549060ff021916905550565b600080610ab96119f4565b9050806001015491505090565b3373ffffffffffffffffffffffffffffffffffffffff166001600084815260200190815260200160002060009054906101000a900473ffffffffffffffffffffffffffffffffffffffff1673ffffffffffffffffffffffffffffffffffffffff1614610b67576040517f08c379a0000000000000000000000000000000000000000000000000000000008152600401610b5e90614076565b60405180910390fd5b600260008381526020019081526020016000205481610b8584611367565b610b8f9190614096565b1115610bd0576040517f08c379a0000000000000000000000000000000000000000000000000000000008152600401610bc790614116565b60405180910390fd5b610c1e6001600084815260200190815260200160002060009054906101000a900473ffffffffffffffffffffffffffffffffffffffff16838360405180602001604052806000815250611a1c565b5050565b6000600115156000808473ffffffffffffffffffffffffffffffffffffffff1673ffffffffffffffffffffffffffffffffffffffff16815260200190815260200160002060009054906101000a900460ff161515149050919050565b3073ffffffffffffffffffffffffffffffffffffffff166324d7806c336040518263ffffffff1660e01b8152600401610cb79190613bd4565b602060405180830381865afa158015610cd4573d6000803e3d6000fd5b505050506040513d601f19601f82011682018060405250810190610cf8919061414b565b610d37576040517f08c379a0000000000000000000000000000000000000000000000000000000008152600401610d2e90613eb5565b60405180910390fd5b610d448585858585611ab5565b5050505050565b60006020528060005260406000206000915054906101000a900460ff1681565b60608151835114610db757815183516040517f5b059991000000000000000000000000000000000000000000000000000000008152600401610dae929190614178565b60405180910390fd5b6000835167ffffffffffffffff811115610dd457610dd3613433565b5b604051908082528060200260200182016040528015610e025781602001602082028036833780820191505090505b50905060005b8451811015610e6f57610e3f610e278287611b5d90919063ffffffff16565b610e3a8387611b7190919063ffffffff16565b610798565b828281518110610e5257610e51613ed5565b5b60200260200101818152505080610e6890613f5c565b9050610e08565b508091505092915050565b610e82611b85565b610e8b82611c6b565b610e958282611c76565b5050565b600080610ea583611367565b119050919050565b6000610eb7611d95565b7f360894a13ba1a3210667c828492db98dca3e2076cc3735a920a3ca505d382bbc60001b905090565b610ee86118a4565b60016000808373ffffffffffffffffffffffffffffffffffffffff1673ffffffffffffffffffffffffffffffffffffffff16815260200190815260200160002060006101000a81548160ff02191690831515021790555050565b610f4a6118a4565b610f546000611e1c565b565b60016020528060005260406000206000915054906101000a900473ffffffffffffffffffffffffffffffffffffffff1681565b600080610f94611ef3565b90508060000160009054906101000a900473ffffffffffffffffffffffffffffffffffffffff1691505090565b6000803373ffffffffffffffffffffffffffffffffffffffff1673ffffffffffffffffffffffffffffffffffffffff16815260200190815260200160002060009054906101000a900460ff1661104c576040517f08c379a000000000000000000000000000000000000000000000000000000000815260040161104390613eb5565b60405180910390fd5b6000820361108f576040517f08c379a0000000000000000000000000000000000000000000000000000000008152600401611086906141ed565b60405180910390fd5b806001600084815260200190815260200160002060006101000a81548173ffffffffffffffffffffffffffffffffffffffff021916908373ffffffffffffffffffffffffffffffffffffffff1602179055505050565b6110ef8282611f1b565b5050565b6040518060400160405280600581526020017f352e302e3000000000000000000000000000000000000000000000000000000081525081565b6000611136611f31565b905060008160000160089054906101000a900460ff1615905060008260000160009054906101000a900467ffffffffffffffff1690506000808267ffffffffffffffff161480156111845750825b9050600060018367ffffffffffffffff161480156111b9575060003073ffffffffffffffffffffffffffffffffffffffff163b145b9050811580156111c7575080155b156111fe576040517ff92ee8a900000000000000000000000000000000000000000000000000000000815260040160405180910390fd5b60018560000160006101000a81548167ffffffffffffffff021916908367ffffffffffffffff160217905550831561124e5760018560000160086101000a81548160ff0219169083151502179055505b611256611f59565b61125f88611f63565b611267611f77565b6112708661192b565b60005b87518110156113005760016000808a848151811061129457611293613ed5565b5b602002602001015173ffffffffffffffffffffffffffffffffffffffff1673ffffffffffffffffffffffffffffffffffffffff16815260200190815260200160002060006101000a81548160ff02191690831515021790555080806112f890613f5c565b915050611273565b50831561135d5760008560000160086101000a81548160ff0219169083151502179055507fc7f505b2f371ae2175ee4913f4499e1f2633a7b5936321eed1cdaeb6115181d260016040516113549190614266565b60405180910390a15b5050505050505050565b6000806113726119f4565b905080600001600084815260200190815260200160002054915050919050565b6000803373ffffffffffffffffffffffffffffffffffffffff1673ffffffffffffffffffffffffffffffffffffffff16815260200190815260200160002060009054906101000a900460ff1661141d576040517f08c379a000000000000000000000000000000000000000000000000000000000815260040161141490613eb5565b60405180910390fd5b6103e881600260008581526020019081526020016000205461143f9190614096565b1115611480576040517f08c379a0000000000000000000000000000000000000000000000000000000008152600401611477906142f3565b60405180910390fd5b80600260008481526020019081526020016000205461149f9190614096565b60026000848152602001908152602001600020819055505050565b6000803373ffffffffffffffffffffffffffffffffffffffff1673ffffffffffffffffffffffffffffffffffffffff16815260200190815260200160002060009054906101000a900460ff16611545576040517f08c379a000000000000000000000000000000000000000000000000000000000815260040161153c90613eb5565b60405180910390fd5b600073ffffffffffffffffffffffffffffffffffffffff166001600084815260200190815260200160002060009054906101000a900473ffffffffffffffffffffffffffffffffffffffff1673ffffffffffffffffffffffffffffffffffffffff16036115e7576040517f08c379a00000000000000000000000000000000000000000000000000000000081526004016115de9061435f565b60405180910390fd5b60026000838152602001908152602001600020548161160584611367565b61160f9190614096565b1115611650576040517f08c379a000000000000000000000000000000000000000000000000000000000815260040161164790614116565b60405180910390fd5b61169e6001600084815260200190815260200160002060009054906101000a900473ffffffffffffffffffffffffffffffffffffffff16838360405180602001604052806000815250611a1c565b5050565b60008060008373ffffffffffffffffffffffffffffffffffffffff1673ffffffffffffffffffffffffffffffffffffffff16815260200190815260200160002060009054906101000a900460ff16156116fe576001905061170b565b6117088383611f81565b90505b92915050565b3073ffffffffffffffffffffffffffffffffffffffff166324d7806c336040518263ffffffff1660e01b815260040161174a9190613bd4565b602060405180830381865afa158015611767573d6000803e3d6000fd5b505050506040513d601f19601f8201168201806040525081019061178b919061414b565b6117ca576040517f08c379a00000000000000000000000000000000000000000000000000000000081526004016117c190613eb5565b60405180910390fd5b6117d78585858585612023565b5050505050565b6117e66118a4565b600073ffffffffffffffffffffffffffffffffffffffff168173ffffffffffffffffffffffffffffffffffffffff16036118585760006040517f1e4fbdf700000000000000000000000000000000000000000000000000000000815260040161184f9190613bd4565b60405180910390fd5b61186181611e1c565b50565b60026020528060005260406000206000915090505481565b60007f88be536d5240c274a3b1d3a1be54482fd9caa294f08c62a7cde569f49a3c4500905090565b6118ac6120cb565b73ffffffffffffffffffffffffffffffffffffffff166118ca610f89565b73ffffffffffffffffffffffffffffffffffffffff1614611929576118ed6120cb565b6040517f118cdaa70000000000000000000000000000000000000000000000000000000081526004016119209190613bd4565b60405180910390fd5b565b600061193561187c565b9050818160020190816119489190614521565b505050565b600073ffffffffffffffffffffffffffffffffffffffff168373ffffffffffffffffffffffffffffffffffffffff16036119bf5760006040517f01a835140000000000000000000000000000000000000000000000000000000081526004016119b69190613bd4565b60405180910390fd5b6000806119cc84846120d3565b915091506119ed856000848460405180602001604052806000815250612103565b5050505050565b60007f4a593662ee04d27b6a00ebb31be7fe0c102c2ade82a7c5d764f2df05dc4e2800905090565b600073ffffffffffffffffffffffffffffffffffffffff168473ffffffffffffffffffffffffffffffffffffffff1603611a8e5760006040517f57f447ce000000000000000000000000000000000000000000000000000000008152600401611a859190613bd4565b60405180910390fd5b600080611a9b85856120d3565b91509150611aad600087848487612103565b505050505050565b6000611abf6120cb565b90508073ffffffffffffffffffffffffffffffffffffffff168673ffffffffffffffffffffffffffffffffffffffff1614158015611b045750611b0286826116a2565b155b15611b485780866040517fe237d922000000000000000000000000000000000000000000000000000000008152600401611b3f9291906145f3565b60405180910390fd5b611b5586868686866121b5565b505050505050565b600060208202602084010151905092915050565b600060208202602084010151905092915050565b7f000000000000000000000000000000000000000000000000000000000000000073ffffffffffffffffffffffffffffffffffffffff163073ffffffffffffffffffffffffffffffffffffffff161480611c3257507f000000000000000000000000000000000000000000000000000000000000000073ffffffffffffffffffffffffffffffffffffffff16611c196122ad565b73ffffffffffffffffffffffffffffffffffffffff1614155b15611c69576040517fe07c8dba00000000000000000000000000000000000000000000000000000000815260040160405180910390fd5b565b611c736118a4565b50565b8173ffffffffffffffffffffffffffffffffffffffff166352d1902d6040518163ffffffff1660e01b8152600401602060405180830381865afa925050508015611cde57506040513d601f19601f82011682018060405250810190611cdb9190614648565b60015b611d1f57816040517f4c9c8ce3000000000000000000000000000000000000000000000000000000008152600401611d169190613bd4565b60405180910390fd5b7f360894a13ba1a3210667c828492db98dca3e2076cc3735a920a3ca505d382bbc60001b8114611d8657806040517faa1d49a4000000000000000000000000000000000000000000000000000000008152600401611d7d9190613baa565b60405180910390fd5b611d908383612304565b505050565b7f000000000000000000000000000000000000000000000000000000000000000073ffffffffffffffffffffffffffffffffffffffff163073ffffffffffffffffffffffffffffffffffffffff1614611e1a576040517fe07c8dba00000000000000000000000000000000000000000000000000000000815260040160405180910390fd5b565b6000611e26611ef3565b905060008160000160009054906101000a900473ffffffffffffffffffffffffffffffffffffffff169050828260000160006101000a81548173ffffffffffffffffffffffffffffffffffffffff021916908373ffffffffffffffffffffffffffffffffffffffff1602179055508273ffffffffffffffffffffffffffffffffffffffff168173ffffffffffffffffffffffffffffffffffffffff167f8be0079c531659141344cd1fd0a4f28419497f9722a3daafe3b4186f6b6457e060405160405180910390a3505050565b60007f9016d09d72d40fdae2fd8ceac6b6234c7706214fd39c1cd1e609a0528c199300905090565b611f2d611f266120cb565b8383612377565b5050565b60007ff0c57e16840df040f15088dc2f81fe391c3923bec73e23a9662efc9c229c6a00905090565b611f616124f6565b565b611f6b6124f6565b611f7481612536565b50565b611f7f6124f6565b565b600080611f8c61187c565b90508060010160008573ffffffffffffffffffffffffffffffffffffffff1673ffffffffffffffffffffffffffffffffffffffff16815260200190815260200160002060008473ffffffffffffffffffffffffffffffffffffffff1673ffffffffffffffffffffffffffffffffffffffff16815260200190815260200160002060009054906101000a900460ff1691505092915050565b600061202d6120cb565b90508073ffffffffffffffffffffffffffffffffffffffff168673ffffffffffffffffffffffffffffffffffffffff1614158015612072575061207086826116a2565b155b156120b65780866040517fe237d9220000000000000000000000000000000000000000000000000000000081526004016120ad9291906145f3565b60405180910390fd5b6120c386868686866125bc565b505050505050565b600033905090565b60608060405191506001825283602083015260408201905060018152826020820152604081016040529250929050565b61210f858585856126c7565b600073ffffffffffffffffffffffffffffffffffffffff168473ffffffffffffffffffffffffffffffffffffffff16146121ae57600061214d6120cb565b9050600184510361219d57600061216e600086611b7190919063ffffffff16565b90506000612186600086611b7190919063ffffffff16565b9050612196838989858589612893565b50506121ac565b6121ab818787878787612a47565b5b505b5050505050565b600073ffffffffffffffffffffffffffffffffffffffff168473ffffffffffffffffffffffffffffffffffffffff16036122275760006040517f57f447ce00000000000000000000000000000000000000000000000000000000815260040161221e9190613bd4565b60405180910390fd5b600073ffffffffffffffffffffffffffffffffffffffff168573ffffffffffffffffffffffffffffffffffffffff16036122995760006040517f01a835140000000000000000000000000000000000000000000000000000000081526004016122909190613bd4565b60405180910390fd5b6122a68585858585612103565b5050505050565b60006122db7f360894a13ba1a3210667c828492db98dca3e2076cc3735a920a3ca505d382bbc60001b612bfb565b60000160009054906101000a900473ffffffffffffffffffffffffffffffffffffffff16905090565b61230d82612c05565b8173ffffffffffffffffffffffffffffffffffffffff167fbc7cd75a20ee27fd9adebab32041f755214dbc6bffa90cc0225b39da2e5c2d3b60405160405180910390a260008151111561236a576123648282612cd2565b50612373565b612372612d56565b5b5050565b600061238161187c565b9050600073ffffffffffffffffffffffffffffffffffffffff168373ffffffffffffffffffffffffffffffffffffffff16036123f55760006040517fced3e1000000000000000000000000000000000000000000000000000000000081526004016123ec9190613bd4565b60405180910390fd5b818160010160008673ffffffffffffffffffffffffffffffffffffffff1673ffffffffffffffffffffffffffffffffffffffff16815260200190815260200160002060008573ffffffffffffffffffffffffffffffffffffffff1673ffffffffffffffffffffffffffffffffffffffff16815260200190815260200160002060006101000a81548160ff0219169083151502179055508273ffffffffffffffffffffffffffffffffffffffff168473ffffffffffffffffffffffffffffffffffffffff167f17307eab39ab6107e8899845ad3d59bd9653f200f220920489ca2b5937696c31846040516124e891906133fd565b60405180910390a350505050565b6124fe612d93565b612534576040517fd7e6bcf800000000000000000000000000000000000000000000000000000000815260040160405180910390fd5b565b61253e6124f6565b600073ffffffffffffffffffffffffffffffffffffffff168173ffffffffffffffffffffffffffffffffffffffff16036125b05760006040517f1e4fbdf70000000000000000000000000000000000000000000000000000000081526004016125a79190613bd4565b60405180910390fd5b6125b981611e1c565b50565b600073ffffffffffffffffffffffffffffffffffffffff168473ffffffffffffffffffffffffffffffffffffffff160361262e5760006040517f57f447ce0000000000000000000000000000000000000000000000000000000081526004016126259190613bd4565b60405180910390fd5b600073ffffffffffffffffffffffffffffffffffffffff168573ffffffffffffffffffffffffffffffffffffffff16036126a05760006040517f01a835140000000000000000000000000000000000000000000000000000000081526004016126979190613bd4565b60405180910390fd5b6000806126ad85856120d3565b915091506126be8787848487612103565b50505050505050565b60006126d16119f4565b90506126df85858585612db3565b600073ffffffffffffffffffffffffffffffffffffffff168573ffffffffffffffffffffffffffffffffffffffff16036127c3576000805b84518110156127a557600084828151811061273557612734613ed5565b5b602002602001015190508084600001600088858151811061275957612758613ed5565b5b60200260200101518152602001908152602001600020600082825461277e9190614096565b9250508190555080836127919190614096565b9250508061279e90613f5c565b9050612717565b50808260010160008282546127ba9190614096565b92505081905550505b600073ffffffffffffffffffffffffffffffffffffffff168473ffffffffffffffffffffffffffffffffffffffff160361288c576000805b845181101561287757600084828151811061281957612818613ed5565b5b602002602001015190508084600001600088858151811061283d5761283c613ed5565b5b60200260200101518152602001908152602001600020600082825403925050819055508083019250508061287090613f5c565b90506127fb565b50808260010160008282540392505081905550505b5050505050565b60008473ffffffffffffffffffffffffffffffffffffffff163b1115612a3f578373ffffffffffffffffffffffffffffffffffffffff1663f23a6e6187878686866040518663ffffffff1660e01b81526004016128f49594939291906146ca565b6020604051808303816000875af192505050801561293057506040513d601f19601f8201168201806040525081019061292d9190614739565b60015b6129b4573d8060008114612960576040519150601f19603f3d011682016040523d82523d6000602084013e612965565b606091505b5060008151036129ac57846040517f57f447ce0000000000000000000000000000000000000000000000000000000081526004016129a39190613bd4565b60405180910390fd5b805181602001fd5b63f23a6e6160e01b7bffffffffffffffffffffffffffffffffffffffffffffffffffffffff1916817bffffffffffffffffffffffffffffffffffffffffffffffffffffffff191614612a3d57846040517f57f447ce000000000000000000000000000000000000000000000000000000008152600401612a349190613bd4565b60405180910390fd5b505b505050505050565b60008473ffffffffffffffffffffffffffffffffffffffff163b1115612bf3578373ffffffffffffffffffffffffffffffffffffffff1663bc197c8187878686866040518663ffffffff1660e01b8152600401612aa8959493929190614766565b6020604051808303816000875af1925050508015612ae457506040513d601f19601f82011682018060405250810190612ae19190614739565b60015b612b68573d8060008114612b14576040519150601f19603f3d011682016040523d82523d6000602084013e612b19565b606091505b506000815103612b6057846040517f57f447ce000000000000000000000000000000000000000000000000000000008152600401612b579190613bd4565b60405180910390fd5b805181602001fd5b63bc197c8160e01b7bffffffffffffffffffffffffffffffffffffffffffffffffffffffff1916817bffffffffffffffffffffffffffffffffffffffffffffffffffffffff191614612bf157846040517f57f447ce000000000000000000000000000000000000000000000000000000008152600401612be89190613bd4565b60405180910390fd5b505b505050505050565b6000819050919050565b60008173ffffffffffffffffffffffffffffffffffffffff163b03612c6157806040517f4c9c8ce3000000000000000000000000000000000000000000000000000000008152600401612c589190613bd4565b60405180910390fd5b80612c8e7f360894a13ba1a3210667c828492db98dca3e2076cc3735a920a3ca505d382bbc60001b612bfb565b60000160006101000a81548173ffffffffffffffffffffffffffffffffffffffff021916908373ffffffffffffffffffffffffffffffffffffffff16021790555050565b60606000808473ffffffffffffffffffffffffffffffffffffffff1684604051612cfc919061480a565b600060405180830381855af49150503d8060008114612d37576040519150601f19603f3d011682016040523d82523d6000602084013e612d3c565b606091505b5091509150612d4c858383613177565b9250505092915050565b6000341115612d91576040517fb398979f00000000000000000000000000000000000000000000000000000000815260040160405180910390fd5b565b6000612d9d611f31565b60000160089054906101000a900460ff16905090565b6000612dbd61187c565b90508151835114612e0957825182516040517f5b059991000000000000000000000000000000000000000000000000000000008152600401612e00929190614178565b60405180910390fd5b6000612e136120cb565b905060005b8451811015613031576000612e368287611b7190919063ffffffff16565b90506000612e4d8387611b7190919063ffffffff16565b9050600073ffffffffffffffffffffffffffffffffffffffff168973ffffffffffffffffffffffffffffffffffffffff1614612f8057600085600001600084815260200190815260200160002060008b73ffffffffffffffffffffffffffffffffffffffff1673ffffffffffffffffffffffffffffffffffffffff16815260200190815260200160002054905081811015612f2557898183856040517f03dee4c5000000000000000000000000000000000000000000000000000000008152600401612f1c9493929190614821565b60405180910390fd5b81810386600001600085815260200190815260200160002060008c73ffffffffffffffffffffffffffffffffffffffff1673ffffffffffffffffffffffffffffffffffffffff16815260200190815260200160002081905550505b600073ffffffffffffffffffffffffffffffffffffffff168873ffffffffffffffffffffffffffffffffffffffff161461301e578085600001600084815260200190815260200160002060008a73ffffffffffffffffffffffffffffffffffffffff1673ffffffffffffffffffffffffffffffffffffffff16815260200190815260200160002060008282546130169190614096565b925050819055505b50508061302a90613f5c565b9050612e18565b5060018451036130f0576000613051600086611b7190919063ffffffff16565b90506000613069600086611b7190919063ffffffff16565b90508673ffffffffffffffffffffffffffffffffffffffff168873ffffffffffffffffffffffffffffffffffffffff168473ffffffffffffffffffffffffffffffffffffffff167fc3d58168c5ae7397731d063d5bbf3d657854427343f4c083240f7aacaa2d0f6285856040516130e1929190614178565b60405180910390a4505061316f565b8473ffffffffffffffffffffffffffffffffffffffff168673ffffffffffffffffffffffffffffffffffffffff168273ffffffffffffffffffffffffffffffffffffffff167f4a39dc06d4c0dbc64b70af90fd698a233a518aa5d07e595d983b8c0526c8f7fb8787604051613166929190614866565b60405180910390a45b505050505050565b60608261318c5761318782613206565b6131fe565b600082511480156131b4575060008473ffffffffffffffffffffffffffffffffffffffff163b145b156131f657836040517f9996b3150000000000000000000000000000000000000000000000000000000081526004016131ed9190613bd4565b60405180910390fd5b8190506131ff565b5b9392505050565b6000815111156132195780518082602001fd5b6040517f1425ea4200000000000000000000000000000000000000000000000000000000815260040160405180910390fd5b6000604051905090565b600080fd5b600080fd5b600073ffffffffffffffffffffffffffffffffffffffff82169050919050565b600061328a8261325f565b9050919050565b61329a8161327f565b81146132a557600080fd5b50565b6000813590506132b781613291565b92915050565b6000819050919050565b6132d0816132bd565b81146132db57600080fd5b50565b6000813590506132ed816132c7565b92915050565b6000806040838503121561330a57613309613255565b5b6000613318858286016132a8565b9250506020613329858286016132de565b9150509250929050565b61333c816132bd565b82525050565b60006020820190506133576000830184613333565b92915050565b60007fffffffff0000000000000000000000000000000000000000000000000000000082169050919050565b6133928161335d565b811461339d57600080fd5b50565b6000813590506133af81613389565b92915050565b6000602082840312156133cb576133ca613255565b5b60006133d9848285016133a0565b91505092915050565b60008115159050919050565b6133f7816133e2565b82525050565b600060208201905061341260008301846133ee565b92915050565b600080fd5b600080fd5b6000601f19601f8301169050919050565b7f4e487b7100000000000000000000000000000000000000000000000000000000600052604160045260246000fd5b61346b82613422565b810181811067ffffffffffffffff8211171561348a57613489613433565b5b80604052505050565b600061349d61324b565b90506134a98282613462565b919050565b600067ffffffffffffffff8211156134c9576134c8613433565b5b6134d282613422565b9050602081019050919050565b82818337600083830152505050565b60006135016134fc846134ae565b613493565b90508281526020810184848401111561351d5761351c61341d565b5b6135288482856134df565b509392505050565b600082601f83011261354557613544613418565b5b81356135558482602086016134ee565b91505092915050565b60006020828403121561357457613573613255565b5b600082013567ffffffffffffffff8111156135925761359161325a565b5b61359e84828501613530565b91505092915050565b600067ffffffffffffffff8211156135c2576135c1613433565b5b602082029050602081019050919050565b600080fd5b60006135eb6135e6846135a7565b613493565b9050808382526020820190506020840283018581111561360e5761360d6135d3565b5b835b81811015613637578061362388826132a8565b845260208401935050602081019050613610565b5050509392505050565b600082601f83011261365657613655613418565b5b81356136668482602086016135d8565b91505092915050565b600067ffffffffffffffff82111561368a57613689613433565b5b602082029050602081019050919050565b60006136ae6136a98461366f565b613493565b905080838252602082019050602084028301858111156136d1576136d06135d3565b5b835b818110156136fa57806136e688826132de565b8452602084019350506020810190506136d3565b5050509392505050565b600082601f83011261371957613718613418565b5b813561372984826020860161369b565b91505092915050565b6000806040838503121561374957613748613255565b5b600083013567ffffffffffffffff8111156137675761376661325a565b5b61377385828601613641565b925050602083013567ffffffffffffffff8111156137945761379361325a565b5b6137a085828601613704565b9150509250929050565b6000602082840312156137c0576137bf613255565b5b60006137ce848285016132de565b91505092915050565b600081519050919050565b600082825260208201905092915050565b60005b838110156138115780820151818401526020810190506137f6565b60008484015250505050565b6000613828826137d7565b61383281856137e2565b93506138428185602086016137f3565b61384b81613422565b840191505092915050565b60006020820190508181036000830152613870818461381d565b905092915050565b60006020828403121561388e5761388d613255565b5b600061389c848285016132a8565b91505092915050565b600080604083850312156138bc576138bb613255565b5b60006138ca858286016132de565b92505060206138db858286016132de565b9150509250929050565b600067ffffffffffffffff821115613900576138ff613433565b5b61390982613422565b9050602081019050919050565b6000613929613924846138e5565b613493565b9050828152602081018484840111156139455761394461341d565b5b6139508482856134df565b509392505050565b600082601f83011261396d5761396c613418565b5b813561397d848260208601613916565b91505092915050565b600080600080600060a086880312156139a2576139a1613255565b5b60006139b0888289016132a8565b95505060206139c1888289016132a8565b945050604086013567ffffffffffffffff8111156139e2576139e161325a565b5b6139ee88828901613704565b935050606086013567ffffffffffffffff811115613a0f57613a0e61325a565b5b613a1b88828901613704565b925050608086013567ffffffffffffffff811115613a3c57613a3b61325a565b5b613a4888828901613958565b9150509295509295909350565b600081519050919050565b600082825260208201905092915050565b6000819050602082019050919050565b613a8a816132bd565b82525050565b6000613a9c8383613a81565b60208301905092915050565b6000602082019050919050565b6000613ac082613a55565b613aca8185613a60565b9350613ad583613a71565b8060005b83811015613b06578151613aed8882613a90565b9750613af883613aa8565b925050600181019050613ad9565b5085935050505092915050565b60006020820190508181036000830152613b2d8184613ab5565b905092915050565b60008060408385031215613b4c57613b4b613255565b5b6000613b5a858286016132a8565b925050602083013567ffffffffffffffff811115613b7b57613b7a61325a565b5b613b8785828601613958565b9150509250929050565b6000819050919050565b613ba481613b91565b82525050565b6000602082019050613bbf6000830184613b9b565b92915050565b613bce8161327f565b82525050565b6000602082019050613be96000830184613bc5565b92915050565b60008060408385031215613c0657613c05613255565b5b6000613c14858286016132de565b9250506020613c25858286016132a8565b9150509250929050565b613c38816133e2565b8114613c4357600080fd5b50565b600081359050613c5581613c2f565b92915050565b60008060408385031215613c7257613c71613255565b5b6000613c80858286016132a8565b9250506020613c9185828601613c46565b9150509250929050565b600080600060608486031215613cb457613cb3613255565b5b6000613cc2868287016132a8565b935050602084013567ffffffffffffffff811115613ce357613ce261325a565b5b613cef86828701613641565b925050604084013567ffffffffffffffff811115613d1057613d0f61325a565b5b613d1c86828701613530565b9150509250925092565b60008060408385031215613d3d57613d3c613255565b5b6000613d4b858286016132a8565b9250506020613d5c858286016132a8565b9150509250929050565b600080600080600060a08688031215613d8257613d81613255565b5b6000613d90888289016132a8565b9550506020613da1888289016132a8565b9450506040613db2888289016132de565b9350506060613dc3888289016132de565b925050608086013567ffffffffffffffff811115613de457613de361325a565b5b613df088828901613958565b9150509295509295909350565b7f5468697320697320612064756d6d79206572726f720000000000000000000000600082015250565b6000613e336015836137e2565b9150613e3e82613dfd565b602082019050919050565b60006020820190508181036000830152613e6281613e26565b9050919050565b7f6e6f742061646d696e0000000000000000000000000000000000000000000000600082015250565b6000613e9f6009836137e2565b9150613eaa82613e69565b602082019050919050565b60006020820190508181036000830152613ece81613e92565b9050919050565b7f4e487b7100000000000000000000000000000000000000000000000000000000600052603260045260246000fd5b6000604082019050613f196000830185613bc5565b613f266020830184613333565b9392505050565b7f4e487b7100000000000000000000000000000000000000000000000000000000600052601160045260246000fd5b6000613f67826132bd565b91507fffffffffffffffffffffffffffffffffffffffffffffffffffffffffffffffff8203613f9957613f98613f2d565b5b600182019050919050565b7f4e487b7100000000000000000000000000000000000000000000000000000000600052602260045260246000fd5b60006002820490506001821680613feb57607f821691505b602082108103613ffe57613ffd613fa4565b5b50919050565b7f73656e646572206973206e6f74206f776e657220666f72207468697320746f6b60008201527f656e000000000000000000000000000000000000000000000000000000000000602082015250565b60006140606022836137e2565b915061406b82614004565b604082019050919050565b6000602082019050818103600083015261408f81614053565b9050919050565b60006140a1826132bd565b91506140ac836132bd565b92508282019050808211156140c4576140c3613f2d565b5b92915050565b7f6e657720737570706c7920776f756c6420657863656564206d61780000000000600082015250565b6000614100601b836137e2565b915061410b826140ca565b602082019050919050565b6000602082019050818103600083015261412f816140f3565b9050919050565b60008151905061414581613c2f565b92915050565b60006020828403121561416157614160613255565b5b600061416f84828501614136565b91505092915050565b600060408201905061418d6000830185613333565b61419a6020830184613333565b9392505050565b7f30206e6f7420616c6c6f77656400000000000000000000000000000000000000600082015250565b60006141d7600d836137e2565b91506141e2826141a1565b602082019050919050565b60006020820190508181036000830152614206816141ca565b9050919050565b6000819050919050565b600067ffffffffffffffff82169050919050565b6000819050919050565b600061425061424b6142468461420d565b61422b565b614217565b9050919050565b61426081614235565b82525050565b600060208201905061427b6000830184614257565b92915050565b7f6e6577206d6178696d756d20737570706c7920776f756c64206578636565642060008201527f3130303000000000000000000000000000000000000000000000000000000000602082015250565b60006142dd6024836137e2565b91506142e882614281565b604082019050919050565b6000602082019050818103600083015261430c816142d0565b9050919050565b7f617274697374206e6f742073657420666f72207468697320746f6b656e000000600082015250565b6000614349601d836137e2565b915061435482614313565b602082019050919050565b600060208201905081810360008301526143788161433c565b9050919050565b60008190508160005260206000209050919050565b60006020601f8301049050919050565b600082821b905092915050565b6000600883026143e17fffffffffffffffffffffffffffffffffffffffffffffffffffffffffffffffff826143a4565b6143eb86836143a4565b95508019841693508086168417925050509392505050565b600061441e614419614414846132bd565b61422b565b6132bd565b9050919050565b6000819050919050565b61443883614403565b61444c61444482614425565b8484546143b1565b825550505050565b600090565b614461614454565b61446c81848461442f565b505050565b5b8181101561449057614485600082614459565b600181019050614472565b5050565b601f8211156144d5576144a68161437f565b6144af84614394565b810160208510156144be578190505b6144d26144ca85614394565b830182614471565b50505b505050565b600082821c905092915050565b60006144f8600019846008026144da565b1980831691505092915050565b600061451183836144e7565b9150826002028217905092915050565b61452a826137d7565b67ffffffffffffffff81111561454357614542613433565b5b61454d8254613fd3565b614558828285614494565b600060209050601f83116001811461458b5760008415614579578287015190505b6145838582614505565b8655506145eb565b601f1984166145998661437f565b60005b828110156145c15784890151825560018201915060208501945060208101905061459c565b868310156145de57848901516145da601f8916826144e7565b8355505b6001600288020188555050505b505050505050565b60006040820190506146086000830185613bc5565b6146156020830184613bc5565b9392505050565b61462581613b91565b811461463057600080fd5b50565b6000815190506146428161461c565b92915050565b60006020828403121561465e5761465d613255565b5b600061466c84828501614633565b91505092915050565b600081519050919050565b600082825260208201905092915050565b600061469c82614675565b6146a68185614680565b93506146b68185602086016137f3565b6146bf81613422565b840191505092915050565b600060a0820190506146df6000830188613bc5565b6146ec6020830187613bc5565b6146f96040830186613333565b6147066060830185613333565b81810360808301526147188184614691565b90509695505050505050565b60008151905061473381613389565b92915050565b60006020828403121561474f5761474e613255565b5b600061475d84828501614724565b91505092915050565b600060a08201905061477b6000830188613bc5565b6147886020830187613bc5565b818103604083015261479a8186613ab5565b905081810360608301526147ae8185613ab5565b905081810360808301526147c28184614691565b90509695505050505050565b600081905092915050565b60006147e482614675565b6147ee81856147ce565b93506147fe8185602086016137f3565b80840191505092915050565b600061481682846147d9565b915081905092915050565b60006080820190506148366000830187613bc5565b6148436020830186613333565b6148506040830185613333565b61485d6060830184613333565b95945050505050565b600060408201905081810360008301526148808185613ab5565b905081810360208301526148948184613ab5565b9050939250505056fea26469706673582212203b58cd0c0c28308fd991d3826cabeed5c38182e9fb2b173edf2e0197b31cf34164736f6c63430008140033","opcodes":"PUSH1 0xA0 PUSH1 0x40 MSTORE ADDRESS PUSH20 0xFFFFFFFFFFFFFFFFFFFFFFFFFFFFFFFFFFFFFFFF AND PUSH1 0x80 SWAP1 PUSH20 0xFFFFFFFFFFFFFFFFFFFFFFFFFFFFFFFFFFFFFFFF AND DUP2 MSTORE POP CALLVALUE DUP1 ISZERO PUSH2 0x43 JUMPI PUSH1 0x0 DUP1 REVERT JUMPDEST POP PUSH1 0x80 MLOAD PUSH2 0x48D3 PUSH2 0x6D PUSH1 0x0 CODECOPY PUSH1 0x0 DUP2 DUP2 PUSH2 0x1B87 ADD MSTORE DUP2 DUP2 PUSH2 0x1BDC ADD MSTORE PUSH2 0x1D97 ADD MSTORE PUSH2 0x48D3 PUSH1 0x0 RETURN INVALID PUSH1 0x80 PUSH1 0x40 MSTORE PUSH1 0x4 CALLDATASIZE LT PUSH2 0x1D7 JUMPI PUSH1 0x0 CALLDATALOAD PUSH1 0xE0 SHR DUP1 PUSH4 0x52D1902D GT PUSH2 0x102 JUMPI DUP1 PUSH4 0xBB625509 GT PUSH2 0x95 JUMPI DUP1 PUSH4 0xE985E9C5 GT PUSH2 0x64 JUMPI DUP1 PUSH4 0xE985E9C5 EQ PUSH2 0x6CC JUMPI DUP1 PUSH4 0xF242432A EQ PUSH2 0x709 JUMPI DUP1 PUSH4 0xF2FDE38B EQ PUSH2 0x732 JUMPI DUP1 PUSH4 0xFBE0A892 EQ PUSH2 0x75B JUMPI PUSH2 0x1D7 JUMP JUMPDEST DUP1 PUSH4 0xBB625509 EQ PUSH2 0x614 JUMPI DUP1 PUSH4 0xBD85B039 EQ PUSH2 0x63D JUMPI DUP1 PUSH4 0xC36497E5 EQ PUSH2 0x67A JUMPI DUP1 PUSH4 0xD00E40CE EQ PUSH2 0x6A3 JUMPI PUSH2 0x1D7 JUMP JUMPDEST DUP1 PUSH4 0x8DA5CB5B GT PUSH2 0xD1 JUMPI DUP1 PUSH4 0x8DA5CB5B EQ PUSH2 0x56C JUMPI DUP1 PUSH4 0x9ECA4B7B EQ PUSH2 0x597 JUMPI DUP1 PUSH4 0xA22CB465 EQ PUSH2 0x5C0 JUMPI DUP1 PUSH4 0xAD3CB1CC EQ PUSH2 0x5E9 JUMPI PUSH2 0x1D7 JUMP JUMPDEST DUP1 PUSH4 0x52D1902D EQ PUSH2 0x4C4 JUMPI DUP1 PUSH4 0x70480275 EQ PUSH2 0x4EF JUMPI DUP1 PUSH4 0x715018A6 EQ PUSH2 0x518 JUMPI DUP1 PUSH4 0x831FFD05 EQ PUSH2 0x52F JUMPI PUSH2 0x1D7 JUMP JUMPDEST DUP1 PUSH4 0x18160DDD GT PUSH2 0x17A JUMPI DUP1 PUSH4 0x429B62E5 GT PUSH2 0x149 JUMPI DUP1 PUSH4 0x429B62E5 EQ PUSH2 0x3F1 JUMPI DUP1 PUSH4 0x4E1273F4 EQ PUSH2 0x42E JUMPI DUP1 PUSH4 0x4F1EF286 EQ PUSH2 0x46B JUMPI DUP1 PUSH4 0x4F558E79 EQ PUSH2 0x487 JUMPI PUSH2 0x1D7 JUMP JUMPDEST DUP1 PUSH4 0x18160DDD EQ PUSH2 0x337 JUMPI DUP1 PUSH4 0x1B2EF1CA EQ PUSH2 0x362 JUMPI DUP1 PUSH4 0x24D7806C EQ PUSH2 0x38B JUMPI DUP1 PUSH4 0x2EB2C2D6 EQ PUSH2 0x3C8 JUMPI PUSH2 0x1D7 JUMP JUMPDEST DUP1 PUSH4 0x6DD0419 GT PUSH2 0x1B6 JUMPI DUP1 PUSH4 0x6DD0419 EQ PUSH2 0x27F JUMPI DUP1 PUSH4 0x77D9234 EQ PUSH2 0x2A8 JUMPI DUP1 PUSH4 0xE89341C EQ PUSH2 0x2D1 JUMPI DUP1 PUSH4 0x1785F53C EQ PUSH2 0x30E JUMPI PUSH2 0x1D7 JUMP JUMPDEST DUP1 PUSH3 0xFDD58E EQ PUSH2 0x1DC JUMPI DUP1 PUSH4 0x1FFC9A7 EQ PUSH2 0x219 JUMPI DUP1 PUSH4 0x2FE5305 EQ PUSH2 0x256 JUMPI JUMPDEST PUSH1 0x0 DUP1 REVERT JUMPDEST CALLVALUE DUP1 ISZERO PUSH2 0x1E8 JUMPI PUSH1 0x0 DUP1 REVERT JUMPDEST POP PUSH2 0x203 PUSH1 0x4 DUP1 CALLDATASIZE SUB DUP2 ADD SWAP1 PUSH2 0x1FE SWAP2 SWAP1 PUSH2 0x32F3 JUMP JUMPDEST PUSH2 0x798 JUMP JUMPDEST PUSH1 0x40 MLOAD PUSH2 0x210 SWAP2 SWAP1 PUSH2 0x3342 JUMP JUMPDEST PUSH1 0x40 MLOAD DUP1 SWAP2 SUB SWAP1 RETURN JUMPDEST CALLVALUE DUP1 ISZERO PUSH2 0x225 JUMPI PUSH1 0x0 DUP1 REVERT JUMPDEST POP PUSH2 0x240 PUSH1 0x4 DUP1 CALLDATASIZE SUB DUP2 ADD SWAP1 PUSH2 0x23B SWAP2 SWAP1 PUSH2 0x33B5 JUMP JUMPDEST PUSH2 0x801 JUMP JUMPDEST PUSH1 0x40 MLOAD PUSH2 0x24D SWAP2 SWAP1 PUSH2 0x33FD JUMP JUMPDEST PUSH1 0x40 MLOAD DUP1 SWAP2 SUB SWAP1 RETURN JUMPDEST CALLVALUE DUP1 ISZERO PUSH2 0x262 JUMPI PUSH1 0x0 DUP1 REVERT JUMPDEST POP PUSH2 0x27D PUSH1 0x4 DUP1 CALLDATASIZE SUB DUP2 ADD SWAP1 PUSH2 0x278 SWAP2 SWAP1 PUSH2 0x355E JUMP JUMPDEST PUSH2 0x83E JUMP JUMPDEST STOP JUMPDEST CALLVALUE DUP1 ISZERO PUSH2 0x28B JUMPI PUSH1 0x0 DUP1 REVERT JUMPDEST POP PUSH2 0x2A6 PUSH1 0x4 DUP1 CALLDATASIZE SUB DUP2 ADD SWAP1 PUSH2 0x2A1 SWAP2 SWAP1 PUSH2 0x32F3 JUMP JUMPDEST PUSH2 0x852 JUMP JUMPDEST STOP JUMPDEST CALLVALUE DUP1 ISZERO PUSH2 0x2B4 JUMPI PUSH1 0x0 DUP1 REVERT JUMPDEST POP PUSH2 0x2CF PUSH1 0x4 DUP1 CALLDATASIZE SUB DUP2 ADD SWAP1 PUSH2 0x2CA SWAP2 SWAP1 PUSH2 0x3732 JUMP JUMPDEST PUSH2 0x8ED JUMP JUMPDEST STOP JUMPDEST CALLVALUE DUP1 ISZERO PUSH2 0x2DD JUMPI PUSH1 0x0 DUP1 REVERT JUMPDEST POP PUSH2 0x2F8 PUSH1 0x4 DUP1 CALLDATASIZE SUB DUP2 ADD SWAP1 PUSH2 0x2F3 SWAP2 SWAP1 PUSH2 0x37AA JUMP JUMPDEST PUSH2 0x9B2 JUMP JUMPDEST PUSH1 0x40 MLOAD PUSH2 0x305 SWAP2 SWAP1 PUSH2 0x3856 JUMP JUMPDEST PUSH1 0x40 MLOAD DUP1 SWAP2 SUB SWAP1 RETURN JUMPDEST CALLVALUE DUP1 ISZERO PUSH2 0x31A JUMPI PUSH1 0x0 DUP1 REVERT JUMPDEST POP PUSH2 0x335 PUSH1 0x4 DUP1 CALLDATASIZE SUB DUP2 ADD SWAP1 PUSH2 0x330 SWAP2 SWAP1 PUSH2 0x3878 JUMP JUMPDEST PUSH2 0xA55 JUMP JUMPDEST STOP JUMPDEST CALLVALUE DUP1 ISZERO PUSH2 0x343 JUMPI PUSH1 0x0 DUP1 REVERT JUMPDEST POP PUSH2 0x34C PUSH2 0xAAE JUMP JUMPDEST PUSH1 0x40 MLOAD PUSH2 0x359 SWAP2 SWAP1 PUSH2 0x3342 JUMP JUMPDEST PUSH1 0x40 MLOAD DUP1 SWAP2 SUB SWAP1 RETURN JUMPDEST CALLVALUE DUP1 ISZERO PUSH2 0x36E JUMPI PUSH1 0x0 DUP1 REVERT JUMPDEST POP PUSH2 0x389 PUSH1 0x4 DUP1 CALLDATASIZE SUB DUP2 ADD SWAP1 PUSH2 0x384 SWAP2 SWAP1 PUSH2 0x38A5 JUMP JUMPDEST PUSH2 0xAC6 JUMP JUMPDEST STOP JUMPDEST CALLVALUE DUP1 ISZERO PUSH2 0x397 JUMPI PUSH1 0x0 DUP1 REVERT JUMPDEST POP PUSH2 0x3B2 PUSH1 0x4 DUP1 CALLDATASIZE SUB DUP2 ADD SWAP1 PUSH2 0x3AD SWAP2 SWAP1 PUSH2 0x3878 JUMP JUMPDEST PUSH2 0xC22 JUMP JUMPDEST PUSH1 0x40 MLOAD PUSH2 0x3BF SWAP2 SWAP1 PUSH2 0x33FD JUMP JUMPDEST PUSH1 0x40 MLOAD DUP1 SWAP2 SUB SWAP1 RETURN JUMPDEST CALLVALUE DUP1 ISZERO PUSH2 0x3D4 JUMPI PUSH1 0x0 DUP1 REVERT JUMPDEST POP PUSH2 0x3EF PUSH1 0x4 DUP1 CALLDATASIZE SUB DUP2 ADD SWAP1 PUSH2 0x3EA SWAP2 SWAP1 PUSH2 0x3986 JUMP JUMPDEST PUSH2 0xC7E JUMP JUMPDEST STOP JUMPDEST CALLVALUE DUP1 ISZERO PUSH2 0x3FD JUMPI PUSH1 0x0 DUP1 REVERT JUMPDEST POP PUSH2 0x418 PUSH1 0x4 DUP1 CALLDATASIZE SUB DUP2 ADD SWAP1 PUSH2 0x413 SWAP2 SWAP1 PUSH2 0x3878 JUMP JUMPDEST PUSH2 0xD4B JUMP JUMPDEST PUSH1 0x40 MLOAD PUSH2 0x425 SWAP2 SWAP1 PUSH2 0x33FD JUMP JUMPDEST PUSH1 0x40 MLOAD DUP1 SWAP2 SUB SWAP1 RETURN JUMPDEST CALLVALUE DUP1 ISZERO PUSH2 0x43A JUMPI PUSH1 0x0 DUP1 REVERT JUMPDEST POP PUSH2 0x455 PUSH1 0x4 DUP1 CALLDATASIZE SUB DUP2 ADD SWAP1 PUSH2 0x450 SWAP2 SWAP1 PUSH2 0x3732 JUMP JUMPDEST PUSH2 0xD6B JUMP JUMPDEST PUSH1 0x40 MLOAD PUSH2 0x462 SWAP2 SWAP1 PUSH2 0x3B13 JUMP JUMPDEST PUSH1 0x40 MLOAD DUP1 SWAP2 SUB SWAP1 RETURN JUMPDEST PUSH2 0x485 PUSH1 0x4 DUP1 CALLDATASIZE SUB DUP2 ADD SWAP1 PUSH2 0x480 SWAP2 SWAP1 PUSH2 0x3B35 JUMP JUMPDEST PUSH2 0xE7A JUMP JUMPDEST STOP JUMPDEST CALLVALUE DUP1 ISZERO PUSH2 0x493 JUMPI PUSH1 0x0 DUP1 REVERT JUMPDEST POP PUSH2 0x4AE PUSH1 0x4 DUP1 CALLDATASIZE SUB DUP2 ADD SWAP1 PUSH2 0x4A9 SWAP2 SWAP1 PUSH2 0x37AA JUMP JUMPDEST PUSH2 0xE99 JUMP JUMPDEST PUSH1 0x40 MLOAD PUSH2 0x4BB SWAP2 SWAP1 PUSH2 0x33FD JUMP JUMPDEST PUSH1 0x40 MLOAD DUP1 SWAP2 SUB SWAP1 RETURN JUMPDEST CALLVALUE DUP1 ISZERO PUSH2 0x4D0 JUMPI PUSH1 0x0 DUP1 REVERT JUMPDEST POP PUSH2 0x4D9 PUSH2 0xEAD JUMP JUMPDEST PUSH1 0x40 MLOAD PUSH2 0x4E6 SWAP2 SWAP1 PUSH2 0x3BAA JUMP JUMPDEST PUSH1 0x40 MLOAD DUP1 SWAP2 SUB SWAP1 RETURN JUMPDEST CALLVALUE DUP1 ISZERO PUSH2 0x4FB JUMPI PUSH1 0x0 DUP1 REVERT JUMPDEST POP PUSH2 0x516 PUSH1 0x4 DUP1 CALLDATASIZE SUB DUP2 ADD SWAP1 PUSH2 0x511 SWAP2 SWAP1 PUSH2 0x3878 JUMP JUMPDEST PUSH2 0xEE0 JUMP JUMPDEST STOP JUMPDEST CALLVALUE DUP1 ISZERO PUSH2 0x524 JUMPI PUSH1 0x0 DUP1 REVERT JUMPDEST POP PUSH2 0x52D PUSH2 0xF42 JUMP JUMPDEST STOP JUMPDEST CALLVALUE DUP1 ISZERO PUSH2 0x53B JUMPI PUSH1 0x0 DUP1 REVERT JUMPDEST POP PUSH2 0x556 PUSH1 0x4 DUP1 CALLDATASIZE SUB DUP2 ADD SWAP1 PUSH2 0x551 SWAP2 SWAP1 PUSH2 0x37AA JUMP JUMPDEST PUSH2 0xF56 JUMP JUMPDEST PUSH1 0x40 MLOAD PUSH2 0x563 SWAP2 SWAP1 PUSH2 0x3BD4 JUMP JUMPDEST PUSH1 0x40 MLOAD DUP1 SWAP2 SUB SWAP1 RETURN JUMPDEST CALLVALUE DUP1 ISZERO PUSH2 0x578 JUMPI PUSH1 0x0 DUP1 REVERT JUMPDEST POP PUSH2 0x581 PUSH2 0xF89 JUMP JUMPDEST PUSH1 0x40 MLOAD PUSH2 0x58E SWAP2 SWAP1 PUSH2 0x3BD4 JUMP JUMPDEST PUSH1 0x40 MLOAD DUP1 SWAP2 SUB SWAP1 RETURN JUMPDEST CALLVALUE DUP1 ISZERO PUSH2 0x5A3 JUMPI PUSH1 0x0 DUP1 REVERT JUMPDEST POP PUSH2 0x5BE PUSH1 0x4 DUP1 CALLDATASIZE SUB DUP2 ADD SWAP1 PUSH2 0x5B9 SWAP2 SWAP1 PUSH2 0x3BEF JUMP JUMPDEST PUSH2 0xFC1 JUMP JUMPDEST STOP JUMPDEST CALLVALUE DUP1 ISZERO PUSH2 0x5CC JUMPI PUSH1 0x0 DUP1 REVERT JUMPDEST POP PUSH2 0x5E7 PUSH1 0x4 DUP1 CALLDATASIZE SUB DUP2 ADD SWAP1 PUSH2 0x5E2 SWAP2 SWAP1 PUSH2 0x3C5B JUMP JUMPDEST PUSH2 0x10E5 JUMP JUMPDEST STOP JUMPDEST CALLVALUE DUP1 ISZERO PUSH2 0x5F5 JUMPI PUSH1 0x0 DUP1 REVERT JUMPDEST POP PUSH2 0x5FE PUSH2 0x10F3 JUMP JUMPDEST PUSH1 0x40 MLOAD PUSH2 0x60B SWAP2 SWAP1 PUSH2 0x3856 JUMP JUMPDEST PUSH1 0x40 MLOAD DUP1 SWAP2 SUB SWAP1 RETURN JUMPDEST CALLVALUE DUP1 ISZERO PUSH2 0x620 JUMPI PUSH1 0x0 DUP1 REVERT JUMPDEST POP PUSH2 0x63B PUSH1 0x4 DUP1 CALLDATASIZE SUB DUP2 ADD SWAP1 PUSH2 0x636 SWAP2 SWAP1 PUSH2 0x3C9B JUMP JUMPDEST PUSH2 0x112C JUMP JUMPDEST STOP JUMPDEST CALLVALUE DUP1 ISZERO PUSH2 0x649 JUMPI PUSH1 0x0 DUP1 REVERT JUMPDEST POP PUSH2 0x664 PUSH1 0x4 DUP1 CALLDATASIZE SUB DUP2 ADD SWAP1 PUSH2 0x65F SWAP2 SWAP1 PUSH2 0x37AA JUMP JUMPDEST PUSH2 0x1367 JUMP JUMPDEST PUSH1 0x40 MLOAD PUSH2 0x671 SWAP2 SWAP1 PUSH2 0x3342 JUMP JUMPDEST PUSH1 0x40 MLOAD DUP1 SWAP2 SUB SWAP1 RETURN JUMPDEST CALLVALUE DUP1 ISZERO PUSH2 0x686 JUMPI PUSH1 0x0 DUP1 REVERT JUMPDEST POP PUSH2 0x6A1 PUSH1 0x4 DUP1 CALLDATASIZE SUB DUP2 ADD SWAP1 PUSH2 0x69C SWAP2 SWAP1 PUSH2 0x38A5 JUMP JUMPDEST PUSH2 0x1392 JUMP JUMPDEST STOP JUMPDEST CALLVALUE DUP1 ISZERO PUSH2 0x6AF JUMPI PUSH1 0x0 DUP1 REVERT JUMPDEST POP PUSH2 0x6CA PUSH1 0x4 DUP1 CALLDATASIZE SUB DUP2 ADD SWAP1 PUSH2 0x6C5 SWAP2 SWAP1 PUSH2 0x38A5 JUMP JUMPDEST PUSH2 0x14BA JUMP JUMPDEST STOP JUMPDEST CALLVALUE DUP1 ISZERO PUSH2 0x6D8 JUMPI PUSH1 0x0 DUP1 REVERT JUMPDEST POP PUSH2 0x6F3 PUSH1 0x4 DUP1 CALLDATASIZE SUB DUP2 ADD SWAP1 PUSH2 0x6EE SWAP2 SWAP1 PUSH2 0x3D26 JUMP JUMPDEST PUSH2 0x16A2 JUMP JUMPDEST PUSH1 0x40 MLOAD PUSH2 0x700 SWAP2 SWAP1 PUSH2 0x33FD JUMP JUMPDEST PUSH1 0x40 MLOAD DUP1 SWAP2 SUB SWAP1 RETURN JUMPDEST CALLVALUE DUP1 ISZERO PUSH2 0x715 JUMPI PUSH1 0x0 DUP1 REVERT JUMPDEST POP PUSH2 0x730 PUSH1 0x4 DUP1 CALLDATASIZE SUB DUP2 ADD SWAP1 PUSH2 0x72B SWAP2 SWAP1 PUSH2 0x3D66 JUMP JUMPDEST PUSH2 0x1711 JUMP JUMPDEST STOP JUMPDEST CALLVALUE DUP1 ISZERO PUSH2 0x73E JUMPI PUSH1 0x0 DUP1 REVERT JUMPDEST POP PUSH2 0x759 PUSH1 0x4 DUP1 CALLDATASIZE SUB DUP2 ADD SWAP1 PUSH2 0x754 SWAP2 SWAP1 PUSH2 0x3878 JUMP JUMPDEST PUSH2 0x17DE JUMP JUMPDEST STOP JUMPDEST CALLVALUE DUP1 ISZERO PUSH2 0x767 JUMPI PUSH1 0x0 DUP1 REVERT JUMPDEST POP PUSH2 0x782 PUSH1 0x4 DUP1 CALLDATASIZE SUB DUP2 ADD SWAP1 PUSH2 0x77D SWAP2 SWAP1 PUSH2 0x37AA JUMP JUMPDEST PUSH2 0x1864 JUMP JUMPDEST PUSH1 0x40 MLOAD PUSH2 0x78F SWAP2 SWAP1 PUSH2 0x3342 JUMP JUMPDEST PUSH1 0x40 MLOAD DUP1 SWAP2 SUB SWAP1 RETURN JUMPDEST PUSH1 0x0 DUP1 PUSH2 0x7A3 PUSH2 0x187C JUMP JUMPDEST SWAP1 POP DUP1 PUSH1 0x0 ADD PUSH1 0x0 DUP5 DUP2 MSTORE PUSH1 0x20 ADD SWAP1 DUP2 MSTORE PUSH1 0x20 ADD PUSH1 0x0 KECCAK256 PUSH1 0x0 DUP6 PUSH20 0xFFFFFFFFFFFFFFFFFFFFFFFFFFFFFFFFFFFFFFFF AND PUSH20 0xFFFFFFFFFFFFFFFFFFFFFFFFFFFFFFFFFFFFFFFF AND DUP2 MSTORE PUSH1 0x20 ADD SWAP1 DUP2 MSTORE PUSH1 0x20 ADD PUSH1 0x0 KECCAK256 SLOAD SWAP2 POP POP SWAP3 SWAP2 POP POP JUMP JUMPDEST PUSH1 0x0 PUSH1 0x40 MLOAD PUSH32 0x8C379A000000000000000000000000000000000000000000000000000000000 DUP2 MSTORE PUSH1 0x4 ADD PUSH2 0x835 SWAP1 PUSH2 0x3E49 JUMP JUMPDEST PUSH1 0x40 MLOAD DUP1 SWAP2 SUB SWAP1 REVERT JUMPDEST PUSH2 0x846 PUSH2 0x18A4 JUMP JUMPDEST PUSH2 0x84F DUP2 PUSH2 0x192B JUMP JUMPDEST POP JUMP JUMPDEST PUSH1 0x0 DUP1 CALLER PUSH20 0xFFFFFFFFFFFFFFFFFFFFFFFFFFFFFFFFFFFFFFFF AND PUSH20 0xFFFFFFFFFFFFFFFFFFFFFFFFFFFFFFFFFFFFFFFF AND DUP2 MSTORE PUSH1 0x20 ADD SWAP1 DUP2 MSTORE PUSH1 0x20 ADD PUSH1 0x0 KECCAK256 PUSH1 0x0 SWAP1 SLOAD SWAP1 PUSH2 0x100 EXP SWAP1 DIV PUSH1 0xFF AND PUSH2 0x8DD JUMPI PUSH1 0x40 MLOAD PUSH32 0x8C379A000000000000000000000000000000000000000000000000000000000 DUP2 MSTORE PUSH1 0x4 ADD PUSH2 0x8D4 SWAP1 PUSH2 0x3EB5 JUMP JUMPDEST PUSH1 0x40 MLOAD DUP1 SWAP2 SUB SWAP1 REVERT JUMPDEST PUSH2 0x8E9 DUP3 DUP3 PUSH1 0x1 PUSH2 0x194D JUMP JUMPDEST POP POP JUMP JUMPDEST PUSH1 0x0 JUMPDEST DUP3 MLOAD DUP2 LT ISZERO PUSH2 0x9AD JUMPI ADDRESS PUSH20 0xFFFFFFFFFFFFFFFFFFFFFFFFFFFFFFFFFFFFFFFF AND PUSH4 0x6DD0419 DUP5 DUP4 DUP2 MLOAD DUP2 LT PUSH2 0x928 JUMPI PUSH2 0x927 PUSH2 0x3ED5 JUMP JUMPDEST JUMPDEST PUSH1 0x20 MUL PUSH1 0x20 ADD ADD MLOAD DUP5 DUP5 DUP2 MLOAD DUP2 LT PUSH2 0x943 JUMPI PUSH2 0x942 PUSH2 0x3ED5 JUMP JUMPDEST JUMPDEST PUSH1 0x20 MUL PUSH1 0x20 ADD ADD MLOAD PUSH1 0x40 MLOAD DUP4 PUSH4 0xFFFFFFFF AND PUSH1 0xE0 SHL DUP2 MSTORE PUSH1 0x4 ADD PUSH2 0x968 SWAP3 SWAP2 SWAP1 PUSH2 0x3F04 JUMP JUMPDEST PUSH1 0x0 PUSH1 0x40 MLOAD DUP1 DUP4 SUB DUP2 PUSH1 0x0 DUP8 DUP1 EXTCODESIZE ISZERO DUP1 ISZERO PUSH2 0x982 JUMPI PUSH1 0x0 DUP1 REVERT JUMPDEST POP GAS CALL ISZERO DUP1 ISZERO PUSH2 0x996 JUMPI RETURNDATASIZE PUSH1 0x0 DUP1 RETURNDATACOPY RETURNDATASIZE PUSH1 0x0 REVERT JUMPDEST POP POP POP POP DUP1 DUP1 PUSH2 0x9A5 SWAP1 PUSH2 0x3F5C JUMP JUMPDEST SWAP2 POP POP PUSH2 0x8F0 JUMP JUMPDEST POP POP POP JUMP JUMPDEST PUSH1 0x60 PUSH1 0x0 PUSH2 0x9BE PUSH2 0x187C JUMP JUMPDEST SWAP1 POP DUP1 PUSH1 0x2 ADD DUP1 SLOAD PUSH2 0x9CF SWAP1 PUSH2 0x3FD3 JUMP JUMPDEST DUP1 PUSH1 0x1F ADD PUSH1 0x20 DUP1 SWAP2 DIV MUL PUSH1 0x20 ADD PUSH1 0x40 MLOAD SWAP1 DUP2 ADD PUSH1 0x40 MSTORE DUP1 SWAP3 SWAP2 SWAP1 DUP2 DUP2 MSTORE PUSH1 0x20 ADD DUP3 DUP1 SLOAD PUSH2 0x9FB SWAP1 PUSH2 0x3FD3 JUMP JUMPDEST DUP1 ISZERO PUSH2 0xA48 JUMPI DUP1 PUSH1 0x1F LT PUSH2 0xA1D JUMPI PUSH2 0x100 DUP1 DUP4 SLOAD DIV MUL DUP4 MSTORE SWAP2 PUSH1 0x20 ADD SWAP2 PUSH2 0xA48 JUMP JUMPDEST DUP3 ADD SWAP2 SWAP1 PUSH1 0x0 MSTORE PUSH1 0x20 PUSH1 0x0 KECCAK256 SWAP1 JUMPDEST DUP2 SLOAD DUP2 MSTORE SWAP1 PUSH1 0x1 ADD SWAP1 PUSH1 0x20 ADD DUP1 DUP4 GT PUSH2 0xA2B JUMPI DUP3 SWAP1 SUB PUSH1 0x1F AND DUP3 ADD SWAP2 JUMPDEST POP POP POP POP POP SWAP2 POP POP SWAP2 SWAP1 POP JUMP JUMPDEST PUSH2 0xA5D PUSH2 0x18A4 JUMP JUMPDEST PUSH1 0x0 DUP1 DUP3 PUSH20 0xFFFFFFFFFFFFFFFFFFFFFFFFFFFFFFFFFFFFFFFF AND PUSH20 0xFFFFFFFFFFFFFFFFFFFFFFFFFFFFFFFFFFFFFFFF AND DUP2 MSTORE PUSH1 0x20 ADD SWAP1 DUP2 MSTORE PUSH1 0x20 ADD PUSH1 0x0 KECCAK256 PUSH1 0x0 PUSH2 0x100 EXP DUP2 SLOAD SWAP1 PUSH1 0xFF MUL NOT AND SWAP1 SSTORE POP JUMP JUMPDEST PUSH1 0x0 DUP1 PUSH2 0xAB9 PUSH2 0x19F4 JUMP JUMPDEST SWAP1 POP DUP1 PUSH1 0x1 ADD SLOAD SWAP2 POP POP SWAP1 JUMP JUMPDEST CALLER PUSH20 0xFFFFFFFFFFFFFFFFFFFFFFFFFFFFFFFFFFFFFFFF AND PUSH1 0x1 PUSH1 0x0 DUP5 DUP2 MSTORE PUSH1 0x20 ADD SWAP1 DUP2 MSTORE PUSH1 0x20 ADD PUSH1 0x0 KECCAK256 PUSH1 0x0 SWAP1 SLOAD SWAP1 PUSH2 0x100 EXP SWAP1 DIV PUSH20 0xFFFFFFFFFFFFFFFFFFFFFFFFFFFFFFFFFFFFFFFF AND PUSH20 0xFFFFFFFFFFFFFFFFFFFFFFFFFFFFFFFFFFFFFFFF AND EQ PUSH2 0xB67 JUMPI PUSH1 0x40 MLOAD PUSH32 0x8C379A000000000000000000000000000000000000000000000000000000000 DUP2 MSTORE PUSH1 0x4 ADD PUSH2 0xB5E SWAP1 PUSH2 0x4076 JUMP JUMPDEST PUSH1 0x40 MLOAD DUP1 SWAP2 SUB SWAP1 REVERT JUMPDEST PUSH1 0x2 PUSH1 0x0 DUP4 DUP2 MSTORE PUSH1 0x20 ADD SWAP1 DUP2 MSTORE PUSH1 0x20 ADD PUSH1 0x0 KECCAK256 SLOAD DUP2 PUSH2 0xB85 DUP5 PUSH2 0x1367 JUMP JUMPDEST PUSH2 0xB8F SWAP2 SWAP1 PUSH2 0x4096 JUMP JUMPDEST GT ISZERO PUSH2 0xBD0 JUMPI PUSH1 0x40 MLOAD PUSH32 0x8C379A000000000000000000000000000000000000000000000000000000000 DUP2 MSTORE PUSH1 0x4 ADD PUSH2 0xBC7 SWAP1 PUSH2 0x4116 JUMP JUMPDEST PUSH1 0x40 MLOAD DUP1 SWAP2 SUB SWAP1 REVERT JUMPDEST PUSH2 0xC1E PUSH1 0x1 PUSH1 0x0 DUP5 DUP2 MSTORE PUSH1 0x20 ADD SWAP1 DUP2 MSTORE PUSH1 0x20 ADD PUSH1 0x0 KECCAK256 PUSH1 0x0 SWAP1 SLOAD SWAP1 PUSH2 0x100 EXP SWAP1 DIV PUSH20 0xFFFFFFFFFFFFFFFFFFFFFFFFFFFFFFFFFFFFFFFF AND DUP4 DUP4 PUSH1 0x40 MLOAD DUP1 PUSH1 0x20 ADD PUSH1 0x40 MSTORE DUP1 PUSH1 0x0 DUP2 MSTORE POP PUSH2 0x1A1C JUMP JUMPDEST POP POP JUMP JUMPDEST PUSH1 0x0 PUSH1 0x1 ISZERO ISZERO PUSH1 0x0 DUP1 DUP5 PUSH20 0xFFFFFFFFFFFFFFFFFFFFFFFFFFFFFFFFFFFFFFFF AND PUSH20 0xFFFFFFFFFFFFFFFFFFFFFFFFFFFFFFFFFFFFFFFF AND DUP2 MSTORE PUSH1 0x20 ADD SWAP1 DUP2 MSTORE PUSH1 0x20 ADD PUSH1 0x0 KECCAK256 PUSH1 0x0 SWAP1 SLOAD SWAP1 PUSH2 0x100 EXP SWAP1 DIV PUSH1 0xFF AND ISZERO ISZERO EQ SWAP1 POP SWAP2 SWAP1 POP JUMP JUMPDEST ADDRESS PUSH20 0xFFFFFFFFFFFFFFFFFFFFFFFFFFFFFFFFFFFFFFFF AND PUSH4 0x24D7806C CALLER PUSH1 0x40 MLOAD DUP3 PUSH4 0xFFFFFFFF AND PUSH1 0xE0 SHL DUP2 MSTORE PUSH1 0x4 ADD PUSH2 0xCB7 SWAP2 SWAP1 PUSH2 0x3BD4 JUMP JUMPDEST PUSH1 0x20 PUSH1 0x40 MLOAD DUP1 DUP4 SUB DUP2 DUP7 GAS STATICCALL ISZERO DUP1 ISZERO PUSH2 0xCD4 JUMPI RETURNDATASIZE PUSH1 0x0 DUP1 RETURNDATACOPY RETURNDATASIZE PUSH1 0x0 REVERT JUMPDEST POP POP POP POP PUSH1 0x40 MLOAD RETURNDATASIZE PUSH1 0x1F NOT PUSH1 0x1F DUP3 ADD AND DUP3 ADD DUP1 PUSH1 0x40 MSTORE POP DUP2 ADD SWAP1 PUSH2 0xCF8 SWAP2 SWAP1 PUSH2 0x414B JUMP JUMPDEST PUSH2 0xD37 JUMPI PUSH1 0x40 MLOAD PUSH32 0x8C379A000000000000000000000000000000000000000000000000000000000 DUP2 MSTORE PUSH1 0x4 ADD PUSH2 0xD2E SWAP1 PUSH2 0x3EB5 JUMP JUMPDEST PUSH1 0x40 MLOAD DUP1 SWAP2 SUB SWAP1 REVERT JUMPDEST PUSH2 0xD44 DUP6 DUP6 DUP6 DUP6 DUP6 PUSH2 0x1AB5 JUMP JUMPDEST POP POP POP POP POP JUMP JUMPDEST PUSH1 0x0 PUSH1 0x20 MSTORE DUP1 PUSH1 0x0 MSTORE PUSH1 0x40 PUSH1 0x0 KECCAK256 PUSH1 0x0 SWAP2 POP SLOAD SWAP1 PUSH2 0x100 EXP SWAP1 DIV PUSH1 0xFF AND DUP2 JUMP JUMPDEST PUSH1 0x60 DUP2 MLOAD DUP4 MLOAD EQ PUSH2 0xDB7 JUMPI DUP2 MLOAD DUP4 MLOAD PUSH1 0x40 MLOAD PUSH32 0x5B05999100000000000000000000000000000000000000000000000000000000 DUP2 MSTORE PUSH1 0x4 ADD PUSH2 0xDAE SWAP3 SWAP2 SWAP1 PUSH2 0x4178 JUMP JUMPDEST PUSH1 0x40 MLOAD DUP1 SWAP2 SUB SWAP1 REVERT JUMPDEST PUSH1 0x0 DUP4 MLOAD PUSH8 0xFFFFFFFFFFFFFFFF DUP2 GT ISZERO PUSH2 0xDD4 JUMPI PUSH2 0xDD3 PUSH2 0x3433 JUMP JUMPDEST JUMPDEST PUSH1 0x40 MLOAD SWAP1 DUP1 DUP3 MSTORE DUP1 PUSH1 0x20 MUL PUSH1 0x20 ADD DUP3 ADD PUSH1 0x40 MSTORE DUP1 ISZERO PUSH2 0xE02 JUMPI DUP2 PUSH1 0x20 ADD PUSH1 0x20 DUP3 MUL DUP1 CALLDATASIZE DUP4 CALLDATACOPY DUP1 DUP3 ADD SWAP2 POP POP SWAP1 POP JUMPDEST POP SWAP1 POP PUSH1 0x0 JUMPDEST DUP5 MLOAD DUP2 LT ISZERO PUSH2 0xE6F JUMPI PUSH2 0xE3F PUSH2 0xE27 DUP3 DUP8 PUSH2 0x1B5D SWAP1 SWAP2 SWAP1 PUSH4 0xFFFFFFFF AND JUMP JUMPDEST PUSH2 0xE3A DUP4 DUP8 PUSH2 0x1B71 SWAP1 SWAP2 SWAP1 PUSH4 0xFFFFFFFF AND JUMP JUMPDEST PUSH2 0x798 JUMP JUMPDEST DUP3 DUP3 DUP2 MLOAD DUP2 LT PUSH2 0xE52 JUMPI PUSH2 0xE51 PUSH2 0x3ED5 JUMP JUMPDEST JUMPDEST PUSH1 0x20 MUL PUSH1 0x20 ADD ADD DUP2 DUP2 MSTORE POP POP DUP1 PUSH2 0xE68 SWAP1 PUSH2 0x3F5C JUMP JUMPDEST SWAP1 POP PUSH2 0xE08 JUMP JUMPDEST POP DUP1 SWAP2 POP POP SWAP3 SWAP2 POP POP JUMP JUMPDEST PUSH2 0xE82 PUSH2 0x1B85 JUMP JUMPDEST PUSH2 0xE8B DUP3 PUSH2 0x1C6B JUMP JUMPDEST PUSH2 0xE95 DUP3 DUP3 PUSH2 0x1C76 JUMP JUMPDEST POP POP JUMP JUMPDEST PUSH1 0x0 DUP1 PUSH2 0xEA5 DUP4 PUSH2 0x1367 JUMP JUMPDEST GT SWAP1 POP SWAP2 SWAP1 POP JUMP JUMPDEST PUSH1 0x0 PUSH2 0xEB7 PUSH2 0x1D95 JUMP JUMPDEST PUSH32 0x360894A13BA1A3210667C828492DB98DCA3E2076CC3735A920A3CA505D382BBC PUSH1 0x0 SHL SWAP1 POP SWAP1 JUMP JUMPDEST PUSH2 0xEE8 PUSH2 0x18A4 JUMP JUMPDEST PUSH1 0x1 PUSH1 0x0 DUP1 DUP4 PUSH20 0xFFFFFFFFFFFFFFFFFFFFFFFFFFFFFFFFFFFFFFFF AND PUSH20 0xFFFFFFFFFFFFFFFFFFFFFFFFFFFFFFFFFFFFFFFF AND DUP2 MSTORE PUSH1 0x20 ADD SWAP1 DUP2 MSTORE PUSH1 0x20 ADD PUSH1 0x0 KECCAK256 PUSH1 0x0 PUSH2 0x100 EXP DUP2 SLOAD DUP2 PUSH1 0xFF MUL NOT AND SWAP1 DUP4 ISZERO ISZERO MUL OR SWAP1 SSTORE POP POP JUMP JUMPDEST PUSH2 0xF4A PUSH2 0x18A4 JUMP JUMPDEST PUSH2 0xF54 PUSH1 0x0 PUSH2 0x1E1C JUMP JUMPDEST JUMP JUMPDEST PUSH1 0x1 PUSH1 0x20 MSTORE DUP1 PUSH1 0x0 MSTORE PUSH1 0x40 PUSH1 0x0 KECCAK256 PUSH1 0x0 SWAP2 POP SLOAD SWAP1 PUSH2 0x100 EXP SWAP1 DIV PUSH20 0xFFFFFFFFFFFFFFFFFFFFFFFFFFFFFFFFFFFFFFFF AND DUP2 JUMP JUMPDEST PUSH1 0x0 DUP1 PUSH2 0xF94 PUSH2 0x1EF3 JUMP JUMPDEST SWAP1 POP DUP1 PUSH1 0x0 ADD PUSH1 0x0 SWAP1 SLOAD SWAP1 PUSH2 0x100 EXP SWAP1 DIV PUSH20 0xFFFFFFFFFFFFFFFFFFFFFFFFFFFFFFFFFFFFFFFF AND SWAP2 POP POP SWAP1 JUMP JUMPDEST PUSH1 0x0 DUP1 CALLER PUSH20 0xFFFFFFFFFFFFFFFFFFFFFFFFFFFFFFFFFFFFFFFF AND PUSH20 0xFFFFFFFFFFFFFFFFFFFFFFFFFFFFFFFFFFFFFFFF AND DUP2 MSTORE PUSH1 0x20 ADD SWAP1 DUP2 MSTORE PUSH1 0x20 ADD PUSH1 0x0 KECCAK256 PUSH1 0x0 SWAP1 SLOAD SWAP1 PUSH2 0x100 EXP SWAP1 DIV PUSH1 0xFF AND PUSH2 0x104C JUMPI PUSH1 0x40 MLOAD PUSH32 0x8C379A000000000000000000000000000000000000000000000000000000000 DUP2 MSTORE PUSH1 0x4 ADD PUSH2 0x1043 SWAP1 PUSH2 0x3EB5 JUMP JUMPDEST PUSH1 0x40 MLOAD DUP1 SWAP2 SUB SWAP1 REVERT JUMPDEST PUSH1 0x0 DUP3 SUB PUSH2 0x108F JUMPI PUSH1 0x40 MLOAD PUSH32 0x8C379A000000000000000000000000000000000000000000000000000000000 DUP2 MSTORE PUSH1 0x4 ADD PUSH2 0x1086 SWAP1 PUSH2 0x41ED JUMP JUMPDEST PUSH1 0x40 MLOAD DUP1 SWAP2 SUB SWAP1 REVERT JUMPDEST DUP1 PUSH1 0x1 PUSH1 0x0 DUP5 DUP2 MSTORE PUSH1 0x20 ADD SWAP1 DUP2 MSTORE PUSH1 0x20 ADD PUSH1 0x0 KECCAK256 PUSH1 0x0 PUSH2 0x100 EXP DUP2 SLOAD DUP2 PUSH20 0xFFFFFFFFFFFFFFFFFFFFFFFFFFFFFFFFFFFFFFFF MUL NOT AND SWAP1 DUP4 PUSH20 0xFFFFFFFFFFFFFFFFFFFFFFFFFFFFFFFFFFFFFFFF AND MUL OR SWAP1 SSTORE POP POP POP JUMP JUMPDEST PUSH2 0x10EF DUP3 DUP3 PUSH2 0x1F1B JUMP JUMPDEST POP POP JUMP JUMPDEST PUSH1 0x40 MLOAD DUP1 PUSH1 0x40 ADD PUSH1 0x40 MSTORE DUP1 PUSH1 0x5 DUP2 MSTORE PUSH1 0x20 ADD PUSH32 0x352E302E30000000000000000000000000000000000000000000000000000000 DUP2 MSTORE POP DUP2 JUMP JUMPDEST PUSH1 0x0 PUSH2 0x1136 PUSH2 0x1F31 JUMP JUMPDEST SWAP1 POP PUSH1 0x0 DUP2 PUSH1 0x0 ADD PUSH1 0x8 SWAP1 SLOAD SWAP1 PUSH2 0x100 EXP SWAP1 DIV PUSH1 0xFF AND ISZERO SWAP1 POP PUSH1 0x0 DUP3 PUSH1 0x0 ADD PUSH1 0x0 SWAP1 SLOAD SWAP1 PUSH2 0x100 EXP SWAP1 DIV PUSH8 0xFFFFFFFFFFFFFFFF AND SWAP1 POP PUSH1 0x0 DUP1 DUP3 PUSH8 0xFFFFFFFFFFFFFFFF AND EQ DUP1 ISZERO PUSH2 0x1184 JUMPI POP DUP3 JUMPDEST SWAP1 POP PUSH1 0x0 PUSH1 0x1 DUP4 PUSH8 0xFFFFFFFFFFFFFFFF AND EQ DUP1 ISZERO PUSH2 0x11B9 JUMPI POP PUSH1 0x0 ADDRESS PUSH20 0xFFFFFFFFFFFFFFFFFFFFFFFFFFFFFFFFFFFFFFFF AND EXTCODESIZE EQ JUMPDEST SWAP1 POP DUP2 ISZERO DUP1 ISZERO PUSH2 0x11C7 JUMPI POP DUP1 ISZERO JUMPDEST ISZERO PUSH2 0x11FE JUMPI PUSH1 0x40 MLOAD PUSH32 0xF92EE8A900000000000000000000000000000000000000000000000000000000 DUP2 MSTORE PUSH1 0x4 ADD PUSH1 0x40 MLOAD DUP1 SWAP2 SUB SWAP1 REVERT JUMPDEST PUSH1 0x1 DUP6 PUSH1 0x0 ADD PUSH1 0x0 PUSH2 0x100 EXP DUP2 SLOAD DUP2 PUSH8 0xFFFFFFFFFFFFFFFF MUL NOT AND SWAP1 DUP4 PUSH8 0xFFFFFFFFFFFFFFFF AND MUL OR SWAP1 SSTORE POP DUP4 ISZERO PUSH2 0x124E JUMPI PUSH1 0x1 DUP6 PUSH1 0x0 ADD PUSH1 0x8 PUSH2 0x100 EXP DUP2 SLOAD DUP2 PUSH1 0xFF MUL NOT AND SWAP1 DUP4 ISZERO ISZERO MUL OR SWAP1 SSTORE POP JUMPDEST PUSH2 0x1256 PUSH2 0x1F59 JUMP JUMPDEST PUSH2 0x125F DUP9 PUSH2 0x1F63 JUMP JUMPDEST PUSH2 0x1267 PUSH2 0x1F77 JUMP JUMPDEST PUSH2 0x1270 DUP7 PUSH2 0x192B JUMP JUMPDEST PUSH1 0x0 JUMPDEST DUP8 MLOAD DUP2 LT ISZERO PUSH2 0x1300 JUMPI PUSH1 0x1 PUSH1 0x0 DUP1 DUP11 DUP5 DUP2 MLOAD DUP2 LT PUSH2 0x1294 JUMPI PUSH2 0x1293 PUSH2 0x3ED5 JUMP JUMPDEST JUMPDEST PUSH1 0x20 MUL PUSH1 0x20 ADD ADD MLOAD PUSH20 0xFFFFFFFFFFFFFFFFFFFFFFFFFFFFFFFFFFFFFFFF AND PUSH20 0xFFFFFFFFFFFFFFFFFFFFFFFFFFFFFFFFFFFFFFFF AND DUP2 MSTORE PUSH1 0x20 ADD SWAP1 DUP2 MSTORE PUSH1 0x20 ADD PUSH1 0x0 KECCAK256 PUSH1 0x0 PUSH2 0x100 EXP DUP2 SLOAD DUP2 PUSH1 0xFF MUL NOT AND SWAP1 DUP4 ISZERO ISZERO MUL OR SWAP1 SSTORE POP DUP1 DUP1 PUSH2 0x12F8 SWAP1 PUSH2 0x3F5C JUMP JUMPDEST SWAP2 POP POP PUSH2 0x1273 JUMP JUMPDEST POP DUP4 ISZERO PUSH2 0x135D JUMPI PUSH1 0x0 DUP6 PUSH1 0x0 ADD PUSH1 0x8 PUSH2 0x100 EXP DUP2 SLOAD DUP2 PUSH1 0xFF MUL NOT AND SWAP1 DUP4 ISZERO ISZERO MUL OR SWAP1 SSTORE POP PUSH32 0xC7F505B2F371AE2175EE4913F4499E1F2633A7B5936321EED1CDAEB6115181D2 PUSH1 0x1 PUSH1 0x40 MLOAD PUSH2 0x1354 SWAP2 SWAP1 PUSH2 0x4266 JUMP JUMPDEST PUSH1 0x40 MLOAD DUP1 SWAP2 SUB SWAP1 LOG1 JUMPDEST POP POP POP POP POP POP POP POP JUMP JUMPDEST PUSH1 0x0 DUP1 PUSH2 0x1372 PUSH2 0x19F4 JUMP JUMPDEST SWAP1 POP DUP1 PUSH1 0x0 ADD PUSH1 0x0 DUP5 DUP2 MSTORE PUSH1 0x20 ADD SWAP1 DUP2 MSTORE PUSH1 0x20 ADD PUSH1 0x0 KECCAK256 SLOAD SWAP2 POP POP SWAP2 SWAP1 POP JUMP JUMPDEST PUSH1 0x0 DUP1 CALLER PUSH20 0xFFFFFFFFFFFFFFFFFFFFFFFFFFFFFFFFFFFFFFFF AND PUSH20 0xFFFFFFFFFFFFFFFFFFFFFFFFFFFFFFFFFFFFFFFF AND DUP2 MSTORE PUSH1 0x20 ADD SWAP1 DUP2 MSTORE PUSH1 0x20 ADD PUSH1 0x0 KECCAK256 PUSH1 0x0 SWAP1 SLOAD SWAP1 PUSH2 0x100 EXP SWAP1 DIV PUSH1 0xFF AND PUSH2 0x141D JUMPI PUSH1 0x40 MLOAD PUSH32 0x8C379A000000000000000000000000000000000000000000000000000000000 DUP2 MSTORE PUSH1 0x4 ADD PUSH2 0x1414 SWAP1 PUSH2 0x3EB5 JUMP JUMPDEST PUSH1 0x40 MLOAD DUP1 SWAP2 SUB SWAP1 REVERT JUMPDEST PUSH2 0x3E8 DUP2 PUSH1 0x2 PUSH1 0x0 DUP6 DUP2 MSTORE PUSH1 0x20 ADD SWAP1 DUP2 MSTORE PUSH1 0x20 ADD PUSH1 0x0 KECCAK256 SLOAD PUSH2 0x143F SWAP2 SWAP1 PUSH2 0x4096 JUMP JUMPDEST GT ISZERO PUSH2 0x1480 JUMPI PUSH1 0x40 MLOAD PUSH32 0x8C379A000000000000000000000000000000000000000000000000000000000 DUP2 MSTORE PUSH1 0x4 ADD PUSH2 0x1477 SWAP1 PUSH2 0x42F3 JUMP JUMPDEST PUSH1 0x40 MLOAD DUP1 SWAP2 SUB SWAP1 REVERT JUMPDEST DUP1 PUSH1 0x2 PUSH1 0x0 DUP5 DUP2 MSTORE PUSH1 0x20 ADD SWAP1 DUP2 MSTORE PUSH1 0x20 ADD PUSH1 0x0 KECCAK256 SLOAD PUSH2 0x149F SWAP2 SWAP1 PUSH2 0x4096 JUMP JUMPDEST PUSH1 0x2 PUSH1 0x0 DUP5 DUP2 MSTORE PUSH1 0x20 ADD SWAP1 DUP2 MSTORE PUSH1 0x20 ADD PUSH1 0x0 KECCAK256 DUP2 SWAP1 SSTORE POP POP POP JUMP JUMPDEST PUSH1 0x0 DUP1 CALLER PUSH20 0xFFFFFFFFFFFFFFFFFFFFFFFFFFFFFFFFFFFFFFFF AND PUSH20 0xFFFFFFFFFFFFFFFFFFFFFFFFFFFFFFFFFFFFFFFF AND DUP2 MSTORE PUSH1 0x20 ADD SWAP1 DUP2 MSTORE PUSH1 0x20 ADD PUSH1 0x0 KECCAK256 PUSH1 0x0 SWAP1 SLOAD SWAP1 PUSH2 0x100 EXP SWAP1 DIV PUSH1 0xFF AND PUSH2 0x1545 JUMPI PUSH1 0x40 MLOAD PUSH32 0x8C379A000000000000000000000000000000000000000000000000000000000 DUP2 MSTORE PUSH1 0x4 ADD PUSH2 0x153C SWAP1 PUSH2 0x3EB5 JUMP JUMPDEST PUSH1 0x40 MLOAD DUP1 SWAP2 SUB SWAP1 REVERT JUMPDEST PUSH1 0x0 PUSH20 0xFFFFFFFFFFFFFFFFFFFFFFFFFFFFFFFFFFFFFFFF AND PUSH1 0x1 PUSH1 0x0 DUP5 DUP2 MSTORE PUSH1 0x20 ADD SWAP1 DUP2 MSTORE PUSH1 0x20 ADD PUSH1 0x0 KECCAK256 PUSH1 0x0 SWAP1 SLOAD SWAP1 PUSH2 0x100 EXP SWAP1 DIV PUSH20 0xFFFFFFFFFFFFFFFFFFFFFFFFFFFFFFFFFFFFFFFF AND PUSH20 0xFFFFFFFFFFFFFFFFFFFFFFFFFFFFFFFFFFFFFFFF AND SUB PUSH2 0x15E7 JUMPI PUSH1 0x40 MLOAD PUSH32 0x8C379A000000000000000000000000000000000000000000000000000000000 DUP2 MSTORE PUSH1 0x4 ADD PUSH2 0x15DE SWAP1 PUSH2 0x435F JUMP JUMPDEST PUSH1 0x40 MLOAD DUP1 SWAP2 SUB SWAP1 REVERT JUMPDEST PUSH1 0x2 PUSH1 0x0 DUP4 DUP2 MSTORE PUSH1 0x20 ADD SWAP1 DUP2 MSTORE PUSH1 0x20 ADD PUSH1 0x0 KECCAK256 SLOAD DUP2 PUSH2 0x1605 DUP5 PUSH2 0x1367 JUMP JUMPDEST PUSH2 0x160F SWAP2 SWAP1 PUSH2 0x4096 JUMP JUMPDEST GT ISZERO PUSH2 0x1650 JUMPI PUSH1 0x40 MLOAD PUSH32 0x8C379A000000000000000000000000000000000000000000000000000000000 DUP2 MSTORE PUSH1 0x4 ADD PUSH2 0x1647 SWAP1 PUSH2 0x4116 JUMP JUMPDEST PUSH1 0x40 MLOAD DUP1 SWAP2 SUB SWAP1 REVERT JUMPDEST PUSH2 0x169E PUSH1 0x1 PUSH1 0x0 DUP5 DUP2 MSTORE PUSH1 0x20 ADD SWAP1 DUP2 MSTORE PUSH1 0x20 ADD PUSH1 0x0 KECCAK256 PUSH1 0x0 SWAP1 SLOAD SWAP1 PUSH2 0x100 EXP SWAP1 DIV PUSH20 0xFFFFFFFFFFFFFFFFFFFFFFFFFFFFFFFFFFFFFFFF AND DUP4 DUP4 PUSH1 0x40 MLOAD DUP1 PUSH1 0x20 ADD PUSH1 0x40 MSTORE DUP1 PUSH1 0x0 DUP2 MSTORE POP PUSH2 0x1A1C JUMP JUMPDEST POP POP JUMP JUMPDEST PUSH1 0x0 DUP1 PUSH1 0x0 DUP4 PUSH20 0xFFFFFFFFFFFFFFFFFFFFFFFFFFFFFFFFFFFFFFFF AND PUSH20 0xFFFFFFFFFFFFFFFFFFFFFFFFFFFFFFFFFFFFFFFF AND DUP2 MSTORE PUSH1 0x20 ADD SWAP1 DUP2 MSTORE PUSH1 0x20 ADD PUSH1 0x0 KECCAK256 PUSH1 0x0 SWAP1 SLOAD SWAP1 PUSH2 0x100 EXP SWAP1 DIV PUSH1 0xFF AND ISZERO PUSH2 0x16FE JUMPI PUSH1 0x1 SWAP1 POP PUSH2 0x170B JUMP JUMPDEST PUSH2 0x1708 DUP4 DUP4 PUSH2 0x1F81 JUMP JUMPDEST SWAP1 POP JUMPDEST SWAP3 SWAP2 POP POP JUMP JUMPDEST ADDRESS PUSH20 0xFFFFFFFFFFFFFFFFFFFFFFFFFFFFFFFFFFFFFFFF AND PUSH4 0x24D7806C CALLER PUSH1 0x40 MLOAD DUP3 PUSH4 0xFFFFFFFF AND PUSH1 0xE0 SHL DUP2 MSTORE PUSH1 0x4 ADD PUSH2 0x174A SWAP2 SWAP1 PUSH2 0x3BD4 JUMP JUMPDEST PUSH1 0x20 PUSH1 0x40 MLOAD DUP1 DUP4 SUB DUP2 DUP7 GAS STATICCALL ISZERO DUP1 ISZERO PUSH2 0x1767 JUMPI RETURNDATASIZE PUSH1 0x0 DUP1 RETURNDATACOPY RETURNDATASIZE PUSH1 0x0 REVERT JUMPDEST POP POP POP POP PUSH1 0x40 MLOAD RETURNDATASIZE PUSH1 0x1F NOT PUSH1 0x1F DUP3 ADD AND DUP3 ADD DUP1 PUSH1 0x40 MSTORE POP DUP2 ADD SWAP1 PUSH2 0x178B SWAP2 SWAP1 PUSH2 0x414B JUMP JUMPDEST PUSH2 0x17CA JUMPI PUSH1 0x40 MLOAD PUSH32 0x8C379A000000000000000000000000000000000000000000000000000000000 DUP2 MSTORE PUSH1 0x4 ADD PUSH2 0x17C1 SWAP1 PUSH2 0x3EB5 JUMP JUMPDEST PUSH1 0x40 MLOAD DUP1 SWAP2 SUB SWAP1 REVERT JUMPDEST PUSH2 0x17D7 DUP6 DUP6 DUP6 DUP6 DUP6 PUSH2 0x2023 JUMP JUMPDEST POP POP POP POP POP JUMP JUMPDEST PUSH2 0x17E6 PUSH2 0x18A4 JUMP JUMPDEST PUSH1 0x0 PUSH20 0xFFFFFFFFFFFFFFFFFFFFFFFFFFFFFFFFFFFFFFFF AND DUP2 PUSH20 0xFFFFFFFFFFFFFFFFFFFFFFFFFFFFFFFFFFFFFFFF AND SUB PUSH2 0x1858 JUMPI PUSH1 0x0 PUSH1 0x40 MLOAD PUSH32 0x1E4FBDF700000000000000000000000000000000000000000000000000000000 DUP2 MSTORE PUSH1 0x4 ADD PUSH2 0x184F SWAP2 SWAP1 PUSH2 0x3BD4 JUMP JUMPDEST PUSH1 0x40 MLOAD DUP1 SWAP2 SUB SWAP1 REVERT JUMPDEST PUSH2 0x1861 DUP2 PUSH2 0x1E1C JUMP JUMPDEST POP JUMP JUMPDEST PUSH1 0x2 PUSH1 0x20 MSTORE DUP1 PUSH1 0x0 MSTORE PUSH1 0x40 PUSH1 0x0 KECCAK256 PUSH1 0x0 SWAP2 POP SWAP1 POP SLOAD DUP2 JUMP JUMPDEST PUSH1 0x0 PUSH32 0x88BE536D5240C274A3B1D3A1BE54482FD9CAA294F08C62A7CDE569F49A3C4500 SWAP1 POP SWAP1 JUMP JUMPDEST PUSH2 0x18AC PUSH2 0x20CB JUMP JUMPDEST PUSH20 0xFFFFFFFFFFFFFFFFFFFFFFFFFFFFFFFFFFFFFFFF AND PUSH2 0x18CA PUSH2 0xF89 JUMP JUMPDEST PUSH20 0xFFFFFFFFFFFFFFFFFFFFFFFFFFFFFFFFFFFFFFFF AND EQ PUSH2 0x1929 JUMPI PUSH2 0x18ED PUSH2 0x20CB JUMP JUMPDEST PUSH1 0x40 MLOAD PUSH32 0x118CDAA700000000000000000000000000000000000000000000000000000000 DUP2 MSTORE PUSH1 0x4 ADD PUSH2 0x1920 SWAP2 SWAP1 PUSH2 0x3BD4 JUMP JUMPDEST PUSH1 0x40 MLOAD DUP1 SWAP2 SUB SWAP1 REVERT JUMPDEST JUMP JUMPDEST PUSH1 0x0 PUSH2 0x1935 PUSH2 0x187C JUMP JUMPDEST SWAP1 POP DUP2 DUP2 PUSH1 0x2 ADD SWAP1 DUP2 PUSH2 0x1948 SWAP2 SWAP1 PUSH2 0x4521 JUMP JUMPDEST POP POP POP JUMP JUMPDEST PUSH1 0x0 PUSH20 0xFFFFFFFFFFFFFFFFFFFFFFFFFFFFFFFFFFFFFFFF AND DUP4 PUSH20 0xFFFFFFFFFFFFFFFFFFFFFFFFFFFFFFFFFFFFFFFF AND SUB PUSH2 0x19BF JUMPI PUSH1 0x0 PUSH1 0x40 MLOAD PUSH32 0x1A8351400000000000000000000000000000000000000000000000000000000 DUP2 MSTORE PUSH1 0x4 ADD PUSH2 0x19B6 SWAP2 SWAP1 PUSH2 0x3BD4 JUMP JUMPDEST PUSH1 0x40 MLOAD DUP1 SWAP2 SUB SWAP1 REVERT JUMPDEST PUSH1 0x0 DUP1 PUSH2 0x19CC DUP5 DUP5 PUSH2 0x20D3 JUMP JUMPDEST SWAP2 POP SWAP2 POP PUSH2 0x19ED DUP6 PUSH1 0x0 DUP5 DUP5 PUSH1 0x40 MLOAD DUP1 PUSH1 0x20 ADD PUSH1 0x40 MSTORE DUP1 PUSH1 0x0 DUP2 MSTORE POP PUSH2 0x2103 JUMP JUMPDEST POP POP POP POP POP JUMP JUMPDEST PUSH1 0x0 PUSH32 0x4A593662EE04D27B6A00EBB31BE7FE0C102C2ADE82A7C5D764F2DF05DC4E2800 SWAP1 POP SWAP1 JUMP JUMPDEST PUSH1 0x0 PUSH20 0xFFFFFFFFFFFFFFFFFFFFFFFFFFFFFFFFFFFFFFFF AND DUP5 PUSH20 0xFFFFFFFFFFFFFFFFFFFFFFFFFFFFFFFFFFFFFFFF AND SUB PUSH2 0x1A8E JUMPI PUSH1 0x0 PUSH1 0x40 MLOAD PUSH32 0x57F447CE00000000000000000000000000000000000000000000000000000000 DUP2 MSTORE PUSH1 0x4 ADD PUSH2 0x1A85 SWAP2 SWAP1 PUSH2 0x3BD4 JUMP JUMPDEST PUSH1 0x40 MLOAD DUP1 SWAP2 SUB SWAP1 REVERT JUMPDEST PUSH1 0x0 DUP1 PUSH2 0x1A9B DUP6 DUP6 PUSH2 0x20D3 JUMP JUMPDEST SWAP2 POP SWAP2 POP PUSH2 0x1AAD PUSH1 0x0 DUP8 DUP5 DUP5 DUP8 PUSH2 0x2103 JUMP JUMPDEST POP POP POP POP POP POP JUMP JUMPDEST PUSH1 0x0 PUSH2 0x1ABF PUSH2 0x20CB JUMP JUMPDEST SWAP1 POP DUP1 PUSH20 0xFFFFFFFFFFFFFFFFFFFFFFFFFFFFFFFFFFFFFFFF AND DUP7 PUSH20 0xFFFFFFFFFFFFFFFFFFFFFFFFFFFFFFFFFFFFFFFF AND EQ ISZERO DUP1 ISZERO PUSH2 0x1B04 JUMPI POP PUSH2 0x1B02 DUP7 DUP3 PUSH2 0x16A2 JUMP JUMPDEST ISZERO JUMPDEST ISZERO PUSH2 0x1B48 JUMPI DUP1 DUP7 PUSH1 0x40 MLOAD PUSH32 0xE237D92200000000000000000000000000000000000000000000000000000000 DUP2 MSTORE PUSH1 0x4 ADD PUSH2 0x1B3F SWAP3 SWAP2 SWAP1 PUSH2 0x45F3 JUMP JUMPDEST PUSH1 0x40 MLOAD DUP1 SWAP2 SUB SWAP1 REVERT JUMPDEST PUSH2 0x1B55 DUP7 DUP7 DUP7 DUP7 DUP7 PUSH2 0x21B5 JUMP JUMPDEST POP POP POP POP POP POP JUMP JUMPDEST PUSH1 0x0 PUSH1 0x20 DUP3 MUL PUSH1 0x20 DUP5 ADD ADD MLOAD SWAP1 POP SWAP3 SWAP2 POP POP JUMP JUMPDEST PUSH1 0x0 PUSH1 0x20 DUP3 MUL PUSH1 0x20 DUP5 ADD ADD MLOAD SWAP1 POP SWAP3 SWAP2 POP POP JUMP JUMPDEST PUSH32 0x0 PUSH20 0xFFFFFFFFFFFFFFFFFFFFFFFFFFFFFFFFFFFFFFFF AND ADDRESS PUSH20 0xFFFFFFFFFFFFFFFFFFFFFFFFFFFFFFFFFFFFFFFF AND EQ DUP1 PUSH2 0x1C32 JUMPI POP PUSH32 0x0 PUSH20 0xFFFFFFFFFFFFFFFFFFFFFFFFFFFFFFFFFFFFFFFF AND PUSH2 0x1C19 PUSH2 0x22AD JUMP JUMPDEST PUSH20 0xFFFFFFFFFFFFFFFFFFFFFFFFFFFFFFFFFFFFFFFF AND EQ ISZERO JUMPDEST ISZERO PUSH2 0x1C69 JUMPI PUSH1 0x40 MLOAD PUSH32 0xE07C8DBA00000000000000000000000000000000000000000000000000000000 DUP2 MSTORE PUSH1 0x4 ADD PUSH1 0x40 MLOAD DUP1 SWAP2 SUB SWAP1 REVERT JUMPDEST JUMP JUMPDEST PUSH2 0x1C73 PUSH2 0x18A4 JUMP JUMPDEST POP JUMP JUMPDEST DUP2 PUSH20 0xFFFFFFFFFFFFFFFFFFFFFFFFFFFFFFFFFFFFFFFF AND PUSH4 0x52D1902D PUSH1 0x40 MLOAD DUP2 PUSH4 0xFFFFFFFF AND PUSH1 0xE0 SHL DUP2 MSTORE PUSH1 0x4 ADD PUSH1 0x20 PUSH1 0x40 MLOAD DUP1 DUP4 SUB DUP2 DUP7 GAS STATICCALL SWAP3 POP POP POP DUP1 ISZERO PUSH2 0x1CDE JUMPI POP PUSH1 0x40 MLOAD RETURNDATASIZE PUSH1 0x1F NOT PUSH1 0x1F DUP3 ADD AND DUP3 ADD DUP1 PUSH1 0x40 MSTORE POP DUP2 ADD SWAP1 PUSH2 0x1CDB SWAP2 SWAP1 PUSH2 0x4648 JUMP JUMPDEST PUSH1 0x1 JUMPDEST PUSH2 0x1D1F JUMPI DUP2 PUSH1 0x40 MLOAD PUSH32 0x4C9C8CE300000000000000000000000000000000000000000000000000000000 DUP2 MSTORE PUSH1 0x4 ADD PUSH2 0x1D16 SWAP2 SWAP1 PUSH2 0x3BD4 JUMP JUMPDEST PUSH1 0x40 MLOAD DUP1 SWAP2 SUB SWAP1 REVERT JUMPDEST PUSH32 0x360894A13BA1A3210667C828492DB98DCA3E2076CC3735A920A3CA505D382BBC PUSH1 0x0 SHL DUP2 EQ PUSH2 0x1D86 JUMPI DUP1 PUSH1 0x40 MLOAD PUSH32 0xAA1D49A400000000000000000000000000000000000000000000000000000000 DUP2 MSTORE PUSH1 0x4 ADD PUSH2 0x1D7D SWAP2 SWAP1 PUSH2 0x3BAA JUMP JUMPDEST PUSH1 0x40 MLOAD DUP1 SWAP2 SUB SWAP1 REVERT JUMPDEST PUSH2 0x1D90 DUP4 DUP4 PUSH2 0x2304 JUMP JUMPDEST POP POP POP JUMP JUMPDEST PUSH32 0x0 PUSH20 0xFFFFFFFFFFFFFFFFFFFFFFFFFFFFFFFFFFFFFFFF AND ADDRESS PUSH20 0xFFFFFFFFFFFFFFFFFFFFFFFFFFFFFFFFFFFFFFFF AND EQ PUSH2 0x1E1A JUMPI PUSH1 0x40 MLOAD PUSH32 0xE07C8DBA00000000000000000000000000000000000000000000000000000000 DUP2 MSTORE PUSH1 0x4 ADD PUSH1 0x40 MLOAD DUP1 SWAP2 SUB SWAP1 REVERT JUMPDEST JUMP JUMPDEST PUSH1 0x0 PUSH2 0x1E26 PUSH2 0x1EF3 JUMP JUMPDEST SWAP1 POP PUSH1 0x0 DUP2 PUSH1 0x0 ADD PUSH1 0x0 SWAP1 SLOAD SWAP1 PUSH2 0x100 EXP SWAP1 DIV PUSH20 0xFFFFFFFFFFFFFFFFFFFFFFFFFFFFFFFFFFFFFFFF AND SWAP1 POP DUP3 DUP3 PUSH1 0x0 ADD PUSH1 0x0 PUSH2 0x100 EXP DUP2 SLOAD DUP2 PUSH20 0xFFFFFFFFFFFFFFFFFFFFFFFFFFFFFFFFFFFFFFFF MUL NOT AND SWAP1 DUP4 PUSH20 0xFFFFFFFFFFFFFFFFFFFFFFFFFFFFFFFFFFFFFFFF AND MUL OR SWAP1 SSTORE POP DUP3 PUSH20 0xFFFFFFFFFFFFFFFFFFFFFFFFFFFFFFFFFFFFFFFF AND DUP2 PUSH20 0xFFFFFFFFFFFFFFFFFFFFFFFFFFFFFFFFFFFFFFFF AND PUSH32 0x8BE0079C531659141344CD1FD0A4F28419497F9722A3DAAFE3B4186F6B6457E0 PUSH1 0x40 MLOAD PUSH1 0x40 MLOAD DUP1 SWAP2 SUB SWAP1 LOG3 POP POP POP JUMP JUMPDEST PUSH1 0x0 PUSH32 0x9016D09D72D40FDAE2FD8CEAC6B6234C7706214FD39C1CD1E609A0528C199300 SWAP1 POP SWAP1 JUMP JUMPDEST PUSH2 0x1F2D PUSH2 0x1F26 PUSH2 0x20CB JUMP JUMPDEST DUP4 DUP4 PUSH2 0x2377 JUMP JUMPDEST POP POP JUMP JUMPDEST PUSH1 0x0 PUSH32 0xF0C57E16840DF040F15088DC2F81FE391C3923BEC73E23A9662EFC9C229C6A00 SWAP1 POP SWAP1 JUMP JUMPDEST PUSH2 0x1F61 PUSH2 0x24F6 JUMP JUMPDEST JUMP JUMPDEST PUSH2 0x1F6B PUSH2 0x24F6 JUMP JUMPDEST PUSH2 0x1F74 DUP2 PUSH2 0x2536 JUMP JUMPDEST POP JUMP JUMPDEST PUSH2 0x1F7F PUSH2 0x24F6 JUMP JUMPDEST JUMP JUMPDEST PUSH1 0x0 DUP1 PUSH2 0x1F8C PUSH2 0x187C JUMP JUMPDEST SWAP1 POP DUP1 PUSH1 0x1 ADD PUSH1 0x0 DUP6 PUSH20 0xFFFFFFFFFFFFFFFFFFFFFFFFFFFFFFFFFFFFFFFF AND PUSH20 0xFFFFFFFFFFFFFFFFFFFFFFFFFFFFFFFFFFFFFFFF AND DUP2 MSTORE PUSH1 0x20 ADD SWAP1 DUP2 MSTORE PUSH1 0x20 ADD PUSH1 0x0 KECCAK256 PUSH1 0x0 DUP5 PUSH20 0xFFFFFFFFFFFFFFFFFFFFFFFFFFFFFFFFFFFFFFFF AND PUSH20 0xFFFFFFFFFFFFFFFFFFFFFFFFFFFFFFFFFFFFFFFF AND DUP2 MSTORE PUSH1 0x20 ADD SWAP1 DUP2 MSTORE PUSH1 0x20 ADD PUSH1 0x0 KECCAK256 PUSH1 0x0 SWAP1 SLOAD SWAP1 PUSH2 0x100 EXP SWAP1 DIV PUSH1 0xFF AND SWAP2 POP POP SWAP3 SWAP2 POP POP JUMP JUMPDEST PUSH1 0x0 PUSH2 0x202D PUSH2 0x20CB JUMP JUMPDEST SWAP1 POP DUP1 PUSH20 0xFFFFFFFFFFFFFFFFFFFFFFFFFFFFFFFFFFFFFFFF AND DUP7 PUSH20 0xFFFFFFFFFFFFFFFFFFFFFFFFFFFFFFFFFFFFFFFF AND EQ ISZERO DUP1 ISZERO PUSH2 0x2072 JUMPI POP PUSH2 0x2070 DUP7 DUP3 PUSH2 0x16A2 JUMP JUMPDEST ISZERO JUMPDEST ISZERO PUSH2 0x20B6 JUMPI DUP1 DUP7 PUSH1 0x40 MLOAD PUSH32 0xE237D92200000000000000000000000000000000000000000000000000000000 DUP2 MSTORE PUSH1 0x4 ADD PUSH2 0x20AD SWAP3 SWAP2 SWAP1 PUSH2 0x45F3 JUMP JUMPDEST PUSH1 0x40 MLOAD DUP1 SWAP2 SUB SWAP1 REVERT JUMPDEST PUSH2 0x20C3 DUP7 DUP7 DUP7 DUP7 DUP7 PUSH2 0x25BC JUMP JUMPDEST POP POP POP POP POP POP JUMP JUMPDEST PUSH1 0x0 CALLER SWAP1 POP SWAP1 JUMP JUMPDEST PUSH1 0x60 DUP1 PUSH1 0x40 MLOAD SWAP2 POP PUSH1 0x1 DUP3 MSTORE DUP4 PUSH1 0x20 DUP4 ADD MSTORE PUSH1 0x40 DUP3 ADD SWAP1 POP PUSH1 0x1 DUP2 MSTORE DUP3 PUSH1 0x20 DUP3 ADD MSTORE PUSH1 0x40 DUP2 ADD PUSH1 0x40 MSTORE SWAP3 POP SWAP3 SWAP1 POP JUMP JUMPDEST PUSH2 0x210F DUP6 DUP6 DUP6 DUP6 PUSH2 0x26C7 JUMP JUMPDEST PUSH1 0x0 PUSH20 0xFFFFFFFFFFFFFFFFFFFFFFFFFFFFFFFFFFFFFFFF AND DUP5 PUSH20 0xFFFFFFFFFFFFFFFFFFFFFFFFFFFFFFFFFFFFFFFF AND EQ PUSH2 0x21AE JUMPI PUSH1 0x0 PUSH2 0x214D PUSH2 0x20CB JUMP JUMPDEST SWAP1 POP PUSH1 0x1 DUP5 MLOAD SUB PUSH2 0x219D JUMPI PUSH1 0x0 PUSH2 0x216E PUSH1 0x0 DUP7 PUSH2 0x1B71 SWAP1 SWAP2 SWAP1 PUSH4 0xFFFFFFFF AND JUMP JUMPDEST SWAP1 POP PUSH1 0x0 PUSH2 0x2186 PUSH1 0x0 DUP7 PUSH2 0x1B71 SWAP1 SWAP2 SWAP1 PUSH4 0xFFFFFFFF AND JUMP JUMPDEST SWAP1 POP PUSH2 0x2196 DUP4 DUP10 DUP10 DUP6 DUP6 DUP10 PUSH2 0x2893 JUMP JUMPDEST POP POP PUSH2 0x21AC JUMP JUMPDEST PUSH2 0x21AB DUP2 DUP8 DUP8 DUP8 DUP8 DUP8 PUSH2 0x2A47 JUMP JUMPDEST JUMPDEST POP JUMPDEST POP POP POP POP POP JUMP JUMPDEST PUSH1 0x0 PUSH20 0xFFFFFFFFFFFFFFFFFFFFFFFFFFFFFFFFFFFFFFFF AND DUP5 PUSH20 0xFFFFFFFFFFFFFFFFFFFFFFFFFFFFFFFFFFFFFFFF AND SUB PUSH2 0x2227 JUMPI PUSH1 0x0 PUSH1 0x40 MLOAD PUSH32 0x57F447CE00000000000000000000000000000000000000000000000000000000 DUP2 MSTORE PUSH1 0x4 ADD PUSH2 0x221E SWAP2 SWAP1 PUSH2 0x3BD4 JUMP JUMPDEST PUSH1 0x40 MLOAD DUP1 SWAP2 SUB SWAP1 REVERT JUMPDEST PUSH1 0x0 PUSH20 0xFFFFFFFFFFFFFFFFFFFFFFFFFFFFFFFFFFFFFFFF AND DUP6 PUSH20 0xFFFFFFFFFFFFFFFFFFFFFFFFFFFFFFFFFFFFFFFF AND SUB PUSH2 0x2299 JUMPI PUSH1 0x0 PUSH1 0x40 MLOAD PUSH32 0x1A8351400000000000000000000000000000000000000000000000000000000 DUP2 MSTORE PUSH1 0x4 ADD PUSH2 0x2290 SWAP2 SWAP1 PUSH2 0x3BD4 JUMP JUMPDEST PUSH1 0x40 MLOAD DUP1 SWAP2 SUB SWAP1 REVERT JUMPDEST PUSH2 0x22A6 DUP6 DUP6 DUP6 DUP6 DUP6 PUSH2 0x2103 JUMP JUMPDEST POP POP POP POP POP JUMP JUMPDEST PUSH1 0x0 PUSH2 0x22DB PUSH32 0x360894A13BA1A3210667C828492DB98DCA3E2076CC3735A920A3CA505D382BBC PUSH1 0x0 SHL PUSH2 0x2BFB JUMP JUMPDEST PUSH1 0x0 ADD PUSH1 0x0 SWAP1 SLOAD SWAP1 PUSH2 0x100 EXP SWAP1 DIV PUSH20 0xFFFFFFFFFFFFFFFFFFFFFFFFFFFFFFFFFFFFFFFF AND SWAP1 POP SWAP1 JUMP JUMPDEST PUSH2 0x230D DUP3 PUSH2 0x2C05 JUMP JUMPDEST DUP2 PUSH20 0xFFFFFFFFFFFFFFFFFFFFFFFFFFFFFFFFFFFFFFFF AND PUSH32 0xBC7CD75A20EE27FD9ADEBAB32041F755214DBC6BFFA90CC0225B39DA2E5C2D3B PUSH1 0x40 MLOAD PUSH1 0x40 MLOAD DUP1 SWAP2 SUB SWAP1 LOG2 PUSH1 0x0 DUP2 MLOAD GT ISZERO PUSH2 0x236A JUMPI PUSH2 0x2364 DUP3 DUP3 PUSH2 0x2CD2 JUMP JUMPDEST POP PUSH2 0x2373 JUMP JUMPDEST PUSH2 0x2372 PUSH2 0x2D56 JUMP JUMPDEST JUMPDEST POP POP JUMP JUMPDEST PUSH1 0x0 PUSH2 0x2381 PUSH2 0x187C JUMP JUMPDEST SWAP1 POP PUSH1 0x0 PUSH20 0xFFFFFFFFFFFFFFFFFFFFFFFFFFFFFFFFFFFFFFFF AND DUP4 PUSH20 0xFFFFFFFFFFFFFFFFFFFFFFFFFFFFFFFFFFFFFFFF AND SUB PUSH2 0x23F5 JUMPI PUSH1 0x0 PUSH1 0x40 MLOAD PUSH32 0xCED3E10000000000000000000000000000000000000000000000000000000000 DUP2 MSTORE PUSH1 0x4 ADD PUSH2 0x23EC SWAP2 SWAP1 PUSH2 0x3BD4 JUMP JUMPDEST PUSH1 0x40 MLOAD DUP1 SWAP2 SUB SWAP1 REVERT JUMPDEST DUP2 DUP2 PUSH1 0x1 ADD PUSH1 0x0 DUP7 PUSH20 0xFFFFFFFFFFFFFFFFFFFFFFFFFFFFFFFFFFFFFFFF AND PUSH20 0xFFFFFFFFFFFFFFFFFFFFFFFFFFFFFFFFFFFFFFFF AND DUP2 MSTORE PUSH1 0x20 ADD SWAP1 DUP2 MSTORE PUSH1 0x20 ADD PUSH1 0x0 KECCAK256 PUSH1 0x0 DUP6 PUSH20 0xFFFFFFFFFFFFFFFFFFFFFFFFFFFFFFFFFFFFFFFF AND PUSH20 0xFFFFFFFFFFFFFFFFFFFFFFFFFFFFFFFFFFFFFFFF AND DUP2 MSTORE PUSH1 0x20 ADD SWAP1 DUP2 MSTORE PUSH1 0x20 ADD PUSH1 0x0 KECCAK256 PUSH1 0x0 PUSH2 0x100 EXP DUP2 SLOAD DUP2 PUSH1 0xFF MUL NOT AND SWAP1 DUP4 ISZERO ISZERO MUL OR SWAP1 SSTORE POP DUP3 PUSH20 0xFFFFFFFFFFFFFFFFFFFFFFFFFFFFFFFFFFFFFFFF AND DUP5 PUSH20 0xFFFFFFFFFFFFFFFFFFFFFFFFFFFFFFFFFFFFFFFF AND PUSH32 0x17307EAB39AB6107E8899845AD3D59BD9653F200F220920489CA2B5937696C31 DUP5 PUSH1 0x40 MLOAD PUSH2 0x24E8 SWAP2 SWAP1 PUSH2 0x33FD JUMP JUMPDEST PUSH1 0x40 MLOAD DUP1 SWAP2 SUB SWAP1 LOG3 POP POP POP POP JUMP JUMPDEST PUSH2 0x24FE PUSH2 0x2D93 JUMP JUMPDEST PUSH2 0x2534 JUMPI PUSH1 0x40 MLOAD PUSH32 0xD7E6BCF800000000000000000000000000000000000000000000000000000000 DUP2 MSTORE PUSH1 0x4 ADD PUSH1 0x40 MLOAD DUP1 SWAP2 SUB SWAP1 REVERT JUMPDEST JUMP JUMPDEST PUSH2 0x253E PUSH2 0x24F6 JUMP JUMPDEST PUSH1 0x0 PUSH20 0xFFFFFFFFFFFFFFFFFFFFFFFFFFFFFFFFFFFFFFFF AND DUP2 PUSH20 0xFFFFFFFFFFFFFFFFFFFFFFFFFFFFFFFFFFFFFFFF AND SUB PUSH2 0x25B0 JUMPI PUSH1 0x0 PUSH1 0x40 MLOAD PUSH32 0x1E4FBDF700000000000000000000000000000000000000000000000000000000 DUP2 MSTORE PUSH1 0x4 ADD PUSH2 0x25A7 SWAP2 SWAP1 PUSH2 0x3BD4 JUMP JUMPDEST PUSH1 0x40 MLOAD DUP1 SWAP2 SUB SWAP1 REVERT JUMPDEST PUSH2 0x25B9 DUP2 PUSH2 0x1E1C JUMP JUMPDEST POP JUMP JUMPDEST PUSH1 0x0 PUSH20 0xFFFFFFFFFFFFFFFFFFFFFFFFFFFFFFFFFFFFFFFF AND DUP5 PUSH20 0xFFFFFFFFFFFFFFFFFFFFFFFFFFFFFFFFFFFFFFFF AND SUB PUSH2 0x262E JUMPI PUSH1 0x0 PUSH1 0x40 MLOAD PUSH32 0x57F447CE00000000000000000000000000000000000000000000000000000000 DUP2 MSTORE PUSH1 0x4 ADD PUSH2 0x2625 SWAP2 SWAP1 PUSH2 0x3BD4 JUMP JUMPDEST PUSH1 0x40 MLOAD DUP1 SWAP2 SUB SWAP1 REVERT JUMPDEST PUSH1 0x0 PUSH20 0xFFFFFFFFFFFFFFFFFFFFFFFFFFFFFFFFFFFFFFFF AND DUP6 PUSH20 0xFFFFFFFFFFFFFFFFFFFFFFFFFFFFFFFFFFFFFFFF AND SUB PUSH2 0x26A0 JUMPI PUSH1 0x0 PUSH1 0x40 MLOAD PUSH32 0x1A8351400000000000000000000000000000000000000000000000000000000 DUP2 MSTORE PUSH1 0x4 ADD PUSH2 0x2697 SWAP2 SWAP1 PUSH2 0x3BD4 JUMP JUMPDEST PUSH1 0x40 MLOAD DUP1 SWAP2 SUB SWAP1 REVERT JUMPDEST PUSH1 0x0 DUP1 PUSH2 0x26AD DUP6 DUP6 PUSH2 0x20D3 JUMP JUMPDEST SWAP2 POP SWAP2 POP PUSH2 0x26BE DUP8 DUP8 DUP5 DUP5 DUP8 PUSH2 0x2103 JUMP JUMPDEST POP POP POP POP POP POP POP JUMP JUMPDEST PUSH1 0x0 PUSH2 0x26D1 PUSH2 0x19F4 JUMP JUMPDEST SWAP1 POP PUSH2 0x26DF DUP6 DUP6 DUP6 DUP6 PUSH2 0x2DB3 JUMP JUMPDEST PUSH1 0x0 PUSH20 0xFFFFFFFFFFFFFFFFFFFFFFFFFFFFFFFFFFFFFFFF AND DUP6 PUSH20 0xFFFFFFFFFFFFFFFFFFFFFFFFFFFFFFFFFFFFFFFF AND SUB PUSH2 0x27C3 JUMPI PUSH1 0x0 DUP1 JUMPDEST DUP5 MLOAD DUP2 LT ISZERO PUSH2 0x27A5 JUMPI PUSH1 0x0 DUP5 DUP3 DUP2 MLOAD DUP2 LT PUSH2 0x2735 JUMPI PUSH2 0x2734 PUSH2 0x3ED5 JUMP JUMPDEST JUMPDEST PUSH1 0x20 MUL PUSH1 0x20 ADD ADD MLOAD SWAP1 POP DUP1 DUP5 PUSH1 0x0 ADD PUSH1 0x0 DUP9 DUP6 DUP2 MLOAD DUP2 LT PUSH2 0x2759 JUMPI PUSH2 0x2758 PUSH2 0x3ED5 JUMP JUMPDEST JUMPDEST PUSH1 0x20 MUL PUSH1 0x20 ADD ADD MLOAD DUP2 MSTORE PUSH1 0x20 ADD SWAP1 DUP2 MSTORE PUSH1 0x20 ADD PUSH1 0x0 KECCAK256 PUSH1 0x0 DUP3 DUP3 SLOAD PUSH2 0x277E SWAP2 SWAP1 PUSH2 0x4096 JUMP JUMPDEST SWAP3 POP POP DUP2 SWAP1 SSTORE POP DUP1 DUP4 PUSH2 0x2791 SWAP2 SWAP1 PUSH2 0x4096 JUMP JUMPDEST SWAP3 POP POP DUP1 PUSH2 0x279E SWAP1 PUSH2 0x3F5C JUMP JUMPDEST SWAP1 POP PUSH2 0x2717 JUMP JUMPDEST POP DUP1 DUP3 PUSH1 0x1 ADD PUSH1 0x0 DUP3 DUP3 SLOAD PUSH2 0x27BA SWAP2 SWAP1 PUSH2 0x4096 JUMP JUMPDEST SWAP3 POP POP DUP2 SWAP1 SSTORE POP POP JUMPDEST PUSH1 0x0 PUSH20 0xFFFFFFFFFFFFFFFFFFFFFFFFFFFFFFFFFFFFFFFF AND DUP5 PUSH20 0xFFFFFFFFFFFFFFFFFFFFFFFFFFFFFFFFFFFFFFFF AND SUB PUSH2 0x288C JUMPI PUSH1 0x0 DUP1 JUMPDEST DUP5 MLOAD DUP2 LT ISZERO PUSH2 0x2877 JUMPI PUSH1 0x0 DUP5 DUP3 DUP2 MLOAD DUP2 LT PUSH2 0x2819 JUMPI PUSH2 0x2818 PUSH2 0x3ED5 JUMP JUMPDEST JUMPDEST PUSH1 0x20 MUL PUSH1 0x20 ADD ADD MLOAD SWAP1 POP DUP1 DUP5 PUSH1 0x0 ADD PUSH1 0x0 DUP9 DUP6 DUP2 MLOAD DUP2 LT PUSH2 0x283D JUMPI PUSH2 0x283C PUSH2 0x3ED5 JUMP JUMPDEST JUMPDEST PUSH1 0x20 MUL PUSH1 0x20 ADD ADD MLOAD DUP2 MSTORE PUSH1 0x20 ADD SWAP1 DUP2 MSTORE PUSH1 0x20 ADD PUSH1 0x0 KECCAK256 PUSH1 0x0 DUP3 DUP3 SLOAD SUB SWAP3 POP POP DUP2 SWAP1 SSTORE POP DUP1 DUP4 ADD SWAP3 POP POP DUP1 PUSH2 0x2870 SWAP1 PUSH2 0x3F5C JUMP JUMPDEST SWAP1 POP PUSH2 0x27FB JUMP JUMPDEST POP DUP1 DUP3 PUSH1 0x1 ADD PUSH1 0x0 DUP3 DUP3 SLOAD SUB SWAP3 POP POP DUP2 SWAP1 SSTORE POP POP JUMPDEST POP POP POP POP POP JUMP JUMPDEST PUSH1 0x0 DUP5 PUSH20 0xFFFFFFFFFFFFFFFFFFFFFFFFFFFFFFFFFFFFFFFF AND EXTCODESIZE GT ISZERO PUSH2 0x2A3F JUMPI DUP4 PUSH20 0xFFFFFFFFFFFFFFFFFFFFFFFFFFFFFFFFFFFFFFFF AND PUSH4 0xF23A6E61 DUP8 DUP8 DUP7 DUP7 DUP7 PUSH1 0x40 MLOAD DUP7 PUSH4 0xFFFFFFFF AND PUSH1 0xE0 SHL DUP2 MSTORE PUSH1 0x4 ADD PUSH2 0x28F4 SWAP6 SWAP5 SWAP4 SWAP3 SWAP2 SWAP1 PUSH2 0x46CA JUMP JUMPDEST PUSH1 0x20 PUSH1 0x40 MLOAD DUP1 DUP4 SUB DUP2 PUSH1 0x0 DUP8 GAS CALL SWAP3 POP POP POP DUP1 ISZERO PUSH2 0x2930 JUMPI POP PUSH1 0x40 MLOAD RETURNDATASIZE PUSH1 0x1F NOT PUSH1 0x1F DUP3 ADD AND DUP3 ADD DUP1 PUSH1 0x40 MSTORE POP DUP2 ADD SWAP1 PUSH2 0x292D SWAP2 SWAP1 PUSH2 0x4739 JUMP JUMPDEST PUSH1 0x1 JUMPDEST PUSH2 0x29B4 JUMPI RETURNDATASIZE DUP1 PUSH1 0x0 DUP2 EQ PUSH2 0x2960 JUMPI PUSH1 0x40 MLOAD SWAP2 POP PUSH1 0x1F NOT PUSH1 0x3F RETURNDATASIZE ADD AND DUP3 ADD PUSH1 0x40 MSTORE RETURNDATASIZE DUP3 MSTORE RETURNDATASIZE PUSH1 0x0 PUSH1 0x20 DUP5 ADD RETURNDATACOPY PUSH2 0x2965 JUMP JUMPDEST PUSH1 0x60 SWAP2 POP JUMPDEST POP PUSH1 0x0 DUP2 MLOAD SUB PUSH2 0x29AC JUMPI DUP5 PUSH1 0x40 MLOAD PUSH32 0x57F447CE00000000000000000000000000000000000000000000000000000000 DUP2 MSTORE PUSH1 0x4 ADD PUSH2 0x29A3 SWAP2 SWAP1 PUSH2 0x3BD4 JUMP JUMPDEST PUSH1 0x40 MLOAD DUP1 SWAP2 SUB SWAP1 REVERT JUMPDEST DUP1 MLOAD DUP2 PUSH1 0x20 ADD REVERT JUMPDEST PUSH4 0xF23A6E61 PUSH1 0xE0 SHL PUSH28 0xFFFFFFFFFFFFFFFFFFFFFFFFFFFFFFFFFFFFFFFFFFFFFFFFFFFFFFFF NOT AND DUP2 PUSH28 0xFFFFFFFFFFFFFFFFFFFFFFFFFFFFFFFFFFFFFFFFFFFFFFFFFFFFFFFF NOT AND EQ PUSH2 0x2A3D JUMPI DUP5 PUSH1 0x40 MLOAD PUSH32 0x57F447CE00000000000000000000000000000000000000000000000000000000 DUP2 MSTORE PUSH1 0x4 ADD PUSH2 0x2A34 SWAP2 SWAP1 PUSH2 0x3BD4 JUMP JUMPDEST PUSH1 0x40 MLOAD DUP1 SWAP2 SUB SWAP1 REVERT JUMPDEST POP JUMPDEST POP POP POP POP POP POP JUMP JUMPDEST PUSH1 0x0 DUP5 PUSH20 0xFFFFFFFFFFFFFFFFFFFFFFFFFFFFFFFFFFFFFFFF AND EXTCODESIZE GT ISZERO PUSH2 0x2BF3 JUMPI DUP4 PUSH20 0xFFFFFFFFFFFFFFFFFFFFFFFFFFFFFFFFFFFFFFFF AND PUSH4 0xBC197C81 DUP8 DUP8 DUP7 DUP7 DUP7 PUSH1 0x40 MLOAD DUP7 PUSH4 0xFFFFFFFF AND PUSH1 0xE0 SHL DUP2 MSTORE PUSH1 0x4 ADD PUSH2 0x2AA8 SWAP6 SWAP5 SWAP4 SWAP3 SWAP2 SWAP1 PUSH2 0x4766 JUMP JUMPDEST PUSH1 0x20 PUSH1 0x40 MLOAD DUP1 DUP4 SUB DUP2 PUSH1 0x0 DUP8 GAS CALL SWAP3 POP POP POP DUP1 ISZERO PUSH2 0x2AE4 JUMPI POP PUSH1 0x40 MLOAD RETURNDATASIZE PUSH1 0x1F NOT PUSH1 0x1F DUP3 ADD AND DUP3 ADD DUP1 PUSH1 0x40 MSTORE POP DUP2 ADD SWAP1 PUSH2 0x2AE1 SWAP2 SWAP1 PUSH2 0x4739 JUMP JUMPDEST PUSH1 0x1 JUMPDEST PUSH2 0x2B68 JUMPI RETURNDATASIZE DUP1 PUSH1 0x0 DUP2 EQ PUSH2 0x2B14 JUMPI PUSH1 0x40 MLOAD SWAP2 POP PUSH1 0x1F NOT PUSH1 0x3F RETURNDATASIZE ADD AND DUP3 ADD PUSH1 0x40 MSTORE RETURNDATASIZE DUP3 MSTORE RETURNDATASIZE PUSH1 0x0 PUSH1 0x20 DUP5 ADD RETURNDATACOPY PUSH2 0x2B19 JUMP JUMPDEST PUSH1 0x60 SWAP2 POP JUMPDEST POP PUSH1 0x0 DUP2 MLOAD SUB PUSH2 0x2B60 JUMPI DUP5 PUSH1 0x40 MLOAD PUSH32 0x57F447CE00000000000000000000000000000000000000000000000000000000 DUP2 MSTORE PUSH1 0x4 ADD PUSH2 0x2B57 SWAP2 SWAP1 PUSH2 0x3BD4 JUMP JUMPDEST PUSH1 0x40 MLOAD DUP1 SWAP2 SUB SWAP1 REVERT JUMPDEST DUP1 MLOAD DUP2 PUSH1 0x20 ADD REVERT JUMPDEST PUSH4 0xBC197C81 PUSH1 0xE0 SHL PUSH28 0xFFFFFFFFFFFFFFFFFFFFFFFFFFFFFFFFFFFFFFFFFFFFFFFFFFFFFFFF NOT AND DUP2 PUSH28 0xFFFFFFFFFFFFFFFFFFFFFFFFFFFFFFFFFFFFFFFFFFFFFFFFFFFFFFFF NOT AND EQ PUSH2 0x2BF1 JUMPI DUP5 PUSH1 0x40 MLOAD PUSH32 0x57F447CE00000000000000000000000000000000000000000000000000000000 DUP2 MSTORE PUSH1 0x4 ADD PUSH2 0x2BE8 SWAP2 SWAP1 PUSH2 0x3BD4 JUMP JUMPDEST PUSH1 0x40 MLOAD DUP1 SWAP2 SUB SWAP1 REVERT JUMPDEST POP JUMPDEST POP POP POP POP POP POP JUMP JUMPDEST PUSH1 0x0 DUP2 SWAP1 POP SWAP2 SWAP1 POP JUMP JUMPDEST PUSH1 0x0 DUP2 PUSH20 0xFFFFFFFFFFFFFFFFFFFFFFFFFFFFFFFFFFFFFFFF AND EXTCODESIZE SUB PUSH2 0x2C61 JUMPI DUP1 PUSH1 0x40 MLOAD PUSH32 0x4C9C8CE300000000000000000000000000000000000000000000000000000000 DUP2 MSTORE PUSH1 0x4 ADD PUSH2 0x2C58 SWAP2 SWAP1 PUSH2 0x3BD4 JUMP JUMPDEST PUSH1 0x40 MLOAD DUP1 SWAP2 SUB SWAP1 REVERT JUMPDEST DUP1 PUSH2 0x2C8E PUSH32 0x360894A13BA1A3210667C828492DB98DCA3E2076CC3735A920A3CA505D382BBC PUSH1 0x0 SHL PUSH2 0x2BFB JUMP JUMPDEST PUSH1 0x0 ADD PUSH1 0x0 PUSH2 0x100 EXP DUP2 SLOAD DUP2 PUSH20 0xFFFFFFFFFFFFFFFFFFFFFFFFFFFFFFFFFFFFFFFF MUL NOT AND SWAP1 DUP4 PUSH20 0xFFFFFFFFFFFFFFFFFFFFFFFFFFFFFFFFFFFFFFFF AND MUL OR SWAP1 SSTORE POP POP JUMP JUMPDEST PUSH1 0x60 PUSH1 0x0 DUP1 DUP5 PUSH20 0xFFFFFFFFFFFFFFFFFFFFFFFFFFFFFFFFFFFFFFFF AND DUP5 PUSH1 0x40 MLOAD PUSH2 0x2CFC SWAP2 SWAP1 PUSH2 0x480A JUMP JUMPDEST PUSH1 0x0 PUSH1 0x40 MLOAD DUP1 DUP4 SUB DUP2 DUP6 GAS DELEGATECALL SWAP2 POP POP RETURNDATASIZE DUP1 PUSH1 0x0 DUP2 EQ PUSH2 0x2D37 JUMPI PUSH1 0x40 MLOAD SWAP2 POP PUSH1 0x1F NOT PUSH1 0x3F RETURNDATASIZE ADD AND DUP3 ADD PUSH1 0x40 MSTORE RETURNDATASIZE DUP3 MSTORE RETURNDATASIZE PUSH1 0x0 PUSH1 0x20 DUP5 ADD RETURNDATACOPY PUSH2 0x2D3C JUMP JUMPDEST PUSH1 0x60 SWAP2 POP JUMPDEST POP SWAP2 POP SWAP2 POP PUSH2 0x2D4C DUP6 DUP4 DUP4 PUSH2 0x3177 JUMP JUMPDEST SWAP3 POP POP POP SWAP3 SWAP2 POP POP JUMP JUMPDEST PUSH1 0x0 CALLVALUE GT ISZERO PUSH2 0x2D91 JUMPI PUSH1 0x40 MLOAD PUSH32 0xB398979F00000000000000000000000000000000000000000000000000000000 DUP2 MSTORE PUSH1 0x4 ADD PUSH1 0x40 MLOAD DUP1 SWAP2 SUB SWAP1 REVERT JUMPDEST JUMP JUMPDEST PUSH1 0x0 PUSH2 0x2D9D PUSH2 0x1F31 JUMP JUMPDEST PUSH1 0x0 ADD PUSH1 0x8 SWAP1 SLOAD SWAP1 PUSH2 0x100 EXP SWAP1 DIV PUSH1 0xFF AND SWAP1 POP SWAP1 JUMP JUMPDEST PUSH1 0x0 PUSH2 0x2DBD PUSH2 0x187C JUMP JUMPDEST SWAP1 POP DUP2 MLOAD DUP4 MLOAD EQ PUSH2 0x2E09 JUMPI DUP3 MLOAD DUP3 MLOAD PUSH1 0x40 MLOAD PUSH32 0x5B05999100000000000000000000000000000000000000000000000000000000 DUP2 MSTORE PUSH1 0x4 ADD PUSH2 0x2E00 SWAP3 SWAP2 SWAP1 PUSH2 0x4178 JUMP JUMPDEST PUSH1 0x40 MLOAD DUP1 SWAP2 SUB SWAP1 REVERT JUMPDEST PUSH1 0x0 PUSH2 0x2E13 PUSH2 0x20CB JUMP JUMPDEST SWAP1 POP PUSH1 0x0 JUMPDEST DUP5 MLOAD DUP2 LT ISZERO PUSH2 0x3031 JUMPI PUSH1 0x0 PUSH2 0x2E36 DUP3 DUP8 PUSH2 0x1B71 SWAP1 SWAP2 SWAP1 PUSH4 0xFFFFFFFF AND JUMP JUMPDEST SWAP1 POP PUSH1 0x0 PUSH2 0x2E4D DUP4 DUP8 PUSH2 0x1B71 SWAP1 SWAP2 SWAP1 PUSH4 0xFFFFFFFF AND JUMP JUMPDEST SWAP1 POP PUSH1 0x0 PUSH20 0xFFFFFFFFFFFFFFFFFFFFFFFFFFFFFFFFFFFFFFFF AND DUP10 PUSH20 0xFFFFFFFFFFFFFFFFFFFFFFFFFFFFFFFFFFFFFFFF AND EQ PUSH2 0x2F80 JUMPI PUSH1 0x0 DUP6 PUSH1 0x0 ADD PUSH1 0x0 DUP5 DUP2 MSTORE PUSH1 0x20 ADD SWAP1 DUP2 MSTORE PUSH1 0x20 ADD PUSH1 0x0 KECCAK256 PUSH1 0x0 DUP12 PUSH20 0xFFFFFFFFFFFFFFFFFFFFFFFFFFFFFFFFFFFFFFFF AND PUSH20 0xFFFFFFFFFFFFFFFFFFFFFFFFFFFFFFFFFFFFFFFF AND DUP2 MSTORE PUSH1 0x20 ADD SWAP1 DUP2 MSTORE PUSH1 0x20 ADD PUSH1 0x0 KECCAK256 SLOAD SWAP1 POP DUP2 DUP2 LT ISZERO PUSH2 0x2F25 JUMPI DUP10 DUP2 DUP4 DUP6 PUSH1 0x40 MLOAD PUSH32 0x3DEE4C500000000000000000000000000000000000000000000000000000000 DUP2 MSTORE PUSH1 0x4 ADD PUSH2 0x2F1C SWAP5 SWAP4 SWAP3 SWAP2 SWAP1 PUSH2 0x4821 JUMP JUMPDEST PUSH1 0x40 MLOAD DUP1 SWAP2 SUB SWAP1 REVERT JUMPDEST DUP2 DUP2 SUB DUP7 PUSH1 0x0 ADD PUSH1 0x0 DUP6 DUP2 MSTORE PUSH1 0x20 ADD SWAP1 DUP2 MSTORE PUSH1 0x20 ADD PUSH1 0x0 KECCAK256 PUSH1 0x0 DUP13 PUSH20 0xFFFFFFFFFFFFFFFFFFFFFFFFFFFFFFFFFFFFFFFF AND PUSH20 0xFFFFFFFFFFFFFFFFFFFFFFFFFFFFFFFFFFFFFFFF AND DUP2 MSTORE PUSH1 0x20 ADD SWAP1 DUP2 MSTORE PUSH1 0x20 ADD PUSH1 0x0 KECCAK256 DUP2 SWAP1 SSTORE POP POP JUMPDEST PUSH1 0x0 PUSH20 0xFFFFFFFFFFFFFFFFFFFFFFFFFFFFFFFFFFFFFFFF AND DUP9 PUSH20 0xFFFFFFFFFFFFFFFFFFFFFFFFFFFFFFFFFFFFFFFF AND EQ PUSH2 0x301E JUMPI DUP1 DUP6 PUSH1 0x0 ADD PUSH1 0x0 DUP5 DUP2 MSTORE PUSH1 0x20 ADD SWAP1 DUP2 MSTORE PUSH1 0x20 ADD PUSH1 0x0 KECCAK256 PUSH1 0x0 DUP11 PUSH20 0xFFFFFFFFFFFFFFFFFFFFFFFFFFFFFFFFFFFFFFFF AND PUSH20 0xFFFFFFFFFFFFFFFFFFFFFFFFFFFFFFFFFFFFFFFF AND DUP2 MSTORE PUSH1 0x20 ADD SWAP1 DUP2 MSTORE PUSH1 0x20 ADD PUSH1 0x0 KECCAK256 PUSH1 0x0 DUP3 DUP3 SLOAD PUSH2 0x3016 SWAP2 SWAP1 PUSH2 0x4096 JUMP JUMPDEST SWAP3 POP POP DUP2 SWAP1 SSTORE POP JUMPDEST POP POP DUP1 PUSH2 0x302A SWAP1 PUSH2 0x3F5C JUMP JUMPDEST SWAP1 POP PUSH2 0x2E18 JUMP JUMPDEST POP PUSH1 0x1 DUP5 MLOAD SUB PUSH2 0x30F0 JUMPI PUSH1 0x0 PUSH2 0x3051 PUSH1 0x0 DUP7 PUSH2 0x1B71 SWAP1 SWAP2 SWAP1 PUSH4 0xFFFFFFFF AND JUMP JUMPDEST SWAP1 POP PUSH1 0x0 PUSH2 0x3069 PUSH1 0x0 DUP7 PUSH2 0x1B71 SWAP1 SWAP2 SWAP1 PUSH4 0xFFFFFFFF AND JUMP JUMPDEST SWAP1 POP DUP7 PUSH20 0xFFFFFFFFFFFFFFFFFFFFFFFFFFFFFFFFFFFFFFFF AND DUP9 PUSH20 0xFFFFFFFFFFFFFFFFFFFFFFFFFFFFFFFFFFFFFFFF AND DUP5 PUSH20 0xFFFFFFFFFFFFFFFFFFFFFFFFFFFFFFFFFFFFFFFF AND PUSH32 0xC3D58168C5AE7397731D063D5BBF3D657854427343F4C083240F7AACAA2D0F62 DUP6 DUP6 PUSH1 0x40 MLOAD PUSH2 0x30E1 SWAP3 SWAP2 SWAP1 PUSH2 0x4178 JUMP JUMPDEST PUSH1 0x40 MLOAD DUP1 SWAP2 SUB SWAP1 LOG4 POP POP PUSH2 0x316F JUMP JUMPDEST DUP5 PUSH20 0xFFFFFFFFFFFFFFFFFFFFFFFFFFFFFFFFFFFFFFFF AND DUP7 PUSH20 0xFFFFFFFFFFFFFFFFFFFFFFFFFFFFFFFFFFFFFFFF AND DUP3 PUSH20 0xFFFFFFFFFFFFFFFFFFFFFFFFFFFFFFFFFFFFFFFF AND PUSH32 0x4A39DC06D4C0DBC64B70AF90FD698A233A518AA5D07E595D983B8C0526C8F7FB DUP8 DUP8 PUSH1 0x40 MLOAD PUSH2 0x3166 SWAP3 SWAP2 SWAP1 PUSH2 0x4866 JUMP JUMPDEST PUSH1 0x40 MLOAD DUP1 SWAP2 SUB SWAP1 LOG4 JUMPDEST POP POP POP POP POP POP JUMP JUMPDEST PUSH1 0x60 DUP3 PUSH2 0x318C JUMPI PUSH2 0x3187 DUP3 PUSH2 0x3206 JUMP JUMPDEST PUSH2 0x31FE JUMP JUMPDEST PUSH1 0x0 DUP3 MLOAD EQ DUP1 ISZERO PUSH2 0x31B4 JUMPI POP PUSH1 0x0 DUP5 PUSH20 0xFFFFFFFFFFFFFFFFFFFFFFFFFFFFFFFFFFFFFFFF AND EXTCODESIZE EQ JUMPDEST ISZERO PUSH2 0x31F6 JUMPI DUP4 PUSH1 0x40 MLOAD PUSH32 0x9996B31500000000000000000000000000000000000000000000000000000000 DUP2 MSTORE PUSH1 0x4 ADD PUSH2 0x31ED SWAP2 SWAP1 PUSH2 0x3BD4 JUMP JUMPDEST PUSH1 0x40 MLOAD DUP1 SWAP2 SUB SWAP1 REVERT JUMPDEST DUP2 SWAP1 POP PUSH2 0x31FF JUMP JUMPDEST JUMPDEST SWAP4 SWAP3 POP POP POP JUMP JUMPDEST PUSH1 0x0 DUP2 MLOAD GT ISZERO PUSH2 0x3219 JUMPI DUP1 MLOAD DUP1 DUP3 PUSH1 0x20 ADD REVERT JUMPDEST PUSH1 0x40 MLOAD PUSH32 0x1425EA4200000000000000000000000000000000000000000000000000000000 DUP2 MSTORE PUSH1 0x4 ADD PUSH1 0x40 MLOAD DUP1 SWAP2 SUB SWAP1 REVERT JUMPDEST PUSH1 0x0 PUSH1 0x40 MLOAD SWAP1 POP SWAP1 JUMP JUMPDEST PUSH1 0x0 DUP1 REVERT JUMPDEST PUSH1 0x0 DUP1 REVERT JUMPDEST PUSH1 0x0 PUSH20 0xFFFFFFFFFFFFFFFFFFFFFFFFFFFFFFFFFFFFFFFF DUP3 AND SWAP1 POP SWAP2 SWAP1 POP JUMP JUMPDEST PUSH1 0x0 PUSH2 0x328A DUP3 PUSH2 0x325F JUMP JUMPDEST SWAP1 POP SWAP2 SWAP1 POP JUMP JUMPDEST PUSH2 0x329A DUP2 PUSH2 0x327F JUMP JUMPDEST DUP2 EQ PUSH2 0x32A5 JUMPI PUSH1 0x0 DUP1 REVERT JUMPDEST POP JUMP JUMPDEST PUSH1 0x0 DUP2 CALLDATALOAD SWAP1 POP PUSH2 0x32B7 DUP2 PUSH2 0x3291 JUMP JUMPDEST SWAP3 SWAP2 POP POP JUMP JUMPDEST PUSH1 0x0 DUP2 SWAP1 POP SWAP2 SWAP1 POP JUMP JUMPDEST PUSH2 0x32D0 DUP2 PUSH2 0x32BD JUMP JUMPDEST DUP2 EQ PUSH2 0x32DB JUMPI PUSH1 0x0 DUP1 REVERT JUMPDEST POP JUMP JUMPDEST PUSH1 0x0 DUP2 CALLDATALOAD SWAP1 POP PUSH2 0x32ED DUP2 PUSH2 0x32C7 JUMP JUMPDEST SWAP3 SWAP2 POP POP JUMP JUMPDEST PUSH1 0x0 DUP1 PUSH1 0x40 DUP4 DUP6 SUB SLT ISZERO PUSH2 0x330A JUMPI PUSH2 0x3309 PUSH2 0x3255 JUMP JUMPDEST JUMPDEST PUSH1 0x0 PUSH2 0x3318 DUP6 DUP3 DUP7 ADD PUSH2 0x32A8 JUMP JUMPDEST SWAP3 POP POP PUSH1 0x20 PUSH2 0x3329 DUP6 DUP3 DUP7 ADD PUSH2 0x32DE JUMP JUMPDEST SWAP2 POP POP SWAP3 POP SWAP3 SWAP1 POP JUMP JUMPDEST PUSH2 0x333C DUP2 PUSH2 0x32BD JUMP JUMPDEST DUP3 MSTORE POP POP JUMP JUMPDEST PUSH1 0x0 PUSH1 0x20 DUP3 ADD SWAP1 POP PUSH2 0x3357 PUSH1 0x0 DUP4 ADD DUP5 PUSH2 0x3333 JUMP JUMPDEST SWAP3 SWAP2 POP POP JUMP JUMPDEST PUSH1 0x0 PUSH32 0xFFFFFFFF00000000000000000000000000000000000000000000000000000000 DUP3 AND SWAP1 POP SWAP2 SWAP1 POP JUMP JUMPDEST PUSH2 0x3392 DUP2 PUSH2 0x335D JUMP JUMPDEST DUP2 EQ PUSH2 0x339D JUMPI PUSH1 0x0 DUP1 REVERT JUMPDEST POP JUMP JUMPDEST PUSH1 0x0 DUP2 CALLDATALOAD SWAP1 POP PUSH2 0x33AF DUP2 PUSH2 0x3389 JUMP JUMPDEST SWAP3 SWAP2 POP POP JUMP JUMPDEST PUSH1 0x0 PUSH1 0x20 DUP3 DUP5 SUB SLT ISZERO PUSH2 0x33CB JUMPI PUSH2 0x33CA PUSH2 0x3255 JUMP JUMPDEST JUMPDEST PUSH1 0x0 PUSH2 0x33D9 DUP5 DUP3 DUP6 ADD PUSH2 0x33A0 JUMP JUMPDEST SWAP2 POP POP SWAP3 SWAP2 POP POP JUMP JUMPDEST PUSH1 0x0 DUP2 ISZERO ISZERO SWAP1 POP SWAP2 SWAP1 POP JUMP JUMPDEST PUSH2 0x33F7 DUP2 PUSH2 0x33E2 JUMP JUMPDEST DUP3 MSTORE POP POP JUMP JUMPDEST PUSH1 0x0 PUSH1 0x20 DUP3 ADD SWAP1 POP PUSH2 0x3412 PUSH1 0x0 DUP4 ADD DUP5 PUSH2 0x33EE JUMP JUMPDEST SWAP3 SWAP2 POP POP JUMP JUMPDEST PUSH1 0x0 DUP1 REVERT JUMPDEST PUSH1 0x0 DUP1 REVERT JUMPDEST PUSH1 0x0 PUSH1 0x1F NOT PUSH1 0x1F DUP4 ADD AND SWAP1 POP SWAP2 SWAP1 POP JUMP JUMPDEST PUSH32 0x4E487B7100000000000000000000000000000000000000000000000000000000 PUSH1 0x0 MSTORE PUSH1 0x41 PUSH1 0x4 MSTORE PUSH1 0x24 PUSH1 0x0 REVERT JUMPDEST PUSH2 0x346B DUP3 PUSH2 0x3422 JUMP JUMPDEST DUP2 ADD DUP2 DUP2 LT PUSH8 0xFFFFFFFFFFFFFFFF DUP3 GT OR ISZERO PUSH2 0x348A JUMPI PUSH2 0x3489 PUSH2 0x3433 JUMP JUMPDEST JUMPDEST DUP1 PUSH1 0x40 MSTORE POP POP POP JUMP JUMPDEST PUSH1 0x0 PUSH2 0x349D PUSH2 0x324B JUMP JUMPDEST SWAP1 POP PUSH2 0x34A9 DUP3 DUP3 PUSH2 0x3462 JUMP JUMPDEST SWAP2 SWAP1 POP JUMP JUMPDEST PUSH1 0x0 PUSH8 0xFFFFFFFFFFFFFFFF DUP3 GT ISZERO PUSH2 0x34C9 JUMPI PUSH2 0x34C8 PUSH2 0x3433 JUMP JUMPDEST JUMPDEST PUSH2 0x34D2 DUP3 PUSH2 0x3422 JUMP JUMPDEST SWAP1 POP PUSH1 0x20 DUP2 ADD SWAP1 POP SWAP2 SWAP1 POP JUMP JUMPDEST DUP3 DUP2 DUP4 CALLDATACOPY PUSH1 0x0 DUP4 DUP4 ADD MSTORE POP POP POP JUMP JUMPDEST PUSH1 0x0 PUSH2 0x3501 PUSH2 0x34FC DUP5 PUSH2 0x34AE JUMP JUMPDEST PUSH2 0x3493 JUMP JUMPDEST SWAP1 POP DUP3 DUP2 MSTORE PUSH1 0x20 DUP2 ADD DUP5 DUP5 DUP5 ADD GT ISZERO PUSH2 0x351D JUMPI PUSH2 0x351C PUSH2 0x341D JUMP JUMPDEST JUMPDEST PUSH2 0x3528 DUP5 DUP3 DUP6 PUSH2 0x34DF JUMP JUMPDEST POP SWAP4 SWAP3 POP POP POP JUMP JUMPDEST PUSH1 0x0 DUP3 PUSH1 0x1F DUP4 ADD SLT PUSH2 0x3545 JUMPI PUSH2 0x3544 PUSH2 0x3418 JUMP JUMPDEST JUMPDEST DUP2 CALLDATALOAD PUSH2 0x3555 DUP5 DUP3 PUSH1 0x20 DUP7 ADD PUSH2 0x34EE JUMP JUMPDEST SWAP2 POP POP SWAP3 SWAP2 POP POP JUMP JUMPDEST PUSH1 0x0 PUSH1 0x20 DUP3 DUP5 SUB SLT ISZERO PUSH2 0x3574 JUMPI PUSH2 0x3573 PUSH2 0x3255 JUMP JUMPDEST JUMPDEST PUSH1 0x0 DUP3 ADD CALLDATALOAD PUSH8 0xFFFFFFFFFFFFFFFF DUP2 GT ISZERO PUSH2 0x3592 JUMPI PUSH2 0x3591 PUSH2 0x325A JUMP JUMPDEST JUMPDEST PUSH2 0x359E DUP5 DUP3 DUP6 ADD PUSH2 0x3530 JUMP JUMPDEST SWAP2 POP POP SWAP3 SWAP2 POP POP JUMP JUMPDEST PUSH1 0x0 PUSH8 0xFFFFFFFFFFFFFFFF DUP3 GT ISZERO PUSH2 0x35C2 JUMPI PUSH2 0x35C1 PUSH2 0x3433 JUMP JUMPDEST JUMPDEST PUSH1 0x20 DUP3 MUL SWAP1 POP PUSH1 0x20 DUP2 ADD SWAP1 POP SWAP2 SWAP1 POP JUMP JUMPDEST PUSH1 0x0 DUP1 REVERT JUMPDEST PUSH1 0x0 PUSH2 0x35EB PUSH2 0x35E6 DUP5 PUSH2 0x35A7 JUMP JUMPDEST PUSH2 0x3493 JUMP JUMPDEST SWAP1 POP DUP1 DUP4 DUP3 MSTORE PUSH1 0x20 DUP3 ADD SWAP1 POP PUSH1 0x20 DUP5 MUL DUP4 ADD DUP6 DUP2 GT ISZERO PUSH2 0x360E JUMPI PUSH2 0x360D PUSH2 0x35D3 JUMP JUMPDEST JUMPDEST DUP4 JUMPDEST DUP2 DUP2 LT ISZERO PUSH2 0x3637 JUMPI DUP1 PUSH2 0x3623 DUP9 DUP3 PUSH2 0x32A8 JUMP JUMPDEST DUP5 MSTORE PUSH1 0x20 DUP5 ADD SWAP4 POP POP PUSH1 0x20 DUP2 ADD SWAP1 POP PUSH2 0x3610 JUMP JUMPDEST POP POP POP SWAP4 SWAP3 POP POP POP JUMP JUMPDEST PUSH1 0x0 DUP3 PUSH1 0x1F DUP4 ADD SLT PUSH2 0x3656 JUMPI PUSH2 0x3655 PUSH2 0x3418 JUMP JUMPDEST JUMPDEST DUP2 CALLDATALOAD PUSH2 0x3666 DUP5 DUP3 PUSH1 0x20 DUP7 ADD PUSH2 0x35D8 JUMP JUMPDEST SWAP2 POP POP SWAP3 SWAP2 POP POP JUMP JUMPDEST PUSH1 0x0 PUSH8 0xFFFFFFFFFFFFFFFF DUP3 GT ISZERO PUSH2 0x368A JUMPI PUSH2 0x3689 PUSH2 0x3433 JUMP JUMPDEST JUMPDEST PUSH1 0x20 DUP3 MUL SWAP1 POP PUSH1 0x20 DUP2 ADD SWAP1 POP SWAP2 SWAP1 POP JUMP JUMPDEST PUSH1 0x0 PUSH2 0x36AE PUSH2 0x36A9 DUP5 PUSH2 0x366F JUMP JUMPDEST PUSH2 0x3493 JUMP JUMPDEST SWAP1 POP DUP1 DUP4 DUP3 MSTORE PUSH1 0x20 DUP3 ADD SWAP1 POP PUSH1 0x20 DUP5 MUL DUP4 ADD DUP6 DUP2 GT ISZERO PUSH2 0x36D1 JUMPI PUSH2 0x36D0 PUSH2 0x35D3 JUMP JUMPDEST JUMPDEST DUP4 JUMPDEST DUP2 DUP2 LT ISZERO PUSH2 0x36FA JUMPI DUP1 PUSH2 0x36E6 DUP9 DUP3 PUSH2 0x32DE JUMP JUMPDEST DUP5 MSTORE PUSH1 0x20 DUP5 ADD SWAP4 POP POP PUSH1 0x20 DUP2 ADD SWAP1 POP PUSH2 0x36D3 JUMP JUMPDEST POP POP POP SWAP4 SWAP3 POP POP POP JUMP JUMPDEST PUSH1 0x0 DUP3 PUSH1 0x1F DUP4 ADD SLT PUSH2 0x3719 JUMPI PUSH2 0x3718 PUSH2 0x3418 JUMP JUMPDEST JUMPDEST DUP2 CALLDATALOAD PUSH2 0x3729 DUP5 DUP3 PUSH1 0x20 DUP7 ADD PUSH2 0x369B JUMP JUMPDEST SWAP2 POP POP SWAP3 SWAP2 POP POP JUMP JUMPDEST PUSH1 0x0 DUP1 PUSH1 0x40 DUP4 DUP6 SUB SLT ISZERO PUSH2 0x3749 JUMPI PUSH2 0x3748 PUSH2 0x3255 JUMP JUMPDEST JUMPDEST PUSH1 0x0 DUP4 ADD CALLDATALOAD PUSH8 0xFFFFFFFFFFFFFFFF DUP2 GT ISZERO PUSH2 0x3767 JUMPI PUSH2 0x3766 PUSH2 0x325A JUMP JUMPDEST JUMPDEST PUSH2 0x3773 DUP6 DUP3 DUP7 ADD PUSH2 0x3641 JUMP JUMPDEST SWAP3 POP POP PUSH1 0x20 DUP4 ADD CALLDATALOAD PUSH8 0xFFFFFFFFFFFFFFFF DUP2 GT ISZERO PUSH2 0x3794 JUMPI PUSH2 0x3793 PUSH2 0x325A JUMP JUMPDEST JUMPDEST PUSH2 0x37A0 DUP6 DUP3 DUP7 ADD PUSH2 0x3704 JUMP JUMPDEST SWAP2 POP POP SWAP3 POP SWAP3 SWAP1 POP JUMP JUMPDEST PUSH1 0x0 PUSH1 0x20 DUP3 DUP5 SUB SLT ISZERO PUSH2 0x37C0 JUMPI PUSH2 0x37BF PUSH2 0x3255 JUMP JUMPDEST JUMPDEST PUSH1 0x0 PUSH2 0x37CE DUP5 DUP3 DUP6 ADD PUSH2 0x32DE JUMP JUMPDEST SWAP2 POP POP SWAP3 SWAP2 POP POP JUMP JUMPDEST PUSH1 0x0 DUP2 MLOAD SWAP1 POP SWAP2 SWAP1 POP JUMP JUMPDEST PUSH1 0x0 DUP3 DUP3 MSTORE PUSH1 0x20 DUP3 ADD SWAP1 POP SWAP3 SWAP2 POP POP JUMP JUMPDEST PUSH1 0x0 JUMPDEST DUP4 DUP2 LT ISZERO PUSH2 0x3811 JUMPI DUP1 DUP3 ADD MLOAD DUP2 DUP5 ADD MSTORE PUSH1 0x20 DUP2 ADD SWAP1 POP PUSH2 0x37F6 JUMP JUMPDEST PUSH1 0x0 DUP5 DUP5 ADD MSTORE POP POP POP POP JUMP JUMPDEST PUSH1 0x0 PUSH2 0x3828 DUP3 PUSH2 0x37D7 JUMP JUMPDEST PUSH2 0x3832 DUP2 DUP6 PUSH2 0x37E2 JUMP JUMPDEST SWAP4 POP PUSH2 0x3842 DUP2 DUP6 PUSH1 0x20 DUP7 ADD PUSH2 0x37F3 JUMP JUMPDEST PUSH2 0x384B DUP2 PUSH2 0x3422 JUMP JUMPDEST DUP5 ADD SWAP2 POP POP SWAP3 SWAP2 POP POP JUMP JUMPDEST PUSH1 0x0 PUSH1 0x20 DUP3 ADD SWAP1 POP DUP2 DUP2 SUB PUSH1 0x0 DUP4 ADD MSTORE PUSH2 0x3870 DUP2 DUP5 PUSH2 0x381D JUMP JUMPDEST SWAP1 POP SWAP3 SWAP2 POP POP JUMP JUMPDEST PUSH1 0x0 PUSH1 0x20 DUP3 DUP5 SUB SLT ISZERO PUSH2 0x388E JUMPI PUSH2 0x388D PUSH2 0x3255 JUMP JUMPDEST JUMPDEST PUSH1 0x0 PUSH2 0x389C DUP5 DUP3 DUP6 ADD PUSH2 0x32A8 JUMP JUMPDEST SWAP2 POP POP SWAP3 SWAP2 POP POP JUMP JUMPDEST PUSH1 0x0 DUP1 PUSH1 0x40 DUP4 DUP6 SUB SLT ISZERO PUSH2 0x38BC JUMPI PUSH2 0x38BB PUSH2 0x3255 JUMP JUMPDEST JUMPDEST PUSH1 0x0 PUSH2 0x38CA DUP6 DUP3 DUP7 ADD PUSH2 0x32DE JUMP JUMPDEST SWAP3 POP POP PUSH1 0x20 PUSH2 0x38DB DUP6 DUP3 DUP7 ADD PUSH2 0x32DE JUMP JUMPDEST SWAP2 POP POP SWAP3 POP SWAP3 SWAP1 POP JUMP JUMPDEST PUSH1 0x0 PUSH8 0xFFFFFFFFFFFFFFFF DUP3 GT ISZERO PUSH2 0x3900 JUMPI PUSH2 0x38FF PUSH2 0x3433 JUMP JUMPDEST JUMPDEST PUSH2 0x3909 DUP3 PUSH2 0x3422 JUMP JUMPDEST SWAP1 POP PUSH1 0x20 DUP2 ADD SWAP1 POP SWAP2 SWAP1 POP JUMP JUMPDEST PUSH1 0x0 PUSH2 0x3929 PUSH2 0x3924 DUP5 PUSH2 0x38E5 JUMP JUMPDEST PUSH2 0x3493 JUMP JUMPDEST SWAP1 POP DUP3 DUP2 MSTORE PUSH1 0x20 DUP2 ADD DUP5 DUP5 DUP5 ADD GT ISZERO PUSH2 0x3945 JUMPI PUSH2 0x3944 PUSH2 0x341D JUMP JUMPDEST JUMPDEST PUSH2 0x3950 DUP5 DUP3 DUP6 PUSH2 0x34DF JUMP JUMPDEST POP SWAP4 SWAP3 POP POP POP JUMP JUMPDEST PUSH1 0x0 DUP3 PUSH1 0x1F DUP4 ADD SLT PUSH2 0x396D JUMPI PUSH2 0x396C PUSH2 0x3418 JUMP JUMPDEST JUMPDEST DUP2 CALLDATALOAD PUSH2 0x397D DUP5 DUP3 PUSH1 0x20 DUP7 ADD PUSH2 0x3916 JUMP JUMPDEST SWAP2 POP POP SWAP3 SWAP2 POP POP JUMP JUMPDEST PUSH1 0x0 DUP1 PUSH1 0x0 DUP1 PUSH1 0x0 PUSH1 0xA0 DUP7 DUP9 SUB SLT ISZERO PUSH2 0x39A2 JUMPI PUSH2 0x39A1 PUSH2 0x3255 JUMP JUMPDEST JUMPDEST PUSH1 0x0 PUSH2 0x39B0 DUP9 DUP3 DUP10 ADD PUSH2 0x32A8 JUMP JUMPDEST SWAP6 POP POP PUSH1 0x20 PUSH2 0x39C1 DUP9 DUP3 DUP10 ADD PUSH2 0x32A8 JUMP JUMPDEST SWAP5 POP POP PUSH1 0x40 DUP7 ADD CALLDATALOAD PUSH8 0xFFFFFFFFFFFFFFFF DUP2 GT ISZERO PUSH2 0x39E2 JUMPI PUSH2 0x39E1 PUSH2 0x325A JUMP JUMPDEST JUMPDEST PUSH2 0x39EE DUP9 DUP3 DUP10 ADD PUSH2 0x3704 JUMP JUMPDEST SWAP4 POP POP PUSH1 0x60 DUP7 ADD CALLDATALOAD PUSH8 0xFFFFFFFFFFFFFFFF DUP2 GT ISZERO PUSH2 0x3A0F JUMPI PUSH2 0x3A0E PUSH2 0x325A JUMP JUMPDEST JUMPDEST PUSH2 0x3A1B DUP9 DUP3 DUP10 ADD PUSH2 0x3704 JUMP JUMPDEST SWAP3 POP POP PUSH1 0x80 DUP7 ADD CALLDATALOAD PUSH8 0xFFFFFFFFFFFFFFFF DUP2 GT ISZERO PUSH2 0x3A3C JUMPI PUSH2 0x3A3B PUSH2 0x325A JUMP JUMPDEST JUMPDEST PUSH2 0x3A48 DUP9 DUP3 DUP10 ADD PUSH2 0x3958 JUMP JUMPDEST SWAP2 POP POP SWAP3 SWAP6 POP SWAP3 SWAP6 SWAP1 SWAP4 POP JUMP JUMPDEST PUSH1 0x0 DUP2 MLOAD SWAP1 POP SWAP2 SWAP1 POP JUMP JUMPDEST PUSH1 0x0 DUP3 DUP3 MSTORE PUSH1 0x20 DUP3 ADD SWAP1 POP SWAP3 SWAP2 POP POP JUMP JUMPDEST PUSH1 0x0 DUP2 SWAP1 POP PUSH1 0x20 DUP3 ADD SWAP1 POP SWAP2 SWAP1 POP JUMP JUMPDEST PUSH2 0x3A8A DUP2 PUSH2 0x32BD JUMP JUMPDEST DUP3 MSTORE POP POP JUMP JUMPDEST PUSH1 0x0 PUSH2 0x3A9C DUP4 DUP4 PUSH2 0x3A81 JUMP JUMPDEST PUSH1 0x20 DUP4 ADD SWAP1 POP SWAP3 SWAP2 POP POP JUMP JUMPDEST PUSH1 0x0 PUSH1 0x20 DUP3 ADD SWAP1 POP SWAP2 SWAP1 POP JUMP JUMPDEST PUSH1 0x0 PUSH2 0x3AC0 DUP3 PUSH2 0x3A55 JUMP JUMPDEST PUSH2 0x3ACA DUP2 DUP6 PUSH2 0x3A60 JUMP JUMPDEST SWAP4 POP PUSH2 0x3AD5 DUP4 PUSH2 0x3A71 JUMP JUMPDEST DUP1 PUSH1 0x0 JUMPDEST DUP4 DUP2 LT ISZERO PUSH2 0x3B06 JUMPI DUP2 MLOAD PUSH2 0x3AED DUP9 DUP3 PUSH2 0x3A90 JUMP JUMPDEST SWAP8 POP PUSH2 0x3AF8 DUP4 PUSH2 0x3AA8 JUMP JUMPDEST SWAP3 POP POP PUSH1 0x1 DUP2 ADD SWAP1 POP PUSH2 0x3AD9 JUMP JUMPDEST POP DUP6 SWAP4 POP POP POP POP SWAP3 SWAP2 POP POP JUMP JUMPDEST PUSH1 0x0 PUSH1 0x20 DUP3 ADD SWAP1 POP DUP2 DUP2 SUB PUSH1 0x0 DUP4 ADD MSTORE PUSH2 0x3B2D DUP2 DUP5 PUSH2 0x3AB5 JUMP JUMPDEST SWAP1 POP SWAP3 SWAP2 POP POP JUMP JUMPDEST PUSH1 0x0 DUP1 PUSH1 0x40 DUP4 DUP6 SUB SLT ISZERO PUSH2 0x3B4C JUMPI PUSH2 0x3B4B PUSH2 0x3255 JUMP JUMPDEST JUMPDEST PUSH1 0x0 PUSH2 0x3B5A DUP6 DUP3 DUP7 ADD PUSH2 0x32A8 JUMP JUMPDEST SWAP3 POP POP PUSH1 0x20 DUP4 ADD CALLDATALOAD PUSH8 0xFFFFFFFFFFFFFFFF DUP2 GT ISZERO PUSH2 0x3B7B JUMPI PUSH2 0x3B7A PUSH2 0x325A JUMP JUMPDEST JUMPDEST PUSH2 0x3B87 DUP6 DUP3 DUP7 ADD PUSH2 0x3958 JUMP JUMPDEST SWAP2 POP POP SWAP3 POP SWAP3 SWAP1 POP JUMP JUMPDEST PUSH1 0x0 DUP2 SWAP1 POP SWAP2 SWAP1 POP JUMP JUMPDEST PUSH2 0x3BA4 DUP2 PUSH2 0x3B91 JUMP JUMPDEST DUP3 MSTORE POP POP JUMP JUMPDEST PUSH1 0x0 PUSH1 0x20 DUP3 ADD SWAP1 POP PUSH2 0x3BBF PUSH1 0x0 DUP4 ADD DUP5 PUSH2 0x3B9B JUMP JUMPDEST SWAP3 SWAP2 POP POP JUMP JUMPDEST PUSH2 0x3BCE DUP2 PUSH2 0x327F JUMP JUMPDEST DUP3 MSTORE POP POP JUMP JUMPDEST PUSH1 0x0 PUSH1 0x20 DUP3 ADD SWAP1 POP PUSH2 0x3BE9 PUSH1 0x0 DUP4 ADD DUP5 PUSH2 0x3BC5 JUMP JUMPDEST SWAP3 SWAP2 POP POP JUMP JUMPDEST PUSH1 0x0 DUP1 PUSH1 0x40 DUP4 DUP6 SUB SLT ISZERO PUSH2 0x3C06 JUMPI PUSH2 0x3C05 PUSH2 0x3255 JUMP JUMPDEST JUMPDEST PUSH1 0x0 PUSH2 0x3C14 DUP6 DUP3 DUP7 ADD PUSH2 0x32DE JUMP JUMPDEST SWAP3 POP POP PUSH1 0x20 PUSH2 0x3C25 DUP6 DUP3 DUP7 ADD PUSH2 0x32A8 JUMP JUMPDEST SWAP2 POP POP SWAP3 POP SWAP3 SWAP1 POP JUMP JUMPDEST PUSH2 0x3C38 DUP2 PUSH2 0x33E2 JUMP JUMPDEST DUP2 EQ PUSH2 0x3C43 JUMPI PUSH1 0x0 DUP1 REVERT JUMPDEST POP JUMP JUMPDEST PUSH1 0x0 DUP2 CALLDATALOAD SWAP1 POP PUSH2 0x3C55 DUP2 PUSH2 0x3C2F JUMP JUMPDEST SWAP3 SWAP2 POP POP JUMP JUMPDEST PUSH1 0x0 DUP1 PUSH1 0x40 DUP4 DUP6 SUB SLT ISZERO PUSH2 0x3C72 JUMPI PUSH2 0x3C71 PUSH2 0x3255 JUMP JUMPDEST JUMPDEST PUSH1 0x0 PUSH2 0x3C80 DUP6 DUP3 DUP7 ADD PUSH2 0x32A8 JUMP JUMPDEST SWAP3 POP POP PUSH1 0x20 PUSH2 0x3C91 DUP6 DUP3 DUP7 ADD PUSH2 0x3C46 JUMP JUMPDEST SWAP2 POP POP SWAP3 POP SWAP3 SWAP1 POP JUMP JUMPDEST PUSH1 0x0 DUP1 PUSH1 0x0 PUSH1 0x60 DUP5 DUP7 SUB SLT ISZERO PUSH2 0x3CB4 JUMPI PUSH2 0x3CB3 PUSH2 0x3255 JUMP JUMPDEST JUMPDEST PUSH1 0x0 PUSH2 0x3CC2 DUP7 DUP3 DUP8 ADD PUSH2 0x32A8 JUMP JUMPDEST SWAP4 POP POP PUSH1 0x20 DUP5 ADD CALLDATALOAD PUSH8 0xFFFFFFFFFFFFFFFF DUP2 GT ISZERO PUSH2 0x3CE3 JUMPI PUSH2 0x3CE2 PUSH2 0x325A JUMP JUMPDEST JUMPDEST PUSH2 0x3CEF DUP7 DUP3 DUP8 ADD PUSH2 0x3641 JUMP JUMPDEST SWAP3 POP POP PUSH1 0x40 DUP5 ADD CALLDATALOAD PUSH8 0xFFFFFFFFFFFFFFFF DUP2 GT ISZERO PUSH2 0x3D10 JUMPI PUSH2 0x3D0F PUSH2 0x325A JUMP JUMPDEST JUMPDEST PUSH2 0x3D1C DUP7 DUP3 DUP8 ADD PUSH2 0x3530 JUMP JUMPDEST SWAP2 POP POP SWAP3 POP SWAP3 POP SWAP3 JUMP JUMPDEST PUSH1 0x0 DUP1 PUSH1 0x40 DUP4 DUP6 SUB SLT ISZERO PUSH2 0x3D3D JUMPI PUSH2 0x3D3C PUSH2 0x3255 JUMP JUMPDEST JUMPDEST PUSH1 0x0 PUSH2 0x3D4B DUP6 DUP3 DUP7 ADD PUSH2 0x32A8 JUMP JUMPDEST SWAP3 POP POP PUSH1 0x20 PUSH2 0x3D5C DUP6 DUP3 DUP7 ADD PUSH2 0x32A8 JUMP JUMPDEST SWAP2 POP POP SWAP3 POP SWAP3 SWAP1 POP JUMP JUMPDEST PUSH1 0x0 DUP1 PUSH1 0x0 DUP1 PUSH1 0x0 PUSH1 0xA0 DUP7 DUP9 SUB SLT ISZERO PUSH2 0x3D82 JUMPI PUSH2 0x3D81 PUSH2 0x3255 JUMP JUMPDEST JUMPDEST PUSH1 0x0 PUSH2 0x3D90 DUP9 DUP3 DUP10 ADD PUSH2 0x32A8 JUMP JUMPDEST SWAP6 POP POP PUSH1 0x20 PUSH2 0x3DA1 DUP9 DUP3 DUP10 ADD PUSH2 0x32A8 JUMP JUMPDEST SWAP5 POP POP PUSH1 0x40 PUSH2 0x3DB2 DUP9 DUP3 DUP10 ADD PUSH2 0x32DE JUMP JUMPDEST SWAP4 POP POP PUSH1 0x60 PUSH2 0x3DC3 DUP9 DUP3 DUP10 ADD PUSH2 0x32DE JUMP JUMPDEST SWAP3 POP POP PUSH1 0x80 DUP7 ADD CALLDATALOAD PUSH8 0xFFFFFFFFFFFFFFFF DUP2 GT ISZERO PUSH2 0x3DE4 JUMPI PUSH2 0x3DE3 PUSH2 0x325A JUMP JUMPDEST JUMPDEST PUSH2 0x3DF0 DUP9 DUP3 DUP10 ADD PUSH2 0x3958 JUMP JUMPDEST SWAP2 POP POP SWAP3 SWAP6 POP SWAP3 SWAP6 SWAP1 SWAP4 POP JUMP JUMPDEST PUSH32 0x5468697320697320612064756D6D79206572726F720000000000000000000000 PUSH1 0x0 DUP3 ADD MSTORE POP JUMP JUMPDEST PUSH1 0x0 PUSH2 0x3E33 PUSH1 0x15 DUP4 PUSH2 0x37E2 JUMP JUMPDEST SWAP2 POP PUSH2 0x3E3E DUP3 PUSH2 0x3DFD JUMP JUMPDEST PUSH1 0x20 DUP3 ADD SWAP1 POP SWAP2 SWAP1 POP JUMP JUMPDEST PUSH1 0x0 PUSH1 0x20 DUP3 ADD SWAP1 POP DUP2 DUP2 SUB PUSH1 0x0 DUP4 ADD MSTORE PUSH2 0x3E62 DUP2 PUSH2 0x3E26 JUMP JUMPDEST SWAP1 POP SWAP2 SWAP1 POP JUMP JUMPDEST PUSH32 0x6E6F742061646D696E0000000000000000000000000000000000000000000000 PUSH1 0x0 DUP3 ADD MSTORE POP JUMP JUMPDEST PUSH1 0x0 PUSH2 0x3E9F PUSH1 0x9 DUP4 PUSH2 0x37E2 JUMP JUMPDEST SWAP2 POP PUSH2 0x3EAA DUP3 PUSH2 0x3E69 JUMP JUMPDEST PUSH1 0x20 DUP3 ADD SWAP1 POP SWAP2 SWAP1 POP JUMP JUMPDEST PUSH1 0x0 PUSH1 0x20 DUP3 ADD SWAP1 POP DUP2 DUP2 SUB PUSH1 0x0 DUP4 ADD MSTORE PUSH2 0x3ECE DUP2 PUSH2 0x3E92 JUMP JUMPDEST SWAP1 POP SWAP2 SWAP1 POP JUMP JUMPDEST PUSH32 0x4E487B7100000000000000000000000000000000000000000000000000000000 PUSH1 0x0 MSTORE PUSH1 0x32 PUSH1 0x4 MSTORE PUSH1 0x24 PUSH1 0x0 REVERT JUMPDEST PUSH1 0x0 PUSH1 0x40 DUP3 ADD SWAP1 POP PUSH2 0x3F19 PUSH1 0x0 DUP4 ADD DUP6 PUSH2 0x3BC5 JUMP JUMPDEST PUSH2 0x3F26 PUSH1 0x20 DUP4 ADD DUP5 PUSH2 0x3333 JUMP JUMPDEST SWAP4 SWAP3 POP POP POP JUMP JUMPDEST PUSH32 0x4E487B7100000000000000000000000000000000000000000000000000000000 PUSH1 0x0 MSTORE PUSH1 0x11 PUSH1 0x4 MSTORE PUSH1 0x24 PUSH1 0x0 REVERT JUMPDEST PUSH1 0x0 PUSH2 0x3F67 DUP3 PUSH2 0x32BD JUMP JUMPDEST SWAP2 POP PUSH32 0xFFFFFFFFFFFFFFFFFFFFFFFFFFFFFFFFFFFFFFFFFFFFFFFFFFFFFFFFFFFFFFFF DUP3 SUB PUSH2 0x3F99 JUMPI PUSH2 0x3F98 PUSH2 0x3F2D JUMP JUMPDEST JUMPDEST PUSH1 0x1 DUP3 ADD SWAP1 POP SWAP2 SWAP1 POP JUMP JUMPDEST PUSH32 0x4E487B7100000000000000000000000000000000000000000000000000000000 PUSH1 0x0 MSTORE PUSH1 0x22 PUSH1 0x4 MSTORE PUSH1 0x24 PUSH1 0x0 REVERT JUMPDEST PUSH1 0x0 PUSH1 0x2 DUP3 DIV SWAP1 POP PUSH1 0x1 DUP3 AND DUP1 PUSH2 0x3FEB JUMPI PUSH1 0x7F DUP3 AND SWAP2 POP JUMPDEST PUSH1 0x20 DUP3 LT DUP2 SUB PUSH2 0x3FFE JUMPI PUSH2 0x3FFD PUSH2 0x3FA4 JUMP JUMPDEST JUMPDEST POP SWAP2 SWAP1 POP JUMP JUMPDEST PUSH32 0x73656E646572206973206E6F74206F776E657220666F72207468697320746F6B PUSH1 0x0 DUP3 ADD MSTORE PUSH32 0x656E000000000000000000000000000000000000000000000000000000000000 PUSH1 0x20 DUP3 ADD MSTORE POP JUMP JUMPDEST PUSH1 0x0 PUSH2 0x4060 PUSH1 0x22 DUP4 PUSH2 0x37E2 JUMP JUMPDEST SWAP2 POP PUSH2 0x406B DUP3 PUSH2 0x4004 JUMP JUMPDEST PUSH1 0x40 DUP3 ADD SWAP1 POP SWAP2 SWAP1 POP JUMP JUMPDEST PUSH1 0x0 PUSH1 0x20 DUP3 ADD SWAP1 POP DUP2 DUP2 SUB PUSH1 0x0 DUP4 ADD MSTORE PUSH2 0x408F DUP2 PUSH2 0x4053 JUMP JUMPDEST SWAP1 POP SWAP2 SWAP1 POP JUMP JUMPDEST PUSH1 0x0 PUSH2 0x40A1 DUP3 PUSH2 0x32BD JUMP JUMPDEST SWAP2 POP PUSH2 0x40AC DUP4 PUSH2 0x32BD JUMP JUMPDEST SWAP3 POP DUP3 DUP3 ADD SWAP1 POP DUP1 DUP3 GT ISZERO PUSH2 0x40C4 JUMPI PUSH2 0x40C3 PUSH2 0x3F2D JUMP JUMPDEST JUMPDEST SWAP3 SWAP2 POP POP JUMP JUMPDEST PUSH32 0x6E657720737570706C7920776F756C6420657863656564206D61780000000000 PUSH1 0x0 DUP3 ADD MSTORE POP JUMP JUMPDEST PUSH1 0x0 PUSH2 0x4100 PUSH1 0x1B DUP4 PUSH2 0x37E2 JUMP JUMPDEST SWAP2 POP PUSH2 0x410B DUP3 PUSH2 0x40CA JUMP JUMPDEST PUSH1 0x20 DUP3 ADD SWAP1 POP SWAP2 SWAP1 POP JUMP JUMPDEST PUSH1 0x0 PUSH1 0x20 DUP3 ADD SWAP1 POP DUP2 DUP2 SUB PUSH1 0x0 DUP4 ADD MSTORE PUSH2 0x412F DUP2 PUSH2 0x40F3 JUMP JUMPDEST SWAP1 POP SWAP2 SWAP1 POP JUMP JUMPDEST PUSH1 0x0 DUP2 MLOAD SWAP1 POP PUSH2 0x4145 DUP2 PUSH2 0x3C2F JUMP JUMPDEST SWAP3 SWAP2 POP POP JUMP JUMPDEST PUSH1 0x0 PUSH1 0x20 DUP3 DUP5 SUB SLT ISZERO PUSH2 0x4161 JUMPI PUSH2 0x4160 PUSH2 0x3255 JUMP JUMPDEST JUMPDEST PUSH1 0x0 PUSH2 0x416F DUP5 DUP3 DUP6 ADD PUSH2 0x4136 JUMP JUMPDEST SWAP2 POP POP SWAP3 SWAP2 POP POP JUMP JUMPDEST PUSH1 0x0 PUSH1 0x40 DUP3 ADD SWAP1 POP PUSH2 0x418D PUSH1 0x0 DUP4 ADD DUP6 PUSH2 0x3333 JUMP JUMPDEST PUSH2 0x419A PUSH1 0x20 DUP4 ADD DUP5 PUSH2 0x3333 JUMP JUMPDEST SWAP4 SWAP3 POP POP POP JUMP JUMPDEST PUSH32 0x30206E6F7420616C6C6F77656400000000000000000000000000000000000000 PUSH1 0x0 DUP3 ADD MSTORE POP JUMP JUMPDEST PUSH1 0x0 PUSH2 0x41D7 PUSH1 0xD DUP4 PUSH2 0x37E2 JUMP JUMPDEST SWAP2 POP PUSH2 0x41E2 DUP3 PUSH2 0x41A1 JUMP JUMPDEST PUSH1 0x20 DUP3 ADD SWAP1 POP SWAP2 SWAP1 POP JUMP JUMPDEST PUSH1 0x0 PUSH1 0x20 DUP3 ADD SWAP1 POP DUP2 DUP2 SUB PUSH1 0x0 DUP4 ADD MSTORE PUSH2 0x4206 DUP2 PUSH2 0x41CA JUMP JUMPDEST SWAP1 POP SWAP2 SWAP1 POP JUMP JUMPDEST PUSH1 0x0 DUP2 SWAP1 POP SWAP2 SWAP1 POP JUMP JUMPDEST PUSH1 0x0 PUSH8 0xFFFFFFFFFFFFFFFF DUP3 AND SWAP1 POP SWAP2 SWAP1 POP JUMP JUMPDEST PUSH1 0x0 DUP2 SWAP1 POP SWAP2 SWAP1 POP JUMP JUMPDEST PUSH1 0x0 PUSH2 0x4250 PUSH2 0x424B PUSH2 0x4246 DUP5 PUSH2 0x420D JUMP JUMPDEST PUSH2 0x422B JUMP JUMPDEST PUSH2 0x4217 JUMP JUMPDEST SWAP1 POP SWAP2 SWAP1 POP JUMP JUMPDEST PUSH2 0x4260 DUP2 PUSH2 0x4235 JUMP JUMPDEST DUP3 MSTORE POP POP JUMP JUMPDEST PUSH1 0x0 PUSH1 0x20 DUP3 ADD SWAP1 POP PUSH2 0x427B PUSH1 0x0 DUP4 ADD DUP5 PUSH2 0x4257 JUMP JUMPDEST SWAP3 SWAP2 POP POP JUMP JUMPDEST PUSH32 0x6E6577206D6178696D756D20737570706C7920776F756C642065786365656420 PUSH1 0x0 DUP3 ADD MSTORE PUSH32 0x3130303000000000000000000000000000000000000000000000000000000000 PUSH1 0x20 DUP3 ADD MSTORE POP JUMP JUMPDEST PUSH1 0x0 PUSH2 0x42DD PUSH1 0x24 DUP4 PUSH2 0x37E2 JUMP JUMPDEST SWAP2 POP PUSH2 0x42E8 DUP3 PUSH2 0x4281 JUMP JUMPDEST PUSH1 0x40 DUP3 ADD SWAP1 POP SWAP2 SWAP1 POP JUMP JUMPDEST PUSH1 0x0 PUSH1 0x20 DUP3 ADD SWAP1 POP DUP2 DUP2 SUB PUSH1 0x0 DUP4 ADD MSTORE PUSH2 0x430C DUP2 PUSH2 0x42D0 JUMP JUMPDEST SWAP1 POP SWAP2 SWAP1 POP JUMP JUMPDEST PUSH32 0x617274697374206E6F742073657420666F72207468697320746F6B656E000000 PUSH1 0x0 DUP3 ADD MSTORE POP JUMP JUMPDEST PUSH1 0x0 PUSH2 0x4349 PUSH1 0x1D DUP4 PUSH2 0x37E2 JUMP JUMPDEST SWAP2 POP PUSH2 0x4354 DUP3 PUSH2 0x4313 JUMP JUMPDEST PUSH1 0x20 DUP3 ADD SWAP1 POP SWAP2 SWAP1 POP JUMP JUMPDEST PUSH1 0x0 PUSH1 0x20 DUP3 ADD SWAP1 POP DUP2 DUP2 SUB PUSH1 0x0 DUP4 ADD MSTORE PUSH2 0x4378 DUP2 PUSH2 0x433C JUMP JUMPDEST SWAP1 POP SWAP2 SWAP1 POP JUMP JUMPDEST PUSH1 0x0 DUP2 SWAP1 POP DUP2 PUSH1 0x0 MSTORE PUSH1 0x20 PUSH1 0x0 KECCAK256 SWAP1 POP SWAP2 SWAP1 POP JUMP JUMPDEST PUSH1 0x0 PUSH1 0x20 PUSH1 0x1F DUP4 ADD DIV SWAP1 POP SWAP2 SWAP1 POP JUMP JUMPDEST PUSH1 0x0 DUP3 DUP3 SHL SWAP1 POP SWAP3 SWAP2 POP POP JUMP JUMPDEST PUSH1 0x0 PUSH1 0x8 DUP4 MUL PUSH2 0x43E1 PUSH32 0xFFFFFFFFFFFFFFFFFFFFFFFFFFFFFFFFFFFFFFFFFFFFFFFFFFFFFFFFFFFFFFFF DUP3 PUSH2 0x43A4 JUMP JUMPDEST PUSH2 0x43EB DUP7 DUP4 PUSH2 0x43A4 JUMP JUMPDEST SWAP6 POP DUP1 NOT DUP5 AND SWAP4 POP DUP1 DUP7 AND DUP5 OR SWAP3 POP POP POP SWAP4 SWAP3 POP POP POP JUMP JUMPDEST PUSH1 0x0 PUSH2 0x441E PUSH2 0x4419 PUSH2 0x4414 DUP5 PUSH2 0x32BD JUMP JUMPDEST PUSH2 0x422B JUMP JUMPDEST PUSH2 0x32BD JUMP JUMPDEST SWAP1 POP SWAP2 SWAP1 POP JUMP JUMPDEST PUSH1 0x0 DUP2 SWAP1 POP SWAP2 SWAP1 POP JUMP JUMPDEST PUSH2 0x4438 DUP4 PUSH2 0x4403 JUMP JUMPDEST PUSH2 0x444C PUSH2 0x4444 DUP3 PUSH2 0x4425 JUMP JUMPDEST DUP5 DUP5 SLOAD PUSH2 0x43B1 JUMP JUMPDEST DUP3 SSTORE POP POP POP POP JUMP JUMPDEST PUSH1 0x0 SWAP1 JUMP JUMPDEST PUSH2 0x4461 PUSH2 0x4454 JUMP JUMPDEST PUSH2 0x446C DUP2 DUP5 DUP5 PUSH2 0x442F JUMP JUMPDEST POP POP POP JUMP JUMPDEST JUMPDEST DUP2 DUP2 LT ISZERO PUSH2 0x4490 JUMPI PUSH2 0x4485 PUSH1 0x0 DUP3 PUSH2 0x4459 JUMP JUMPDEST PUSH1 0x1 DUP2 ADD SWAP1 POP PUSH2 0x4472 JUMP JUMPDEST POP POP JUMP JUMPDEST PUSH1 0x1F DUP3 GT ISZERO PUSH2 0x44D5 JUMPI PUSH2 0x44A6 DUP2 PUSH2 0x437F JUMP JUMPDEST PUSH2 0x44AF DUP5 PUSH2 0x4394 JUMP JUMPDEST DUP2 ADD PUSH1 0x20 DUP6 LT ISZERO PUSH2 0x44BE JUMPI DUP2 SWAP1 POP JUMPDEST PUSH2 0x44D2 PUSH2 0x44CA DUP6 PUSH2 0x4394 JUMP JUMPDEST DUP4 ADD DUP3 PUSH2 0x4471 JUMP JUMPDEST POP POP JUMPDEST POP POP POP JUMP JUMPDEST PUSH1 0x0 DUP3 DUP3 SHR SWAP1 POP SWAP3 SWAP2 POP POP JUMP JUMPDEST PUSH1 0x0 PUSH2 0x44F8 PUSH1 0x0 NOT DUP5 PUSH1 0x8 MUL PUSH2 0x44DA JUMP JUMPDEST NOT DUP1 DUP4 AND SWAP2 POP POP SWAP3 SWAP2 POP POP JUMP JUMPDEST PUSH1 0x0 PUSH2 0x4511 DUP4 DUP4 PUSH2 0x44E7 JUMP JUMPDEST SWAP2 POP DUP3 PUSH1 0x2 MUL DUP3 OR SWAP1 POP SWAP3 SWAP2 POP POP JUMP JUMPDEST PUSH2 0x452A DUP3 PUSH2 0x37D7 JUMP JUMPDEST PUSH8 0xFFFFFFFFFFFFFFFF DUP2 GT ISZERO PUSH2 0x4543 JUMPI PUSH2 0x4542 PUSH2 0x3433 JUMP JUMPDEST JUMPDEST PUSH2 0x454D DUP3 SLOAD PUSH2 0x3FD3 JUMP JUMPDEST PUSH2 0x4558 DUP3 DUP3 DUP6 PUSH2 0x4494 JUMP JUMPDEST PUSH1 0x0 PUSH1 0x20 SWAP1 POP PUSH1 0x1F DUP4 GT PUSH1 0x1 DUP2 EQ PUSH2 0x458B JUMPI PUSH1 0x0 DUP5 ISZERO PUSH2 0x4579 JUMPI DUP3 DUP8 ADD MLOAD SWAP1 POP JUMPDEST PUSH2 0x4583 DUP6 DUP3 PUSH2 0x4505 JUMP JUMPDEST DUP7 SSTORE POP PUSH2 0x45EB JUMP JUMPDEST PUSH1 0x1F NOT DUP5 AND PUSH2 0x4599 DUP7 PUSH2 0x437F JUMP JUMPDEST PUSH1 0x0 JUMPDEST DUP3 DUP2 LT ISZERO PUSH2 0x45C1 JUMPI DUP5 DUP10 ADD MLOAD DUP3 SSTORE PUSH1 0x1 DUP3 ADD SWAP2 POP PUSH1 0x20 DUP6 ADD SWAP5 POP PUSH1 0x20 DUP2 ADD SWAP1 POP PUSH2 0x459C JUMP JUMPDEST DUP7 DUP4 LT ISZERO PUSH2 0x45DE JUMPI DUP5 DUP10 ADD MLOAD PUSH2 0x45DA PUSH1 0x1F DUP10 AND DUP3 PUSH2 0x44E7 JUMP JUMPDEST DUP4 SSTORE POP JUMPDEST PUSH1 0x1 PUSH1 0x2 DUP9 MUL ADD DUP9 SSTORE POP POP POP JUMPDEST POP POP POP POP POP POP JUMP JUMPDEST PUSH1 0x0 PUSH1 0x40 DUP3 ADD SWAP1 POP PUSH2 0x4608 PUSH1 0x0 DUP4 ADD DUP6 PUSH2 0x3BC5 JUMP JUMPDEST PUSH2 0x4615 PUSH1 0x20 DUP4 ADD DUP5 PUSH2 0x3BC5 JUMP JUMPDEST SWAP4 SWAP3 POP POP POP JUMP JUMPDEST PUSH2 0x4625 DUP2 PUSH2 0x3B91 JUMP JUMPDEST DUP2 EQ PUSH2 0x4630 JUMPI PUSH1 0x0 DUP1 REVERT JUMPDEST POP JUMP JUMPDEST PUSH1 0x0 DUP2 MLOAD SWAP1 POP PUSH2 0x4642 DUP2 PUSH2 0x461C JUMP JUMPDEST SWAP3 SWAP2 POP POP JUMP JUMPDEST PUSH1 0x0 PUSH1 0x20 DUP3 DUP5 SUB SLT ISZERO PUSH2 0x465E JUMPI PUSH2 0x465D PUSH2 0x3255 JUMP JUMPDEST JUMPDEST PUSH1 0x0 PUSH2 0x466C DUP5 DUP3 DUP6 ADD PUSH2 0x4633 JUMP JUMPDEST SWAP2 POP POP SWAP3 SWAP2 POP POP JUMP JUMPDEST PUSH1 0x0 DUP2 MLOAD SWAP1 POP SWAP2 SWAP1 POP JUMP JUMPDEST PUSH1 0x0 DUP3 DUP3 MSTORE PUSH1 0x20 DUP3 ADD SWAP1 POP SWAP3 SWAP2 POP POP JUMP JUMPDEST PUSH1 0x0 PUSH2 0x469C DUP3 PUSH2 0x4675 JUMP JUMPDEST PUSH2 0x46A6 DUP2 DUP6 PUSH2 0x4680 JUMP JUMPDEST SWAP4 POP PUSH2 0x46B6 DUP2 DUP6 PUSH1 0x20 DUP7 ADD PUSH2 0x37F3 JUMP JUMPDEST PUSH2 0x46BF DUP2 PUSH2 0x3422 JUMP JUMPDEST DUP5 ADD SWAP2 POP POP SWAP3 SWAP2 POP POP JUMP JUMPDEST PUSH1 0x0 PUSH1 0xA0 DUP3 ADD SWAP1 POP PUSH2 0x46DF PUSH1 0x0 DUP4 ADD DUP9 PUSH2 0x3BC5 JUMP JUMPDEST PUSH2 0x46EC PUSH1 0x20 DUP4 ADD DUP8 PUSH2 0x3BC5 JUMP JUMPDEST PUSH2 0x46F9 PUSH1 0x40 DUP4 ADD DUP7 PUSH2 0x3333 JUMP JUMPDEST PUSH2 0x4706 PUSH1 0x60 DUP4 ADD DUP6 PUSH2 0x3333 JUMP JUMPDEST DUP2 DUP2 SUB PUSH1 0x80 DUP4 ADD MSTORE PUSH2 0x4718 DUP2 DUP5 PUSH2 0x4691 JUMP JUMPDEST SWAP1 POP SWAP7 SWAP6 POP POP POP POP POP POP JUMP JUMPDEST PUSH1 0x0 DUP2 MLOAD SWAP1 POP PUSH2 0x4733 DUP2 PUSH2 0x3389 JUMP JUMPDEST SWAP3 SWAP2 POP POP JUMP JUMPDEST PUSH1 0x0 PUSH1 0x20 DUP3 DUP5 SUB SLT ISZERO PUSH2 0x474F JUMPI PUSH2 0x474E PUSH2 0x3255 JUMP JUMPDEST JUMPDEST PUSH1 0x0 PUSH2 0x475D DUP5 DUP3 DUP6 ADD PUSH2 0x4724 JUMP JUMPDEST SWAP2 POP POP SWAP3 SWAP2 POP POP JUMP JUMPDEST PUSH1 0x0 PUSH1 0xA0 DUP3 ADD SWAP1 POP PUSH2 0x477B PUSH1 0x0 DUP4 ADD DUP9 PUSH2 0x3BC5 JUMP JUMPDEST PUSH2 0x4788 PUSH1 0x20 DUP4 ADD DUP8 PUSH2 0x3BC5 JUMP JUMPDEST DUP2 DUP2 SUB PUSH1 0x40 DUP4 ADD MSTORE PUSH2 0x479A DUP2 DUP7 PUSH2 0x3AB5 JUMP JUMPDEST SWAP1 POP DUP2 DUP2 SUB PUSH1 0x60 DUP4 ADD MSTORE PUSH2 0x47AE DUP2 DUP6 PUSH2 0x3AB5 JUMP JUMPDEST SWAP1 POP DUP2 DUP2 SUB PUSH1 0x80 DUP4 ADD MSTORE PUSH2 0x47C2 DUP2 DUP5 PUSH2 0x4691 JUMP JUMPDEST SWAP1 POP SWAP7 SWAP6 POP POP POP POP POP POP JUMP JUMPDEST PUSH1 0x0 DUP2 SWAP1 POP SWAP3 SWAP2 POP POP JUMP JUMPDEST PUSH1 0x0 PUSH2 0x47E4 DUP3 PUSH2 0x4675 JUMP JUMPDEST PUSH2 0x47EE DUP2 DUP6 PUSH2 0x47CE JUMP JUMPDEST SWAP4 POP PUSH2 0x47FE DUP2 DUP6 PUSH1 0x20 DUP7 ADD PUSH2 0x37F3 JUMP JUMPDEST DUP1 DUP5 ADD SWAP2 POP POP SWAP3 SWAP2 POP POP JUMP JUMPDEST PUSH1 0x0 PUSH2 0x4816 DUP3 DUP5 PUSH2 0x47D9 JUMP JUMPDEST SWAP2 POP DUP2 SWAP1 POP SWAP3 SWAP2 POP POP JUMP JUMPDEST PUSH1 0x0 PUSH1 0x80 DUP3 ADD SWAP1 POP PUSH2 0x4836 PUSH1 0x0 DUP4 ADD DUP8 PUSH2 0x3BC5 JUMP JUMPDEST PUSH2 0x4843 PUSH1 0x20 DUP4 ADD DUP7 PUSH2 0x3333 JUMP JUMPDEST PUSH2 0x4850 PUSH1 0x40 DUP4 ADD DUP6 PUSH2 0x3333 JUMP JUMPDEST PUSH2 0x485D PUSH1 0x60 DUP4 ADD DUP5 PUSH2 0x3333 JUMP JUMPDEST SWAP6 SWAP5 POP POP POP POP POP JUMP JUMPDEST PUSH1 0x0 PUSH1 0x40 DUP3 ADD SWAP1 POP DUP2 DUP2 SUB PUSH1 0x0 DUP4 ADD MSTORE PUSH2 0x4880 DUP2 DUP6 PUSH2 0x3AB5 JUMP JUMPDEST SWAP1 POP DUP2 DUP2 SUB PUSH1 0x20 DUP4 ADD MSTORE PUSH2 0x4894 DUP2 DUP5 PUSH2 0x3AB5 JUMP JUMPDEST SWAP1 POP SWAP4 SWAP3 POP POP POP JUMP INVALID LOG2 PUSH5 0x6970667358 0x22 SLT KECCAK256 EXTCODESIZE PC 0xCD 0xC 0xC 0x28 ADDRESS DUP16 0xD9 SWAP2 0xD3 DUP3 PUSH13 0xABEED5C38182E9FB2B173EDF2E ADD SWAP8 0xB3 SHR RETURN COINBASE PUSH5 0x736F6C6343 STOP ADDMOD EQ STOP CALLER "},"gasEstimates":{"creation":{"codeDepositCost":"3728600","executionCost":"infinite","totalCost":"infinite"},"external":{"UPGRADE_INTERFACE_VERSION()":"infinite","addAdmin(address)":"infinite","adminBurn(address,uint256)":"infinite","adminBurnBatch(address[],uint256[])":"infinite","adminMint(uint256,uint256)":"infinite","admins(address)":"2890","artistAddresses(uint256)":"2951","balanceOf(address,uint256)":"infinite","balanceOfBatch(address[],uint256[])":"infinite","exists(uint256)":"3000","increaseTokenSupplyLimit(uint256,uint256)":"infinite","init(address,address[],string)":"infinite","isAdmin(address)":"2991","isApprovedForAll(address,address)":"infinite","mint(uint256,uint256)":"infinite","owner()":"2621","proxiableUUID()":"infinite","removeAdmin(address)":"infinite","renounceOwnership()":"infinite","safeBatchTransferFrom(address,address,uint256[],uint256[],bytes)":"infinite","safeTransferFrom(address,address,uint256,uint256,bytes)":"infinite","setApprovalForAll(address,bool)":"infinite","setArtistAddress(uint256,address)":"27305","setURI(string)":"infinite","supportsInterface(bytes4)":"772","tokenSupplyLimits(uint256)":"infinite","totalSupply()":"2537","totalSupply(uint256)":"infinite","transferOwnership(address)":"infinite","upgradeToAndCall(address,bytes)":"infinite","uri(uint256)":"infinite"}},"methodIdentifiers":{"UPGRADE_INTERFACE_VERSION()":"ad3cb1cc","addAdmin(address)":"70480275","adminBurn(address,uint256)":"06dd0419","adminBurnBatch(address[],uint256[])":"077d9234","adminMint(uint256,uint256)":"d00e40ce","admins(address)":"429b62e5","artistAddresses(uint256)":"831ffd05","balanceOf(address,uint256)":"00fdd58e","balanceOfBatch(address[],uint256[])":"4e1273f4","exists(uint256)":"4f558e79","increaseTokenSupplyLimit(uint256,uint256)":"c36497e5","init(address,address[],string)":"bb625509","isAdmin(address)":"24d7806c","isApprovedForAll(address,address)":"e985e9c5","mint(uint256,uint256)":"1b2ef1ca","owner()":"8da5cb5b","proxiableUUID()":"52d1902d","removeAdmin(address)":"1785f53c","renounceOwnership()":"715018a6","safeBatchTransferFrom(address,address,uint256[],uint256[],bytes)":"2eb2c2d6","safeTransferFrom(address,address,uint256,uint256,bytes)":"f242432a","setApprovalForAll(address,bool)":"a22cb465","setArtistAddress(uint256,address)":"9eca4b7b","setURI(string)":"02fe5305","supportsInterface(bytes4)":"01ffc9a7","tokenSupplyLimits(uint256)":"fbe0a892","totalSupply()":"18160ddd","totalSupply(uint256)":"bd85b039","transferOwnership(address)":"f2fde38b","upgradeToAndCall(address,bytes)":"4f1ef286","uri(uint256)":"0e89341c"}},"storageLayout":{"storage":[{"astId":4987,"contract":"contracts/HoldrArtistsERC1155UpgradeTest.sol:HoldrArtistsERC1155UpgradeTest","label":"admins","offset":0,"slot":"0","type":"t_mapping(t_address,t_bool)"},{"astId":4991,"contract":"contracts/HoldrArtistsERC1155UpgradeTest.sol:HoldrArtistsERC1155UpgradeTest","label":"artistAddresses","offset":0,"slot":"1","type":"t_mapping(t_uint256,t_address)"},{"astId":4995,"contract":"contracts/HoldrArtistsERC1155UpgradeTest.sol:HoldrArtistsERC1155UpgradeTest","label":"tokenSupplyLimits","offset":0,"slot":"2","type":"t_mapping(t_uint256,t_uint256)"}],"types":{"t_address":{"encoding":"inplace","label":"address","numberOfBytes":"20"},"t_bool":{"encoding":"inplace","label":"bool","numberOfBytes":"1"},"t_mapping(t_address,t_bool)":{"encoding":"mapping","key":"t_address","label":"mapping(address => bool)","numberOfBytes":"32","value":"t_bool"},"t_mapping(t_uint256,t_address)":{"encoding":"mapping","key":"t_uint256","label":"mapping(uint256 => address)","numberOfBytes":"32","value":"t_address"},"t_mapping(t_uint256,t_uint256)":{"encoding":"mapping","key":"t_uint256","label":"mapping(uint256 => uint256)","numberOfBytes":"32","value":"t_uint256"},"t_uint256":{"encoding":"inplace","label":"uint256","numberOfBytes":"32"}}},"userdoc":{"kind":"user","methods":{},"version":1}}}}